{
	"3장_가시성 지정자와 함수/ex3_20.sol": {
		"Ex3_20": {
			"abi": [
				{
					"inputs": [],
					"name": "funExt",
					"outputs": [
						{
							"internalType": "uint256",
							"name": "",
							"type": "uint256"
						}
					],
					"stateMutability": "pure",
					"type": "function"
				},
				{
					"inputs": [],
					"name": "outPutExt",
					"outputs": [
						{
							"internalType": "uint256",
							"name": "",
							"type": "uint256"
						}
					],
					"stateMutability": "view",
					"type": "function"
				}
			],
			"devdoc": {
				"kind": "dev",
				"methods": {},
				"version": 1
			},
			"evm": {
				"assembly": "    /* \"3\\xec\\x9e\\xa5_\\xea\\xb0\\x80\\xec\\x8b\\x9c\\xec\\x84\\xb1 \\xec\\xa7\\x80\\xec\\xa0\\x95\\xec\\x9e\\x90\\xec\\x99\\x80 \\xed\\x95\\xa8\\xec\\x88\\x98/ex3_20.sol\":203:391  contract Ex3_20{... */\n  mstore(0x40, 0x80)\n  callvalue\n  dup1\n  iszero\n  tag_1\n  jumpi\n  0x00\n  dup1\n  revert\ntag_1:\n  pop\n  dataSize(sub_0)\n  dup1\n  dataOffset(sub_0)\n  0x00\n  codecopy\n  0x00\n  return\nstop\n\nsub_0: assembly {\n        /* \"3\\xec\\x9e\\xa5_\\xea\\xb0\\x80\\xec\\x8b\\x9c\\xec\\x84\\xb1 \\xec\\xa7\\x80\\xec\\xa0\\x95\\xec\\x9e\\x90\\xec\\x99\\x80 \\xed\\x95\\xa8\\xec\\x88\\x98/ex3_20.sol\":203:391  contract Ex3_20{... */\n      mstore(0x40, 0x80)\n      callvalue\n      dup1\n      iszero\n      tag_1\n      jumpi\n      0x00\n      dup1\n      revert\n    tag_1:\n      pop\n      jumpi(tag_2, lt(calldatasize, 0x04))\n      shr(0xe0, calldataload(0x00))\n      dup1\n      0x8b01e535\n      eq\n      tag_3\n      jumpi\n      dup1\n      0xbfc3ef44\n      eq\n      tag_4\n      jumpi\n    tag_2:\n      0x00\n      dup1\n      revert\n        /* \"3\\xec\\x9e\\xa5_\\xea\\xb0\\x80\\xec\\x8b\\x9c\\xec\\x84\\xb1 \\xec\\xa7\\x80\\xec\\xa0\\x95\\xec\\x9e\\x90\\xec\\x99\\x80 \\xed\\x95\\xa8\\xec\\x88\\x98/ex3_20.sol\":303:388  function outPutExt() public view returns(uint){... */\n    tag_3:\n      tag_5\n      tag_6\n      jump\t// in\n    tag_5:\n      mload(0x40)\n      tag_7\n      swap2\n      swap1\n      tag_8\n      jump\t// in\n    tag_7:\n      mload(0x40)\n      dup1\n      swap2\n      sub\n      swap1\n      return\n        /* \"3\\xec\\x9e\\xa5_\\xea\\xb0\\x80\\xec\\x8b\\x9c\\xec\\x84\\xb1 \\xec\\xa7\\x80\\xec\\xa0\\x95\\xec\\x9e\\x90\\xec\\x99\\x80 \\xed\\x95\\xa8\\xec\\x88\\x98/ex3_20.sol\":225:297  function funExt() external pure returns(uint){... */\n    tag_4:\n      tag_9\n      tag_10\n      jump\t// in\n    tag_9:\n      mload(0x40)\n      tag_11\n      swap2\n      swap1\n      tag_8\n      jump\t// in\n    tag_11:\n      mload(0x40)\n      dup1\n      swap2\n      sub\n      swap1\n      return\n        /* \"3\\xec\\x9e\\xa5_\\xea\\xb0\\x80\\xec\\x8b\\x9c\\xec\\x84\\xb1 \\xec\\xa7\\x80\\xec\\xa0\\x95\\xec\\x9e\\x90\\xec\\x99\\x80 \\xed\\x95\\xa8\\xec\\x88\\x98/ex3_20.sol\":303:388  function outPutExt() public view returns(uint){... */\n    tag_6:\n        /* \"3\\xec\\x9e\\xa5_\\xea\\xb0\\x80\\xec\\x8b\\x9c\\xec\\x84\\xb1 \\xec\\xa7\\x80\\xec\\xa0\\x95\\xec\\x9e\\x90\\xec\\x99\\x80 \\xed\\x95\\xa8\\xec\\x88\\x98/ex3_20.sol\":344:348  uint */\n      0x00\n        /* \"3\\xec\\x9e\\xa5_\\xea\\xb0\\x80\\xec\\x8b\\x9c\\xec\\x84\\xb1 \\xec\\xa7\\x80\\xec\\xa0\\x95\\xec\\x9e\\x90\\xec\\x99\\x80 \\xed\\x95\\xa8\\xec\\x88\\x98/ex3_20.sol\":367:371  this */\n      address\n        /* \"3\\xec\\x9e\\xa5_\\xea\\xb0\\x80\\xec\\x8b\\x9c\\xec\\x84\\xb1 \\xec\\xa7\\x80\\xec\\xa0\\x95\\xec\\x9e\\x90\\xec\\x99\\x80 \\xed\\x95\\xa8\\xec\\x88\\x98/ex3_20.sol\":367:378  this.funExt */\n      0xffffffffffffffffffffffffffffffffffffffff\n      and\n      0xbfc3ef44\n        /* \"3\\xec\\x9e\\xa5_\\xea\\xb0\\x80\\xec\\x8b\\x9c\\xec\\x84\\xb1 \\xec\\xa7\\x80\\xec\\xa0\\x95\\xec\\x9e\\x90\\xec\\x99\\x80 \\xed\\x95\\xa8\\xec\\x88\\x98/ex3_20.sol\":367:380  this.funExt() */\n      mload(0x40)\n      dup2\n      0xffffffff\n      and\n      0xe0\n      shl\n      dup2\n      mstore\n      0x04\n      add\n      0x20\n      mload(0x40)\n      dup1\n      dup4\n      sub\n      dup2\n      dup7\n      gas\n      staticcall\n      iszero\n      dup1\n      iszero\n      tag_14\n      jumpi\n      returndatasize\n      0x00\n      dup1\n      returndatacopy\n      revert(0x00, returndatasize)\n    tag_14:\n      pop\n      pop\n      pop\n      pop\n      mload(0x40)\n      returndatasize\n      not(0x1f)\n      0x1f\n      dup3\n      add\n      and\n      dup3\n      add\n      dup1\n      0x40\n      mstore\n      pop\n      dup2\n      add\n      swap1\n      tag_15\n      swap2\n      swap1\n      tag_16\n      jump\t// in\n    tag_15:\n        /* \"3\\xec\\x9e\\xa5_\\xea\\xb0\\x80\\xec\\x8b\\x9c\\xec\\x84\\xb1 \\xec\\xa7\\x80\\xec\\xa0\\x95\\xec\\x9e\\x90\\xec\\x99\\x80 \\xed\\x95\\xa8\\xec\\x88\\x98/ex3_20.sol\":360:380  return this.funExt() */\n      swap1\n      pop\n        /* \"3\\xec\\x9e\\xa5_\\xea\\xb0\\x80\\xec\\x8b\\x9c\\xec\\x84\\xb1 \\xec\\xa7\\x80\\xec\\xa0\\x95\\xec\\x9e\\x90\\xec\\x99\\x80 \\xed\\x95\\xa8\\xec\\x88\\x98/ex3_20.sol\":303:388  function outPutExt() public view returns(uint){... */\n      swap1\n      jump\t// out\n        /* \"3\\xec\\x9e\\xa5_\\xea\\xb0\\x80\\xec\\x8b\\x9c\\xec\\x84\\xb1 \\xec\\xa7\\x80\\xec\\xa0\\x95\\xec\\x9e\\x90\\xec\\x99\\x80 \\xed\\x95\\xa8\\xec\\x88\\x98/ex3_20.sol\":225:297  function funExt() external pure returns(uint){... */\n    tag_10:\n        /* \"3\\xec\\x9e\\xa5_\\xea\\xb0\\x80\\xec\\x8b\\x9c\\xec\\x84\\xb1 \\xec\\xa7\\x80\\xec\\xa0\\x95\\xec\\x9e\\x90\\xec\\x99\\x80 \\xed\\x95\\xa8\\xec\\x88\\x98/ex3_20.sol\":265:269  uint */\n      0x00\n        /* \"3\\xec\\x9e\\xa5_\\xea\\xb0\\x80\\xec\\x8b\\x9c\\xec\\x84\\xb1 \\xec\\xa7\\x80\\xec\\xa0\\x95\\xec\\x9e\\x90\\xec\\x99\\x80 \\xed\\x95\\xa8\\xec\\x88\\x98/ex3_20.sol\":288:289  2 */\n      0x02\n        /* \"3\\xec\\x9e\\xa5_\\xea\\xb0\\x80\\xec\\x8b\\x9c\\xec\\x84\\xb1 \\xec\\xa7\\x80\\xec\\xa0\\x95\\xec\\x9e\\x90\\xec\\x99\\x80 \\xed\\x95\\xa8\\xec\\x88\\x98/ex3_20.sol\":281:289  return 2 */\n      swap1\n      pop\n        /* \"3\\xec\\x9e\\xa5_\\xea\\xb0\\x80\\xec\\x8b\\x9c\\xec\\x84\\xb1 \\xec\\xa7\\x80\\xec\\xa0\\x95\\xec\\x9e\\x90\\xec\\x99\\x80 \\xed\\x95\\xa8\\xec\\x88\\x98/ex3_20.sol\":225:297  function funExt() external pure returns(uint){... */\n      swap1\n      jump\t// out\n        /* \"#utility.yul\":7:84   */\n    tag_18:\n        /* \"#utility.yul\":44:51   */\n      0x00\n        /* \"#utility.yul\":73:78   */\n      dup2\n        /* \"#utility.yul\":62:78   */\n      swap1\n      pop\n        /* \"#utility.yul\":7:84   */\n      swap2\n      swap1\n      pop\n      jump\t// out\n        /* \"#utility.yul\":90:208   */\n    tag_19:\n        /* \"#utility.yul\":177:201   */\n      tag_28\n        /* \"#utility.yul\":195:200   */\n      dup2\n        /* \"#utility.yul\":177:201   */\n      tag_18\n      jump\t// in\n    tag_28:\n        /* \"#utility.yul\":172:175   */\n      dup3\n        /* \"#utility.yul\":165:202   */\n      mstore\n        /* \"#utility.yul\":90:208   */\n      pop\n      pop\n      jump\t// out\n        /* \"#utility.yul\":214:436   */\n    tag_8:\n        /* \"#utility.yul\":307:311   */\n      0x00\n        /* \"#utility.yul\":345:347   */\n      0x20\n        /* \"#utility.yul\":334:343   */\n      dup3\n        /* \"#utility.yul\":330:348   */\n      add\n        /* \"#utility.yul\":322:348   */\n      swap1\n      pop\n        /* \"#utility.yul\":358:429   */\n      tag_30\n        /* \"#utility.yul\":426:427   */\n      0x00\n        /* \"#utility.yul\":415:424   */\n      dup4\n        /* \"#utility.yul\":411:428   */\n      add\n        /* \"#utility.yul\":402:408   */\n      dup5\n        /* \"#utility.yul\":358:429   */\n      tag_19\n      jump\t// in\n    tag_30:\n        /* \"#utility.yul\":214:436   */\n      swap3\n      swap2\n      pop\n      pop\n      jump\t// out\n        /* \"#utility.yul\":523:640   */\n    tag_21:\n        /* \"#utility.yul\":632:633   */\n      0x00\n        /* \"#utility.yul\":629:630   */\n      dup1\n        /* \"#utility.yul\":622:634   */\n      revert\n        /* \"#utility.yul\":769:891   */\n    tag_23:\n        /* \"#utility.yul\":842:866   */\n      tag_35\n        /* \"#utility.yul\":860:865   */\n      dup2\n        /* \"#utility.yul\":842:866   */\n      tag_18\n      jump\t// in\n    tag_35:\n        /* \"#utility.yul\":835:840   */\n      dup2\n        /* \"#utility.yul\":832:867   */\n      eq\n        /* \"#utility.yul\":822:885   */\n      tag_36\n      jumpi\n        /* \"#utility.yul\":881:882   */\n      0x00\n        /* \"#utility.yul\":878:879   */\n      dup1\n        /* \"#utility.yul\":871:883   */\n      revert\n        /* \"#utility.yul\":822:885   */\n    tag_36:\n        /* \"#utility.yul\":769:891   */\n      pop\n      jump\t// out\n        /* \"#utility.yul\":897:1040   */\n    tag_24:\n        /* \"#utility.yul\":954:959   */\n      0x00\n        /* \"#utility.yul\":985:991   */\n      dup2\n        /* \"#utility.yul\":979:992   */\n      mload\n        /* \"#utility.yul\":970:992   */\n      swap1\n      pop\n        /* \"#utility.yul\":1001:1034   */\n      tag_38\n        /* \"#utility.yul\":1028:1033   */\n      dup2\n        /* \"#utility.yul\":1001:1034   */\n      tag_23\n      jump\t// in\n    tag_38:\n        /* \"#utility.yul\":897:1040   */\n      swap3\n      swap2\n      pop\n      pop\n      jump\t// out\n        /* \"#utility.yul\":1046:1397   */\n    tag_16:\n        /* \"#utility.yul\":1116:1122   */\n      0x00\n        /* \"#utility.yul\":1165:1167   */\n      0x20\n        /* \"#utility.yul\":1153:1162   */\n      dup3\n        /* \"#utility.yul\":1144:1151   */\n      dup5\n        /* \"#utility.yul\":1140:1163   */\n      sub\n        /* \"#utility.yul\":1136:1168   */\n      slt\n        /* \"#utility.yul\":1133:1252   */\n      iszero\n      tag_40\n      jumpi\n        /* \"#utility.yul\":1171:1250   */\n      tag_41\n      tag_21\n      jump\t// in\n    tag_41:\n        /* \"#utility.yul\":1133:1252   */\n    tag_40:\n        /* \"#utility.yul\":1291:1292   */\n      0x00\n        /* \"#utility.yul\":1316:1380   */\n      tag_42\n        /* \"#utility.yul\":1372:1379   */\n      dup5\n        /* \"#utility.yul\":1363:1369   */\n      dup3\n        /* \"#utility.yul\":1352:1361   */\n      dup6\n        /* \"#utility.yul\":1348:1370   */\n      add\n        /* \"#utility.yul\":1316:1380   */\n      tag_24\n      jump\t// in\n    tag_42:\n        /* \"#utility.yul\":1306:1380   */\n      swap2\n      pop\n        /* \"#utility.yul\":1262:1390   */\n      pop\n        /* \"#utility.yul\":1046:1397   */\n      swap3\n      swap2\n      pop\n      pop\n      jump\t// out\n\n    auxdata: 0xa264697066735822122038fd5ff249ed012f910f6d61aba5e63442e88f249cc8624bf83ffa2bdaed987164736f6c63430008180033\n}\n",
				"bytecode": {
					"linkReferences": {},
					"object": "608060405234801561000f575f80fd5b506101af8061001d5f395ff3fe608060405234801561000f575f80fd5b5060043610610034575f3560e01c80638b01e53514610038578063bfc3ef4414610056575b5f80fd5b610040610074565b60405161004d9190610107565b60405180910390f35b61005e6100e7565b60405161006b9190610107565b60405180910390f35b5f3073ffffffffffffffffffffffffffffffffffffffff1663bfc3ef446040518163ffffffff1660e01b8152600401602060405180830381865afa1580156100be573d5f803e3d5ffd5b505050506040513d601f19601f820116820180604052508101906100e2919061014e565b905090565b5f6002905090565b5f819050919050565b610101816100ef565b82525050565b5f60208201905061011a5f8301846100f8565b92915050565b5f80fd5b61012d816100ef565b8114610137575f80fd5b50565b5f8151905061014881610124565b92915050565b5f6020828403121561016357610162610120565b5b5f6101708482850161013a565b9150509291505056fea264697066735822122038fd5ff249ed012f910f6d61aba5e63442e88f249cc8624bf83ffa2bdaed987164736f6c63430008180033",
					"opcodes": "PUSH1 0x80 PUSH1 0x40 MSTORE CALLVALUE DUP1 ISZERO PUSH2 0xF JUMPI PUSH0 DUP1 REVERT JUMPDEST POP PUSH2 0x1AF DUP1 PUSH2 0x1D PUSH0 CODECOPY PUSH0 RETURN INVALID PUSH1 0x80 PUSH1 0x40 MSTORE CALLVALUE DUP1 ISZERO PUSH2 0xF JUMPI PUSH0 DUP1 REVERT JUMPDEST POP PUSH1 0x4 CALLDATASIZE LT PUSH2 0x34 JUMPI PUSH0 CALLDATALOAD PUSH1 0xE0 SHR DUP1 PUSH4 0x8B01E535 EQ PUSH2 0x38 JUMPI DUP1 PUSH4 0xBFC3EF44 EQ PUSH2 0x56 JUMPI JUMPDEST PUSH0 DUP1 REVERT JUMPDEST PUSH2 0x40 PUSH2 0x74 JUMP JUMPDEST PUSH1 0x40 MLOAD PUSH2 0x4D SWAP2 SWAP1 PUSH2 0x107 JUMP JUMPDEST PUSH1 0x40 MLOAD DUP1 SWAP2 SUB SWAP1 RETURN JUMPDEST PUSH2 0x5E PUSH2 0xE7 JUMP JUMPDEST PUSH1 0x40 MLOAD PUSH2 0x6B SWAP2 SWAP1 PUSH2 0x107 JUMP JUMPDEST PUSH1 0x40 MLOAD DUP1 SWAP2 SUB SWAP1 RETURN JUMPDEST PUSH0 ADDRESS PUSH20 0xFFFFFFFFFFFFFFFFFFFFFFFFFFFFFFFFFFFFFFFF AND PUSH4 0xBFC3EF44 PUSH1 0x40 MLOAD DUP2 PUSH4 0xFFFFFFFF AND PUSH1 0xE0 SHL DUP2 MSTORE PUSH1 0x4 ADD PUSH1 0x20 PUSH1 0x40 MLOAD DUP1 DUP4 SUB DUP2 DUP7 GAS STATICCALL ISZERO DUP1 ISZERO PUSH2 0xBE JUMPI RETURNDATASIZE PUSH0 DUP1 RETURNDATACOPY RETURNDATASIZE PUSH0 REVERT JUMPDEST POP POP POP POP PUSH1 0x40 MLOAD RETURNDATASIZE PUSH1 0x1F NOT PUSH1 0x1F DUP3 ADD AND DUP3 ADD DUP1 PUSH1 0x40 MSTORE POP DUP2 ADD SWAP1 PUSH2 0xE2 SWAP2 SWAP1 PUSH2 0x14E JUMP JUMPDEST SWAP1 POP SWAP1 JUMP JUMPDEST PUSH0 PUSH1 0x2 SWAP1 POP SWAP1 JUMP JUMPDEST PUSH0 DUP2 SWAP1 POP SWAP2 SWAP1 POP JUMP JUMPDEST PUSH2 0x101 DUP2 PUSH2 0xEF JUMP JUMPDEST DUP3 MSTORE POP POP JUMP JUMPDEST PUSH0 PUSH1 0x20 DUP3 ADD SWAP1 POP PUSH2 0x11A PUSH0 DUP4 ADD DUP5 PUSH2 0xF8 JUMP JUMPDEST SWAP3 SWAP2 POP POP JUMP JUMPDEST PUSH0 DUP1 REVERT JUMPDEST PUSH2 0x12D DUP2 PUSH2 0xEF JUMP JUMPDEST DUP2 EQ PUSH2 0x137 JUMPI PUSH0 DUP1 REVERT JUMPDEST POP JUMP JUMPDEST PUSH0 DUP2 MLOAD SWAP1 POP PUSH2 0x148 DUP2 PUSH2 0x124 JUMP JUMPDEST SWAP3 SWAP2 POP POP JUMP JUMPDEST PUSH0 PUSH1 0x20 DUP3 DUP5 SUB SLT ISZERO PUSH2 0x163 JUMPI PUSH2 0x162 PUSH2 0x120 JUMP JUMPDEST JUMPDEST PUSH0 PUSH2 0x170 DUP5 DUP3 DUP6 ADD PUSH2 0x13A JUMP JUMPDEST SWAP2 POP POP SWAP3 SWAP2 POP POP JUMP INVALID LOG2 PUSH5 0x6970667358 0x22 SLT KECCAK256 CODESIZE REVERT PUSH0 CALLCODE BLOBHASH 0xED ADD 0x2F SWAP2 0xF PUSH14 0x61ABA5E63442E88F249CC8624BF8 EXTCODEHASH STATICCALL 0x2B 0xDA 0xED SWAP9 PUSH18 0x64736F6C6343000818003300000000000000 "
				},
				"gasEstimates": {
					"creation": {
						"codeDepositCost": "86200",
						"executionCost": "133",
						"totalCost": "86333"
					},
					"external": {
						"funExt()": "332",
						"outPutExt()": "infinite"
					}
				},
				"methodIdentifiers": {
					"funExt()": "bfc3ef44",
					"outPutExt()": "8b01e535"
				}
			},
			"storageLayout": {
				"storage": [],
				"types": null
			},
			"userdoc": {
				"kind": "user",
				"methods": {},
				"version": 1
			}
		}
	}
}