{
	"3장_가시성 지정자와 함수/ex3_7.sol": {
		"Ex3_7": {
			"abi": [
				{
					"inputs": [],
					"name": "myFun",
					"outputs": [
						{
							"internalType": "uint256",
							"name": "age",
							"type": "uint256"
						},
						{
							"internalType": "uint256",
							"name": "weight",
							"type": "uint256"
						}
					],
					"stateMutability": "pure",
					"type": "function"
				}
			],
			"devdoc": {
				"kind": "dev",
				"methods": {},
				"version": 1
			},
			"evm": {
				"assembly": "    /* \"3\\xec\\x9e\\xa5_\\xea\\xb0\\x80\\xec\\x8b\\x9c\\xec\\x84\\xb1 \\xec\\xa7\\x80\\xec\\xa0\\x95\\xec\\x9e\\x90\\xec\\x99\\x80 \\xed\\x95\\xa8\\xec\\x88\\x98/ex3_7.sol\":110:405  contract Ex3_7{... */\n  mstore(0x40, 0x80)\n  callvalue\n  dup1\n  iszero\n  tag_1\n  jumpi\n  0x00\n  dup1\n  revert\ntag_1:\n  pop\n  dataSize(sub_0)\n  dup1\n  dataOffset(sub_0)\n  0x00\n  codecopy\n  0x00\n  return\nstop\n\nsub_0: assembly {\n        /* \"3\\xec\\x9e\\xa5_\\xea\\xb0\\x80\\xec\\x8b\\x9c\\xec\\x84\\xb1 \\xec\\xa7\\x80\\xec\\xa0\\x95\\xec\\x9e\\x90\\xec\\x99\\x80 \\xed\\x95\\xa8\\xec\\x88\\x98/ex3_7.sol\":110:405  contract Ex3_7{... */\n      mstore(0x40, 0x80)\n      callvalue\n      dup1\n      iszero\n      tag_1\n      jumpi\n      0x00\n      dup1\n      revert\n    tag_1:\n      pop\n      jumpi(tag_2, lt(calldatasize, 0x04))\n      shr(0xe0, calldataload(0x00))\n      dup1\n      0x75bbb4e7\n      eq\n      tag_3\n      jumpi\n    tag_2:\n      0x00\n      dup1\n      revert\n        /* \"3\\xec\\x9e\\xa5_\\xea\\xb0\\x80\\xec\\x8b\\x9c\\xec\\x84\\xb1 \\xec\\xa7\\x80\\xec\\xa0\\x95\\xec\\x9e\\x90\\xec\\x99\\x80 \\xed\\x95\\xa8\\xec\\x88\\x98/ex3_7.sol\":131:402  function myFun() public pure returns(uint age, uint weight){... */\n    tag_3:\n      tag_4\n      tag_5\n      jump\t// in\n    tag_4:\n      mload(0x40)\n      tag_6\n      swap3\n      swap2\n      swap1\n      tag_7\n      jump\t// in\n    tag_6:\n      mload(0x40)\n      dup1\n      swap2\n      sub\n      swap1\n      return\n    tag_5:\n        /* \"3\\xec\\x9e\\xa5_\\xea\\xb0\\x80\\xec\\x8b\\x9c\\xec\\x84\\xb1 \\xec\\xa7\\x80\\xec\\xa0\\x95\\xec\\x9e\\x90\\xec\\x99\\x80 \\xed\\x95\\xa8\\xec\\x88\\x98/ex3_7.sol\":168:176  uint age */\n      0x00\n        /* \"3\\xec\\x9e\\xa5_\\xea\\xb0\\x80\\xec\\x8b\\x9c\\xec\\x84\\xb1 \\xec\\xa7\\x80\\xec\\xa0\\x95\\xec\\x9e\\x90\\xec\\x99\\x80 \\xed\\x95\\xa8\\xec\\x88\\x98/ex3_7.sol\":178:189  uint weight */\n      dup1\n        /* \"3\\xec\\x9e\\xa5_\\xea\\xb0\\x80\\xec\\x8b\\x9c\\xec\\x84\\xb1 \\xec\\xa7\\x80\\xec\\xa0\\x95\\xec\\x9e\\x90\\xec\\x99\\x80 \\xed\\x95\\xa8\\xec\\x88\\x98/ex3_7.sol\":372:374  31 */\n      0x1f\n        /* \"3\\xec\\x9e\\xa5_\\xea\\xb0\\x80\\xec\\x8b\\x9c\\xec\\x84\\xb1 \\xec\\xa7\\x80\\xec\\xa0\\x95\\xec\\x9e\\x90\\xec\\x99\\x80 \\xed\\x95\\xa8\\xec\\x88\\x98/ex3_7.sol\":366:374  age = 31 */\n      swap2\n      pop\n        /* \"3\\xec\\x9e\\xa5_\\xea\\xb0\\x80\\xec\\x8b\\x9c\\xec\\x84\\xb1 \\xec\\xa7\\x80\\xec\\xa0\\x95\\xec\\x9e\\x90\\xec\\x99\\x80 \\xed\\x95\\xa8\\xec\\x88\\x98/ex3_7.sol\":392:394  60 */\n      0x3c\n        /* \"3\\xec\\x9e\\xa5_\\xea\\xb0\\x80\\xec\\x8b\\x9c\\xec\\x84\\xb1 \\xec\\xa7\\x80\\xec\\xa0\\x95\\xec\\x9e\\x90\\xec\\x99\\x80 \\xed\\x95\\xa8\\xec\\x88\\x98/ex3_7.sol\":385:394  weight=60 */\n      swap1\n      pop\n        /* \"3\\xec\\x9e\\xa5_\\xea\\xb0\\x80\\xec\\x8b\\x9c\\xec\\x84\\xb1 \\xec\\xa7\\x80\\xec\\xa0\\x95\\xec\\x9e\\x90\\xec\\x99\\x80 \\xed\\x95\\xa8\\xec\\x88\\x98/ex3_7.sol\":131:402  function myFun() public pure returns(uint age, uint weight){... */\n      swap1\n      swap2\n      jump\t// out\n        /* \"#utility.yul\":7:84   */\n    tag_9:\n        /* \"#utility.yul\":44:51   */\n      0x00\n        /* \"#utility.yul\":73:78   */\n      dup2\n        /* \"#utility.yul\":62:78   */\n      swap1\n      pop\n        /* \"#utility.yul\":7:84   */\n      swap2\n      swap1\n      pop\n      jump\t// out\n        /* \"#utility.yul\":90:208   */\n    tag_10:\n        /* \"#utility.yul\":177:201   */\n      tag_14\n        /* \"#utility.yul\":195:200   */\n      dup2\n        /* \"#utility.yul\":177:201   */\n      tag_9\n      jump\t// in\n    tag_14:\n        /* \"#utility.yul\":172:175   */\n      dup3\n        /* \"#utility.yul\":165:202   */\n      mstore\n        /* \"#utility.yul\":90:208   */\n      pop\n      pop\n      jump\t// out\n        /* \"#utility.yul\":214:546   */\n    tag_7:\n        /* \"#utility.yul\":335:339   */\n      0x00\n        /* \"#utility.yul\":373:375   */\n      0x40\n        /* \"#utility.yul\":362:371   */\n      dup3\n        /* \"#utility.yul\":358:376   */\n      add\n        /* \"#utility.yul\":350:376   */\n      swap1\n      pop\n        /* \"#utility.yul\":386:457   */\n      tag_16\n        /* \"#utility.yul\":454:455   */\n      0x00\n        /* \"#utility.yul\":443:452   */\n      dup4\n        /* \"#utility.yul\":439:456   */\n      add\n        /* \"#utility.yul\":430:436   */\n      dup6\n        /* \"#utility.yul\":386:457   */\n      tag_10\n      jump\t// in\n    tag_16:\n        /* \"#utility.yul\":467:539   */\n      tag_17\n        /* \"#utility.yul\":535:537   */\n      0x20\n        /* \"#utility.yul\":524:533   */\n      dup4\n        /* \"#utility.yul\":520:538   */\n      add\n        /* \"#utility.yul\":511:517   */\n      dup5\n        /* \"#utility.yul\":467:539   */\n      tag_10\n      jump\t// in\n    tag_17:\n        /* \"#utility.yul\":214:546   */\n      swap4\n      swap3\n      pop\n      pop\n      pop\n      jump\t// out\n\n    auxdata: 0xa2646970667358221220c1289a8c16ac5a8ba77340d91576610a8884022088f6feb9f542b9b752d704ca64736f6c63430008180033\n}\n",
				"bytecode": {
					"linkReferences": {},
					"object": "608060405234801561000f575f80fd5b5060c28061001c5f395ff3fe6080604052348015600e575f80fd5b50600436106026575f3560e01c806375bbb4e714602a575b5f80fd5b60306045565b604051603c9291906069565b60405180910390f35b5f80601f9150603c90509091565b5f819050919050565b6063816053565b82525050565b5f604082019050607a5f830185605c565b60856020830184605c565b939250505056fea2646970667358221220c1289a8c16ac5a8ba77340d91576610a8884022088f6feb9f542b9b752d704ca64736f6c63430008180033",
					"opcodes": "PUSH1 0x80 PUSH1 0x40 MSTORE CALLVALUE DUP1 ISZERO PUSH2 0xF JUMPI PUSH0 DUP1 REVERT JUMPDEST POP PUSH1 0xC2 DUP1 PUSH2 0x1C PUSH0 CODECOPY PUSH0 RETURN INVALID PUSH1 0x80 PUSH1 0x40 MSTORE CALLVALUE DUP1 ISZERO PUSH1 0xE JUMPI PUSH0 DUP1 REVERT JUMPDEST POP PUSH1 0x4 CALLDATASIZE LT PUSH1 0x26 JUMPI PUSH0 CALLDATALOAD PUSH1 0xE0 SHR DUP1 PUSH4 0x75BBB4E7 EQ PUSH1 0x2A JUMPI JUMPDEST PUSH0 DUP1 REVERT JUMPDEST PUSH1 0x30 PUSH1 0x45 JUMP JUMPDEST PUSH1 0x40 MLOAD PUSH1 0x3C SWAP3 SWAP2 SWAP1 PUSH1 0x69 JUMP JUMPDEST PUSH1 0x40 MLOAD DUP1 SWAP2 SUB SWAP1 RETURN JUMPDEST PUSH0 DUP1 PUSH1 0x1F SWAP2 POP PUSH1 0x3C SWAP1 POP SWAP1 SWAP2 JUMP JUMPDEST PUSH0 DUP2 SWAP1 POP SWAP2 SWAP1 POP JUMP JUMPDEST PUSH1 0x63 DUP2 PUSH1 0x53 JUMP JUMPDEST DUP3 MSTORE POP POP JUMP JUMPDEST PUSH0 PUSH1 0x40 DUP3 ADD SWAP1 POP PUSH1 0x7A PUSH0 DUP4 ADD DUP6 PUSH1 0x5C JUMP JUMPDEST PUSH1 0x85 PUSH1 0x20 DUP4 ADD DUP5 PUSH1 0x5C JUMP JUMPDEST SWAP4 SWAP3 POP POP POP JUMP INVALID LOG2 PUSH5 0x6970667358 0x22 SLT KECCAK256 0xC1 0x28 SWAP11 DUP13 AND 0xAC GAS DUP12 0xA7 PUSH20 0x40D91576610A8884022088F6FEB9F542B9B752D7 DIV 0xCA PUSH5 0x736F6C6343 STOP ADDMOD XOR STOP CALLER "
				},
				"gasEstimates": {
					"creation": {
						"codeDepositCost": "38800",
						"executionCost": "91",
						"totalCost": "38891"
					},
					"external": {
						"myFun()": "infinite"
					}
				},
				"methodIdentifiers": {
					"myFun()": "75bbb4e7"
				}
			},
			"storageLayout": {
				"storage": [],
				"types": null
			},
			"userdoc": {
				"kind": "user",
				"methods": {},
				"version": 1
			}
		}
	}
}