{
	"3장_가시성 지정자와 함수/ex3_4.sol": {
		"Ex3_4": {
			"abi": [
				{
					"inputs": [],
					"name": "a",
					"outputs": [
						{
							"internalType": "uint256",
							"name": "",
							"type": "uint256"
						}
					],
					"stateMutability": "view",
					"type": "function"
				},
				{
					"inputs": [
						{
							"internalType": "uint256",
							"name": "b",
							"type": "uint256"
						},
						{
							"internalType": "uint256",
							"name": "c",
							"type": "uint256"
						},
						{
							"internalType": "uint256",
							"name": "d",
							"type": "uint256"
						}
					],
					"name": "myFun",
					"outputs": [],
					"stateMutability": "nonpayable",
					"type": "function"
				}
			],
			"devdoc": {
				"kind": "dev",
				"methods": {},
				"version": 1
			},
			"evm": {
				"assembly": "    /* \"3\\xec\\x9e\\xa5_\\xea\\xb0\\x80\\xec\\x8b\\x9c\\xec\\x84\\xb1 \\xec\\xa7\\x80\\xec\\xa0\\x95\\xec\\x9e\\x90\\xec\\x99\\x80 \\xed\\x95\\xa8\\xec\\x88\\x98/ex3_4.sol\":124:265  contract Ex3_4{... */\n  mstore(0x40, 0x80)\n    /* \"3\\xec\\x9e\\xa5_\\xea\\xb0\\x80\\xec\\x8b\\x9c\\xec\\x84\\xb1 \\xec\\xa7\\x80\\xec\\xa0\\x95\\xec\\x9e\\x90\\xec\\x99\\x80 \\xed\\x95\\xa8\\xec\\x88\\x98/ex3_4.sol\":159:160  3 */\n  0x03\n    /* \"3\\xec\\x9e\\xa5_\\xea\\xb0\\x80\\xec\\x8b\\x9c\\xec\\x84\\xb1 \\xec\\xa7\\x80\\xec\\xa0\\x95\\xec\\x9e\\x90\\xec\\x99\\x80 \\xed\\x95\\xa8\\xec\\x88\\x98/ex3_4.sol\":145:160  uint public a=3 */\n  0x00\n  sstore\n    /* \"3\\xec\\x9e\\xa5_\\xea\\xb0\\x80\\xec\\x8b\\x9c\\xec\\x84\\xb1 \\xec\\xa7\\x80\\xec\\xa0\\x95\\xec\\x9e\\x90\\xec\\x99\\x80 \\xed\\x95\\xa8\\xec\\x88\\x98/ex3_4.sol\":124:265  contract Ex3_4{... */\n  callvalue\n  dup1\n  iszero\n  tag_1\n  jumpi\n  0x00\n  dup1\n  revert\ntag_1:\n  pop\n  dataSize(sub_0)\n  dup1\n  dataOffset(sub_0)\n  0x00\n  codecopy\n  0x00\n  return\nstop\n\nsub_0: assembly {\n        /* \"3\\xec\\x9e\\xa5_\\xea\\xb0\\x80\\xec\\x8b\\x9c\\xec\\x84\\xb1 \\xec\\xa7\\x80\\xec\\xa0\\x95\\xec\\x9e\\x90\\xec\\x99\\x80 \\xed\\x95\\xa8\\xec\\x88\\x98/ex3_4.sol\":124:265  contract Ex3_4{... */\n      mstore(0x40, 0x80)\n      callvalue\n      dup1\n      iszero\n      tag_1\n      jumpi\n      0x00\n      dup1\n      revert\n    tag_1:\n      pop\n      jumpi(tag_2, lt(calldatasize, 0x04))\n      shr(0xe0, calldataload(0x00))\n      dup1\n      0x0dbe671f\n      eq\n      tag_3\n      jumpi\n      dup1\n      0x95a81f27\n      eq\n      tag_4\n      jumpi\n    tag_2:\n      0x00\n      dup1\n      revert\n        /* \"3\\xec\\x9e\\xa5_\\xea\\xb0\\x80\\xec\\x8b\\x9c\\xec\\x84\\xb1 \\xec\\xa7\\x80\\xec\\xa0\\x95\\xec\\x9e\\x90\\xec\\x99\\x80 \\xed\\x95\\xa8\\xec\\x88\\x98/ex3_4.sol\":145:160  uint public a=3 */\n    tag_3:\n      tag_5\n      tag_6\n      jump\t// in\n    tag_5:\n      mload(0x40)\n      tag_7\n      swap2\n      swap1\n      tag_8\n      jump\t// in\n    tag_7:\n      mload(0x40)\n      dup1\n      swap2\n      sub\n      swap1\n      return\n        /* \"3\\xec\\x9e\\xa5_\\xea\\xb0\\x80\\xec\\x8b\\x9c\\xec\\x84\\xb1 \\xec\\xa7\\x80\\xec\\xa0\\x95\\xec\\x9e\\x90\\xec\\x99\\x80 \\xed\\x95\\xa8\\xec\\x88\\x98/ex3_4.sol\":167:262  function myFun(uint b, uint c, uint d) public{... */\n    tag_4:\n      tag_9\n      0x04\n      dup1\n      calldatasize\n      sub\n      dup2\n      add\n      swap1\n      tag_10\n      swap2\n      swap1\n      tag_11\n      jump\t// in\n    tag_10:\n      tag_12\n      jump\t// in\n    tag_9:\n      stop\n        /* \"3\\xec\\x9e\\xa5_\\xea\\xb0\\x80\\xec\\x8b\\x9c\\xec\\x84\\xb1 \\xec\\xa7\\x80\\xec\\xa0\\x95\\xec\\x9e\\x90\\xec\\x99\\x80 \\xed\\x95\\xa8\\xec\\x88\\x98/ex3_4.sol\":145:160  uint public a=3 */\n    tag_6:\n      sload(0x00)\n      dup2\n      jump\t// out\n        /* \"3\\xec\\x9e\\xa5_\\xea\\xb0\\x80\\xec\\x8b\\x9c\\xec\\x84\\xb1 \\xec\\xa7\\x80\\xec\\xa0\\x95\\xec\\x9e\\x90\\xec\\x99\\x80 \\xed\\x95\\xa8\\xec\\x88\\x98/ex3_4.sol\":167:262  function myFun(uint b, uint c, uint d) public{... */\n    tag_12:\n        /* \"3\\xec\\x9e\\xa5_\\xea\\xb0\\x80\\xec\\x8b\\x9c\\xec\\x84\\xb1 \\xec\\xa7\\x80\\xec\\xa0\\x95\\xec\\x9e\\x90\\xec\\x99\\x80 \\xed\\x95\\xa8\\xec\\x88\\x98/ex3_4.sol\":225:226  b */\n      dup3\n        /* \"3\\xec\\x9e\\xa5_\\xea\\xb0\\x80\\xec\\x8b\\x9c\\xec\\x84\\xb1 \\xec\\xa7\\x80\\xec\\xa0\\x95\\xec\\x9e\\x90\\xec\\x99\\x80 \\xed\\x95\\xa8\\xec\\x88\\x98/ex3_4.sol\":223:224  a */\n      0x00\n        /* \"3\\xec\\x9e\\xa5_\\xea\\xb0\\x80\\xec\\x8b\\x9c\\xec\\x84\\xb1 \\xec\\xa7\\x80\\xec\\xa0\\x95\\xec\\x9e\\x90\\xec\\x99\\x80 \\xed\\x95\\xa8\\xec\\x88\\x98/ex3_4.sol\":223:226  a=b */\n      dup2\n      swap1\n      sstore\n      pop\n        /* \"3\\xec\\x9e\\xa5_\\xea\\xb0\\x80\\xec\\x8b\\x9c\\xec\\x84\\xb1 \\xec\\xa7\\x80\\xec\\xa0\\x95\\xec\\x9e\\x90\\xec\\x99\\x80 \\xed\\x95\\xa8\\xec\\x88\\x98/ex3_4.sol\":239:240  c */\n      dup2\n        /* \"3\\xec\\x9e\\xa5_\\xea\\xb0\\x80\\xec\\x8b\\x9c\\xec\\x84\\xb1 \\xec\\xa7\\x80\\xec\\xa0\\x95\\xec\\x9e\\x90\\xec\\x99\\x80 \\xed\\x95\\xa8\\xec\\x88\\x98/ex3_4.sol\":237:240  b=c */\n      swap3\n      pop\n        /* \"3\\xec\\x9e\\xa5_\\xea\\xb0\\x80\\xec\\x8b\\x9c\\xec\\x84\\xb1 \\xec\\xa7\\x80\\xec\\xa0\\x95\\xec\\x9e\\x90\\xec\\x99\\x80 \\xed\\x95\\xa8\\xec\\x88\\x98/ex3_4.sol\":253:254  d */\n      dup1\n        /* \"3\\xec\\x9e\\xa5_\\xea\\xb0\\x80\\xec\\x8b\\x9c\\xec\\x84\\xb1 \\xec\\xa7\\x80\\xec\\xa0\\x95\\xec\\x9e\\x90\\xec\\x99\\x80 \\xed\\x95\\xa8\\xec\\x88\\x98/ex3_4.sol\":251:252  a */\n      0x00\n        /* \"3\\xec\\x9e\\xa5_\\xea\\xb0\\x80\\xec\\x8b\\x9c\\xec\\x84\\xb1 \\xec\\xa7\\x80\\xec\\xa0\\x95\\xec\\x9e\\x90\\xec\\x99\\x80 \\xed\\x95\\xa8\\xec\\x88\\x98/ex3_4.sol\":251:254  a=d */\n      dup2\n      swap1\n      sstore\n      pop\n        /* \"3\\xec\\x9e\\xa5_\\xea\\xb0\\x80\\xec\\x8b\\x9c\\xec\\x84\\xb1 \\xec\\xa7\\x80\\xec\\xa0\\x95\\xec\\x9e\\x90\\xec\\x99\\x80 \\xed\\x95\\xa8\\xec\\x88\\x98/ex3_4.sol\":167:262  function myFun(uint b, uint c, uint d) public{... */\n      pop\n      pop\n      pop\n      jump\t// out\n        /* \"#utility.yul\":7:84   */\n    tag_14:\n        /* \"#utility.yul\":44:51   */\n      0x00\n        /* \"#utility.yul\":73:78   */\n      dup2\n        /* \"#utility.yul\":62:78   */\n      swap1\n      pop\n        /* \"#utility.yul\":7:84   */\n      swap2\n      swap1\n      pop\n      jump\t// out\n        /* \"#utility.yul\":90:208   */\n    tag_15:\n        /* \"#utility.yul\":177:201   */\n      tag_24\n        /* \"#utility.yul\":195:200   */\n      dup2\n        /* \"#utility.yul\":177:201   */\n      tag_14\n      jump\t// in\n    tag_24:\n        /* \"#utility.yul\":172:175   */\n      dup3\n        /* \"#utility.yul\":165:202   */\n      mstore\n        /* \"#utility.yul\":90:208   */\n      pop\n      pop\n      jump\t// out\n        /* \"#utility.yul\":214:436   */\n    tag_8:\n        /* \"#utility.yul\":307:311   */\n      0x00\n        /* \"#utility.yul\":345:347   */\n      0x20\n        /* \"#utility.yul\":334:343   */\n      dup3\n        /* \"#utility.yul\":330:348   */\n      add\n        /* \"#utility.yul\":322:348   */\n      swap1\n      pop\n        /* \"#utility.yul\":358:429   */\n      tag_26\n        /* \"#utility.yul\":426:427   */\n      0x00\n        /* \"#utility.yul\":415:424   */\n      dup4\n        /* \"#utility.yul\":411:428   */\n      add\n        /* \"#utility.yul\":402:408   */\n      dup5\n        /* \"#utility.yul\":358:429   */\n      tag_15\n      jump\t// in\n    tag_26:\n        /* \"#utility.yul\":214:436   */\n      swap3\n      swap2\n      pop\n      pop\n      jump\t// out\n        /* \"#utility.yul\":523:640   */\n    tag_17:\n        /* \"#utility.yul\":632:633   */\n      0x00\n        /* \"#utility.yul\":629:630   */\n      dup1\n        /* \"#utility.yul\":622:634   */\n      revert\n        /* \"#utility.yul\":769:891   */\n    tag_19:\n        /* \"#utility.yul\":842:866   */\n      tag_31\n        /* \"#utility.yul\":860:865   */\n      dup2\n        /* \"#utility.yul\":842:866   */\n      tag_14\n      jump\t// in\n    tag_31:\n        /* \"#utility.yul\":835:840   */\n      dup2\n        /* \"#utility.yul\":832:867   */\n      eq\n        /* \"#utility.yul\":822:885   */\n      tag_32\n      jumpi\n        /* \"#utility.yul\":881:882   */\n      0x00\n        /* \"#utility.yul\":878:879   */\n      dup1\n        /* \"#utility.yul\":871:883   */\n      revert\n        /* \"#utility.yul\":822:885   */\n    tag_32:\n        /* \"#utility.yul\":769:891   */\n      pop\n      jump\t// out\n        /* \"#utility.yul\":897:1036   */\n    tag_20:\n        /* \"#utility.yul\":943:948   */\n      0x00\n        /* \"#utility.yul\":981:987   */\n      dup2\n        /* \"#utility.yul\":968:988   */\n      calldataload\n        /* \"#utility.yul\":959:988   */\n      swap1\n      pop\n        /* \"#utility.yul\":997:1030   */\n      tag_34\n        /* \"#utility.yul\":1024:1029   */\n      dup2\n        /* \"#utility.yul\":997:1030   */\n      tag_19\n      jump\t// in\n    tag_34:\n        /* \"#utility.yul\":897:1036   */\n      swap3\n      swap2\n      pop\n      pop\n      jump\t// out\n        /* \"#utility.yul\":1042:1661   */\n    tag_11:\n        /* \"#utility.yul\":1119:1125   */\n      0x00\n        /* \"#utility.yul\":1127:1133   */\n      dup1\n        /* \"#utility.yul\":1135:1141   */\n      0x00\n        /* \"#utility.yul\":1184:1186   */\n      0x60\n        /* \"#utility.yul\":1172:1181   */\n      dup5\n        /* \"#utility.yul\":1163:1170   */\n      dup7\n        /* \"#utility.yul\":1159:1182   */\n      sub\n        /* \"#utility.yul\":1155:1187   */\n      slt\n        /* \"#utility.yul\":1152:1271   */\n      iszero\n      tag_36\n      jumpi\n        /* \"#utility.yul\":1190:1269   */\n      tag_37\n      tag_17\n      jump\t// in\n    tag_37:\n        /* \"#utility.yul\":1152:1271   */\n    tag_36:\n        /* \"#utility.yul\":1310:1311   */\n      0x00\n        /* \"#utility.yul\":1335:1388   */\n      tag_38\n        /* \"#utility.yul\":1380:1387   */\n      dup7\n        /* \"#utility.yul\":1371:1377   */\n      dup3\n        /* \"#utility.yul\":1360:1369   */\n      dup8\n        /* \"#utility.yul\":1356:1378   */\n      add\n        /* \"#utility.yul\":1335:1388   */\n      tag_20\n      jump\t// in\n    tag_38:\n        /* \"#utility.yul\":1325:1388   */\n      swap4\n      pop\n        /* \"#utility.yul\":1281:1398   */\n      pop\n        /* \"#utility.yul\":1437:1439   */\n      0x20\n        /* \"#utility.yul\":1463:1516   */\n      tag_39\n        /* \"#utility.yul\":1508:1515   */\n      dup7\n        /* \"#utility.yul\":1499:1505   */\n      dup3\n        /* \"#utility.yul\":1488:1497   */\n      dup8\n        /* \"#utility.yul\":1484:1506   */\n      add\n        /* \"#utility.yul\":1463:1516   */\n      tag_20\n      jump\t// in\n    tag_39:\n        /* \"#utility.yul\":1453:1516   */\n      swap3\n      pop\n        /* \"#utility.yul\":1408:1526   */\n      pop\n        /* \"#utility.yul\":1565:1567   */\n      0x40\n        /* \"#utility.yul\":1591:1644   */\n      tag_40\n        /* \"#utility.yul\":1636:1643   */\n      dup7\n        /* \"#utility.yul\":1627:1633   */\n      dup3\n        /* \"#utility.yul\":1616:1625   */\n      dup8\n        /* \"#utility.yul\":1612:1634   */\n      add\n        /* \"#utility.yul\":1591:1644   */\n      tag_20\n      jump\t// in\n    tag_40:\n        /* \"#utility.yul\":1581:1644   */\n      swap2\n      pop\n        /* \"#utility.yul\":1536:1654   */\n      pop\n        /* \"#utility.yul\":1042:1661   */\n      swap3\n      pop\n      swap3\n      pop\n      swap3\n      jump\t// out\n\n    auxdata: 0xa2646970667358221220e29dee57a9baa4173e1f1fb818ef9b3646bc642eb6e376fdfa9ad7cb705aaced64736f6c63430008180033\n}\n",
				"bytecode": {
					"linkReferences": {},
					"object": "608060405260035f55348015610013575f80fd5b50610170806100215f395ff3fe608060405234801561000f575f80fd5b5060043610610034575f3560e01c80630dbe671f1461003857806395a81f2714610056575b5f80fd5b610040610072565b60405161004d91906100a3565b60405180910390f35b610070600480360381019061006b91906100ea565b610077565b005b5f5481565b825f81905550819250805f81905550505050565b5f819050919050565b61009d8161008b565b82525050565b5f6020820190506100b65f830184610094565b92915050565b5f80fd5b6100c98161008b565b81146100d3575f80fd5b50565b5f813590506100e4816100c0565b92915050565b5f805f60608486031215610101576101006100bc565b5b5f61010e868287016100d6565b935050602061011f868287016100d6565b9250506040610130868287016100d6565b915050925092509256fea2646970667358221220e29dee57a9baa4173e1f1fb818ef9b3646bc642eb6e376fdfa9ad7cb705aaced64736f6c63430008180033",
					"opcodes": "PUSH1 0x80 PUSH1 0x40 MSTORE PUSH1 0x3 PUSH0 SSTORE CALLVALUE DUP1 ISZERO PUSH2 0x13 JUMPI PUSH0 DUP1 REVERT JUMPDEST POP PUSH2 0x170 DUP1 PUSH2 0x21 PUSH0 CODECOPY PUSH0 RETURN INVALID PUSH1 0x80 PUSH1 0x40 MSTORE CALLVALUE DUP1 ISZERO PUSH2 0xF JUMPI PUSH0 DUP1 REVERT JUMPDEST POP PUSH1 0x4 CALLDATASIZE LT PUSH2 0x34 JUMPI PUSH0 CALLDATALOAD PUSH1 0xE0 SHR DUP1 PUSH4 0xDBE671F EQ PUSH2 0x38 JUMPI DUP1 PUSH4 0x95A81F27 EQ PUSH2 0x56 JUMPI JUMPDEST PUSH0 DUP1 REVERT JUMPDEST PUSH2 0x40 PUSH2 0x72 JUMP JUMPDEST PUSH1 0x40 MLOAD PUSH2 0x4D SWAP2 SWAP1 PUSH2 0xA3 JUMP JUMPDEST PUSH1 0x40 MLOAD DUP1 SWAP2 SUB SWAP1 RETURN JUMPDEST PUSH2 0x70 PUSH1 0x4 DUP1 CALLDATASIZE SUB DUP2 ADD SWAP1 PUSH2 0x6B SWAP2 SWAP1 PUSH2 0xEA JUMP JUMPDEST PUSH2 0x77 JUMP JUMPDEST STOP JUMPDEST PUSH0 SLOAD DUP2 JUMP JUMPDEST DUP3 PUSH0 DUP2 SWAP1 SSTORE POP DUP2 SWAP3 POP DUP1 PUSH0 DUP2 SWAP1 SSTORE POP POP POP POP JUMP JUMPDEST PUSH0 DUP2 SWAP1 POP SWAP2 SWAP1 POP JUMP JUMPDEST PUSH2 0x9D DUP2 PUSH2 0x8B JUMP JUMPDEST DUP3 MSTORE POP POP JUMP JUMPDEST PUSH0 PUSH1 0x20 DUP3 ADD SWAP1 POP PUSH2 0xB6 PUSH0 DUP4 ADD DUP5 PUSH2 0x94 JUMP JUMPDEST SWAP3 SWAP2 POP POP JUMP JUMPDEST PUSH0 DUP1 REVERT JUMPDEST PUSH2 0xC9 DUP2 PUSH2 0x8B JUMP JUMPDEST DUP2 EQ PUSH2 0xD3 JUMPI PUSH0 DUP1 REVERT JUMPDEST POP JUMP JUMPDEST PUSH0 DUP2 CALLDATALOAD SWAP1 POP PUSH2 0xE4 DUP2 PUSH2 0xC0 JUMP JUMPDEST SWAP3 SWAP2 POP POP JUMP JUMPDEST PUSH0 DUP1 PUSH0 PUSH1 0x60 DUP5 DUP7 SUB SLT ISZERO PUSH2 0x101 JUMPI PUSH2 0x100 PUSH2 0xBC JUMP JUMPDEST JUMPDEST PUSH0 PUSH2 0x10E DUP7 DUP3 DUP8 ADD PUSH2 0xD6 JUMP JUMPDEST SWAP4 POP POP PUSH1 0x20 PUSH2 0x11F DUP7 DUP3 DUP8 ADD PUSH2 0xD6 JUMP JUMPDEST SWAP3 POP POP PUSH1 0x40 PUSH2 0x130 DUP7 DUP3 DUP8 ADD PUSH2 0xD6 JUMP JUMPDEST SWAP2 POP POP SWAP3 POP SWAP3 POP SWAP3 JUMP INVALID LOG2 PUSH5 0x6970667358 0x22 SLT KECCAK256 0xE2 SWAP14 0xEE JUMPI 0xA9 0xBA LOG4 OR RETURNDATACOPY 0x1F 0x1F 0xB8 XOR 0xEF SWAP12 CALLDATASIZE CHAINID 0xBC PUSH5 0x2EB6E376FD STATICCALL SWAP11 0xD7 0xCB PUSH17 0x5AACED64736F6C63430008180033000000 "
				},
				"gasEstimates": {
					"creation": {
						"codeDepositCost": "73600",
						"executionCost": "22226",
						"totalCost": "95826"
					},
					"external": {
						"a()": "2402",
						"myFun(uint256,uint256,uint256)": "infinite"
					}
				},
				"methodIdentifiers": {
					"a()": "0dbe671f",
					"myFun(uint256,uint256,uint256)": "95a81f27"
				}
			},
			"storageLayout": {
				"storage": [
					{
						"astId": 4,
						"contract": "3장_가시성 지정자와 함수/ex3_4.sol:Ex3_4",
						"label": "a",
						"offset": 0,
						"slot": "0",
						"type": "t_uint256"
					}
				],
				"types": {
					"t_uint256": {
						"encoding": "inplace",
						"label": "uint256",
						"numberOfBytes": "32"
					}
				}
			},
			"userdoc": {
				"kind": "user",
				"methods": {},
				"version": 1
			}
		}
	}
}