{
	"3장_가시성 지정자와 함수/ex_17.sol": {
		"Ex3_17": {
			"abi": [
				{
					"inputs": [],
					"name": "a",
					"outputs": [
						{
							"internalType": "uint256",
							"name": "",
							"type": "uint256"
						}
					],
					"stateMutability": "view",
					"type": "function"
				},
				{
					"inputs": [],
					"name": "myFun1",
					"outputs": [
						{
							"internalType": "uint256",
							"name": "",
							"type": "uint256"
						},
						{
							"internalType": "uint256",
							"name": "",
							"type": "uint256"
						}
					],
					"stateMutability": "view",
					"type": "function"
				}
			],
			"devdoc": {
				"kind": "dev",
				"methods": {},
				"version": 1
			},
			"evm": {
				"assembly": "    /* \"3\\xec\\x9e\\xa5_\\xea\\xb0\\x80\\xec\\x8b\\x9c\\xec\\x84\\xb1 \\xec\\xa7\\x80\\xec\\xa0\\x95\\xec\\x9e\\x90\\xec\\x99\\x80 \\xed\\x95\\xa8\\xec\\x88\\x98/ex_17.sol\":103:339  contract Ex3_17{... */\n  mstore(0x40, 0x80)\n    /* \"3\\xec\\x9e\\xa5_\\xea\\xb0\\x80\\xec\\x8b\\x9c\\xec\\x84\\xb1 \\xec\\xa7\\x80\\xec\\xa0\\x95\\xec\\x9e\\x90\\xec\\x99\\x80 \\xed\\x95\\xa8\\xec\\x88\\x98/ex_17.sol\":139:140  3 */\n  0x03\n    /* \"3\\xec\\x9e\\xa5_\\xea\\xb0\\x80\\xec\\x8b\\x9c\\xec\\x84\\xb1 \\xec\\xa7\\x80\\xec\\xa0\\x95\\xec\\x9e\\x90\\xec\\x99\\x80 \\xed\\x95\\xa8\\xec\\x88\\x98/ex_17.sol\":125:140  uint public a=3 */\n  0x00\n  sstore\n    /* \"3\\xec\\x9e\\xa5_\\xea\\xb0\\x80\\xec\\x8b\\x9c\\xec\\x84\\xb1 \\xec\\xa7\\x80\\xec\\xa0\\x95\\xec\\x9e\\x90\\xec\\x99\\x80 \\xed\\x95\\xa8\\xec\\x88\\x98/ex_17.sol\":103:339  contract Ex3_17{... */\n  callvalue\n  dup1\n  iszero\n  tag_1\n  jumpi\n  0x00\n  dup1\n  revert\ntag_1:\n  pop\n  dataSize(sub_0)\n  dup1\n  dataOffset(sub_0)\n  0x00\n  codecopy\n  0x00\n  return\nstop\n\nsub_0: assembly {\n        /* \"3\\xec\\x9e\\xa5_\\xea\\xb0\\x80\\xec\\x8b\\x9c\\xec\\x84\\xb1 \\xec\\xa7\\x80\\xec\\xa0\\x95\\xec\\x9e\\x90\\xec\\x99\\x80 \\xed\\x95\\xa8\\xec\\x88\\x98/ex_17.sol\":103:339  contract Ex3_17{... */\n      mstore(0x40, 0x80)\n      callvalue\n      dup1\n      iszero\n      tag_1\n      jumpi\n      0x00\n      dup1\n      revert\n    tag_1:\n      pop\n      jumpi(tag_2, lt(calldatasize, 0x04))\n      shr(0xe0, calldataload(0x00))\n      dup1\n      0x0dbe671f\n      eq\n      tag_3\n      jumpi\n      dup1\n      0xfe3f73a7\n      eq\n      tag_4\n      jumpi\n    tag_2:\n      0x00\n      dup1\n      revert\n        /* \"3\\xec\\x9e\\xa5_\\xea\\xb0\\x80\\xec\\x8b\\x9c\\xec\\x84\\xb1 \\xec\\xa7\\x80\\xec\\xa0\\x95\\xec\\x9e\\x90\\xec\\x99\\x80 \\xed\\x95\\xa8\\xec\\x88\\x98/ex_17.sol\":125:140  uint public a=3 */\n    tag_3:\n      tag_5\n      tag_6\n      jump\t// in\n    tag_5:\n      mload(0x40)\n      tag_7\n      swap2\n      swap1\n      tag_8\n      jump\t// in\n    tag_7:\n      mload(0x40)\n      dup1\n      swap2\n      sub\n      swap1\n      return\n        /* \"3\\xec\\x9e\\xa5_\\xea\\xb0\\x80\\xec\\x8b\\x9c\\xec\\x84\\xb1 \\xec\\xa7\\x80\\xec\\xa0\\x95\\xec\\x9e\\x90\\xec\\x99\\x80 \\xed\\x95\\xa8\\xec\\x88\\x98/ex_17.sol\":147:247  function myFun1() external view returns(uint, uint){... */\n    tag_4:\n      tag_9\n      tag_10\n      jump\t// in\n    tag_9:\n      mload(0x40)\n      tag_11\n      swap3\n      swap2\n      swap1\n      tag_12\n      jump\t// in\n    tag_11:\n      mload(0x40)\n      dup1\n      swap2\n      sub\n      swap1\n      return\n        /* \"3\\xec\\x9e\\xa5_\\xea\\xb0\\x80\\xec\\x8b\\x9c\\xec\\x84\\xb1 \\xec\\xa7\\x80\\xec\\xa0\\x95\\xec\\x9e\\x90\\xec\\x99\\x80 \\xed\\x95\\xa8\\xec\\x88\\x98/ex_17.sol\":125:140  uint public a=3 */\n    tag_6:\n      sload(0x00)\n      dup2\n      jump\t// out\n        /* \"3\\xec\\x9e\\xa5_\\xea\\xb0\\x80\\xec\\x8b\\x9c\\xec\\x84\\xb1 \\xec\\xa7\\x80\\xec\\xa0\\x95\\xec\\x9e\\x90\\xec\\x99\\x80 \\xed\\x95\\xa8\\xec\\x88\\x98/ex_17.sol\":147:247  function myFun1() external view returns(uint, uint){... */\n    tag_10:\n        /* \"3\\xec\\x9e\\xa5_\\xea\\xb0\\x80\\xec\\x8b\\x9c\\xec\\x84\\xb1 \\xec\\xa7\\x80\\xec\\xa0\\x95\\xec\\x9e\\x90\\xec\\x99\\x80 \\xed\\x95\\xa8\\xec\\x88\\x98/ex_17.sol\":187:191  uint */\n      0x00\n        /* \"3\\xec\\x9e\\xa5_\\xea\\xb0\\x80\\xec\\x8b\\x9c\\xec\\x84\\xb1 \\xec\\xa7\\x80\\xec\\xa0\\x95\\xec\\x9e\\x90\\xec\\x99\\x80 \\xed\\x95\\xa8\\xec\\x88\\x98/ex_17.sol\":193:197  uint */\n      dup1\n        /* \"3\\xec\\x9e\\xa5_\\xea\\xb0\\x80\\xec\\x8b\\x9c\\xec\\x84\\xb1 \\xec\\xa7\\x80\\xec\\xa0\\x95\\xec\\x9e\\x90\\xec\\x99\\x80 \\xed\\x95\\xa8\\xec\\x88\\x98/ex_17.sol\":209:215  uint b */\n      0x00\n        /* \"3\\xec\\x9e\\xa5_\\xea\\xb0\\x80\\xec\\x8b\\x9c\\xec\\x84\\xb1 \\xec\\xa7\\x80\\xec\\xa0\\x95\\xec\\x9e\\x90\\xec\\x99\\x80 \\xed\\x95\\xa8\\xec\\x88\\x98/ex_17.sol\":216:217  4 */\n      0x04\n        /* \"3\\xec\\x9e\\xa5_\\xea\\xb0\\x80\\xec\\x8b\\x9c\\xec\\x84\\xb1 \\xec\\xa7\\x80\\xec\\xa0\\x95\\xec\\x9e\\x90\\xec\\x99\\x80 \\xed\\x95\\xa8\\xec\\x88\\x98/ex_17.sol\":209:217  uint b=4 */\n      swap1\n      pop\n        /* \"3\\xec\\x9e\\xa5_\\xea\\xb0\\x80\\xec\\x8b\\x9c\\xec\\x84\\xb1 \\xec\\xa7\\x80\\xec\\xa0\\x95\\xec\\x9e\\x90\\xec\\x99\\x80 \\xed\\x95\\xa8\\xec\\x88\\x98/ex_17.sol\":235:236  a */\n      sload(0x00)\n        /* \"3\\xec\\x9e\\xa5_\\xea\\xb0\\x80\\xec\\x8b\\x9c\\xec\\x84\\xb1 \\xec\\xa7\\x80\\xec\\xa0\\x95\\xec\\x9e\\x90\\xec\\x99\\x80 \\xed\\x95\\xa8\\xec\\x88\\x98/ex_17.sol\":237:238  b */\n      dup2\n        /* \"3\\xec\\x9e\\xa5_\\xea\\xb0\\x80\\xec\\x8b\\x9c\\xec\\x84\\xb1 \\xec\\xa7\\x80\\xec\\xa0\\x95\\xec\\x9e\\x90\\xec\\x99\\x80 \\xed\\x95\\xa8\\xec\\x88\\x98/ex_17.sol\":228:239  return(a,b) */\n      swap3\n      pop\n      swap3\n      pop\n      pop\n        /* \"3\\xec\\x9e\\xa5_\\xea\\xb0\\x80\\xec\\x8b\\x9c\\xec\\x84\\xb1 \\xec\\xa7\\x80\\xec\\xa0\\x95\\xec\\x9e\\x90\\xec\\x99\\x80 \\xed\\x95\\xa8\\xec\\x88\\x98/ex_17.sol\":147:247  function myFun1() external view returns(uint, uint){... */\n      swap1\n      swap2\n      jump\t// out\n        /* \"#utility.yul\":7:84   */\n    tag_14:\n        /* \"#utility.yul\":44:51   */\n      0x00\n        /* \"#utility.yul\":73:78   */\n      dup2\n        /* \"#utility.yul\":62:78   */\n      swap1\n      pop\n        /* \"#utility.yul\":7:84   */\n      swap2\n      swap1\n      pop\n      jump\t// out\n        /* \"#utility.yul\":90:208   */\n    tag_15:\n        /* \"#utility.yul\":177:201   */\n      tag_19\n        /* \"#utility.yul\":195:200   */\n      dup2\n        /* \"#utility.yul\":177:201   */\n      tag_14\n      jump\t// in\n    tag_19:\n        /* \"#utility.yul\":172:175   */\n      dup3\n        /* \"#utility.yul\":165:202   */\n      mstore\n        /* \"#utility.yul\":90:208   */\n      pop\n      pop\n      jump\t// out\n        /* \"#utility.yul\":214:436   */\n    tag_8:\n        /* \"#utility.yul\":307:311   */\n      0x00\n        /* \"#utility.yul\":345:347   */\n      0x20\n        /* \"#utility.yul\":334:343   */\n      dup3\n        /* \"#utility.yul\":330:348   */\n      add\n        /* \"#utility.yul\":322:348   */\n      swap1\n      pop\n        /* \"#utility.yul\":358:429   */\n      tag_21\n        /* \"#utility.yul\":426:427   */\n      0x00\n        /* \"#utility.yul\":415:424   */\n      dup4\n        /* \"#utility.yul\":411:428   */\n      add\n        /* \"#utility.yul\":402:408   */\n      dup5\n        /* \"#utility.yul\":358:429   */\n      tag_15\n      jump\t// in\n    tag_21:\n        /* \"#utility.yul\":214:436   */\n      swap3\n      swap2\n      pop\n      pop\n      jump\t// out\n        /* \"#utility.yul\":442:774   */\n    tag_12:\n        /* \"#utility.yul\":563:567   */\n      0x00\n        /* \"#utility.yul\":601:603   */\n      0x40\n        /* \"#utility.yul\":590:599   */\n      dup3\n        /* \"#utility.yul\":586:604   */\n      add\n        /* \"#utility.yul\":578:604   */\n      swap1\n      pop\n        /* \"#utility.yul\":614:685   */\n      tag_23\n        /* \"#utility.yul\":682:683   */\n      0x00\n        /* \"#utility.yul\":671:680   */\n      dup4\n        /* \"#utility.yul\":667:684   */\n      add\n        /* \"#utility.yul\":658:664   */\n      dup6\n        /* \"#utility.yul\":614:685   */\n      tag_15\n      jump\t// in\n    tag_23:\n        /* \"#utility.yul\":695:767   */\n      tag_24\n        /* \"#utility.yul\":763:765   */\n      0x20\n        /* \"#utility.yul\":752:761   */\n      dup4\n        /* \"#utility.yul\":748:766   */\n      add\n        /* \"#utility.yul\":739:745   */\n      dup5\n        /* \"#utility.yul\":695:767   */\n      tag_15\n      jump\t// in\n    tag_24:\n        /* \"#utility.yul\":442:774   */\n      swap4\n      swap3\n      pop\n      pop\n      pop\n      jump\t// out\n\n    auxdata: 0xa264697066735822122076d5b519636136fee854f58022be993ca7d52e27f016e09f28c09481859690c764736f6c63430008180033\n}\n",
				"bytecode": {
					"linkReferences": {},
					"object": "608060405260035f55348015610013575f80fd5b50610107806100215f395ff3fe6080604052348015600e575f80fd5b50600436106030575f3560e01c80630dbe671f146034578063fe3f73a714604e575b5f80fd5b603a6069565b604051604591906097565b60405180910390f35b6054606e565b604051606092919060ae565b60405180910390f35b5f5481565b5f805f600490505f548192509250509091565b5f819050919050565b6091816081565b82525050565b5f60208201905060a85f830184608a565b92915050565b5f60408201905060bf5f830185608a565b60ca6020830184608a565b939250505056fea264697066735822122076d5b519636136fee854f58022be993ca7d52e27f016e09f28c09481859690c764736f6c63430008180033",
					"opcodes": "PUSH1 0x80 PUSH1 0x40 MSTORE PUSH1 0x3 PUSH0 SSTORE CALLVALUE DUP1 ISZERO PUSH2 0x13 JUMPI PUSH0 DUP1 REVERT JUMPDEST POP PUSH2 0x107 DUP1 PUSH2 0x21 PUSH0 CODECOPY PUSH0 RETURN INVALID PUSH1 0x80 PUSH1 0x40 MSTORE CALLVALUE DUP1 ISZERO PUSH1 0xE JUMPI PUSH0 DUP1 REVERT JUMPDEST POP PUSH1 0x4 CALLDATASIZE LT PUSH1 0x30 JUMPI PUSH0 CALLDATALOAD PUSH1 0xE0 SHR DUP1 PUSH4 0xDBE671F EQ PUSH1 0x34 JUMPI DUP1 PUSH4 0xFE3F73A7 EQ PUSH1 0x4E JUMPI JUMPDEST PUSH0 DUP1 REVERT JUMPDEST PUSH1 0x3A PUSH1 0x69 JUMP JUMPDEST PUSH1 0x40 MLOAD PUSH1 0x45 SWAP2 SWAP1 PUSH1 0x97 JUMP JUMPDEST PUSH1 0x40 MLOAD DUP1 SWAP2 SUB SWAP1 RETURN JUMPDEST PUSH1 0x54 PUSH1 0x6E JUMP JUMPDEST PUSH1 0x40 MLOAD PUSH1 0x60 SWAP3 SWAP2 SWAP1 PUSH1 0xAE JUMP JUMPDEST PUSH1 0x40 MLOAD DUP1 SWAP2 SUB SWAP1 RETURN JUMPDEST PUSH0 SLOAD DUP2 JUMP JUMPDEST PUSH0 DUP1 PUSH0 PUSH1 0x4 SWAP1 POP PUSH0 SLOAD DUP2 SWAP3 POP SWAP3 POP POP SWAP1 SWAP2 JUMP JUMPDEST PUSH0 DUP2 SWAP1 POP SWAP2 SWAP1 POP JUMP JUMPDEST PUSH1 0x91 DUP2 PUSH1 0x81 JUMP JUMPDEST DUP3 MSTORE POP POP JUMP JUMPDEST PUSH0 PUSH1 0x20 DUP3 ADD SWAP1 POP PUSH1 0xA8 PUSH0 DUP4 ADD DUP5 PUSH1 0x8A JUMP JUMPDEST SWAP3 SWAP2 POP POP JUMP JUMPDEST PUSH0 PUSH1 0x40 DUP3 ADD SWAP1 POP PUSH1 0xBF PUSH0 DUP4 ADD DUP6 PUSH1 0x8A JUMP JUMPDEST PUSH1 0xCA PUSH1 0x20 DUP4 ADD DUP5 PUSH1 0x8A JUMP JUMPDEST SWAP4 SWAP3 POP POP POP JUMP INVALID LOG2 PUSH5 0x6970667358 0x22 SLT KECCAK256 PUSH23 0xD5B519636136FEE854F58022BE993CA7D52E27F016E09F 0x28 0xC0 SWAP5 DUP2 DUP6 SWAP7 SWAP1 0xC7 PUSH5 0x736F6C6343 STOP ADDMOD XOR STOP CALLER "
				},
				"gasEstimates": {
					"creation": {
						"codeDepositCost": "52600",
						"executionCost": "22208",
						"totalCost": "74808"
					},
					"external": {
						"a()": "2402",
						"myFun1()": "infinite"
					}
				},
				"methodIdentifiers": {
					"a()": "0dbe671f",
					"myFun1()": "fe3f73a7"
				}
			},
			"storageLayout": {
				"storage": [
					{
						"astId": 4,
						"contract": "3장_가시성 지정자와 함수/ex_17.sol:Ex3_17",
						"label": "a",
						"offset": 0,
						"slot": "0",
						"type": "t_uint256"
					}
				],
				"types": {
					"t_uint256": {
						"encoding": "inplace",
						"label": "uint256",
						"numberOfBytes": "32"
					}
				}
			},
			"userdoc": {
				"kind": "user",
				"methods": {},
				"version": 1
			}
		}
	}
}