{
	"4장_조건문과 반복문/ex4_4.sol": {
		"Ex4_4": {
			"abi": [
				{
					"inputs": [
						{
							"internalType": "uint256",
							"name": "a",
							"type": "uint256"
						}
					],
					"name": "fun1",
					"outputs": [
						{
							"internalType": "uint256",
							"name": "",
							"type": "uint256"
						}
					],
					"stateMutability": "pure",
					"type": "function"
				},
				{
					"inputs": [
						{
							"internalType": "uint256",
							"name": "a",
							"type": "uint256"
						}
					],
					"name": "fun2",
					"outputs": [
						{
							"internalType": "uint256",
							"name": "",
							"type": "uint256"
						}
					],
					"stateMutability": "pure",
					"type": "function"
				}
			],
			"devdoc": {
				"kind": "dev",
				"methods": {},
				"version": 1
			},
			"evm": {
				"assembly": "    /* \"4\\xec\\x9e\\xa5_\\xec\\xa1\\xb0\\xea\\xb1\\xb4\\xeb\\xac\\xb8\\xea\\xb3\\xbc \\xeb\\xb0\\x98\\xeb\\xb3\\xb5\\xeb\\xac\\xb8/ex4_4.sol\":114:640  contract Ex4_4{... */\n  mstore(0x40, 0x80)\n  callvalue\n  dup1\n  iszero\n  tag_1\n  jumpi\n  0x00\n  dup1\n  revert\ntag_1:\n  pop\n  dataSize(sub_0)\n  dup1\n  dataOffset(sub_0)\n  0x00\n  codecopy\n  0x00\n  return\nstop\n\nsub_0: assembly {\n        /* \"4\\xec\\x9e\\xa5_\\xec\\xa1\\xb0\\xea\\xb1\\xb4\\xeb\\xac\\xb8\\xea\\xb3\\xbc \\xeb\\xb0\\x98\\xeb\\xb3\\xb5\\xeb\\xac\\xb8/ex4_4.sol\":114:640  contract Ex4_4{... */\n      mstore(0x40, 0x80)\n      callvalue\n      dup1\n      iszero\n      tag_1\n      jumpi\n      0x00\n      dup1\n      revert\n    tag_1:\n      pop\n      jumpi(tag_2, lt(calldatasize, 0x04))\n      shr(0xe0, calldataload(0x00))\n      dup1\n      0x7a927e8f\n      eq\n      tag_3\n      jumpi\n      dup1\n      0xacd9fd65\n      eq\n      tag_4\n      jumpi\n    tag_2:\n      0x00\n      dup1\n      revert\n        /* \"4\\xec\\x9e\\xa5_\\xec\\xa1\\xb0\\xea\\xb1\\xb4\\xeb\\xac\\xb8\\xea\\xb3\\xbc \\xeb\\xb0\\x98\\xeb\\xb3\\xb5\\xeb\\xac\\xb8/ex4_4.sol\":385:637  function fun2(uint a) public pure returns(uint){... */\n    tag_3:\n      tag_5\n      0x04\n      dup1\n      calldatasize\n      sub\n      dup2\n      add\n      swap1\n      tag_6\n      swap2\n      swap1\n      tag_7\n      jump\t// in\n    tag_6:\n      tag_8\n      jump\t// in\n    tag_5:\n      mload(0x40)\n      tag_9\n      swap2\n      swap1\n      tag_10\n      jump\t// in\n    tag_9:\n      mload(0x40)\n      dup1\n      swap2\n      sub\n      swap1\n      return\n        /* \"4\\xec\\x9e\\xa5_\\xec\\xa1\\xb0\\xea\\xb1\\xb4\\xeb\\xac\\xb8\\xea\\xb3\\xbc \\xeb\\xb0\\x98\\xeb\\xb3\\xb5\\xeb\\xac\\xb8/ex4_4.sol\":135:377  function fun1(uint a) public pure returns(uint){... */\n    tag_4:\n      tag_11\n      0x04\n      dup1\n      calldatasize\n      sub\n      dup2\n      add\n      swap1\n      tag_12\n      swap2\n      swap1\n      tag_7\n      jump\t// in\n    tag_12:\n      tag_13\n      jump\t// in\n    tag_11:\n      mload(0x40)\n      tag_14\n      swap2\n      swap1\n      tag_10\n      jump\t// in\n    tag_14:\n      mload(0x40)\n      dup1\n      swap2\n      sub\n      swap1\n      return\n        /* \"4\\xec\\x9e\\xa5_\\xec\\xa1\\xb0\\xea\\xb1\\xb4\\xeb\\xac\\xb8\\xea\\xb3\\xbc \\xeb\\xb0\\x98\\xeb\\xb3\\xb5\\xeb\\xac\\xb8/ex4_4.sol\":385:637  function fun2(uint a) public pure returns(uint){... */\n    tag_8:\n        /* \"4\\xec\\x9e\\xa5_\\xec\\xa1\\xb0\\xea\\xb1\\xb4\\xeb\\xac\\xb8\\xea\\xb3\\xbc \\xeb\\xb0\\x98\\xeb\\xb3\\xb5\\xeb\\xac\\xb8/ex4_4.sol\":427:431  uint */\n      0x00\n        /* \"4\\xec\\x9e\\xa5_\\xec\\xa1\\xb0\\xea\\xb1\\xb4\\xeb\\xac\\xb8\\xea\\xb3\\xbc \\xeb\\xb0\\x98\\xeb\\xb3\\xb5\\xeb\\xac\\xb8/ex4_4.sol\":449:450  1 */\n      0x01\n        /* \"4\\xec\\x9e\\xa5_\\xec\\xa1\\xb0\\xea\\xb1\\xb4\\xeb\\xac\\xb8\\xea\\xb3\\xbc \\xeb\\xb0\\x98\\xeb\\xb3\\xb5\\xeb\\xac\\xb8/ex4_4.sol\":446:447  a */\n      dup3\n        /* \"4\\xec\\x9e\\xa5_\\xec\\xa1\\xb0\\xea\\xb1\\xb4\\xeb\\xac\\xb8\\xea\\xb3\\xbc \\xeb\\xb0\\x98\\xeb\\xb3\\xb5\\xeb\\xac\\xb8/ex4_4.sol\":446:450  a>=1 */\n      lt\n        /* \"4\\xec\\x9e\\xa5_\\xec\\xa1\\xb0\\xea\\xb1\\xb4\\xeb\\xac\\xb8\\xea\\xb3\\xbc \\xeb\\xb0\\x98\\xeb\\xb3\\xb5\\xeb\\xac\\xb8/ex4_4.sol\":443:481  if(a>=1){... */\n      tag_16\n      jumpi\n        /* \"4\\xec\\x9e\\xa5_\\xec\\xa1\\xb0\\xea\\xb1\\xb4\\xeb\\xac\\xb8\\xea\\xb3\\xbc \\xeb\\xb0\\x98\\xeb\\xb3\\xb5\\xeb\\xac\\xb8/ex4_4.sol\":468:469  1 */\n      0x01\n        /* \"4\\xec\\x9e\\xa5_\\xec\\xa1\\xb0\\xea\\xb1\\xb4\\xeb\\xac\\xb8\\xea\\xb3\\xbc \\xeb\\xb0\\x98\\xeb\\xb3\\xb5\\xeb\\xac\\xb8/ex4_4.sol\":466:469  a=1 */\n      swap2\n      pop\n        /* \"4\\xec\\x9e\\xa5_\\xec\\xa1\\xb0\\xea\\xb1\\xb4\\xeb\\xac\\xb8\\xea\\xb3\\xbc \\xeb\\xb0\\x98\\xeb\\xb3\\xb5\\xeb\\xac\\xb8/ex4_4.sol\":443:481  if(a>=1){... */\n    tag_16:\n        /* \"4\\xec\\x9e\\xa5_\\xec\\xa1\\xb0\\xea\\xb1\\xb4\\xeb\\xac\\xb8\\xea\\xb3\\xbc \\xeb\\xb0\\x98\\xeb\\xb3\\xb5\\xeb\\xac\\xb8/ex4_4.sol\":497:498  2 */\n      0x02\n        /* \"4\\xec\\x9e\\xa5_\\xec\\xa1\\xb0\\xea\\xb1\\xb4\\xeb\\xac\\xb8\\xea\\xb3\\xbc \\xeb\\xb0\\x98\\xeb\\xb3\\xb5\\xeb\\xac\\xb8/ex4_4.sol\":494:495  a */\n      dup3\n        /* \"4\\xec\\x9e\\xa5_\\xec\\xa1\\xb0\\xea\\xb1\\xb4\\xeb\\xac\\xb8\\xea\\xb3\\xbc \\xeb\\xb0\\x98\\xeb\\xb3\\xb5\\xeb\\xac\\xb8/ex4_4.sol\":494:498  a>=2 */\n      lt\n        /* \"4\\xec\\x9e\\xa5_\\xec\\xa1\\xb0\\xea\\xb1\\xb4\\xeb\\xac\\xb8\\xea\\xb3\\xbc \\xeb\\xb0\\x98\\xeb\\xb3\\xb5\\xeb\\xac\\xb8/ex4_4.sol\":491:529  if(a>=2){... */\n      tag_17\n      jumpi\n        /* \"4\\xec\\x9e\\xa5_\\xec\\xa1\\xb0\\xea\\xb1\\xb4\\xeb\\xac\\xb8\\xea\\xb3\\xbc \\xeb\\xb0\\x98\\xeb\\xb3\\xb5\\xeb\\xac\\xb8/ex4_4.sol\":516:517  2 */\n      0x02\n        /* \"4\\xec\\x9e\\xa5_\\xec\\xa1\\xb0\\xea\\xb1\\xb4\\xeb\\xac\\xb8\\xea\\xb3\\xbc \\xeb\\xb0\\x98\\xeb\\xb3\\xb5\\xeb\\xac\\xb8/ex4_4.sol\":514:517  a=2 */\n      swap2\n      pop\n        /* \"4\\xec\\x9e\\xa5_\\xec\\xa1\\xb0\\xea\\xb1\\xb4\\xeb\\xac\\xb8\\xea\\xb3\\xbc \\xeb\\xb0\\x98\\xeb\\xb3\\xb5\\xeb\\xac\\xb8/ex4_4.sol\":491:529  if(a>=2){... */\n    tag_17:\n        /* \"4\\xec\\x9e\\xa5_\\xec\\xa1\\xb0\\xea\\xb1\\xb4\\xeb\\xac\\xb8\\xea\\xb3\\xbc \\xeb\\xb0\\x98\\xeb\\xb3\\xb5\\xeb\\xac\\xb8/ex4_4.sol\":545:546  3 */\n      0x03\n        /* \"4\\xec\\x9e\\xa5_\\xec\\xa1\\xb0\\xea\\xb1\\xb4\\xeb\\xac\\xb8\\xea\\xb3\\xbc \\xeb\\xb0\\x98\\xeb\\xb3\\xb5\\xeb\\xac\\xb8/ex4_4.sol\":542:543  a */\n      dup3\n        /* \"4\\xec\\x9e\\xa5_\\xec\\xa1\\xb0\\xea\\xb1\\xb4\\xeb\\xac\\xb8\\xea\\xb3\\xbc \\xeb\\xb0\\x98\\xeb\\xb3\\xb5\\xeb\\xac\\xb8/ex4_4.sol\":542:546  a>=3 */\n      lt\n        /* \"4\\xec\\x9e\\xa5_\\xec\\xa1\\xb0\\xea\\xb1\\xb4\\xeb\\xac\\xb8\\xea\\xb3\\xbc \\xeb\\xb0\\x98\\xeb\\xb3\\xb5\\xeb\\xac\\xb8/ex4_4.sol\":539:611  if(a>=3){... */\n      tag_18\n      jumpi\n        /* \"4\\xec\\x9e\\xa5_\\xec\\xa1\\xb0\\xea\\xb1\\xb4\\xeb\\xac\\xb8\\xea\\xb3\\xbc \\xeb\\xb0\\x98\\xeb\\xb3\\xb5\\xeb\\xac\\xb8/ex4_4.sol\":564:565  3 */\n      0x03\n        /* \"4\\xec\\x9e\\xa5_\\xec\\xa1\\xb0\\xea\\xb1\\xb4\\xeb\\xac\\xb8\\xea\\xb3\\xbc \\xeb\\xb0\\x98\\xeb\\xb3\\xb5\\xeb\\xac\\xb8/ex4_4.sol\":562:565  a=3 */\n      swap2\n      pop\n        /* \"4\\xec\\x9e\\xa5_\\xec\\xa1\\xb0\\xea\\xb1\\xb4\\xeb\\xac\\xb8\\xea\\xb3\\xbc \\xeb\\xb0\\x98\\xeb\\xb3\\xb5\\xeb\\xac\\xb8/ex4_4.sol\":539:611  if(a>=3){... */\n      jump(tag_19)\n    tag_18:\n        /* \"4\\xec\\x9e\\xa5_\\xec\\xa1\\xb0\\xea\\xb1\\xb4\\xeb\\xac\\xb8\\xea\\xb3\\xbc \\xeb\\xb0\\x98\\xeb\\xb3\\xb5\\xeb\\xac\\xb8/ex4_4.sol\":598:599  4 */\n      0x04\n        /* \"4\\xec\\x9e\\xa5_\\xec\\xa1\\xb0\\xea\\xb1\\xb4\\xeb\\xac\\xb8\\xea\\xb3\\xbc \\xeb\\xb0\\x98\\xeb\\xb3\\xb5\\xeb\\xac\\xb8/ex4_4.sol\":596:599  a=4 */\n      swap2\n      pop\n        /* \"4\\xec\\x9e\\xa5_\\xec\\xa1\\xb0\\xea\\xb1\\xb4\\xeb\\xac\\xb8\\xea\\xb3\\xbc \\xeb\\xb0\\x98\\xeb\\xb3\\xb5\\xeb\\xac\\xb8/ex4_4.sol\":539:611  if(a>=3){... */\n    tag_19:\n        /* \"4\\xec\\x9e\\xa5_\\xec\\xa1\\xb0\\xea\\xb1\\xb4\\xeb\\xac\\xb8\\xea\\xb3\\xbc \\xeb\\xb0\\x98\\xeb\\xb3\\xb5\\xeb\\xac\\xb8/ex4_4.sol\":628:629  a */\n      dup2\n        /* \"4\\xec\\x9e\\xa5_\\xec\\xa1\\xb0\\xea\\xb1\\xb4\\xeb\\xac\\xb8\\xea\\xb3\\xbc \\xeb\\xb0\\x98\\xeb\\xb3\\xb5\\xeb\\xac\\xb8/ex4_4.sol\":621:629  return a */\n      swap1\n      pop\n        /* \"4\\xec\\x9e\\xa5_\\xec\\xa1\\xb0\\xea\\xb1\\xb4\\xeb\\xac\\xb8\\xea\\xb3\\xbc \\xeb\\xb0\\x98\\xeb\\xb3\\xb5\\xeb\\xac\\xb8/ex4_4.sol\":385:637  function fun2(uint a) public pure returns(uint){... */\n      swap2\n      swap1\n      pop\n      jump\t// out\n        /* \"4\\xec\\x9e\\xa5_\\xec\\xa1\\xb0\\xea\\xb1\\xb4\\xeb\\xac\\xb8\\xea\\xb3\\xbc \\xeb\\xb0\\x98\\xeb\\xb3\\xb5\\xeb\\xac\\xb8/ex4_4.sol\":135:377  function fun1(uint a) public pure returns(uint){... */\n    tag_13:\n        /* \"4\\xec\\x9e\\xa5_\\xec\\xa1\\xb0\\xea\\xb1\\xb4\\xeb\\xac\\xb8\\xea\\xb3\\xbc \\xeb\\xb0\\x98\\xeb\\xb3\\xb5\\xeb\\xac\\xb8/ex4_4.sol\":177:181  uint */\n      0x00\n        /* \"4\\xec\\x9e\\xa5_\\xec\\xa1\\xb0\\xea\\xb1\\xb4\\xeb\\xac\\xb8\\xea\\xb3\\xbc \\xeb\\xb0\\x98\\xeb\\xb3\\xb5\\xeb\\xac\\xb8/ex4_4.sol\":199:200  1 */\n      0x01\n        /* \"4\\xec\\x9e\\xa5_\\xec\\xa1\\xb0\\xea\\xb1\\xb4\\xeb\\xac\\xb8\\xea\\xb3\\xbc \\xeb\\xb0\\x98\\xeb\\xb3\\xb5\\xeb\\xac\\xb8/ex4_4.sol\":196:197  a */\n      dup3\n        /* \"4\\xec\\x9e\\xa5_\\xec\\xa1\\xb0\\xea\\xb1\\xb4\\xeb\\xac\\xb8\\xea\\xb3\\xbc \\xeb\\xb0\\x98\\xeb\\xb3\\xb5\\xeb\\xac\\xb8/ex4_4.sol\":196:200  a>=1 */\n      lt\n        /* \"4\\xec\\x9e\\xa5_\\xec\\xa1\\xb0\\xea\\xb1\\xb4\\xeb\\xac\\xb8\\xea\\xb3\\xbc \\xeb\\xb0\\x98\\xeb\\xb3\\xb5\\xeb\\xac\\xb8/ex4_4.sol\":193:351  if(a>=1){... */\n      tag_21\n      jumpi\n        /* \"4\\xec\\x9e\\xa5_\\xec\\xa1\\xb0\\xea\\xb1\\xb4\\xeb\\xac\\xb8\\xea\\xb3\\xbc \\xeb\\xb0\\x98\\xeb\\xb3\\xb5\\xeb\\xac\\xb8/ex4_4.sol\":218:219  1 */\n      0x01\n        /* \"4\\xec\\x9e\\xa5_\\xec\\xa1\\xb0\\xea\\xb1\\xb4\\xeb\\xac\\xb8\\xea\\xb3\\xbc \\xeb\\xb0\\x98\\xeb\\xb3\\xb5\\xeb\\xac\\xb8/ex4_4.sol\":216:219  a=1 */\n      swap2\n      pop\n        /* \"4\\xec\\x9e\\xa5_\\xec\\xa1\\xb0\\xea\\xb1\\xb4\\xeb\\xac\\xb8\\xea\\xb3\\xbc \\xeb\\xb0\\x98\\xeb\\xb3\\xb5\\xeb\\xac\\xb8/ex4_4.sol\":193:351  if(a>=1){... */\n      jump(tag_22)\n    tag_21:\n        /* \"4\\xec\\x9e\\xa5_\\xec\\xa1\\xb0\\xea\\xb1\\xb4\\xeb\\xac\\xb8\\xea\\xb3\\xbc \\xeb\\xb0\\x98\\xeb\\xb3\\xb5\\xeb\\xac\\xb8/ex4_4.sol\":242:243  2 */\n      0x02\n        /* \"4\\xec\\x9e\\xa5_\\xec\\xa1\\xb0\\xea\\xb1\\xb4\\xeb\\xac\\xb8\\xea\\xb3\\xbc \\xeb\\xb0\\x98\\xeb\\xb3\\xb5\\xeb\\xac\\xb8/ex4_4.sol\":239:240  a */\n      dup3\n        /* \"4\\xec\\x9e\\xa5_\\xec\\xa1\\xb0\\xea\\xb1\\xb4\\xeb\\xac\\xb8\\xea\\xb3\\xbc \\xeb\\xb0\\x98\\xeb\\xb3\\xb5\\xeb\\xac\\xb8/ex4_4.sol\":239:243  a>=2 */\n      lt\n        /* \"4\\xec\\x9e\\xa5_\\xec\\xa1\\xb0\\xea\\xb1\\xb4\\xeb\\xac\\xb8\\xea\\xb3\\xbc \\xeb\\xb0\\x98\\xeb\\xb3\\xb5\\xeb\\xac\\xb8/ex4_4.sol\":236:351  if(a>=2){... */\n      tag_23\n      jumpi\n        /* \"4\\xec\\x9e\\xa5_\\xec\\xa1\\xb0\\xea\\xb1\\xb4\\xeb\\xac\\xb8\\xea\\xb3\\xbc \\xeb\\xb0\\x98\\xeb\\xb3\\xb5\\xeb\\xac\\xb8/ex4_4.sol\":261:262  2 */\n      0x02\n        /* \"4\\xec\\x9e\\xa5_\\xec\\xa1\\xb0\\xea\\xb1\\xb4\\xeb\\xac\\xb8\\xea\\xb3\\xbc \\xeb\\xb0\\x98\\xeb\\xb3\\xb5\\xeb\\xac\\xb8/ex4_4.sol\":259:262  a=2 */\n      swap2\n      pop\n        /* \"4\\xec\\x9e\\xa5_\\xec\\xa1\\xb0\\xea\\xb1\\xb4\\xeb\\xac\\xb8\\xea\\xb3\\xbc \\xeb\\xb0\\x98\\xeb\\xb3\\xb5\\xeb\\xac\\xb8/ex4_4.sol\":236:351  if(a>=2){... */\n      jump(tag_24)\n    tag_23:\n        /* \"4\\xec\\x9e\\xa5_\\xec\\xa1\\xb0\\xea\\xb1\\xb4\\xeb\\xac\\xb8\\xea\\xb3\\xbc \\xeb\\xb0\\x98\\xeb\\xb3\\xb5\\xeb\\xac\\xb8/ex4_4.sol\":285:286  3 */\n      0x03\n        /* \"4\\xec\\x9e\\xa5_\\xec\\xa1\\xb0\\xea\\xb1\\xb4\\xeb\\xac\\xb8\\xea\\xb3\\xbc \\xeb\\xb0\\x98\\xeb\\xb3\\xb5\\xeb\\xac\\xb8/ex4_4.sol\":282:283  a */\n      dup3\n        /* \"4\\xec\\x9e\\xa5_\\xec\\xa1\\xb0\\xea\\xb1\\xb4\\xeb\\xac\\xb8\\xea\\xb3\\xbc \\xeb\\xb0\\x98\\xeb\\xb3\\xb5\\xeb\\xac\\xb8/ex4_4.sol\":282:286  a>=3 */\n      lt\n        /* \"4\\xec\\x9e\\xa5_\\xec\\xa1\\xb0\\xea\\xb1\\xb4\\xeb\\xac\\xb8\\xea\\xb3\\xbc \\xeb\\xb0\\x98\\xeb\\xb3\\xb5\\xeb\\xac\\xb8/ex4_4.sol\":279:351  if(a>=3){... */\n      tag_25\n      jumpi\n        /* \"4\\xec\\x9e\\xa5_\\xec\\xa1\\xb0\\xea\\xb1\\xb4\\xeb\\xac\\xb8\\xea\\xb3\\xbc \\xeb\\xb0\\x98\\xeb\\xb3\\xb5\\xeb\\xac\\xb8/ex4_4.sol\":304:305  3 */\n      0x03\n        /* \"4\\xec\\x9e\\xa5_\\xec\\xa1\\xb0\\xea\\xb1\\xb4\\xeb\\xac\\xb8\\xea\\xb3\\xbc \\xeb\\xb0\\x98\\xeb\\xb3\\xb5\\xeb\\xac\\xb8/ex4_4.sol\":302:305  a=3 */\n      swap2\n      pop\n        /* \"4\\xec\\x9e\\xa5_\\xec\\xa1\\xb0\\xea\\xb1\\xb4\\xeb\\xac\\xb8\\xea\\xb3\\xbc \\xeb\\xb0\\x98\\xeb\\xb3\\xb5\\xeb\\xac\\xb8/ex4_4.sol\":279:351  if(a>=3){... */\n      jump(tag_26)\n    tag_25:\n        /* \"4\\xec\\x9e\\xa5_\\xec\\xa1\\xb0\\xea\\xb1\\xb4\\xeb\\xac\\xb8\\xea\\xb3\\xbc \\xeb\\xb0\\x98\\xeb\\xb3\\xb5\\xeb\\xac\\xb8/ex4_4.sol\":338:339  4 */\n      0x04\n        /* \"4\\xec\\x9e\\xa5_\\xec\\xa1\\xb0\\xea\\xb1\\xb4\\xeb\\xac\\xb8\\xea\\xb3\\xbc \\xeb\\xb0\\x98\\xeb\\xb3\\xb5\\xeb\\xac\\xb8/ex4_4.sol\":336:339  a=4 */\n      swap2\n      pop\n        /* \"4\\xec\\x9e\\xa5_\\xec\\xa1\\xb0\\xea\\xb1\\xb4\\xeb\\xac\\xb8\\xea\\xb3\\xbc \\xeb\\xb0\\x98\\xeb\\xb3\\xb5\\xeb\\xac\\xb8/ex4_4.sol\":279:351  if(a>=3){... */\n    tag_26:\n        /* \"4\\xec\\x9e\\xa5_\\xec\\xa1\\xb0\\xea\\xb1\\xb4\\xeb\\xac\\xb8\\xea\\xb3\\xbc \\xeb\\xb0\\x98\\xeb\\xb3\\xb5\\xeb\\xac\\xb8/ex4_4.sol\":236:351  if(a>=2){... */\n    tag_24:\n        /* \"4\\xec\\x9e\\xa5_\\xec\\xa1\\xb0\\xea\\xb1\\xb4\\xeb\\xac\\xb8\\xea\\xb3\\xbc \\xeb\\xb0\\x98\\xeb\\xb3\\xb5\\xeb\\xac\\xb8/ex4_4.sol\":193:351  if(a>=1){... */\n    tag_22:\n        /* \"4\\xec\\x9e\\xa5_\\xec\\xa1\\xb0\\xea\\xb1\\xb4\\xeb\\xac\\xb8\\xea\\xb3\\xbc \\xeb\\xb0\\x98\\xeb\\xb3\\xb5\\xeb\\xac\\xb8/ex4_4.sol\":368:369  a */\n      dup2\n        /* \"4\\xec\\x9e\\xa5_\\xec\\xa1\\xb0\\xea\\xb1\\xb4\\xeb\\xac\\xb8\\xea\\xb3\\xbc \\xeb\\xb0\\x98\\xeb\\xb3\\xb5\\xeb\\xac\\xb8/ex4_4.sol\":361:369  return a */\n      swap1\n      pop\n        /* \"4\\xec\\x9e\\xa5_\\xec\\xa1\\xb0\\xea\\xb1\\xb4\\xeb\\xac\\xb8\\xea\\xb3\\xbc \\xeb\\xb0\\x98\\xeb\\xb3\\xb5\\xeb\\xac\\xb8/ex4_4.sol\":135:377  function fun1(uint a) public pure returns(uint){... */\n      swap2\n      swap1\n      pop\n      jump\t// out\n        /* \"#utility.yul\":88:205   */\n    tag_28:\n        /* \"#utility.yul\":197:198   */\n      0x00\n        /* \"#utility.yul\":194:195   */\n      dup1\n        /* \"#utility.yul\":187:199   */\n      revert\n        /* \"#utility.yul\":334:411   */\n    tag_30:\n        /* \"#utility.yul\":371:378   */\n      0x00\n        /* \"#utility.yul\":400:405   */\n      dup2\n        /* \"#utility.yul\":389:405   */\n      swap1\n      pop\n        /* \"#utility.yul\":334:411   */\n      swap2\n      swap1\n      pop\n      jump\t// out\n        /* \"#utility.yul\":417:539   */\n    tag_31:\n        /* \"#utility.yul\":490:514   */\n      tag_40\n        /* \"#utility.yul\":508:513   */\n      dup2\n        /* \"#utility.yul\":490:514   */\n      tag_30\n      jump\t// in\n    tag_40:\n        /* \"#utility.yul\":483:488   */\n      dup2\n        /* \"#utility.yul\":480:515   */\n      eq\n        /* \"#utility.yul\":470:533   */\n      tag_41\n      jumpi\n        /* \"#utility.yul\":529:530   */\n      0x00\n        /* \"#utility.yul\":526:527   */\n      dup1\n        /* \"#utility.yul\":519:531   */\n      revert\n        /* \"#utility.yul\":470:533   */\n    tag_41:\n        /* \"#utility.yul\":417:539   */\n      pop\n      jump\t// out\n        /* \"#utility.yul\":545:684   */\n    tag_32:\n        /* \"#utility.yul\":591:596   */\n      0x00\n        /* \"#utility.yul\":629:635   */\n      dup2\n        /* \"#utility.yul\":616:636   */\n      calldataload\n        /* \"#utility.yul\":607:636   */\n      swap1\n      pop\n        /* \"#utility.yul\":645:678   */\n      tag_43\n        /* \"#utility.yul\":672:677   */\n      dup2\n        /* \"#utility.yul\":645:678   */\n      tag_31\n      jump\t// in\n    tag_43:\n        /* \"#utility.yul\":545:684   */\n      swap3\n      swap2\n      pop\n      pop\n      jump\t// out\n        /* \"#utility.yul\":690:1019   */\n    tag_7:\n        /* \"#utility.yul\":749:755   */\n      0x00\n        /* \"#utility.yul\":798:800   */\n      0x20\n        /* \"#utility.yul\":786:795   */\n      dup3\n        /* \"#utility.yul\":777:784   */\n      dup5\n        /* \"#utility.yul\":773:796   */\n      sub\n        /* \"#utility.yul\":769:801   */\n      slt\n        /* \"#utility.yul\":766:885   */\n      iszero\n      tag_45\n      jumpi\n        /* \"#utility.yul\":804:883   */\n      tag_46\n      tag_28\n      jump\t// in\n    tag_46:\n        /* \"#utility.yul\":766:885   */\n    tag_45:\n        /* \"#utility.yul\":924:925   */\n      0x00\n        /* \"#utility.yul\":949:1002   */\n      tag_47\n        /* \"#utility.yul\":994:1001   */\n      dup5\n        /* \"#utility.yul\":985:991   */\n      dup3\n        /* \"#utility.yul\":974:983   */\n      dup6\n        /* \"#utility.yul\":970:992   */\n      add\n        /* \"#utility.yul\":949:1002   */\n      tag_32\n      jump\t// in\n    tag_47:\n        /* \"#utility.yul\":939:1002   */\n      swap2\n      pop\n        /* \"#utility.yul\":895:1012   */\n      pop\n        /* \"#utility.yul\":690:1019   */\n      swap3\n      swap2\n      pop\n      pop\n      jump\t// out\n        /* \"#utility.yul\":1025:1143   */\n    tag_33:\n        /* \"#utility.yul\":1112:1136   */\n      tag_49\n        /* \"#utility.yul\":1130:1135   */\n      dup2\n        /* \"#utility.yul\":1112:1136   */\n      tag_30\n      jump\t// in\n    tag_49:\n        /* \"#utility.yul\":1107:1110   */\n      dup3\n        /* \"#utility.yul\":1100:1137   */\n      mstore\n        /* \"#utility.yul\":1025:1143   */\n      pop\n      pop\n      jump\t// out\n        /* \"#utility.yul\":1149:1371   */\n    tag_10:\n        /* \"#utility.yul\":1242:1246   */\n      0x00\n        /* \"#utility.yul\":1280:1282   */\n      0x20\n        /* \"#utility.yul\":1269:1278   */\n      dup3\n        /* \"#utility.yul\":1265:1283   */\n      add\n        /* \"#utility.yul\":1257:1283   */\n      swap1\n      pop\n        /* \"#utility.yul\":1293:1364   */\n      tag_51\n        /* \"#utility.yul\":1361:1362   */\n      0x00\n        /* \"#utility.yul\":1350:1359   */\n      dup4\n        /* \"#utility.yul\":1346:1363   */\n      add\n        /* \"#utility.yul\":1337:1343   */\n      dup5\n        /* \"#utility.yul\":1293:1364   */\n      tag_33\n      jump\t// in\n    tag_51:\n        /* \"#utility.yul\":1149:1371   */\n      swap3\n      swap2\n      pop\n      pop\n      jump\t// out\n\n    auxdata: 0xa26469706673582212202bdd1338e9b412c26718388bf125cbaa649aa2790556ca52281452c7469feb6664736f6c63430008180033\n}\n",
				"bytecode": {
					"linkReferences": {},
					"object": "608060405234801561000f575f80fd5b506101d48061001d5f395ff3fe608060405234801561000f575f80fd5b5060043610610034575f3560e01c80637a927e8f14610038578063acd9fd6514610068575b5f80fd5b610052600480360381019061004d919061014b565b610098565b60405161005f9190610185565b60405180910390f35b610082600480360381019061007d919061014b565b6100d1565b60405161008f9190610185565b60405180910390f35b5f600182106100a657600191505b600282106100b357600291505b600382106100c457600391506100c9565b600491505b819050919050565b5f600182106100e3576001915061010c565b600282106100f4576002915061010b565b60038210610105576003915061010a565b600491505b5b5b819050919050565b5f80fd5b5f819050919050565b61012a81610118565b8114610134575f80fd5b50565b5f8135905061014581610121565b92915050565b5f602082840312156101605761015f610114565b5b5f61016d84828501610137565b91505092915050565b61017f81610118565b82525050565b5f6020820190506101985f830184610176565b9291505056fea26469706673582212202bdd1338e9b412c26718388bf125cbaa649aa2790556ca52281452c7469feb6664736f6c63430008180033",
					"opcodes": "PUSH1 0x80 PUSH1 0x40 MSTORE CALLVALUE DUP1 ISZERO PUSH2 0xF JUMPI PUSH0 DUP1 REVERT JUMPDEST POP PUSH2 0x1D4 DUP1 PUSH2 0x1D PUSH0 CODECOPY PUSH0 RETURN INVALID PUSH1 0x80 PUSH1 0x40 MSTORE CALLVALUE DUP1 ISZERO PUSH2 0xF JUMPI PUSH0 DUP1 REVERT JUMPDEST POP PUSH1 0x4 CALLDATASIZE LT PUSH2 0x34 JUMPI PUSH0 CALLDATALOAD PUSH1 0xE0 SHR DUP1 PUSH4 0x7A927E8F EQ PUSH2 0x38 JUMPI DUP1 PUSH4 0xACD9FD65 EQ PUSH2 0x68 JUMPI JUMPDEST PUSH0 DUP1 REVERT JUMPDEST PUSH2 0x52 PUSH1 0x4 DUP1 CALLDATASIZE SUB DUP2 ADD SWAP1 PUSH2 0x4D SWAP2 SWAP1 PUSH2 0x14B JUMP JUMPDEST PUSH2 0x98 JUMP JUMPDEST PUSH1 0x40 MLOAD PUSH2 0x5F SWAP2 SWAP1 PUSH2 0x185 JUMP JUMPDEST PUSH1 0x40 MLOAD DUP1 SWAP2 SUB SWAP1 RETURN JUMPDEST PUSH2 0x82 PUSH1 0x4 DUP1 CALLDATASIZE SUB DUP2 ADD SWAP1 PUSH2 0x7D SWAP2 SWAP1 PUSH2 0x14B JUMP JUMPDEST PUSH2 0xD1 JUMP JUMPDEST PUSH1 0x40 MLOAD PUSH2 0x8F SWAP2 SWAP1 PUSH2 0x185 JUMP JUMPDEST PUSH1 0x40 MLOAD DUP1 SWAP2 SUB SWAP1 RETURN JUMPDEST PUSH0 PUSH1 0x1 DUP3 LT PUSH2 0xA6 JUMPI PUSH1 0x1 SWAP2 POP JUMPDEST PUSH1 0x2 DUP3 LT PUSH2 0xB3 JUMPI PUSH1 0x2 SWAP2 POP JUMPDEST PUSH1 0x3 DUP3 LT PUSH2 0xC4 JUMPI PUSH1 0x3 SWAP2 POP PUSH2 0xC9 JUMP JUMPDEST PUSH1 0x4 SWAP2 POP JUMPDEST DUP2 SWAP1 POP SWAP2 SWAP1 POP JUMP JUMPDEST PUSH0 PUSH1 0x1 DUP3 LT PUSH2 0xE3 JUMPI PUSH1 0x1 SWAP2 POP PUSH2 0x10C JUMP JUMPDEST PUSH1 0x2 DUP3 LT PUSH2 0xF4 JUMPI PUSH1 0x2 SWAP2 POP PUSH2 0x10B JUMP JUMPDEST PUSH1 0x3 DUP3 LT PUSH2 0x105 JUMPI PUSH1 0x3 SWAP2 POP PUSH2 0x10A JUMP JUMPDEST PUSH1 0x4 SWAP2 POP JUMPDEST JUMPDEST JUMPDEST DUP2 SWAP1 POP SWAP2 SWAP1 POP JUMP JUMPDEST PUSH0 DUP1 REVERT JUMPDEST PUSH0 DUP2 SWAP1 POP SWAP2 SWAP1 POP JUMP JUMPDEST PUSH2 0x12A DUP2 PUSH2 0x118 JUMP JUMPDEST DUP2 EQ PUSH2 0x134 JUMPI PUSH0 DUP1 REVERT JUMPDEST POP JUMP JUMPDEST PUSH0 DUP2 CALLDATALOAD SWAP1 POP PUSH2 0x145 DUP2 PUSH2 0x121 JUMP JUMPDEST SWAP3 SWAP2 POP POP JUMP JUMPDEST PUSH0 PUSH1 0x20 DUP3 DUP5 SUB SLT ISZERO PUSH2 0x160 JUMPI PUSH2 0x15F PUSH2 0x114 JUMP JUMPDEST JUMPDEST PUSH0 PUSH2 0x16D DUP5 DUP3 DUP6 ADD PUSH2 0x137 JUMP JUMPDEST SWAP2 POP POP SWAP3 SWAP2 POP POP JUMP JUMPDEST PUSH2 0x17F DUP2 PUSH2 0x118 JUMP JUMPDEST DUP3 MSTORE POP POP JUMP JUMPDEST PUSH0 PUSH1 0x20 DUP3 ADD SWAP1 POP PUSH2 0x198 PUSH0 DUP4 ADD DUP5 PUSH2 0x176 JUMP JUMPDEST SWAP3 SWAP2 POP POP JUMP INVALID LOG2 PUSH5 0x6970667358 0x22 SLT KECCAK256 0x2B 0xDD SGT CODESIZE 0xE9 0xB4 SLT 0xC2 PUSH8 0x18388BF125CBAA64 SWAP11 LOG2 PUSH26 0x556CA52281452C7469FEB6664736F6C63430008180033000000 "
				},
				"gasEstimates": {
					"creation": {
						"codeDepositCost": "93600",
						"executionCost": "139",
						"totalCost": "93739"
					},
					"external": {
						"fun1(uint256)": "infinite",
						"fun2(uint256)": "infinite"
					}
				},
				"methodIdentifiers": {
					"fun1(uint256)": "acd9fd65",
					"fun2(uint256)": "7a927e8f"
				}
			},
			"storageLayout": {
				"storage": [],
				"types": null
			},
			"userdoc": {
				"kind": "user",
				"methods": {},
				"version": 1
			}
		}
	}
}