{
	"4장_조건문과 반복문/ex4_6.sol": {
		"Ex4_6": {
			"abi": [
				{
					"inputs": [],
					"name": "fun1",
					"outputs": [
						{
							"internalType": "uint256",
							"name": "",
							"type": "uint256"
						}
					],
					"stateMutability": "pure",
					"type": "function"
				}
			],
			"devdoc": {
				"kind": "dev",
				"methods": {},
				"version": 1
			},
			"evm": {
				"assembly": "    /* \"4\\xec\\x9e\\xa5_\\xec\\xa1\\xb0\\xea\\xb1\\xb4\\xeb\\xac\\xb8\\xea\\xb3\\xbc \\xeb\\xb0\\x98\\xeb\\xb3\\xb5\\xeb\\xac\\xb8/ex4_6.sol\":106:302  contract Ex4_6{... */\n  mstore(0x40, 0x80)\n  callvalue\n  dup1\n  iszero\n  tag_1\n  jumpi\n  0x00\n  dup1\n  revert\ntag_1:\n  pop\n  dataSize(sub_0)\n  dup1\n  dataOffset(sub_0)\n  0x00\n  codecopy\n  0x00\n  return\nstop\n\nsub_0: assembly {\n        /* \"4\\xec\\x9e\\xa5_\\xec\\xa1\\xb0\\xea\\xb1\\xb4\\xeb\\xac\\xb8\\xea\\xb3\\xbc \\xeb\\xb0\\x98\\xeb\\xb3\\xb5\\xeb\\xac\\xb8/ex4_6.sol\":106:302  contract Ex4_6{... */\n      mstore(0x40, 0x80)\n      callvalue\n      dup1\n      iszero\n      tag_1\n      jumpi\n      0x00\n      dup1\n      revert\n    tag_1:\n      pop\n      jumpi(tag_2, lt(calldatasize, 0x04))\n      shr(0xe0, calldataload(0x00))\n      dup1\n      0x446a45b7\n      eq\n      tag_3\n      jumpi\n    tag_2:\n      0x00\n      dup1\n      revert\n        /* \"4\\xec\\x9e\\xa5_\\xec\\xa1\\xb0\\xea\\xb1\\xb4\\xeb\\xac\\xb8\\xea\\xb3\\xbc \\xeb\\xb0\\x98\\xeb\\xb3\\xb5\\xeb\\xac\\xb8/ex4_6.sol\":127:299  function fun1() public pure returns(uint){... */\n    tag_3:\n      tag_4\n      tag_5\n      jump\t// in\n    tag_4:\n      mload(0x40)\n      tag_6\n      swap2\n      swap1\n      tag_7\n      jump\t// in\n    tag_6:\n      mload(0x40)\n      dup1\n      swap2\n      sub\n      swap1\n      return\n    tag_5:\n        /* \"4\\xec\\x9e\\xa5_\\xec\\xa1\\xb0\\xea\\xb1\\xb4\\xeb\\xac\\xb8\\xea\\xb3\\xbc \\xeb\\xb0\\x98\\xeb\\xb3\\xb5\\xeb\\xac\\xb8/ex4_6.sol\":163:167  uint */\n      0x00\n        /* \"4\\xec\\x9e\\xa5_\\xec\\xa1\\xb0\\xea\\xb1\\xb4\\xeb\\xac\\xb8\\xea\\xb3\\xbc \\xeb\\xb0\\x98\\xeb\\xb3\\xb5\\xeb\\xac\\xb8/ex4_6.sol\":179:190  uint result */\n      dup1\n        /* \"4\\xec\\x9e\\xa5_\\xec\\xa1\\xb0\\xea\\xb1\\xb4\\xeb\\xac\\xb8\\xea\\xb3\\xbc \\xeb\\xb0\\x98\\xeb\\xb3\\xb5\\xeb\\xac\\xb8/ex4_6.sol\":191:192  0 */\n      0x00\n        /* \"4\\xec\\x9e\\xa5_\\xec\\xa1\\xb0\\xea\\xb1\\xb4\\xeb\\xac\\xb8\\xea\\xb3\\xbc \\xeb\\xb0\\x98\\xeb\\xb3\\xb5\\xeb\\xac\\xb8/ex4_6.sol\":179:192  uint result=0 */\n      swap1\n      pop\n        /* \"4\\xec\\x9e\\xa5_\\xec\\xa1\\xb0\\xea\\xb1\\xb4\\xeb\\xac\\xb8\\xea\\xb3\\xbc \\xeb\\xb0\\x98\\xeb\\xb3\\xb5\\xeb\\xac\\xb8/ex4_6.sol\":207:213  uint a */\n      0x00\n        /* \"4\\xec\\x9e\\xa5_\\xec\\xa1\\xb0\\xea\\xb1\\xb4\\xeb\\xac\\xb8\\xea\\xb3\\xbc \\xeb\\xb0\\x98\\xeb\\xb3\\xb5\\xeb\\xac\\xb8/ex4_6.sol\":203:268  for(uint a=0; a<3; ++a){... */\n    tag_9:\n        /* \"4\\xec\\x9e\\xa5_\\xec\\xa1\\xb0\\xea\\xb1\\xb4\\xeb\\xac\\xb8\\xea\\xb3\\xbc \\xeb\\xb0\\x98\\xeb\\xb3\\xb5\\xeb\\xac\\xb8/ex4_6.sol\":219:220  3 */\n      0x03\n        /* \"4\\xec\\x9e\\xa5_\\xec\\xa1\\xb0\\xea\\xb1\\xb4\\xeb\\xac\\xb8\\xea\\xb3\\xbc \\xeb\\xb0\\x98\\xeb\\xb3\\xb5\\xeb\\xac\\xb8/ex4_6.sol\":217:218  a */\n      dup2\n        /* \"4\\xec\\x9e\\xa5_\\xec\\xa1\\xb0\\xea\\xb1\\xb4\\xeb\\xac\\xb8\\xea\\xb3\\xbc \\xeb\\xb0\\x98\\xeb\\xb3\\xb5\\xeb\\xac\\xb8/ex4_6.sol\":217:220  a<3 */\n      lt\n        /* \"4\\xec\\x9e\\xa5_\\xec\\xa1\\xb0\\xea\\xb1\\xb4\\xeb\\xac\\xb8\\xea\\xb3\\xbc \\xeb\\xb0\\x98\\xeb\\xb3\\xb5\\xeb\\xac\\xb8/ex4_6.sol\":203:268  for(uint a=0; a<3; ++a){... */\n      iszero\n      tag_10\n      jumpi\n        /* \"4\\xec\\x9e\\xa5_\\xec\\xa1\\xb0\\xea\\xb1\\xb4\\xeb\\xac\\xb8\\xea\\xb3\\xbc \\xeb\\xb0\\x98\\xeb\\xb3\\xb5\\xeb\\xac\\xb8/ex4_6.sol\":255:256  a */\n      dup1\n        /* \"4\\xec\\x9e\\xa5_\\xec\\xa1\\xb0\\xea\\xb1\\xb4\\xeb\\xac\\xb8\\xea\\xb3\\xbc \\xeb\\xb0\\x98\\xeb\\xb3\\xb5\\xeb\\xac\\xb8/ex4_6.sol\":248:254  result */\n      dup3\n        /* \"4\\xec\\x9e\\xa5_\\xec\\xa1\\xb0\\xea\\xb1\\xb4\\xeb\\xac\\xb8\\xea\\xb3\\xbc \\xeb\\xb0\\x98\\xeb\\xb3\\xb5\\xeb\\xac\\xb8/ex4_6.sol\":248:256  result+a */\n      tag_12\n      swap2\n      swap1\n      tag_13\n      jump\t// in\n    tag_12:\n        /* \"4\\xec\\x9e\\xa5_\\xec\\xa1\\xb0\\xea\\xb1\\xb4\\xeb\\xac\\xb8\\xea\\xb3\\xbc \\xeb\\xb0\\x98\\xeb\\xb3\\xb5\\xeb\\xac\\xb8/ex4_6.sol\":241:256  result=result+a */\n      swap2\n      pop\n        /* \"4\\xec\\x9e\\xa5_\\xec\\xa1\\xb0\\xea\\xb1\\xb4\\xeb\\xac\\xb8\\xea\\xb3\\xbc \\xeb\\xb0\\x98\\xeb\\xb3\\xb5\\xeb\\xac\\xb8/ex4_6.sol\":222:225  ++a */\n      dup1\n      0x01\n      add\n      swap1\n      pop\n        /* \"4\\xec\\x9e\\xa5_\\xec\\xa1\\xb0\\xea\\xb1\\xb4\\xeb\\xac\\xb8\\xea\\xb3\\xbc \\xeb\\xb0\\x98\\xeb\\xb3\\xb5\\xeb\\xac\\xb8/ex4_6.sol\":203:268  for(uint a=0; a<3; ++a){... */\n      jump(tag_9)\n    tag_10:\n      pop\n        /* \"4\\xec\\x9e\\xa5_\\xec\\xa1\\xb0\\xea\\xb1\\xb4\\xeb\\xac\\xb8\\xea\\xb3\\xbc \\xeb\\xb0\\x98\\xeb\\xb3\\xb5\\xeb\\xac\\xb8/ex4_6.sol\":285:291  result */\n      dup1\n        /* \"4\\xec\\x9e\\xa5_\\xec\\xa1\\xb0\\xea\\xb1\\xb4\\xeb\\xac\\xb8\\xea\\xb3\\xbc \\xeb\\xb0\\x98\\xeb\\xb3\\xb5\\xeb\\xac\\xb8/ex4_6.sol\":278:291  return result */\n      swap2\n      pop\n      pop\n        /* \"4\\xec\\x9e\\xa5_\\xec\\xa1\\xb0\\xea\\xb1\\xb4\\xeb\\xac\\xb8\\xea\\xb3\\xbc \\xeb\\xb0\\x98\\xeb\\xb3\\xb5\\xeb\\xac\\xb8/ex4_6.sol\":127:299  function fun1() public pure returns(uint){... */\n      swap1\n      jump\t// out\n        /* \"#utility.yul\":7:84   */\n    tag_14:\n        /* \"#utility.yul\":44:51   */\n      0x00\n        /* \"#utility.yul\":73:78   */\n      dup2\n        /* \"#utility.yul\":62:78   */\n      swap1\n      pop\n        /* \"#utility.yul\":7:84   */\n      swap2\n      swap1\n      pop\n      jump\t// out\n        /* \"#utility.yul\":90:208   */\n    tag_15:\n        /* \"#utility.yul\":177:201   */\n      tag_20\n        /* \"#utility.yul\":195:200   */\n      dup2\n        /* \"#utility.yul\":177:201   */\n      tag_14\n      jump\t// in\n    tag_20:\n        /* \"#utility.yul\":172:175   */\n      dup3\n        /* \"#utility.yul\":165:202   */\n      mstore\n        /* \"#utility.yul\":90:208   */\n      pop\n      pop\n      jump\t// out\n        /* \"#utility.yul\":214:436   */\n    tag_7:\n        /* \"#utility.yul\":307:311   */\n      0x00\n        /* \"#utility.yul\":345:347   */\n      0x20\n        /* \"#utility.yul\":334:343   */\n      dup3\n        /* \"#utility.yul\":330:348   */\n      add\n        /* \"#utility.yul\":322:348   */\n      swap1\n      pop\n        /* \"#utility.yul\":358:429   */\n      tag_22\n        /* \"#utility.yul\":426:427   */\n      0x00\n        /* \"#utility.yul\":415:424   */\n      dup4\n        /* \"#utility.yul\":411:428   */\n      add\n        /* \"#utility.yul\":402:408   */\n      dup5\n        /* \"#utility.yul\":358:429   */\n      tag_15\n      jump\t// in\n    tag_22:\n        /* \"#utility.yul\":214:436   */\n      swap3\n      swap2\n      pop\n      pop\n      jump\t// out\n        /* \"#utility.yul\":442:622   */\n    tag_16:\n        /* \"#utility.yul\":490:567   */\n      0x4e487b7100000000000000000000000000000000000000000000000000000000\n        /* \"#utility.yul\":487:488   */\n      0x00\n        /* \"#utility.yul\":480:568   */\n      mstore\n        /* \"#utility.yul\":587:591   */\n      0x11\n        /* \"#utility.yul\":584:585   */\n      0x04\n        /* \"#utility.yul\":577:592   */\n      mstore\n        /* \"#utility.yul\":611:615   */\n      0x24\n        /* \"#utility.yul\":608:609   */\n      0x00\n        /* \"#utility.yul\":601:616   */\n      revert\n        /* \"#utility.yul\":628:819   */\n    tag_13:\n        /* \"#utility.yul\":668:671   */\n      0x00\n        /* \"#utility.yul\":687:707   */\n      tag_25\n        /* \"#utility.yul\":705:706   */\n      dup3\n        /* \"#utility.yul\":687:707   */\n      tag_14\n      jump\t// in\n    tag_25:\n        /* \"#utility.yul\":682:707   */\n      swap2\n      pop\n        /* \"#utility.yul\":721:741   */\n      tag_26\n        /* \"#utility.yul\":739:740   */\n      dup4\n        /* \"#utility.yul\":721:741   */\n      tag_14\n      jump\t// in\n    tag_26:\n        /* \"#utility.yul\":716:741   */\n      swap3\n      pop\n        /* \"#utility.yul\":764:765   */\n      dup3\n        /* \"#utility.yul\":761:762   */\n      dup3\n        /* \"#utility.yul\":757:766   */\n      add\n        /* \"#utility.yul\":750:766   */\n      swap1\n      pop\n        /* \"#utility.yul\":785:788   */\n      dup1\n        /* \"#utility.yul\":782:783   */\n      dup3\n        /* \"#utility.yul\":779:789   */\n      gt\n        /* \"#utility.yul\":776:812   */\n      iszero\n      tag_27\n      jumpi\n        /* \"#utility.yul\":792:810   */\n      tag_28\n      tag_16\n      jump\t// in\n    tag_28:\n        /* \"#utility.yul\":776:812   */\n    tag_27:\n        /* \"#utility.yul\":628:819   */\n      swap3\n      swap2\n      pop\n      pop\n      jump\t// out\n\n    auxdata: 0xa2646970667358221220986d7a9c4fa22586871a1a3ecbb839374ee08df087e2d0de8c88c886402be20964736f6c63430008180033\n}\n",
				"bytecode": {
					"linkReferences": {},
					"object": "608060405234801561000f575f80fd5b506101438061001d5f395ff3fe608060405234801561000f575f80fd5b5060043610610029575f3560e01c8063446a45b71461002d575b5f80fd5b61003561004b565b6040516100429190610094565b60405180910390f35b5f805f90505f5b600381101561007457808261006791906100da565b9150806001019050610052565b508091505090565b5f819050919050565b61008e8161007c565b82525050565b5f6020820190506100a75f830184610085565b92915050565b7f4e487b71000000000000000000000000000000000000000000000000000000005f52601160045260245ffd5b5f6100e48261007c565b91506100ef8361007c565b9250828201905080821115610107576101066100ad565b5b9291505056fea2646970667358221220986d7a9c4fa22586871a1a3ecbb839374ee08df087e2d0de8c88c886402be20964736f6c63430008180033",
					"opcodes": "PUSH1 0x80 PUSH1 0x40 MSTORE CALLVALUE DUP1 ISZERO PUSH2 0xF JUMPI PUSH0 DUP1 REVERT JUMPDEST POP PUSH2 0x143 DUP1 PUSH2 0x1D PUSH0 CODECOPY PUSH0 RETURN INVALID PUSH1 0x80 PUSH1 0x40 MSTORE CALLVALUE DUP1 ISZERO PUSH2 0xF JUMPI PUSH0 DUP1 REVERT JUMPDEST POP PUSH1 0x4 CALLDATASIZE LT PUSH2 0x29 JUMPI PUSH0 CALLDATALOAD PUSH1 0xE0 SHR DUP1 PUSH4 0x446A45B7 EQ PUSH2 0x2D JUMPI JUMPDEST PUSH0 DUP1 REVERT JUMPDEST PUSH2 0x35 PUSH2 0x4B JUMP JUMPDEST PUSH1 0x40 MLOAD PUSH2 0x42 SWAP2 SWAP1 PUSH2 0x94 JUMP JUMPDEST PUSH1 0x40 MLOAD DUP1 SWAP2 SUB SWAP1 RETURN JUMPDEST PUSH0 DUP1 PUSH0 SWAP1 POP PUSH0 JUMPDEST PUSH1 0x3 DUP2 LT ISZERO PUSH2 0x74 JUMPI DUP1 DUP3 PUSH2 0x67 SWAP2 SWAP1 PUSH2 0xDA JUMP JUMPDEST SWAP2 POP DUP1 PUSH1 0x1 ADD SWAP1 POP PUSH2 0x52 JUMP JUMPDEST POP DUP1 SWAP2 POP POP SWAP1 JUMP JUMPDEST PUSH0 DUP2 SWAP1 POP SWAP2 SWAP1 POP JUMP JUMPDEST PUSH2 0x8E DUP2 PUSH2 0x7C JUMP JUMPDEST DUP3 MSTORE POP POP JUMP JUMPDEST PUSH0 PUSH1 0x20 DUP3 ADD SWAP1 POP PUSH2 0xA7 PUSH0 DUP4 ADD DUP5 PUSH2 0x85 JUMP JUMPDEST SWAP3 SWAP2 POP POP JUMP JUMPDEST PUSH32 0x4E487B7100000000000000000000000000000000000000000000000000000000 PUSH0 MSTORE PUSH1 0x11 PUSH1 0x4 MSTORE PUSH1 0x24 PUSH0 REVERT JUMPDEST PUSH0 PUSH2 0xE4 DUP3 PUSH2 0x7C JUMP JUMPDEST SWAP2 POP PUSH2 0xEF DUP4 PUSH2 0x7C JUMP JUMPDEST SWAP3 POP DUP3 DUP3 ADD SWAP1 POP DUP1 DUP3 GT ISZERO PUSH2 0x107 JUMPI PUSH2 0x106 PUSH2 0xAD JUMP JUMPDEST JUMPDEST SWAP3 SWAP2 POP POP JUMP INVALID LOG2 PUSH5 0x6970667358 0x22 SLT KECCAK256 SWAP9 PUSH14 0x7A9C4FA22586871A1A3ECBB83937 0x4E 0xE0 DUP14 CREATE DUP8 0xE2 0xD0 0xDE DUP13 DUP9 0xC8 DUP7 BLOCKHASH 0x2B 0xE2 MULMOD PUSH5 0x736F6C6343 STOP ADDMOD XOR STOP CALLER "
				},
				"gasEstimates": {
					"creation": {
						"codeDepositCost": "64600",
						"executionCost": "115",
						"totalCost": "64715"
					},
					"external": {
						"fun1()": "infinite"
					}
				},
				"methodIdentifiers": {
					"fun1()": "446a45b7"
				}
			},
			"storageLayout": {
				"storage": [],
				"types": null
			},
			"userdoc": {
				"kind": "user",
				"methods": {},
				"version": 1
			}
		}
	}
}