{
	"4장_조건문과 반복문/ex4_2.sol": {
		"Ex4_2": {
			"abi": [
				{
					"inputs": [
						{
							"internalType": "uint256",
							"name": "a",
							"type": "uint256"
						}
					],
					"name": "fun1",
					"outputs": [
						{
							"internalType": "uint256",
							"name": "",
							"type": "uint256"
						}
					],
					"stateMutability": "pure",
					"type": "function"
				}
			],
			"devdoc": {
				"kind": "dev",
				"methods": {},
				"version": 1
			},
			"evm": {
				"assembly": "    /* \"4\\xec\\x9e\\xa5_\\xec\\xa1\\xb0\\xea\\xb1\\xb4\\xeb\\xac\\xb8\\xea\\xb3\\xbc \\xeb\\xb0\\x98\\xeb\\xb3\\xb5\\xeb\\xac\\xb8/ex4_2.sol\":124:306  contract Ex4_2{... */\n  mstore(0x40, 0x80)\n  callvalue\n  dup1\n  iszero\n  tag_1\n  jumpi\n  0x00\n  dup1\n  revert\ntag_1:\n  pop\n  dataSize(sub_0)\n  dup1\n  dataOffset(sub_0)\n  0x00\n  codecopy\n  0x00\n  return\nstop\n\nsub_0: assembly {\n        /* \"4\\xec\\x9e\\xa5_\\xec\\xa1\\xb0\\xea\\xb1\\xb4\\xeb\\xac\\xb8\\xea\\xb3\\xbc \\xeb\\xb0\\x98\\xeb\\xb3\\xb5\\xeb\\xac\\xb8/ex4_2.sol\":124:306  contract Ex4_2{... */\n      mstore(0x40, 0x80)\n      callvalue\n      dup1\n      iszero\n      tag_1\n      jumpi\n      0x00\n      dup1\n      revert\n    tag_1:\n      pop\n      jumpi(tag_2, lt(calldatasize, 0x04))\n      shr(0xe0, calldataload(0x00))\n      dup1\n      0xacd9fd65\n      eq\n      tag_3\n      jumpi\n    tag_2:\n      0x00\n      dup1\n      revert\n        /* \"4\\xec\\x9e\\xa5_\\xec\\xa1\\xb0\\xea\\xb1\\xb4\\xeb\\xac\\xb8\\xea\\xb3\\xbc \\xeb\\xb0\\x98\\xeb\\xb3\\xb5\\xeb\\xac\\xb8/ex4_2.sol\":145:303  function fun1(uint a) public pure returns(uint){... */\n    tag_3:\n      tag_4\n      0x04\n      dup1\n      calldatasize\n      sub\n      dup2\n      add\n      swap1\n      tag_5\n      swap2\n      swap1\n      tag_6\n      jump\t// in\n    tag_5:\n      tag_7\n      jump\t// in\n    tag_4:\n      mload(0x40)\n      tag_8\n      swap2\n      swap1\n      tag_9\n      jump\t// in\n    tag_8:\n      mload(0x40)\n      dup1\n      swap2\n      sub\n      swap1\n      return\n    tag_7:\n        /* \"4\\xec\\x9e\\xa5_\\xec\\xa1\\xb0\\xea\\xb1\\xb4\\xeb\\xac\\xb8\\xea\\xb3\\xbc \\xeb\\xb0\\x98\\xeb\\xb3\\xb5\\xeb\\xac\\xb8/ex4_2.sol\":187:191  uint */\n      0x00\n        /* \"4\\xec\\x9e\\xa5_\\xec\\xa1\\xb0\\xea\\xb1\\xb4\\xeb\\xac\\xb8\\xea\\xb3\\xbc \\xeb\\xb0\\x98\\xeb\\xb3\\xb5\\xeb\\xac\\xb8/ex4_2.sol\":209:211  10 */\n      0x0a\n        /* \"4\\xec\\x9e\\xa5_\\xec\\xa1\\xb0\\xea\\xb1\\xb4\\xeb\\xac\\xb8\\xea\\xb3\\xbc \\xeb\\xb0\\x98\\xeb\\xb3\\xb5\\xeb\\xac\\xb8/ex4_2.sol\":206:207  a */\n      dup3\n        /* \"4\\xec\\x9e\\xa5_\\xec\\xa1\\xb0\\xea\\xb1\\xb4\\xeb\\xac\\xb8\\xea\\xb3\\xbc \\xeb\\xb0\\x98\\xeb\\xb3\\xb5\\xeb\\xac\\xb8/ex4_2.sol\":206:211  a>=10 */\n      lt\n        /* \"4\\xec\\x9e\\xa5_\\xec\\xa1\\xb0\\xea\\xb1\\xb4\\xeb\\xac\\xb8\\xea\\xb3\\xbc \\xeb\\xb0\\x98\\xeb\\xb3\\xb5\\xeb\\xac\\xb8/ex4_2.sol\":203:277  if(a>=10){... */\n      tag_11\n      jumpi\n        /* \"4\\xec\\x9e\\xa5_\\xec\\xa1\\xb0\\xea\\xb1\\xb4\\xeb\\xac\\xb8\\xea\\xb3\\xbc \\xeb\\xb0\\x98\\xeb\\xb3\\xb5\\xeb\\xac\\xb8/ex4_2.sol\":229:230  9 */\n      0x09\n        /* \"4\\xec\\x9e\\xa5_\\xec\\xa1\\xb0\\xea\\xb1\\xb4\\xeb\\xac\\xb8\\xea\\xb3\\xbc \\xeb\\xb0\\x98\\xeb\\xb3\\xb5\\xeb\\xac\\xb8/ex4_2.sol\":227:230  a=9 */\n      swap2\n      pop\n        /* \"4\\xec\\x9e\\xa5_\\xec\\xa1\\xb0\\xea\\xb1\\xb4\\xeb\\xac\\xb8\\xea\\xb3\\xbc \\xeb\\xb0\\x98\\xeb\\xb3\\xb5\\xeb\\xac\\xb8/ex4_2.sol\":203:277  if(a>=10){... */\n      jump(tag_12)\n    tag_11:\n        /* \"4\\xec\\x9e\\xa5_\\xec\\xa1\\xb0\\xea\\xb1\\xb4\\xeb\\xac\\xb8\\xea\\xb3\\xbc \\xeb\\xb0\\x98\\xeb\\xb3\\xb5\\xeb\\xac\\xb8/ex4_2.sol\":263:265  10 */\n      0x0a\n        /* \"4\\xec\\x9e\\xa5_\\xec\\xa1\\xb0\\xea\\xb1\\xb4\\xeb\\xac\\xb8\\xea\\xb3\\xbc \\xeb\\xb0\\x98\\xeb\\xb3\\xb5\\xeb\\xac\\xb8/ex4_2.sol\":261:265  a=10 */\n      swap2\n      pop\n        /* \"4\\xec\\x9e\\xa5_\\xec\\xa1\\xb0\\xea\\xb1\\xb4\\xeb\\xac\\xb8\\xea\\xb3\\xbc \\xeb\\xb0\\x98\\xeb\\xb3\\xb5\\xeb\\xac\\xb8/ex4_2.sol\":203:277  if(a>=10){... */\n    tag_12:\n        /* \"4\\xec\\x9e\\xa5_\\xec\\xa1\\xb0\\xea\\xb1\\xb4\\xeb\\xac\\xb8\\xea\\xb3\\xbc \\xeb\\xb0\\x98\\xeb\\xb3\\xb5\\xeb\\xac\\xb8/ex4_2.sol\":294:295  a */\n      dup2\n        /* \"4\\xec\\x9e\\xa5_\\xec\\xa1\\xb0\\xea\\xb1\\xb4\\xeb\\xac\\xb8\\xea\\xb3\\xbc \\xeb\\xb0\\x98\\xeb\\xb3\\xb5\\xeb\\xac\\xb8/ex4_2.sol\":287:295  return a */\n      swap1\n      pop\n        /* \"4\\xec\\x9e\\xa5_\\xec\\xa1\\xb0\\xea\\xb1\\xb4\\xeb\\xac\\xb8\\xea\\xb3\\xbc \\xeb\\xb0\\x98\\xeb\\xb3\\xb5\\xeb\\xac\\xb8/ex4_2.sol\":145:303  function fun1(uint a) public pure returns(uint){... */\n      swap2\n      swap1\n      pop\n      jump\t// out\n        /* \"#utility.yul\":88:205   */\n    tag_14:\n        /* \"#utility.yul\":197:198   */\n      0x00\n        /* \"#utility.yul\":194:195   */\n      dup1\n        /* \"#utility.yul\":187:199   */\n      revert\n        /* \"#utility.yul\":334:411   */\n    tag_16:\n        /* \"#utility.yul\":371:378   */\n      0x00\n        /* \"#utility.yul\":400:405   */\n      dup2\n        /* \"#utility.yul\":389:405   */\n      swap1\n      pop\n        /* \"#utility.yul\":334:411   */\n      swap2\n      swap1\n      pop\n      jump\t// out\n        /* \"#utility.yul\":417:539   */\n    tag_17:\n        /* \"#utility.yul\":490:514   */\n      tag_26\n        /* \"#utility.yul\":508:513   */\n      dup2\n        /* \"#utility.yul\":490:514   */\n      tag_16\n      jump\t// in\n    tag_26:\n        /* \"#utility.yul\":483:488   */\n      dup2\n        /* \"#utility.yul\":480:515   */\n      eq\n        /* \"#utility.yul\":470:533   */\n      tag_27\n      jumpi\n        /* \"#utility.yul\":529:530   */\n      0x00\n        /* \"#utility.yul\":526:527   */\n      dup1\n        /* \"#utility.yul\":519:531   */\n      revert\n        /* \"#utility.yul\":470:533   */\n    tag_27:\n        /* \"#utility.yul\":417:539   */\n      pop\n      jump\t// out\n        /* \"#utility.yul\":545:684   */\n    tag_18:\n        /* \"#utility.yul\":591:596   */\n      0x00\n        /* \"#utility.yul\":629:635   */\n      dup2\n        /* \"#utility.yul\":616:636   */\n      calldataload\n        /* \"#utility.yul\":607:636   */\n      swap1\n      pop\n        /* \"#utility.yul\":645:678   */\n      tag_29\n        /* \"#utility.yul\":672:677   */\n      dup2\n        /* \"#utility.yul\":645:678   */\n      tag_17\n      jump\t// in\n    tag_29:\n        /* \"#utility.yul\":545:684   */\n      swap3\n      swap2\n      pop\n      pop\n      jump\t// out\n        /* \"#utility.yul\":690:1019   */\n    tag_6:\n        /* \"#utility.yul\":749:755   */\n      0x00\n        /* \"#utility.yul\":798:800   */\n      0x20\n        /* \"#utility.yul\":786:795   */\n      dup3\n        /* \"#utility.yul\":777:784   */\n      dup5\n        /* \"#utility.yul\":773:796   */\n      sub\n        /* \"#utility.yul\":769:801   */\n      slt\n        /* \"#utility.yul\":766:885   */\n      iszero\n      tag_31\n      jumpi\n        /* \"#utility.yul\":804:883   */\n      tag_32\n      tag_14\n      jump\t// in\n    tag_32:\n        /* \"#utility.yul\":766:885   */\n    tag_31:\n        /* \"#utility.yul\":924:925   */\n      0x00\n        /* \"#utility.yul\":949:1002   */\n      tag_33\n        /* \"#utility.yul\":994:1001   */\n      dup5\n        /* \"#utility.yul\":985:991   */\n      dup3\n        /* \"#utility.yul\":974:983   */\n      dup6\n        /* \"#utility.yul\":970:992   */\n      add\n        /* \"#utility.yul\":949:1002   */\n      tag_18\n      jump\t// in\n    tag_33:\n        /* \"#utility.yul\":939:1002   */\n      swap2\n      pop\n        /* \"#utility.yul\":895:1012   */\n      pop\n        /* \"#utility.yul\":690:1019   */\n      swap3\n      swap2\n      pop\n      pop\n      jump\t// out\n        /* \"#utility.yul\":1025:1143   */\n    tag_19:\n        /* \"#utility.yul\":1112:1136   */\n      tag_35\n        /* \"#utility.yul\":1130:1135   */\n      dup2\n        /* \"#utility.yul\":1112:1136   */\n      tag_16\n      jump\t// in\n    tag_35:\n        /* \"#utility.yul\":1107:1110   */\n      dup3\n        /* \"#utility.yul\":1100:1137   */\n      mstore\n        /* \"#utility.yul\":1025:1143   */\n      pop\n      pop\n      jump\t// out\n        /* \"#utility.yul\":1149:1371   */\n    tag_9:\n        /* \"#utility.yul\":1242:1246   */\n      0x00\n        /* \"#utility.yul\":1280:1282   */\n      0x20\n        /* \"#utility.yul\":1269:1278   */\n      dup3\n        /* \"#utility.yul\":1265:1283   */\n      add\n        /* \"#utility.yul\":1257:1283   */\n      swap1\n      pop\n        /* \"#utility.yul\":1293:1364   */\n      tag_37\n        /* \"#utility.yul\":1361:1362   */\n      0x00\n        /* \"#utility.yul\":1350:1359   */\n      dup4\n        /* \"#utility.yul\":1346:1363   */\n      add\n        /* \"#utility.yul\":1337:1343   */\n      dup5\n        /* \"#utility.yul\":1293:1364   */\n      tag_19\n      jump\t// in\n    tag_37:\n        /* \"#utility.yul\":1149:1371   */\n      swap3\n      swap2\n      pop\n      pop\n      jump\t// out\n\n    auxdata: 0xa26469706673582212208a2b543e07f9c5b9e66e4510510f2c82650fd50aaad1b05b11af685916c6d4a664736f6c63430008180033\n}\n",
				"bytecode": {
					"linkReferences": {},
					"object": "608060405234801561000f575f80fd5b506101238061001d5f395ff3fe6080604052348015600e575f80fd5b50600436106026575f3560e01c8063acd9fd6514602a575b5f80fd5b60406004803603810190603c919060a3565b6054565b604051604b919060d6565b60405180910390f35b5f600a8210606457600991506069565b600a91505b819050919050565b5f80fd5b5f819050919050565b6085816075565b8114608e575f80fd5b50565b5f81359050609d81607e565b92915050565b5f6020828403121560b55760b46071565b5b5f60c0848285016091565b91505092915050565b60d0816075565b82525050565b5f60208201905060e75f83018460c9565b9291505056fea26469706673582212208a2b543e07f9c5b9e66e4510510f2c82650fd50aaad1b05b11af685916c6d4a664736f6c63430008180033",
					"opcodes": "PUSH1 0x80 PUSH1 0x40 MSTORE CALLVALUE DUP1 ISZERO PUSH2 0xF JUMPI PUSH0 DUP1 REVERT JUMPDEST POP PUSH2 0x123 DUP1 PUSH2 0x1D PUSH0 CODECOPY PUSH0 RETURN INVALID PUSH1 0x80 PUSH1 0x40 MSTORE CALLVALUE DUP1 ISZERO PUSH1 0xE JUMPI PUSH0 DUP1 REVERT JUMPDEST POP PUSH1 0x4 CALLDATASIZE LT PUSH1 0x26 JUMPI PUSH0 CALLDATALOAD PUSH1 0xE0 SHR DUP1 PUSH4 0xACD9FD65 EQ PUSH1 0x2A JUMPI JUMPDEST PUSH0 DUP1 REVERT JUMPDEST PUSH1 0x40 PUSH1 0x4 DUP1 CALLDATASIZE SUB DUP2 ADD SWAP1 PUSH1 0x3C SWAP2 SWAP1 PUSH1 0xA3 JUMP JUMPDEST PUSH1 0x54 JUMP JUMPDEST PUSH1 0x40 MLOAD PUSH1 0x4B SWAP2 SWAP1 PUSH1 0xD6 JUMP JUMPDEST PUSH1 0x40 MLOAD DUP1 SWAP2 SUB SWAP1 RETURN JUMPDEST PUSH0 PUSH1 0xA DUP3 LT PUSH1 0x64 JUMPI PUSH1 0x9 SWAP2 POP PUSH1 0x69 JUMP JUMPDEST PUSH1 0xA SWAP2 POP JUMPDEST DUP2 SWAP1 POP SWAP2 SWAP1 POP JUMP JUMPDEST PUSH0 DUP1 REVERT JUMPDEST PUSH0 DUP2 SWAP1 POP SWAP2 SWAP1 POP JUMP JUMPDEST PUSH1 0x85 DUP2 PUSH1 0x75 JUMP JUMPDEST DUP2 EQ PUSH1 0x8E JUMPI PUSH0 DUP1 REVERT JUMPDEST POP JUMP JUMPDEST PUSH0 DUP2 CALLDATALOAD SWAP1 POP PUSH1 0x9D DUP2 PUSH1 0x7E JUMP JUMPDEST SWAP3 SWAP2 POP POP JUMP JUMPDEST PUSH0 PUSH1 0x20 DUP3 DUP5 SUB SLT ISZERO PUSH1 0xB5 JUMPI PUSH1 0xB4 PUSH1 0x71 JUMP JUMPDEST JUMPDEST PUSH0 PUSH1 0xC0 DUP5 DUP3 DUP6 ADD PUSH1 0x91 JUMP JUMPDEST SWAP2 POP POP SWAP3 SWAP2 POP POP JUMP JUMPDEST PUSH1 0xD0 DUP2 PUSH1 0x75 JUMP JUMPDEST DUP3 MSTORE POP POP JUMP JUMPDEST PUSH0 PUSH1 0x20 DUP3 ADD SWAP1 POP PUSH1 0xE7 PUSH0 DUP4 ADD DUP5 PUSH1 0xC9 JUMP JUMPDEST SWAP3 SWAP2 POP POP JUMP INVALID LOG2 PUSH5 0x6970667358 0x22 SLT KECCAK256 DUP11 0x2B SLOAD RETURNDATACOPY SMOD 0xF9 0xC5 0xB9 0xE6 PUSH15 0x4510510F2C82650FD50AAAD1B05B11 0xAF PUSH9 0x5916C6D4A664736F6C PUSH4 0x43000818 STOP CALLER "
				},
				"gasEstimates": {
					"creation": {
						"codeDepositCost": "58200",
						"executionCost": "109",
						"totalCost": "58309"
					},
					"external": {
						"fun1(uint256)": "infinite"
					}
				},
				"methodIdentifiers": {
					"fun1(uint256)": "acd9fd65"
				}
			},
			"storageLayout": {
				"storage": [],
				"types": null
			},
			"userdoc": {
				"kind": "user",
				"methods": {},
				"version": 1
			}
		}
	}
}