{
	"4장_조건문과 반복문/ex4_3.sol": {
		"Ex4_3": {
			"abi": [
				{
					"inputs": [
						{
							"internalType": "uint256",
							"name": "a",
							"type": "uint256"
						}
					],
					"name": "fun1",
					"outputs": [
						{
							"internalType": "uint256",
							"name": "",
							"type": "uint256"
						}
					],
					"stateMutability": "pure",
					"type": "function"
				}
			],
			"devdoc": {
				"kind": "dev",
				"methods": {},
				"version": 1
			},
			"evm": {
				"assembly": "    /* \"4\\xec\\x9e\\xa5_\\xec\\xa1\\xb0\\xea\\xb1\\xb4\\xeb\\xac\\xb8\\xea\\xb3\\xbc \\xeb\\xb0\\x98\\xeb\\xb3\\xb5\\xeb\\xac\\xb8/ex4_3.sol\":131:364  contract Ex4_3{... */\n  mstore(0x40, 0x80)\n  callvalue\n  dup1\n  iszero\n  tag_1\n  jumpi\n  0x00\n  dup1\n  revert\ntag_1:\n  pop\n  dataSize(sub_0)\n  dup1\n  dataOffset(sub_0)\n  0x00\n  codecopy\n  0x00\n  return\nstop\n\nsub_0: assembly {\n        /* \"4\\xec\\x9e\\xa5_\\xec\\xa1\\xb0\\xea\\xb1\\xb4\\xeb\\xac\\xb8\\xea\\xb3\\xbc \\xeb\\xb0\\x98\\xeb\\xb3\\xb5\\xeb\\xac\\xb8/ex4_3.sol\":131:364  contract Ex4_3{... */\n      mstore(0x40, 0x80)\n      callvalue\n      dup1\n      iszero\n      tag_1\n      jumpi\n      0x00\n      dup1\n      revert\n    tag_1:\n      pop\n      jumpi(tag_2, lt(calldatasize, 0x04))\n      shr(0xe0, calldataload(0x00))\n      dup1\n      0xacd9fd65\n      eq\n      tag_3\n      jumpi\n    tag_2:\n      0x00\n      dup1\n      revert\n        /* \"4\\xec\\x9e\\xa5_\\xec\\xa1\\xb0\\xea\\xb1\\xb4\\xeb\\xac\\xb8\\xea\\xb3\\xbc \\xeb\\xb0\\x98\\xeb\\xb3\\xb5\\xeb\\xac\\xb8/ex4_3.sol\":152:361  function fun1(uint a) public pure returns(uint){... */\n    tag_3:\n      tag_4\n      0x04\n      dup1\n      calldatasize\n      sub\n      dup2\n      add\n      swap1\n      tag_5\n      swap2\n      swap1\n      tag_6\n      jump\t// in\n    tag_5:\n      tag_7\n      jump\t// in\n    tag_4:\n      mload(0x40)\n      tag_8\n      swap2\n      swap1\n      tag_9\n      jump\t// in\n    tag_8:\n      mload(0x40)\n      dup1\n      swap2\n      sub\n      swap1\n      return\n    tag_7:\n        /* \"4\\xec\\x9e\\xa5_\\xec\\xa1\\xb0\\xea\\xb1\\xb4\\xeb\\xac\\xb8\\xea\\xb3\\xbc \\xeb\\xb0\\x98\\xeb\\xb3\\xb5\\xeb\\xac\\xb8/ex4_3.sol\":194:198  uint */\n      0x00\n        /* \"4\\xec\\x9e\\xa5_\\xec\\xa1\\xb0\\xea\\xb1\\xb4\\xeb\\xac\\xb8\\xea\\xb3\\xbc \\xeb\\xb0\\x98\\xeb\\xb3\\xb5\\xeb\\xac\\xb8/ex4_3.sol\":216:218  10 */\n      0x0a\n        /* \"4\\xec\\x9e\\xa5_\\xec\\xa1\\xb0\\xea\\xb1\\xb4\\xeb\\xac\\xb8\\xea\\xb3\\xbc \\xeb\\xb0\\x98\\xeb\\xb3\\xb5\\xeb\\xac\\xb8/ex4_3.sol\":213:214  a */\n      dup3\n        /* \"4\\xec\\x9e\\xa5_\\xec\\xa1\\xb0\\xea\\xb1\\xb4\\xeb\\xac\\xb8\\xea\\xb3\\xbc \\xeb\\xb0\\x98\\xeb\\xb3\\xb5\\xeb\\xac\\xb8/ex4_3.sol\":213:218  a>=10 */\n      lt\n        /* \"4\\xec\\x9e\\xa5_\\xec\\xa1\\xb0\\xea\\xb1\\xb4\\xeb\\xac\\xb8\\xea\\xb3\\xbc \\xeb\\xb0\\x98\\xeb\\xb3\\xb5\\xeb\\xac\\xb8/ex4_3.sol\":210:335  if(a>=10){... */\n      tag_11\n      jumpi\n        /* \"4\\xec\\x9e\\xa5_\\xec\\xa1\\xb0\\xea\\xb1\\xb4\\xeb\\xac\\xb8\\xea\\xb3\\xbc \\xeb\\xb0\\x98\\xeb\\xb3\\xb5\\xeb\\xac\\xb8/ex4_3.sol\":236:237  9 */\n      0x09\n        /* \"4\\xec\\x9e\\xa5_\\xec\\xa1\\xb0\\xea\\xb1\\xb4\\xeb\\xac\\xb8\\xea\\xb3\\xbc \\xeb\\xb0\\x98\\xeb\\xb3\\xb5\\xeb\\xac\\xb8/ex4_3.sol\":234:237  a=9 */\n      swap2\n      pop\n        /* \"4\\xec\\x9e\\xa5_\\xec\\xa1\\xb0\\xea\\xb1\\xb4\\xeb\\xac\\xb8\\xea\\xb3\\xbc \\xeb\\xb0\\x98\\xeb\\xb3\\xb5\\xeb\\xac\\xb8/ex4_3.sol\":210:335  if(a>=10){... */\n      jump(tag_12)\n    tag_11:\n        /* \"4\\xec\\x9e\\xa5_\\xec\\xa1\\xb0\\xea\\xb1\\xb4\\xeb\\xac\\xb8\\xea\\xb3\\xbc \\xeb\\xb0\\x98\\xeb\\xb3\\xb5\\xeb\\xac\\xb8/ex4_3.sol\":260:261  5 */\n      0x05\n        /* \"4\\xec\\x9e\\xa5_\\xec\\xa1\\xb0\\xea\\xb1\\xb4\\xeb\\xac\\xb8\\xea\\xb3\\xbc \\xeb\\xb0\\x98\\xeb\\xb3\\xb5\\xeb\\xac\\xb8/ex4_3.sol\":257:258  a */\n      dup3\n        /* \"4\\xec\\x9e\\xa5_\\xec\\xa1\\xb0\\xea\\xb1\\xb4\\xeb\\xac\\xb8\\xea\\xb3\\xbc \\xeb\\xb0\\x98\\xeb\\xb3\\xb5\\xeb\\xac\\xb8/ex4_3.sol\":257:261  a>=5 */\n      lt\n      iszero\n        /* \"4\\xec\\x9e\\xa5_\\xec\\xa1\\xb0\\xea\\xb1\\xb4\\xeb\\xac\\xb8\\xea\\xb3\\xbc \\xeb\\xb0\\x98\\xeb\\xb3\\xb5\\xeb\\xac\\xb8/ex4_3.sol\":257:269  a>=5 && a<=7 */\n      dup1\n      iszero\n      tag_13\n      jumpi\n      pop\n        /* \"4\\xec\\x9e\\xa5_\\xec\\xa1\\xb0\\xea\\xb1\\xb4\\xeb\\xac\\xb8\\xea\\xb3\\xbc \\xeb\\xb0\\x98\\xeb\\xb3\\xb5\\xeb\\xac\\xb8/ex4_3.sol\":268:269  7 */\n      0x07\n        /* \"4\\xec\\x9e\\xa5_\\xec\\xa1\\xb0\\xea\\xb1\\xb4\\xeb\\xac\\xb8\\xea\\xb3\\xbc \\xeb\\xb0\\x98\\xeb\\xb3\\xb5\\xeb\\xac\\xb8/ex4_3.sol\":265:266  a */\n      dup3\n        /* \"4\\xec\\x9e\\xa5_\\xec\\xa1\\xb0\\xea\\xb1\\xb4\\xeb\\xac\\xb8\\xea\\xb3\\xbc \\xeb\\xb0\\x98\\xeb\\xb3\\xb5\\xeb\\xac\\xb8/ex4_3.sol\":265:269  a<=7 */\n      gt\n      iszero\n        /* \"4\\xec\\x9e\\xa5_\\xec\\xa1\\xb0\\xea\\xb1\\xb4\\xeb\\xac\\xb8\\xea\\xb3\\xbc \\xeb\\xb0\\x98\\xeb\\xb3\\xb5\\xeb\\xac\\xb8/ex4_3.sol\":257:269  a>=5 && a<=7 */\n    tag_13:\n        /* \"4\\xec\\x9e\\xa5_\\xec\\xa1\\xb0\\xea\\xb1\\xb4\\xeb\\xac\\xb8\\xea\\xb3\\xbc \\xeb\\xb0\\x98\\xeb\\xb3\\xb5\\xeb\\xac\\xb8/ex4_3.sol\":254:335  if(a>=5 && a<=7){... */\n      iszero\n      tag_14\n      jumpi\n        /* \"4\\xec\\x9e\\xa5_\\xec\\xa1\\xb0\\xea\\xb1\\xb4\\xeb\\xac\\xb8\\xea\\xb3\\xbc \\xeb\\xb0\\x98\\xeb\\xb3\\xb5\\xeb\\xac\\xb8/ex4_3.sol\":287:288  7 */\n      0x07\n        /* \"4\\xec\\x9e\\xa5_\\xec\\xa1\\xb0\\xea\\xb1\\xb4\\xeb\\xac\\xb8\\xea\\xb3\\xbc \\xeb\\xb0\\x98\\xeb\\xb3\\xb5\\xeb\\xac\\xb8/ex4_3.sol\":285:288  a=7 */\n      swap2\n      pop\n        /* \"4\\xec\\x9e\\xa5_\\xec\\xa1\\xb0\\xea\\xb1\\xb4\\xeb\\xac\\xb8\\xea\\xb3\\xbc \\xeb\\xb0\\x98\\xeb\\xb3\\xb5\\xeb\\xac\\xb8/ex4_3.sol\":254:335  if(a>=5 && a<=7){... */\n      jump(tag_15)\n    tag_14:\n        /* \"4\\xec\\x9e\\xa5_\\xec\\xa1\\xb0\\xea\\xb1\\xb4\\xeb\\xac\\xb8\\xea\\xb3\\xbc \\xeb\\xb0\\x98\\xeb\\xb3\\xb5\\xeb\\xac\\xb8/ex4_3.sol\":321:323  10 */\n      0x0a\n        /* \"4\\xec\\x9e\\xa5_\\xec\\xa1\\xb0\\xea\\xb1\\xb4\\xeb\\xac\\xb8\\xea\\xb3\\xbc \\xeb\\xb0\\x98\\xeb\\xb3\\xb5\\xeb\\xac\\xb8/ex4_3.sol\":319:323  a=10 */\n      swap2\n      pop\n        /* \"4\\xec\\x9e\\xa5_\\xec\\xa1\\xb0\\xea\\xb1\\xb4\\xeb\\xac\\xb8\\xea\\xb3\\xbc \\xeb\\xb0\\x98\\xeb\\xb3\\xb5\\xeb\\xac\\xb8/ex4_3.sol\":254:335  if(a>=5 && a<=7){... */\n    tag_15:\n        /* \"4\\xec\\x9e\\xa5_\\xec\\xa1\\xb0\\xea\\xb1\\xb4\\xeb\\xac\\xb8\\xea\\xb3\\xbc \\xeb\\xb0\\x98\\xeb\\xb3\\xb5\\xeb\\xac\\xb8/ex4_3.sol\":210:335  if(a>=10){... */\n    tag_12:\n        /* \"4\\xec\\x9e\\xa5_\\xec\\xa1\\xb0\\xea\\xb1\\xb4\\xeb\\xac\\xb8\\xea\\xb3\\xbc \\xeb\\xb0\\x98\\xeb\\xb3\\xb5\\xeb\\xac\\xb8/ex4_3.sol\":352:353  a */\n      dup2\n        /* \"4\\xec\\x9e\\xa5_\\xec\\xa1\\xb0\\xea\\xb1\\xb4\\xeb\\xac\\xb8\\xea\\xb3\\xbc \\xeb\\xb0\\x98\\xeb\\xb3\\xb5\\xeb\\xac\\xb8/ex4_3.sol\":345:353  return a */\n      swap1\n      pop\n        /* \"4\\xec\\x9e\\xa5_\\xec\\xa1\\xb0\\xea\\xb1\\xb4\\xeb\\xac\\xb8\\xea\\xb3\\xbc \\xeb\\xb0\\x98\\xeb\\xb3\\xb5\\xeb\\xac\\xb8/ex4_3.sol\":152:361  function fun1(uint a) public pure returns(uint){... */\n      swap2\n      swap1\n      pop\n      jump\t// out\n        /* \"#utility.yul\":88:205   */\n    tag_17:\n        /* \"#utility.yul\":197:198   */\n      0x00\n        /* \"#utility.yul\":194:195   */\n      dup1\n        /* \"#utility.yul\":187:199   */\n      revert\n        /* \"#utility.yul\":334:411   */\n    tag_19:\n        /* \"#utility.yul\":371:378   */\n      0x00\n        /* \"#utility.yul\":400:405   */\n      dup2\n        /* \"#utility.yul\":389:405   */\n      swap1\n      pop\n        /* \"#utility.yul\":334:411   */\n      swap2\n      swap1\n      pop\n      jump\t// out\n        /* \"#utility.yul\":417:539   */\n    tag_20:\n        /* \"#utility.yul\":490:514   */\n      tag_29\n        /* \"#utility.yul\":508:513   */\n      dup2\n        /* \"#utility.yul\":490:514   */\n      tag_19\n      jump\t// in\n    tag_29:\n        /* \"#utility.yul\":483:488   */\n      dup2\n        /* \"#utility.yul\":480:515   */\n      eq\n        /* \"#utility.yul\":470:533   */\n      tag_30\n      jumpi\n        /* \"#utility.yul\":529:530   */\n      0x00\n        /* \"#utility.yul\":526:527   */\n      dup1\n        /* \"#utility.yul\":519:531   */\n      revert\n        /* \"#utility.yul\":470:533   */\n    tag_30:\n        /* \"#utility.yul\":417:539   */\n      pop\n      jump\t// out\n        /* \"#utility.yul\":545:684   */\n    tag_21:\n        /* \"#utility.yul\":591:596   */\n      0x00\n        /* \"#utility.yul\":629:635   */\n      dup2\n        /* \"#utility.yul\":616:636   */\n      calldataload\n        /* \"#utility.yul\":607:636   */\n      swap1\n      pop\n        /* \"#utility.yul\":645:678   */\n      tag_32\n        /* \"#utility.yul\":672:677   */\n      dup2\n        /* \"#utility.yul\":645:678   */\n      tag_20\n      jump\t// in\n    tag_32:\n        /* \"#utility.yul\":545:684   */\n      swap3\n      swap2\n      pop\n      pop\n      jump\t// out\n        /* \"#utility.yul\":690:1019   */\n    tag_6:\n        /* \"#utility.yul\":749:755   */\n      0x00\n        /* \"#utility.yul\":798:800   */\n      0x20\n        /* \"#utility.yul\":786:795   */\n      dup3\n        /* \"#utility.yul\":777:784   */\n      dup5\n        /* \"#utility.yul\":773:796   */\n      sub\n        /* \"#utility.yul\":769:801   */\n      slt\n        /* \"#utility.yul\":766:885   */\n      iszero\n      tag_34\n      jumpi\n        /* \"#utility.yul\":804:883   */\n      tag_35\n      tag_17\n      jump\t// in\n    tag_35:\n        /* \"#utility.yul\":766:885   */\n    tag_34:\n        /* \"#utility.yul\":924:925   */\n      0x00\n        /* \"#utility.yul\":949:1002   */\n      tag_36\n        /* \"#utility.yul\":994:1001   */\n      dup5\n        /* \"#utility.yul\":985:991   */\n      dup3\n        /* \"#utility.yul\":974:983   */\n      dup6\n        /* \"#utility.yul\":970:992   */\n      add\n        /* \"#utility.yul\":949:1002   */\n      tag_21\n      jump\t// in\n    tag_36:\n        /* \"#utility.yul\":939:1002   */\n      swap2\n      pop\n        /* \"#utility.yul\":895:1012   */\n      pop\n        /* \"#utility.yul\":690:1019   */\n      swap3\n      swap2\n      pop\n      pop\n      jump\t// out\n        /* \"#utility.yul\":1025:1143   */\n    tag_22:\n        /* \"#utility.yul\":1112:1136   */\n      tag_38\n        /* \"#utility.yul\":1130:1135   */\n      dup2\n        /* \"#utility.yul\":1112:1136   */\n      tag_19\n      jump\t// in\n    tag_38:\n        /* \"#utility.yul\":1107:1110   */\n      dup3\n        /* \"#utility.yul\":1100:1137   */\n      mstore\n        /* \"#utility.yul\":1025:1143   */\n      pop\n      pop\n      jump\t// out\n        /* \"#utility.yul\":1149:1371   */\n    tag_9:\n        /* \"#utility.yul\":1242:1246   */\n      0x00\n        /* \"#utility.yul\":1280:1282   */\n      0x20\n        /* \"#utility.yul\":1269:1278   */\n      dup3\n        /* \"#utility.yul\":1265:1283   */\n      add\n        /* \"#utility.yul\":1257:1283   */\n      swap1\n      pop\n        /* \"#utility.yul\":1293:1364   */\n      tag_40\n        /* \"#utility.yul\":1361:1362   */\n      0x00\n        /* \"#utility.yul\":1350:1359   */\n      dup4\n        /* \"#utility.yul\":1346:1363   */\n      add\n        /* \"#utility.yul\":1337:1343   */\n      dup5\n        /* \"#utility.yul\":1293:1364   */\n      tag_22\n      jump\t// in\n    tag_40:\n        /* \"#utility.yul\":1149:1371   */\n      swap3\n      swap2\n      pop\n      pop\n      jump\t// out\n\n    auxdata: 0xa26469706673582212207550128536887630db9278b8e4b99af1bf079e403c636a6b39bd3c4b5ce8ee0764736f6c63430008180033\n}\n",
				"bytecode": {
					"linkReferences": {},
					"object": "608060405234801561000f575f80fd5b5061015d8061001d5f395ff3fe608060405234801561000f575f80fd5b5060043610610029575f3560e01c8063acd9fd651461002d575b5f80fd5b610047600480360381019061004291906100d4565b61005d565b604051610054919061010e565b60405180910390f35b5f600a821061006f5760099150610095565b60058210158015610081575060078211155b1561008f5760079150610094565b600a91505b5b819050919050565b5f80fd5b5f819050919050565b6100b3816100a1565b81146100bd575f80fd5b50565b5f813590506100ce816100aa565b92915050565b5f602082840312156100e9576100e861009d565b5b5f6100f6848285016100c0565b91505092915050565b610108816100a1565b82525050565b5f6020820190506101215f8301846100ff565b9291505056fea26469706673582212207550128536887630db9278b8e4b99af1bf079e403c636a6b39bd3c4b5ce8ee0764736f6c63430008180033",
					"opcodes": "PUSH1 0x80 PUSH1 0x40 MSTORE CALLVALUE DUP1 ISZERO PUSH2 0xF JUMPI PUSH0 DUP1 REVERT JUMPDEST POP PUSH2 0x15D DUP1 PUSH2 0x1D PUSH0 CODECOPY PUSH0 RETURN INVALID PUSH1 0x80 PUSH1 0x40 MSTORE CALLVALUE DUP1 ISZERO PUSH2 0xF JUMPI PUSH0 DUP1 REVERT JUMPDEST POP PUSH1 0x4 CALLDATASIZE LT PUSH2 0x29 JUMPI PUSH0 CALLDATALOAD PUSH1 0xE0 SHR DUP1 PUSH4 0xACD9FD65 EQ PUSH2 0x2D JUMPI JUMPDEST PUSH0 DUP1 REVERT JUMPDEST PUSH2 0x47 PUSH1 0x4 DUP1 CALLDATASIZE SUB DUP2 ADD SWAP1 PUSH2 0x42 SWAP2 SWAP1 PUSH2 0xD4 JUMP JUMPDEST PUSH2 0x5D JUMP JUMPDEST PUSH1 0x40 MLOAD PUSH2 0x54 SWAP2 SWAP1 PUSH2 0x10E JUMP JUMPDEST PUSH1 0x40 MLOAD DUP1 SWAP2 SUB SWAP1 RETURN JUMPDEST PUSH0 PUSH1 0xA DUP3 LT PUSH2 0x6F JUMPI PUSH1 0x9 SWAP2 POP PUSH2 0x95 JUMP JUMPDEST PUSH1 0x5 DUP3 LT ISZERO DUP1 ISZERO PUSH2 0x81 JUMPI POP PUSH1 0x7 DUP3 GT ISZERO JUMPDEST ISZERO PUSH2 0x8F JUMPI PUSH1 0x7 SWAP2 POP PUSH2 0x94 JUMP JUMPDEST PUSH1 0xA SWAP2 POP JUMPDEST JUMPDEST DUP2 SWAP1 POP SWAP2 SWAP1 POP JUMP JUMPDEST PUSH0 DUP1 REVERT JUMPDEST PUSH0 DUP2 SWAP1 POP SWAP2 SWAP1 POP JUMP JUMPDEST PUSH2 0xB3 DUP2 PUSH2 0xA1 JUMP JUMPDEST DUP2 EQ PUSH2 0xBD JUMPI PUSH0 DUP1 REVERT JUMPDEST POP JUMP JUMPDEST PUSH0 DUP2 CALLDATALOAD SWAP1 POP PUSH2 0xCE DUP2 PUSH2 0xAA JUMP JUMPDEST SWAP3 SWAP2 POP POP JUMP JUMPDEST PUSH0 PUSH1 0x20 DUP3 DUP5 SUB SLT ISZERO PUSH2 0xE9 JUMPI PUSH2 0xE8 PUSH2 0x9D JUMP JUMPDEST JUMPDEST PUSH0 PUSH2 0xF6 DUP5 DUP3 DUP6 ADD PUSH2 0xC0 JUMP JUMPDEST SWAP2 POP POP SWAP3 SWAP2 POP POP JUMP JUMPDEST PUSH2 0x108 DUP2 PUSH2 0xA1 JUMP JUMPDEST DUP3 MSTORE POP POP JUMP JUMPDEST PUSH0 PUSH1 0x20 DUP3 ADD SWAP1 POP PUSH2 0x121 PUSH0 DUP4 ADD DUP5 PUSH2 0xFF JUMP JUMPDEST SWAP3 SWAP2 POP POP JUMP INVALID LOG2 PUSH5 0x6970667358 0x22 SLT KECCAK256 PUSH22 0x50128536887630DB9278B8E4B99AF1BF079E403C636A PUSH12 0x39BD3C4B5CE8EE0764736F6C PUSH4 0x43000818 STOP CALLER "
				},
				"gasEstimates": {
					"creation": {
						"codeDepositCost": "69800",
						"executionCost": "115",
						"totalCost": "69915"
					},
					"external": {
						"fun1(uint256)": "infinite"
					}
				},
				"methodIdentifiers": {
					"fun1(uint256)": "acd9fd65"
				}
			},
			"storageLayout": {
				"storage": [],
				"types": null
			},
			"userdoc": {
				"kind": "user",
				"methods": {},
				"version": 1
			}
		}
	}
}