{
	"5장_매핑,배열,구조체/5_5.sol": {
		"Ex5_5": {
			"abi": [
				{
					"inputs": [
						{
							"internalType": "uint256",
							"name": "",
							"type": "uint256"
						}
					],
					"name": "array",
					"outputs": [
						{
							"internalType": "uint256",
							"name": "",
							"type": "uint256"
						}
					],
					"stateMutability": "view",
					"type": "function"
				},
				{
					"inputs": [
						{
							"internalType": "uint256",
							"name": "_index",
							"type": "uint256"
						}
					],
					"name": "deleteArray",
					"outputs": [],
					"stateMutability": "nonpayable",
					"type": "function"
				},
				{
					"inputs": [],
					"name": "getLength",
					"outputs": [
						{
							"internalType": "uint256",
							"name": "",
							"type": "uint256"
						}
					],
					"stateMutability": "view",
					"type": "function"
				},
				{
					"inputs": [],
					"name": "popArray",
					"outputs": [],
					"stateMutability": "nonpayable",
					"type": "function"
				}
			],
			"devdoc": {
				"kind": "dev",
				"methods": {},
				"version": 1
			},
			"evm": {
				"assembly": "    /* \"5\\xec\\x9e\\xa5_\\xeb\\xa7\\xa4\\xed\\x95\\x91,\\xeb\\xb0\\xb0\\xec\\x97\\xb4,\\xea\\xb5\\xac\\xec\\xa1\\xb0\\xec\\xb2\\xb4/5_5.sol\":108:1223  contract Ex5_5{... */\n  mstore(0x40, 0x80)\n    /* \"5\\xec\\x9e\\xa5_\\xeb\\xa7\\xa4\\xed\\x95\\x91,\\xeb\\xb0\\xb0\\xec\\x97\\xb4,\\xea\\xb5\\xac\\xec\\xa1\\xb0\\xec\\xb2\\xb4/5_5.sol\":129:159  uint[] public array=[97,98,99] */\n  mload(0x40)\n  dup1\n  0x60\n  add\n  0x40\n  mstore\n  dup1\n    /* \"5\\xec\\x9e\\xa5_\\xeb\\xa7\\xa4\\xed\\x95\\x91,\\xeb\\xb0\\xb0\\xec\\x97\\xb4,\\xea\\xb5\\xac\\xec\\xa1\\xb0\\xec\\xb2\\xb4/5_5.sol\":150:152  97 */\n  0x61\n    /* \"5\\xec\\x9e\\xa5_\\xeb\\xa7\\xa4\\xed\\x95\\x91,\\xeb\\xb0\\xb0\\xec\\x97\\xb4,\\xea\\xb5\\xac\\xec\\xa1\\xb0\\xec\\xb2\\xb4/5_5.sol\":129:159  uint[] public array=[97,98,99] */\n  0xff\n  and\n  dup2\n  mstore\n  0x20\n  add\n    /* \"5\\xec\\x9e\\xa5_\\xeb\\xa7\\xa4\\xed\\x95\\x91,\\xeb\\xb0\\xb0\\xec\\x97\\xb4,\\xea\\xb5\\xac\\xec\\xa1\\xb0\\xec\\xb2\\xb4/5_5.sol\":153:155  98 */\n  0x62\n    /* \"5\\xec\\x9e\\xa5_\\xeb\\xa7\\xa4\\xed\\x95\\x91,\\xeb\\xb0\\xb0\\xec\\x97\\xb4,\\xea\\xb5\\xac\\xec\\xa1\\xb0\\xec\\xb2\\xb4/5_5.sol\":129:159  uint[] public array=[97,98,99] */\n  0xff\n  and\n  dup2\n  mstore\n  0x20\n  add\n    /* \"5\\xec\\x9e\\xa5_\\xeb\\xa7\\xa4\\xed\\x95\\x91,\\xeb\\xb0\\xb0\\xec\\x97\\xb4,\\xea\\xb5\\xac\\xec\\xa1\\xb0\\xec\\xb2\\xb4/5_5.sol\":156:158  99 */\n  0x63\n    /* \"5\\xec\\x9e\\xa5_\\xeb\\xa7\\xa4\\xed\\x95\\x91,\\xeb\\xb0\\xb0\\xec\\x97\\xb4,\\xea\\xb5\\xac\\xec\\xa1\\xb0\\xec\\xb2\\xb4/5_5.sol\":129:159  uint[] public array=[97,98,99] */\n  0xff\n  and\n  dup2\n  mstore\n  pop\n  0x00\n  swap1\n  0x03\n  tag_1\n  swap3\n  swap2\n  swap1\n  tag_2\n  jump\t// in\ntag_1:\n  pop\n    /* \"5\\xec\\x9e\\xa5_\\xeb\\xa7\\xa4\\xed\\x95\\x91,\\xeb\\xb0\\xb0\\xec\\x97\\xb4,\\xea\\xb5\\xac\\xec\\xa1\\xb0\\xec\\xb2\\xb4/5_5.sol\":108:1223  contract Ex5_5{... */\n  callvalue\n  dup1\n  iszero\n  tag_3\n  jumpi\n  0x00\n  dup1\n  revert\ntag_3:\n  pop\n  jump(tag_4)\ntag_2:\n  dup3\n  dup1\n  sload\n  dup3\n  dup3\n  sstore\n  swap1\n  0x00\n  mstore\n  keccak256(0x00, 0x20)\n  swap1\n  dup2\n  add\n  swap3\n  dup3\n  iszero\n  tag_5\n  jumpi\n  swap2\n  0x20\n  mul\n  dup3\n  add\ntag_6:\n  dup3\n  dup2\n  gt\n  iszero\n  tag_7\n  jumpi\n  dup3\n  mload\n  dup3\n  swap1\n  0xff\n  and\n  swap1\n  sstore\n  swap2\n  0x20\n  add\n  swap2\n  swap1\n  0x01\n  add\n  swap1\n  jump(tag_6)\ntag_7:\ntag_5:\n  pop\n  swap1\n  pop\n  tag_8\n  swap2\n  swap1\n  tag_9\n  jump\t// in\ntag_8:\n  pop\n  swap1\n  jump\t// out\ntag_9:\ntag_10:\n  dup1\n  dup3\n  gt\n  iszero\n  tag_11\n  jumpi\n  0x00\n  dup2\n  0x00\n  swap1\n  sstore\n  pop\n  0x01\n  add\n  jump(tag_10)\ntag_11:\n  pop\n  swap1\n  jump\t// out\ntag_4:\n  dataSize(sub_0)\n  dup1\n  dataOffset(sub_0)\n  0x00\n  codecopy\n  0x00\n  return\nstop\n\nsub_0: assembly {\n        /* \"5\\xec\\x9e\\xa5_\\xeb\\xa7\\xa4\\xed\\x95\\x91,\\xeb\\xb0\\xb0\\xec\\x97\\xb4,\\xea\\xb5\\xac\\xec\\xa1\\xb0\\xec\\xb2\\xb4/5_5.sol\":108:1223  contract Ex5_5{... */\n      mstore(0x40, 0x80)\n      callvalue\n      dup1\n      iszero\n      tag_1\n      jumpi\n      0x00\n      dup1\n      revert\n    tag_1:\n      pop\n      jumpi(tag_2, lt(calldatasize, 0x04))\n      shr(0xe0, calldataload(0x00))\n      dup1\n      0x38d94193\n      eq\n      tag_3\n      jumpi\n      dup1\n      0x7952deae\n      eq\n      tag_4\n      jumpi\n      dup1\n      0xae713d2a\n      eq\n      tag_5\n      jumpi\n      dup1\n      0xbe1c766b\n      eq\n      tag_6\n      jumpi\n    tag_2:\n      0x00\n      dup1\n      revert\n        /* \"5\\xec\\x9e\\xa5_\\xeb\\xa7\\xa4\\xed\\x95\\x91,\\xeb\\xb0\\xb0\\xec\\x97\\xb4,\\xea\\xb5\\xac\\xec\\xa1\\xb0\\xec\\xb2\\xb4/5_5.sol\":129:159  uint[] public array=[97,98,99] */\n    tag_3:\n      tag_7\n      0x04\n      dup1\n      calldatasize\n      sub\n      dup2\n      add\n      swap1\n      tag_8\n      swap2\n      swap1\n      tag_9\n      jump\t// in\n    tag_8:\n      tag_10\n      jump\t// in\n    tag_7:\n      mload(0x40)\n      tag_11\n      swap2\n      swap1\n      tag_12\n      jump\t// in\n    tag_11:\n      mload(0x40)\n      dup1\n      swap2\n      sub\n      swap1\n      return\n        /* \"5\\xec\\x9e\\xa5_\\xeb\\xa7\\xa4\\xed\\x95\\x91,\\xeb\\xb0\\xb0\\xec\\x97\\xb4,\\xea\\xb5\\xac\\xec\\xa1\\xb0\\xec\\xb2\\xb4/5_5.sol\":524:1220  function deleteArray(uint _index) public{... */\n    tag_4:\n      tag_13\n      0x04\n      dup1\n      calldatasize\n      sub\n      dup2\n      add\n      swap1\n      tag_14\n      swap2\n      swap1\n      tag_9\n      jump\t// in\n    tag_14:\n      tag_15\n      jump\t// in\n    tag_13:\n      stop\n        /* \"5\\xec\\x9e\\xa5_\\xeb\\xa7\\xa4\\xed\\x95\\x91,\\xeb\\xb0\\xb0\\xec\\x97\\xb4,\\xea\\xb5\\xac\\xec\\xa1\\xb0\\xec\\xb2\\xb4/5_5.sol\":258:518  function popArray() public{... */\n    tag_5:\n      tag_16\n      tag_17\n      jump\t// in\n    tag_16:\n      stop\n        /* \"5\\xec\\x9e\\xa5_\\xeb\\xa7\\xa4\\xed\\x95\\x91,\\xeb\\xb0\\xb0\\xec\\x97\\xb4,\\xea\\xb5\\xac\\xec\\xa1\\xb0\\xec\\xb2\\xb4/5_5.sol\":168:252  function getLength() public view returns(uint){... */\n    tag_6:\n      tag_18\n      tag_19\n      jump\t// in\n    tag_18:\n      mload(0x40)\n      tag_20\n      swap2\n      swap1\n      tag_12\n      jump\t// in\n    tag_20:\n      mload(0x40)\n      dup1\n      swap2\n      sub\n      swap1\n      return\n        /* \"5\\xec\\x9e\\xa5_\\xeb\\xa7\\xa4\\xed\\x95\\x91,\\xeb\\xb0\\xb0\\xec\\x97\\xb4,\\xea\\xb5\\xac\\xec\\xa1\\xb0\\xec\\xb2\\xb4/5_5.sol\":129:159  uint[] public array=[97,98,99] */\n    tag_10:\n      0x00\n      dup2\n      dup2\n      sload\n      dup2\n      lt\n      tag_21\n      jumpi\n      0x00\n      dup1\n      revert\n    tag_21:\n      swap1\n      0x00\n      mstore\n      keccak256(0x00, 0x20)\n      add\n      0x00\n      swap2\n      pop\n      swap1\n      pop\n      sload\n      dup2\n      jump\t// out\n        /* \"5\\xec\\x9e\\xa5_\\xeb\\xa7\\xa4\\xed\\x95\\x91,\\xeb\\xb0\\xb0\\xec\\x97\\xb4,\\xea\\xb5\\xac\\xec\\xa1\\xb0\\xec\\xb2\\xb4/5_5.sol\":524:1220  function deleteArray(uint _index) public{... */\n    tag_15:\n        /* \"5\\xec\\x9e\\xa5_\\xeb\\xa7\\xa4\\xed\\x95\\x91,\\xeb\\xb0\\xb0\\xec\\x97\\xb4,\\xea\\xb5\\xac\\xec\\xa1\\xb0\\xec\\xb2\\xb4/5_5.sol\":1199:1204  array */\n      0x00\n        /* \"5\\xec\\x9e\\xa5_\\xeb\\xa7\\xa4\\xed\\x95\\x91,\\xeb\\xb0\\xb0\\xec\\x97\\xb4,\\xea\\xb5\\xac\\xec\\xa1\\xb0\\xec\\xb2\\xb4/5_5.sol\":1205:1211  _index */\n      dup2\n        /* \"5\\xec\\x9e\\xa5_\\xeb\\xa7\\xa4\\xed\\x95\\x91,\\xeb\\xb0\\xb0\\xec\\x97\\xb4,\\xea\\xb5\\xac\\xec\\xa1\\xb0\\xec\\xb2\\xb4/5_5.sol\":1199:1212  array[_index] */\n      dup2\n      sload\n      dup2\n      lt\n      tag_24\n      jumpi\n      tag_25\n      tag_26\n      jump\t// in\n    tag_25:\n    tag_24:\n      swap1\n      0x00\n      mstore\n      keccak256(0x00, 0x20)\n      add\n        /* \"5\\xec\\x9e\\xa5_\\xeb\\xa7\\xa4\\xed\\x95\\x91,\\xeb\\xb0\\xb0\\xec\\x97\\xb4,\\xea\\xb5\\xac\\xec\\xa1\\xb0\\xec\\xb2\\xb4/5_5.sol\":1192:1212  delete array[_index] */\n      0x00\n      swap1\n      sstore\n        /* \"5\\xec\\x9e\\xa5_\\xeb\\xa7\\xa4\\xed\\x95\\x91,\\xeb\\xb0\\xb0\\xec\\x97\\xb4,\\xea\\xb5\\xac\\xec\\xa1\\xb0\\xec\\xb2\\xb4/5_5.sol\":524:1220  function deleteArray(uint _index) public{... */\n      pop\n      jump\t// out\n        /* \"5\\xec\\x9e\\xa5_\\xeb\\xa7\\xa4\\xed\\x95\\x91,\\xeb\\xb0\\xb0\\xec\\x97\\xb4,\\xea\\xb5\\xac\\xec\\xa1\\xb0\\xec\\xb2\\xb4/5_5.sol\":258:518  function popArray() public{... */\n    tag_17:\n        /* \"5\\xec\\x9e\\xa5_\\xeb\\xa7\\xa4\\xed\\x95\\x91,\\xeb\\xb0\\xb0\\xec\\x97\\xb4,\\xea\\xb5\\xac\\xec\\xa1\\xb0\\xec\\xb2\\xb4/5_5.sol\":499:504  array */\n      0x00\n        /* \"5\\xec\\x9e\\xa5_\\xeb\\xa7\\xa4\\xed\\x95\\x91,\\xeb\\xb0\\xb0\\xec\\x97\\xb4,\\xea\\xb5\\xac\\xec\\xa1\\xb0\\xec\\xb2\\xb4/5_5.sol\":499:510  array.pop() */\n      dup1\n      sload\n      dup1\n      tag_29\n      jumpi\n      tag_30\n      tag_31\n      jump\t// in\n    tag_30:\n    tag_29:\n      0x01\n      swap1\n      sub\n      dup2\n      dup2\n      swap1\n      0x00\n      mstore\n      keccak256(0x00, 0x20)\n      add\n      0x00\n      swap1\n      sstore\n      swap1\n      sstore\n        /* \"5\\xec\\x9e\\xa5_\\xeb\\xa7\\xa4\\xed\\x95\\x91,\\xeb\\xb0\\xb0\\xec\\x97\\xb4,\\xea\\xb5\\xac\\xec\\xa1\\xb0\\xec\\xb2\\xb4/5_5.sol\":258:518  function popArray() public{... */\n      jump\t// out\n        /* \"5\\xec\\x9e\\xa5_\\xeb\\xa7\\xa4\\xed\\x95\\x91,\\xeb\\xb0\\xb0\\xec\\x97\\xb4,\\xea\\xb5\\xac\\xec\\xa1\\xb0\\xec\\xb2\\xb4/5_5.sol\":168:252  function getLength() public view returns(uint){... */\n    tag_19:\n        /* \"5\\xec\\x9e\\xa5_\\xeb\\xa7\\xa4\\xed\\x95\\x91,\\xeb\\xb0\\xb0\\xec\\x97\\xb4,\\xea\\xb5\\xac\\xec\\xa1\\xb0\\xec\\xb2\\xb4/5_5.sol\":209:213  uint */\n      0x00\n        /* \"5\\xec\\x9e\\xa5_\\xeb\\xa7\\xa4\\xed\\x95\\x91,\\xeb\\xb0\\xb0\\xec\\x97\\xb4,\\xea\\xb5\\xac\\xec\\xa1\\xb0\\xec\\xb2\\xb4/5_5.sol\":232:237  array */\n      dup1\n        /* \"5\\xec\\x9e\\xa5_\\xeb\\xa7\\xa4\\xed\\x95\\x91,\\xeb\\xb0\\xb0\\xec\\x97\\xb4,\\xea\\xb5\\xac\\xec\\xa1\\xb0\\xec\\xb2\\xb4/5_5.sol\":232:244  array.length */\n      dup1\n      sload\n      swap1\n      pop\n        /* \"5\\xec\\x9e\\xa5_\\xeb\\xa7\\xa4\\xed\\x95\\x91,\\xeb\\xb0\\xb0\\xec\\x97\\xb4,\\xea\\xb5\\xac\\xec\\xa1\\xb0\\xec\\xb2\\xb4/5_5.sol\":225:244  return array.length */\n      swap1\n      pop\n        /* \"5\\xec\\x9e\\xa5_\\xeb\\xa7\\xa4\\xed\\x95\\x91,\\xeb\\xb0\\xb0\\xec\\x97\\xb4,\\xea\\xb5\\xac\\xec\\xa1\\xb0\\xec\\xb2\\xb4/5_5.sol\":168:252  function getLength() public view returns(uint){... */\n      swap1\n      jump\t// out\n        /* \"#utility.yul\":88:205   */\n    tag_35:\n        /* \"#utility.yul\":197:198   */\n      0x00\n        /* \"#utility.yul\":194:195   */\n      dup1\n        /* \"#utility.yul\":187:199   */\n      revert\n        /* \"#utility.yul\":334:411   */\n    tag_37:\n        /* \"#utility.yul\":371:378   */\n      0x00\n        /* \"#utility.yul\":400:405   */\n      dup2\n        /* \"#utility.yul\":389:405   */\n      swap1\n      pop\n        /* \"#utility.yul\":334:411   */\n      swap2\n      swap1\n      pop\n      jump\t// out\n        /* \"#utility.yul\":417:539   */\n    tag_38:\n        /* \"#utility.yul\":490:514   */\n      tag_47\n        /* \"#utility.yul\":508:513   */\n      dup2\n        /* \"#utility.yul\":490:514   */\n      tag_37\n      jump\t// in\n    tag_47:\n        /* \"#utility.yul\":483:488   */\n      dup2\n        /* \"#utility.yul\":480:515   */\n      eq\n        /* \"#utility.yul\":470:533   */\n      tag_48\n      jumpi\n        /* \"#utility.yul\":529:530   */\n      0x00\n        /* \"#utility.yul\":526:527   */\n      dup1\n        /* \"#utility.yul\":519:531   */\n      revert\n        /* \"#utility.yul\":470:533   */\n    tag_48:\n        /* \"#utility.yul\":417:539   */\n      pop\n      jump\t// out\n        /* \"#utility.yul\":545:684   */\n    tag_39:\n        /* \"#utility.yul\":591:596   */\n      0x00\n        /* \"#utility.yul\":629:635   */\n      dup2\n        /* \"#utility.yul\":616:636   */\n      calldataload\n        /* \"#utility.yul\":607:636   */\n      swap1\n      pop\n        /* \"#utility.yul\":645:678   */\n      tag_50\n        /* \"#utility.yul\":672:677   */\n      dup2\n        /* \"#utility.yul\":645:678   */\n      tag_38\n      jump\t// in\n    tag_50:\n        /* \"#utility.yul\":545:684   */\n      swap3\n      swap2\n      pop\n      pop\n      jump\t// out\n        /* \"#utility.yul\":690:1019   */\n    tag_9:\n        /* \"#utility.yul\":749:755   */\n      0x00\n        /* \"#utility.yul\":798:800   */\n      0x20\n        /* \"#utility.yul\":786:795   */\n      dup3\n        /* \"#utility.yul\":777:784   */\n      dup5\n        /* \"#utility.yul\":773:796   */\n      sub\n        /* \"#utility.yul\":769:801   */\n      slt\n        /* \"#utility.yul\":766:885   */\n      iszero\n      tag_52\n      jumpi\n        /* \"#utility.yul\":804:883   */\n      tag_53\n      tag_35\n      jump\t// in\n    tag_53:\n        /* \"#utility.yul\":766:885   */\n    tag_52:\n        /* \"#utility.yul\":924:925   */\n      0x00\n        /* \"#utility.yul\":949:1002   */\n      tag_54\n        /* \"#utility.yul\":994:1001   */\n      dup5\n        /* \"#utility.yul\":985:991   */\n      dup3\n        /* \"#utility.yul\":974:983   */\n      dup6\n        /* \"#utility.yul\":970:992   */\n      add\n        /* \"#utility.yul\":949:1002   */\n      tag_39\n      jump\t// in\n    tag_54:\n        /* \"#utility.yul\":939:1002   */\n      swap2\n      pop\n        /* \"#utility.yul\":895:1012   */\n      pop\n        /* \"#utility.yul\":690:1019   */\n      swap3\n      swap2\n      pop\n      pop\n      jump\t// out\n        /* \"#utility.yul\":1025:1143   */\n    tag_40:\n        /* \"#utility.yul\":1112:1136   */\n      tag_56\n        /* \"#utility.yul\":1130:1135   */\n      dup2\n        /* \"#utility.yul\":1112:1136   */\n      tag_37\n      jump\t// in\n    tag_56:\n        /* \"#utility.yul\":1107:1110   */\n      dup3\n        /* \"#utility.yul\":1100:1137   */\n      mstore\n        /* \"#utility.yul\":1025:1143   */\n      pop\n      pop\n      jump\t// out\n        /* \"#utility.yul\":1149:1371   */\n    tag_12:\n        /* \"#utility.yul\":1242:1246   */\n      0x00\n        /* \"#utility.yul\":1280:1282   */\n      0x20\n        /* \"#utility.yul\":1269:1278   */\n      dup3\n        /* \"#utility.yul\":1265:1283   */\n      add\n        /* \"#utility.yul\":1257:1283   */\n      swap1\n      pop\n        /* \"#utility.yul\":1293:1364   */\n      tag_58\n        /* \"#utility.yul\":1361:1362   */\n      0x00\n        /* \"#utility.yul\":1350:1359   */\n      dup4\n        /* \"#utility.yul\":1346:1363   */\n      add\n        /* \"#utility.yul\":1337:1343   */\n      dup5\n        /* \"#utility.yul\":1293:1364   */\n      tag_40\n      jump\t// in\n    tag_58:\n        /* \"#utility.yul\":1149:1371   */\n      swap3\n      swap2\n      pop\n      pop\n      jump\t// out\n        /* \"#utility.yul\":1377:1557   */\n    tag_26:\n        /* \"#utility.yul\":1425:1502   */\n      0x4e487b7100000000000000000000000000000000000000000000000000000000\n        /* \"#utility.yul\":1422:1423   */\n      0x00\n        /* \"#utility.yul\":1415:1503   */\n      mstore\n        /* \"#utility.yul\":1522:1526   */\n      0x32\n        /* \"#utility.yul\":1519:1520   */\n      0x04\n        /* \"#utility.yul\":1512:1527   */\n      mstore\n        /* \"#utility.yul\":1546:1550   */\n      0x24\n        /* \"#utility.yul\":1543:1544   */\n      0x00\n        /* \"#utility.yul\":1536:1551   */\n      revert\n        /* \"#utility.yul\":1563:1743   */\n    tag_31:\n        /* \"#utility.yul\":1611:1688   */\n      0x4e487b7100000000000000000000000000000000000000000000000000000000\n        /* \"#utility.yul\":1608:1609   */\n      0x00\n        /* \"#utility.yul\":1601:1689   */\n      mstore\n        /* \"#utility.yul\":1708:1712   */\n      0x31\n        /* \"#utility.yul\":1705:1706   */\n      0x04\n        /* \"#utility.yul\":1698:1713   */\n      mstore\n        /* \"#utility.yul\":1732:1736   */\n      0x24\n        /* \"#utility.yul\":1729:1730   */\n      0x00\n        /* \"#utility.yul\":1722:1737   */\n      revert\n\n    auxdata: 0xa2646970667358221220029a97d7a4c9f6468eef9d6ab44f14b3c3ca76de3bf7164276d7d26b5b5ebf1364736f6c63430008180033\n}\n",
				"bytecode": {
					"linkReferences": {},
					"object": "60806040526040518060600160405280606160ff168152602001606260ff168152602001606360ff168152505f90600361003a92919061004c565b50348015610046575f80fd5b506100b7565b828054828255905f5260205f2090810192821561008b579160200282015b8281111561008a578251829060ff1690559160200191906001019061006a565b5b509050610098919061009c565b5090565b5b808211156100b3575f815f90555060010161009d565b5090565b61024d806100c45f395ff3fe608060405234801561000f575f80fd5b506004361061004a575f3560e01c806338d941931461004e5780637952deae1461007e578063ae713d2a1461009a578063be1c766b146100a4575b5f80fd5b6100686004803603810190610063919061016a565b6100c2565b60405161007591906101a4565b60405180910390f35b6100986004803603810190610093919061016a565b6100e1565b005b6100a2610102565b005b6100ac610128565b6040516100b991906101a4565b60405180910390f35b5f81815481106100d0575f80fd5b905f5260205f20015f915090505481565b5f81815481106100f4576100f36101bd565b5b905f5260205f20015f905550565b5f805480610113576101126101ea565b5b600190038181905f5260205f20015f90559055565b5f8080549050905090565b5f80fd5b5f819050919050565b61014981610137565b8114610153575f80fd5b50565b5f8135905061016481610140565b92915050565b5f6020828403121561017f5761017e610133565b5b5f61018c84828501610156565b91505092915050565b61019e81610137565b82525050565b5f6020820190506101b75f830184610195565b92915050565b7f4e487b71000000000000000000000000000000000000000000000000000000005f52603260045260245ffd5b7f4e487b71000000000000000000000000000000000000000000000000000000005f52603160045260245ffdfea2646970667358221220029a97d7a4c9f6468eef9d6ab44f14b3c3ca76de3bf7164276d7d26b5b5ebf1364736f6c63430008180033",
					"opcodes": "PUSH1 0x80 PUSH1 0x40 MSTORE PUSH1 0x40 MLOAD DUP1 PUSH1 0x60 ADD PUSH1 0x40 MSTORE DUP1 PUSH1 0x61 PUSH1 0xFF AND DUP2 MSTORE PUSH1 0x20 ADD PUSH1 0x62 PUSH1 0xFF AND DUP2 MSTORE PUSH1 0x20 ADD PUSH1 0x63 PUSH1 0xFF AND DUP2 MSTORE POP PUSH0 SWAP1 PUSH1 0x3 PUSH2 0x3A SWAP3 SWAP2 SWAP1 PUSH2 0x4C JUMP JUMPDEST POP CALLVALUE DUP1 ISZERO PUSH2 0x46 JUMPI PUSH0 DUP1 REVERT JUMPDEST POP PUSH2 0xB7 JUMP JUMPDEST DUP3 DUP1 SLOAD DUP3 DUP3 SSTORE SWAP1 PUSH0 MSTORE PUSH1 0x20 PUSH0 KECCAK256 SWAP1 DUP2 ADD SWAP3 DUP3 ISZERO PUSH2 0x8B JUMPI SWAP2 PUSH1 0x20 MUL DUP3 ADD JUMPDEST DUP3 DUP2 GT ISZERO PUSH2 0x8A JUMPI DUP3 MLOAD DUP3 SWAP1 PUSH1 0xFF AND SWAP1 SSTORE SWAP2 PUSH1 0x20 ADD SWAP2 SWAP1 PUSH1 0x1 ADD SWAP1 PUSH2 0x6A JUMP JUMPDEST JUMPDEST POP SWAP1 POP PUSH2 0x98 SWAP2 SWAP1 PUSH2 0x9C JUMP JUMPDEST POP SWAP1 JUMP JUMPDEST JUMPDEST DUP1 DUP3 GT ISZERO PUSH2 0xB3 JUMPI PUSH0 DUP2 PUSH0 SWAP1 SSTORE POP PUSH1 0x1 ADD PUSH2 0x9D JUMP JUMPDEST POP SWAP1 JUMP JUMPDEST PUSH2 0x24D DUP1 PUSH2 0xC4 PUSH0 CODECOPY PUSH0 RETURN INVALID PUSH1 0x80 PUSH1 0x40 MSTORE CALLVALUE DUP1 ISZERO PUSH2 0xF JUMPI PUSH0 DUP1 REVERT JUMPDEST POP PUSH1 0x4 CALLDATASIZE LT PUSH2 0x4A JUMPI PUSH0 CALLDATALOAD PUSH1 0xE0 SHR DUP1 PUSH4 0x38D94193 EQ PUSH2 0x4E JUMPI DUP1 PUSH4 0x7952DEAE EQ PUSH2 0x7E JUMPI DUP1 PUSH4 0xAE713D2A EQ PUSH2 0x9A JUMPI DUP1 PUSH4 0xBE1C766B EQ PUSH2 0xA4 JUMPI JUMPDEST PUSH0 DUP1 REVERT JUMPDEST PUSH2 0x68 PUSH1 0x4 DUP1 CALLDATASIZE SUB DUP2 ADD SWAP1 PUSH2 0x63 SWAP2 SWAP1 PUSH2 0x16A JUMP JUMPDEST PUSH2 0xC2 JUMP JUMPDEST PUSH1 0x40 MLOAD PUSH2 0x75 SWAP2 SWAP1 PUSH2 0x1A4 JUMP JUMPDEST PUSH1 0x40 MLOAD DUP1 SWAP2 SUB SWAP1 RETURN JUMPDEST PUSH2 0x98 PUSH1 0x4 DUP1 CALLDATASIZE SUB DUP2 ADD SWAP1 PUSH2 0x93 SWAP2 SWAP1 PUSH2 0x16A JUMP JUMPDEST PUSH2 0xE1 JUMP JUMPDEST STOP JUMPDEST PUSH2 0xA2 PUSH2 0x102 JUMP JUMPDEST STOP JUMPDEST PUSH2 0xAC PUSH2 0x128 JUMP JUMPDEST PUSH1 0x40 MLOAD PUSH2 0xB9 SWAP2 SWAP1 PUSH2 0x1A4 JUMP JUMPDEST PUSH1 0x40 MLOAD DUP1 SWAP2 SUB SWAP1 RETURN JUMPDEST PUSH0 DUP2 DUP2 SLOAD DUP2 LT PUSH2 0xD0 JUMPI PUSH0 DUP1 REVERT JUMPDEST SWAP1 PUSH0 MSTORE PUSH1 0x20 PUSH0 KECCAK256 ADD PUSH0 SWAP2 POP SWAP1 POP SLOAD DUP2 JUMP JUMPDEST PUSH0 DUP2 DUP2 SLOAD DUP2 LT PUSH2 0xF4 JUMPI PUSH2 0xF3 PUSH2 0x1BD JUMP JUMPDEST JUMPDEST SWAP1 PUSH0 MSTORE PUSH1 0x20 PUSH0 KECCAK256 ADD PUSH0 SWAP1 SSTORE POP JUMP JUMPDEST PUSH0 DUP1 SLOAD DUP1 PUSH2 0x113 JUMPI PUSH2 0x112 PUSH2 0x1EA JUMP JUMPDEST JUMPDEST PUSH1 0x1 SWAP1 SUB DUP2 DUP2 SWAP1 PUSH0 MSTORE PUSH1 0x20 PUSH0 KECCAK256 ADD PUSH0 SWAP1 SSTORE SWAP1 SSTORE JUMP JUMPDEST PUSH0 DUP1 DUP1 SLOAD SWAP1 POP SWAP1 POP SWAP1 JUMP JUMPDEST PUSH0 DUP1 REVERT JUMPDEST PUSH0 DUP2 SWAP1 POP SWAP2 SWAP1 POP JUMP JUMPDEST PUSH2 0x149 DUP2 PUSH2 0x137 JUMP JUMPDEST DUP2 EQ PUSH2 0x153 JUMPI PUSH0 DUP1 REVERT JUMPDEST POP JUMP JUMPDEST PUSH0 DUP2 CALLDATALOAD SWAP1 POP PUSH2 0x164 DUP2 PUSH2 0x140 JUMP JUMPDEST SWAP3 SWAP2 POP POP JUMP JUMPDEST PUSH0 PUSH1 0x20 DUP3 DUP5 SUB SLT ISZERO PUSH2 0x17F JUMPI PUSH2 0x17E PUSH2 0x133 JUMP JUMPDEST JUMPDEST PUSH0 PUSH2 0x18C DUP5 DUP3 DUP6 ADD PUSH2 0x156 JUMP JUMPDEST SWAP2 POP POP SWAP3 SWAP2 POP POP JUMP JUMPDEST PUSH2 0x19E DUP2 PUSH2 0x137 JUMP JUMPDEST DUP3 MSTORE POP POP JUMP JUMPDEST PUSH0 PUSH1 0x20 DUP3 ADD SWAP1 POP PUSH2 0x1B7 PUSH0 DUP4 ADD DUP5 PUSH2 0x195 JUMP JUMPDEST SWAP3 SWAP2 POP POP JUMP JUMPDEST PUSH32 0x4E487B7100000000000000000000000000000000000000000000000000000000 PUSH0 MSTORE PUSH1 0x32 PUSH1 0x4 MSTORE PUSH1 0x24 PUSH0 REVERT JUMPDEST PUSH32 0x4E487B7100000000000000000000000000000000000000000000000000000000 PUSH0 MSTORE PUSH1 0x31 PUSH1 0x4 MSTORE PUSH1 0x24 PUSH0 REVERT INVALID LOG2 PUSH5 0x6970667358 0x22 SLT KECCAK256 MUL SWAP11 SWAP8 0xD7 LOG4 0xC9 0xF6 CHAINID DUP15 0xEF SWAP14 PUSH11 0xB44F14B3C3CA76DE3BF716 TIMESTAMP PUSH23 0xD7D26B5B5EBF1364736F6C634300081800330000000000 "
				},
				"gasEstimates": {
					"creation": {
						"codeDepositCost": "117800",
						"executionCost": "infinite",
						"totalCost": "infinite"
					},
					"external": {
						"array(uint256)": "infinite",
						"deleteArray(uint256)": "7586",
						"getLength()": "2484",
						"popArray()": "29462"
					}
				},
				"methodIdentifiers": {
					"array(uint256)": "38d94193",
					"deleteArray(uint256)": "7952deae",
					"getLength()": "be1c766b",
					"popArray()": "ae713d2a"
				}
			},
			"storageLayout": {
				"storage": [
					{
						"astId": 8,
						"contract": "5장_매핑,배열,구조체/5_5.sol:Ex5_5",
						"label": "array",
						"offset": 0,
						"slot": "0",
						"type": "t_array(t_uint256)dyn_storage"
					}
				],
				"types": {
					"t_array(t_uint256)dyn_storage": {
						"base": "t_uint256",
						"encoding": "dynamic_array",
						"label": "uint256[]",
						"numberOfBytes": "32"
					},
					"t_uint256": {
						"encoding": "inplace",
						"label": "uint256",
						"numberOfBytes": "32"
					}
				}
			},
			"userdoc": {
				"kind": "user",
				"methods": {},
				"version": 1
			}
		}
	}
}