{
	"5장_매핑,배열,구조체/5_4.sol": {
		"Ex5_4": {
			"abi": [
				{
					"inputs": [
						{
							"internalType": "uint256",
							"name": "_value",
							"type": "uint256"
						}
					],
					"name": "addArray1",
					"outputs": [],
					"stateMutability": "nonpayable",
					"type": "function"
				},
				{
					"inputs": [
						{
							"internalType": "uint256",
							"name": "",
							"type": "uint256"
						}
					],
					"name": "array1",
					"outputs": [
						{
							"internalType": "uint256",
							"name": "",
							"type": "uint256"
						}
					],
					"stateMutability": "view",
					"type": "function"
				},
				{
					"inputs": [
						{
							"internalType": "uint256",
							"name": "",
							"type": "uint256"
						}
					],
					"name": "array2",
					"outputs": [
						{
							"internalType": "string",
							"name": "",
							"type": "string"
						}
					],
					"stateMutability": "view",
					"type": "function"
				},
				{
					"inputs": [
						{
							"internalType": "uint256",
							"name": "_index",
							"type": "uint256"
						},
						{
							"internalType": "uint256",
							"name": "_value",
							"type": "uint256"
						}
					],
					"name": "changeArray1",
					"outputs": [],
					"stateMutability": "nonpayable",
					"type": "function"
				},
				{
					"inputs": [
						{
							"internalType": "uint256",
							"name": "_index",
							"type": "uint256"
						},
						{
							"internalType": "string",
							"name": "_value",
							"type": "string"
						}
					],
					"name": "changeArray2",
					"outputs": [],
					"stateMutability": "nonpayable",
					"type": "function"
				},
				{
					"inputs": [],
					"name": "getLegth1",
					"outputs": [
						{
							"internalType": "uint256",
							"name": "",
							"type": "uint256"
						}
					],
					"stateMutability": "view",
					"type": "function"
				},
				{
					"inputs": [],
					"name": "getLength2",
					"outputs": [
						{
							"internalType": "uint256",
							"name": "",
							"type": "uint256"
						}
					],
					"stateMutability": "view",
					"type": "function"
				}
			],
			"devdoc": {
				"kind": "dev",
				"methods": {},
				"version": 1
			},
			"evm": {
				"assembly": "    /* \"5\\xec\\x9e\\xa5_\\xeb\\xa7\\xa4\\xed\\x95\\x91,\\xeb\\xb0\\xb0\\xec\\x97\\xb4,\\xea\\xb5\\xac\\xec\\xa1\\xb0\\xec\\xb2\\xb4/5_4.sol\":124:819  contract Ex5_4{... */\n  mstore(0x40, 0x80)\n    /* \"5\\xec\\x9e\\xa5_\\xeb\\xa7\\xa4\\xed\\x95\\x91,\\xeb\\xb0\\xb0\\xec\\x97\\xb4,\\xea\\xb5\\xac\\xec\\xa1\\xb0\\xec\\xb2\\xb4/5_4.sol\":145:173  uint[] public array1=[97,98] */\n  mload(0x40)\n  dup1\n  0x40\n  add\n  0x40\n  mstore\n  dup1\n    /* \"5\\xec\\x9e\\xa5_\\xeb\\xa7\\xa4\\xed\\x95\\x91,\\xeb\\xb0\\xb0\\xec\\x97\\xb4,\\xea\\xb5\\xac\\xec\\xa1\\xb0\\xec\\xb2\\xb4/5_4.sol\":167:169  97 */\n  0x61\n    /* \"5\\xec\\x9e\\xa5_\\xeb\\xa7\\xa4\\xed\\x95\\x91,\\xeb\\xb0\\xb0\\xec\\x97\\xb4,\\xea\\xb5\\xac\\xec\\xa1\\xb0\\xec\\xb2\\xb4/5_4.sol\":145:173  uint[] public array1=[97,98] */\n  0xff\n  and\n  dup2\n  mstore\n  0x20\n  add\n    /* \"5\\xec\\x9e\\xa5_\\xeb\\xa7\\xa4\\xed\\x95\\x91,\\xeb\\xb0\\xb0\\xec\\x97\\xb4,\\xea\\xb5\\xac\\xec\\xa1\\xb0\\xec\\xb2\\xb4/5_4.sol\":170:172  98 */\n  0x62\n    /* \"5\\xec\\x9e\\xa5_\\xeb\\xa7\\xa4\\xed\\x95\\x91,\\xeb\\xb0\\xb0\\xec\\x97\\xb4,\\xea\\xb5\\xac\\xec\\xa1\\xb0\\xec\\xb2\\xb4/5_4.sol\":145:173  uint[] public array1=[97,98] */\n  0xff\n  and\n  dup2\n  mstore\n  pop\n  0x00\n  swap1\n  0x02\n  tag_1\n  swap3\n  swap2\n  swap1\n  tag_2\n  jump\t// in\ntag_1:\n  pop\n    /* \"5\\xec\\x9e\\xa5_\\xeb\\xa7\\xa4\\xed\\x95\\x91,\\xeb\\xb0\\xb0\\xec\\x97\\xb4,\\xea\\xb5\\xac\\xec\\xa1\\xb0\\xec\\xb2\\xb4/5_4.sol\":180:232  string[5] public array2=[\"apple\",\"banana\",\"Coconut\"] */\n  mload(0x40)\n  dup1\n  0x60\n  add\n  0x40\n  mstore\n  dup1\n  mload(0x40)\n  dup1\n  0x40\n  add\n  0x40\n  mstore\n  dup1\n  0x05\n  dup2\n  mstore\n  0x20\n  add\n  0x6170706c65000000000000000000000000000000000000000000000000000000\n  dup2\n  mstore\n  pop\n  dup2\n  mstore\n  0x20\n  add\n  mload(0x40)\n  dup1\n  0x40\n  add\n  0x40\n  mstore\n  dup1\n  0x06\n  dup2\n  mstore\n  0x20\n  add\n  0x62616e616e610000000000000000000000000000000000000000000000000000\n  dup2\n  mstore\n  pop\n  dup2\n  mstore\n  0x20\n  add\n  mload(0x40)\n  dup1\n  0x40\n  add\n  0x40\n  mstore\n  dup1\n  0x07\n  dup2\n  mstore\n  0x20\n  add\n  0x436f636f6e757400000000000000000000000000000000000000000000000000\n  dup2\n  mstore\n  pop\n  dup2\n  mstore\n  pop\n  0x01\n  swap1\n  0x03\n  tag_3\n  swap3\n  swap2\n  swap1\n  tag_4\n  jump\t// in\ntag_3:\n  pop\n    /* \"5\\xec\\x9e\\xa5_\\xeb\\xa7\\xa4\\xed\\x95\\x91,\\xeb\\xb0\\xb0\\xec\\x97\\xb4,\\xea\\xb5\\xac\\xec\\xa1\\xb0\\xec\\xb2\\xb4/5_4.sol\":124:819  contract Ex5_4{... */\n  callvalue\n  dup1\n  iszero\n  tag_5\n  jumpi\n  0x00\n  dup1\n  revert\ntag_5:\n  pop\n  jump(tag_6)\ntag_2:\n  dup3\n  dup1\n  sload\n  dup3\n  dup3\n  sstore\n  swap1\n  0x00\n  mstore\n  keccak256(0x00, 0x20)\n  swap1\n  dup2\n  add\n  swap3\n  dup3\n  iszero\n  tag_7\n  jumpi\n  swap2\n  0x20\n  mul\n  dup3\n  add\ntag_8:\n  dup3\n  dup2\n  gt\n  iszero\n  tag_9\n  jumpi\n  dup3\n  mload\n  dup3\n  swap1\n  0xff\n  and\n  swap1\n  sstore\n  swap2\n  0x20\n  add\n  swap2\n  swap1\n  0x01\n  add\n  swap1\n  jump(tag_8)\ntag_9:\ntag_7:\n  pop\n  swap1\n  pop\n  tag_10\n  swap2\n  swap1\n  tag_11\n  jump\t// in\ntag_10:\n  pop\n  swap1\n  jump\t// out\ntag_4:\n  dup3\n  0x05\n  dup2\n  add\n  swap3\n  dup3\n  iszero\n  tag_12\n  jumpi\n  swap2\n  0x20\n  mul\n  dup3\n  add\ntag_13:\n  dup3\n  dup2\n  gt\n  iszero\n  tag_14\n  jumpi\n  dup3\n  mload\n  dup3\n  swap1\n  dup2\n  tag_15\n  swap2\n  swap1\n  tag_16\n  jump\t// in\ntag_15:\n  pop\n  swap2\n  0x20\n  add\n  swap2\n  swap1\n  0x01\n  add\n  swap1\n  jump(tag_13)\ntag_14:\ntag_12:\n  pop\n  swap1\n  pop\n  tag_17\n  swap2\n  swap1\n  tag_18\n  jump\t// in\ntag_17:\n  pop\n  swap1\n  jump\t// out\ntag_11:\ntag_19:\n  dup1\n  dup3\n  gt\n  iszero\n  tag_20\n  jumpi\n  0x00\n  dup2\n  0x00\n  swap1\n  sstore\n  pop\n  0x01\n  add\n  jump(tag_19)\ntag_20:\n  pop\n  swap1\n  jump\t// out\ntag_18:\ntag_21:\n  dup1\n  dup3\n  gt\n  iszero\n  tag_22\n  jumpi\n  0x00\n  dup2\n  dup2\n  tag_23\n  swap2\n  swap1\n  tag_24\n  jump\t// in\ntag_23:\n  pop\n  0x01\n  add\n  jump(tag_21)\ntag_22:\n  pop\n  swap1\n  jump\t// out\ntag_24:\n  pop\n  dup1\n  sload\n  tag_25\n  swap1\n  tag_26\n  jump\t// in\ntag_25:\n  0x00\n  dup3\n  sstore\n  dup1\n  0x1f\n  lt\n  tag_28\n  jumpi\n  pop\n  jump(tag_27)\ntag_28:\n  0x1f\n  add\n  0x20\n  swap1\n  div\n  swap1\n  0x00\n  mstore\n  keccak256(0x00, 0x20)\n  swap1\n  dup2\n  add\n  swap1\n  tag_29\n  swap2\n  swap1\n  tag_11\n  jump\t// in\ntag_29:\ntag_27:\n  pop\n  jump\t// out\n    /* \"#utility.yul\":7:106   */\ntag_30:\n    /* \"#utility.yul\":59:65   */\n  0x00\n    /* \"#utility.yul\":93:98   */\n  dup2\n    /* \"#utility.yul\":87:99   */\n  mload\n    /* \"#utility.yul\":77:99   */\n  swap1\n  pop\n    /* \"#utility.yul\":7:106   */\n  swap2\n  swap1\n  pop\n  jump\t// out\n    /* \"#utility.yul\":112:292   */\ntag_31:\n    /* \"#utility.yul\":160:237   */\n  0x4e487b7100000000000000000000000000000000000000000000000000000000\n    /* \"#utility.yul\":157:158   */\n  0x00\n    /* \"#utility.yul\":150:238   */\n  mstore\n    /* \"#utility.yul\":257:261   */\n  0x41\n    /* \"#utility.yul\":254:255   */\n  0x04\n    /* \"#utility.yul\":247:262   */\n  mstore\n    /* \"#utility.yul\":281:285   */\n  0x24\n    /* \"#utility.yul\":278:279   */\n  0x00\n    /* \"#utility.yul\":271:286   */\n  revert\n    /* \"#utility.yul\":298:478   */\ntag_32:\n    /* \"#utility.yul\":346:423   */\n  0x4e487b7100000000000000000000000000000000000000000000000000000000\n    /* \"#utility.yul\":343:344   */\n  0x00\n    /* \"#utility.yul\":336:424   */\n  mstore\n    /* \"#utility.yul\":443:447   */\n  0x22\n    /* \"#utility.yul\":440:441   */\n  0x04\n    /* \"#utility.yul\":433:448   */\n  mstore\n    /* \"#utility.yul\":467:471   */\n  0x24\n    /* \"#utility.yul\":464:465   */\n  0x00\n    /* \"#utility.yul\":457:472   */\n  revert\n    /* \"#utility.yul\":484:804   */\ntag_26:\n    /* \"#utility.yul\":528:534   */\n  0x00\n    /* \"#utility.yul\":565:566   */\n  0x02\n    /* \"#utility.yul\":559:563   */\n  dup3\n    /* \"#utility.yul\":555:567   */\n  div\n    /* \"#utility.yul\":545:567   */\n  swap1\n  pop\n    /* \"#utility.yul\":612:613   */\n  0x01\n    /* \"#utility.yul\":606:610   */\n  dup3\n    /* \"#utility.yul\":602:614   */\n  and\n    /* \"#utility.yul\":633:651   */\n  dup1\n    /* \"#utility.yul\":623:704   */\n  tag_54\n  jumpi\n    /* \"#utility.yul\":689:693   */\n  0x7f\n    /* \"#utility.yul\":681:687   */\n  dup3\n    /* \"#utility.yul\":677:694   */\n  and\n    /* \"#utility.yul\":667:694   */\n  swap2\n  pop\n    /* \"#utility.yul\":623:704   */\ntag_54:\n    /* \"#utility.yul\":751:753   */\n  0x20\n    /* \"#utility.yul\":743:749   */\n  dup3\n    /* \"#utility.yul\":740:754   */\n  lt\n    /* \"#utility.yul\":720:738   */\n  dup2\n    /* \"#utility.yul\":717:755   */\n  sub\n    /* \"#utility.yul\":714:798   */\n  tag_55\n  jumpi\n    /* \"#utility.yul\":770:788   */\n  tag_56\n  tag_32\n  jump\t// in\ntag_56:\n    /* \"#utility.yul\":714:798   */\ntag_55:\n    /* \"#utility.yul\":535:804   */\n  pop\n    /* \"#utility.yul\":484:804   */\n  swap2\n  swap1\n  pop\n  jump\t// out\n    /* \"#utility.yul\":810:951   */\ntag_33:\n    /* \"#utility.yul\":859:863   */\n  0x00\n    /* \"#utility.yul\":882:885   */\n  dup2\n    /* \"#utility.yul\":874:885   */\n  swap1\n  pop\n    /* \"#utility.yul\":905:908   */\n  dup2\n    /* \"#utility.yul\":902:903   */\n  0x00\n    /* \"#utility.yul\":895:909   */\n  mstore\n    /* \"#utility.yul\":939:943   */\n  0x20\n    /* \"#utility.yul\":936:937   */\n  0x00\n    /* \"#utility.yul\":926:944   */\n  keccak256\n    /* \"#utility.yul\":918:944   */\n  swap1\n  pop\n    /* \"#utility.yul\":810:951   */\n  swap2\n  swap1\n  pop\n  jump\t// out\n    /* \"#utility.yul\":957:1050   */\ntag_34:\n    /* \"#utility.yul\":994:1000   */\n  0x00\n    /* \"#utility.yul\":1041:1043   */\n  0x20\n    /* \"#utility.yul\":1036:1038   */\n  0x1f\n    /* \"#utility.yul\":1029:1034   */\n  dup4\n    /* \"#utility.yul\":1025:1039   */\n  add\n    /* \"#utility.yul\":1021:1044   */\n  div\n    /* \"#utility.yul\":1011:1044   */\n  swap1\n  pop\n    /* \"#utility.yul\":957:1050   */\n  swap2\n  swap1\n  pop\n  jump\t// out\n    /* \"#utility.yul\":1056:1163   */\ntag_35:\n    /* \"#utility.yul\":1100:1108   */\n  0x00\n    /* \"#utility.yul\":1150:1155   */\n  dup3\n    /* \"#utility.yul\":1144:1148   */\n  dup3\n    /* \"#utility.yul\":1140:1156   */\n  shl\n    /* \"#utility.yul\":1119:1156   */\n  swap1\n  pop\n    /* \"#utility.yul\":1056:1163   */\n  swap3\n  swap2\n  pop\n  pop\n  jump\t// out\n    /* \"#utility.yul\":1169:1562   */\ntag_36:\n    /* \"#utility.yul\":1238:1244   */\n  0x00\n    /* \"#utility.yul\":1288:1289   */\n  0x08\n    /* \"#utility.yul\":1276:1286   */\n  dup4\n    /* \"#utility.yul\":1272:1290   */\n  mul\n    /* \"#utility.yul\":1311:1408   */\n  tag_61\n    /* \"#utility.yul\":1341:1407   */\n  0xffffffffffffffffffffffffffffffffffffffffffffffffffffffffffffffff\n    /* \"#utility.yul\":1330:1339   */\n  dup3\n    /* \"#utility.yul\":1311:1408   */\n  tag_35\n  jump\t// in\ntag_61:\n    /* \"#utility.yul\":1429:1468   */\n  tag_62\n    /* \"#utility.yul\":1459:1467   */\n  dup7\n    /* \"#utility.yul\":1448:1457   */\n  dup4\n    /* \"#utility.yul\":1429:1468   */\n  tag_35\n  jump\t// in\ntag_62:\n    /* \"#utility.yul\":1417:1468   */\n  swap6\n  pop\n    /* \"#utility.yul\":1501:1505   */\n  dup1\n    /* \"#utility.yul\":1497:1506   */\n  not\n    /* \"#utility.yul\":1490:1495   */\n  dup5\n    /* \"#utility.yul\":1486:1507   */\n  and\n    /* \"#utility.yul\":1477:1507   */\n  swap4\n  pop\n    /* \"#utility.yul\":1550:1554   */\n  dup1\n    /* \"#utility.yul\":1540:1548   */\n  dup7\n    /* \"#utility.yul\":1536:1555   */\n  and\n    /* \"#utility.yul\":1529:1534   */\n  dup5\n    /* \"#utility.yul\":1526:1556   */\n  or\n    /* \"#utility.yul\":1516:1556   */\n  swap3\n  pop\n    /* \"#utility.yul\":1245:1562   */\n  pop\n  pop\n    /* \"#utility.yul\":1169:1562   */\n  swap4\n  swap3\n  pop\n  pop\n  pop\n  jump\t// out\n    /* \"#utility.yul\":1568:1645   */\ntag_37:\n    /* \"#utility.yul\":1605:1612   */\n  0x00\n    /* \"#utility.yul\":1634:1639   */\n  dup2\n    /* \"#utility.yul\":1623:1639   */\n  swap1\n  pop\n    /* \"#utility.yul\":1568:1645   */\n  swap2\n  swap1\n  pop\n  jump\t// out\n    /* \"#utility.yul\":1651:1711   */\ntag_38:\n    /* \"#utility.yul\":1679:1682   */\n  0x00\n    /* \"#utility.yul\":1700:1705   */\n  dup2\n    /* \"#utility.yul\":1693:1705   */\n  swap1\n  pop\n    /* \"#utility.yul\":1651:1711   */\n  swap2\n  swap1\n  pop\n  jump\t// out\n    /* \"#utility.yul\":1717:1859   */\ntag_39:\n    /* \"#utility.yul\":1767:1776   */\n  0x00\n    /* \"#utility.yul\":1800:1853   */\n  tag_66\n    /* \"#utility.yul\":1818:1852   */\n  tag_67\n    /* \"#utility.yul\":1827:1851   */\n  tag_68\n    /* \"#utility.yul\":1845:1850   */\n  dup5\n    /* \"#utility.yul\":1827:1851   */\n  tag_37\n  jump\t// in\ntag_68:\n    /* \"#utility.yul\":1818:1852   */\n  tag_38\n  jump\t// in\ntag_67:\n    /* \"#utility.yul\":1800:1853   */\n  tag_37\n  jump\t// in\ntag_66:\n    /* \"#utility.yul\":1787:1853   */\n  swap1\n  pop\n    /* \"#utility.yul\":1717:1859   */\n  swap2\n  swap1\n  pop\n  jump\t// out\n    /* \"#utility.yul\":1865:1940   */\ntag_40:\n    /* \"#utility.yul\":1908:1911   */\n  0x00\n    /* \"#utility.yul\":1929:1934   */\n  dup2\n    /* \"#utility.yul\":1922:1934   */\n  swap1\n  pop\n    /* \"#utility.yul\":1865:1940   */\n  swap2\n  swap1\n  pop\n  jump\t// out\n    /* \"#utility.yul\":1946:2215   */\ntag_41:\n    /* \"#utility.yul\":2056:2095   */\n  tag_71\n    /* \"#utility.yul\":2087:2094   */\n  dup4\n    /* \"#utility.yul\":2056:2095   */\n  tag_39\n  jump\t// in\ntag_71:\n    /* \"#utility.yul\":2117:2208   */\n  tag_72\n    /* \"#utility.yul\":2166:2207   */\n  tag_73\n    /* \"#utility.yul\":2190:2206   */\n  dup3\n    /* \"#utility.yul\":2166:2207   */\n  tag_40\n  jump\t// in\ntag_73:\n    /* \"#utility.yul\":2158:2164   */\n  dup5\n    /* \"#utility.yul\":2151:2155   */\n  dup5\n    /* \"#utility.yul\":2145:2156   */\n  sload\n    /* \"#utility.yul\":2117:2208   */\n  tag_36\n  jump\t// in\ntag_72:\n    /* \"#utility.yul\":2111:2115   */\n  dup3\n    /* \"#utility.yul\":2104:2209   */\n  sstore\n    /* \"#utility.yul\":2022:2215   */\n  pop\n    /* \"#utility.yul\":1946:2215   */\n  pop\n  pop\n  pop\n  jump\t// out\n    /* \"#utility.yul\":2221:2294   */\ntag_42:\n    /* \"#utility.yul\":2266:2269   */\n  0x00\n    /* \"#utility.yul\":2221:2294   */\n  swap1\n  jump\t// out\n    /* \"#utility.yul\":2300:2489   */\ntag_43:\n    /* \"#utility.yul\":2377:2409   */\n  tag_76\n  tag_42\n  jump\t// in\ntag_76:\n    /* \"#utility.yul\":2418:2483   */\n  tag_77\n    /* \"#utility.yul\":2476:2482   */\n  dup2\n    /* \"#utility.yul\":2468:2474   */\n  dup5\n    /* \"#utility.yul\":2462:2466   */\n  dup5\n    /* \"#utility.yul\":2418:2483   */\n  tag_41\n  jump\t// in\ntag_77:\n    /* \"#utility.yul\":2353:2489   */\n  pop\n    /* \"#utility.yul\":2300:2489   */\n  pop\n  pop\n  jump\t// out\n    /* \"#utility.yul\":2495:2681   */\ntag_44:\n    /* \"#utility.yul\":2555:2675   */\ntag_79:\n    /* \"#utility.yul\":2572:2575   */\n  dup2\n    /* \"#utility.yul\":2565:2570   */\n  dup2\n    /* \"#utility.yul\":2562:2576   */\n  lt\n    /* \"#utility.yul\":2555:2675   */\n  iszero\n  tag_81\n  jumpi\n    /* \"#utility.yul\":2626:2665   */\n  tag_82\n    /* \"#utility.yul\":2663:2664   */\n  0x00\n    /* \"#utility.yul\":2656:2661   */\n  dup3\n    /* \"#utility.yul\":2626:2665   */\n  tag_43\n  jump\t// in\ntag_82:\n    /* \"#utility.yul\":2599:2600   */\n  0x01\n    /* \"#utility.yul\":2592:2597   */\n  dup2\n    /* \"#utility.yul\":2588:2601   */\n  add\n    /* \"#utility.yul\":2579:2601   */\n  swap1\n  pop\n    /* \"#utility.yul\":2555:2675   */\n  jump(tag_79)\ntag_81:\n    /* \"#utility.yul\":2495:2681   */\n  pop\n  pop\n  jump\t// out\n    /* \"#utility.yul\":2687:3230   */\ntag_45:\n    /* \"#utility.yul\":2788:2790   */\n  0x1f\n    /* \"#utility.yul\":2783:2786   */\n  dup3\n    /* \"#utility.yul\":2780:2791   */\n  gt\n    /* \"#utility.yul\":2777:3223   */\n  iszero\n  tag_84\n  jumpi\n    /* \"#utility.yul\":2822:2860   */\n  tag_85\n    /* \"#utility.yul\":2854:2859   */\n  dup2\n    /* \"#utility.yul\":2822:2860   */\n  tag_33\n  jump\t// in\ntag_85:\n    /* \"#utility.yul\":2906:2935   */\n  tag_86\n    /* \"#utility.yul\":2924:2934   */\n  dup5\n    /* \"#utility.yul\":2906:2935   */\n  tag_34\n  jump\t// in\ntag_86:\n    /* \"#utility.yul\":2896:2904   */\n  dup2\n    /* \"#utility.yul\":2892:2936   */\n  add\n    /* \"#utility.yul\":3089:3091   */\n  0x20\n    /* \"#utility.yul\":3077:3087   */\n  dup6\n    /* \"#utility.yul\":3074:3092   */\n  lt\n    /* \"#utility.yul\":3071:3120   */\n  iszero\n  tag_87\n  jumpi\n    /* \"#utility.yul\":3110:3118   */\n  dup2\n    /* \"#utility.yul\":3095:3118   */\n  swap1\n  pop\n    /* \"#utility.yul\":3071:3120   */\ntag_87:\n    /* \"#utility.yul\":3133:3213   */\n  tag_88\n    /* \"#utility.yul\":3189:3211   */\n  tag_89\n    /* \"#utility.yul\":3207:3210   */\n  dup6\n    /* \"#utility.yul\":3189:3211   */\n  tag_34\n  jump\t// in\ntag_89:\n    /* \"#utility.yul\":3179:3187   */\n  dup4\n    /* \"#utility.yul\":3175:3212   */\n  add\n    /* \"#utility.yul\":3162:3173   */\n  dup3\n    /* \"#utility.yul\":3133:3213   */\n  tag_44\n  jump\t// in\ntag_88:\n    /* \"#utility.yul\":2792:3223   */\n  pop\n  pop\n    /* \"#utility.yul\":2777:3223   */\ntag_84:\n    /* \"#utility.yul\":2687:3230   */\n  pop\n  pop\n  pop\n  jump\t// out\n    /* \"#utility.yul\":3236:3353   */\ntag_46:\n    /* \"#utility.yul\":3290:3298   */\n  0x00\n    /* \"#utility.yul\":3340:3345   */\n  dup3\n    /* \"#utility.yul\":3334:3338   */\n  dup3\n    /* \"#utility.yul\":3330:3346   */\n  shr\n    /* \"#utility.yul\":3309:3346   */\n  swap1\n  pop\n    /* \"#utility.yul\":3236:3353   */\n  swap3\n  swap2\n  pop\n  pop\n  jump\t// out\n    /* \"#utility.yul\":3359:3528   */\ntag_47:\n    /* \"#utility.yul\":3403:3409   */\n  0x00\n    /* \"#utility.yul\":3436:3487   */\n  tag_92\n    /* \"#utility.yul\":3484:3485   */\n  0x00\n    /* \"#utility.yul\":3480:3486   */\n  not\n    /* \"#utility.yul\":3472:3477   */\n  dup5\n    /* \"#utility.yul\":3469:3470   */\n  0x08\n    /* \"#utility.yul\":3465:3478   */\n  mul\n    /* \"#utility.yul\":3436:3487   */\n  tag_46\n  jump\t// in\ntag_92:\n    /* \"#utility.yul\":3432:3488   */\n  not\n    /* \"#utility.yul\":3517:3521   */\n  dup1\n    /* \"#utility.yul\":3511:3515   */\n  dup4\n    /* \"#utility.yul\":3507:3522   */\n  and\n    /* \"#utility.yul\":3497:3522   */\n  swap2\n  pop\n    /* \"#utility.yul\":3410:3528   */\n  pop\n    /* \"#utility.yul\":3359:3528   */\n  swap3\n  swap2\n  pop\n  pop\n  jump\t// out\n    /* \"#utility.yul\":3533:3828   */\ntag_48:\n    /* \"#utility.yul\":3609:3613   */\n  0x00\n    /* \"#utility.yul\":3755:3784   */\n  tag_94\n    /* \"#utility.yul\":3780:3783   */\n  dup4\n    /* \"#utility.yul\":3774:3778   */\n  dup4\n    /* \"#utility.yul\":3755:3784   */\n  tag_47\n  jump\t// in\ntag_94:\n    /* \"#utility.yul\":3747:3784   */\n  swap2\n  pop\n    /* \"#utility.yul\":3817:3820   */\n  dup3\n    /* \"#utility.yul\":3814:3815   */\n  0x02\n    /* \"#utility.yul\":3810:3821   */\n  mul\n    /* \"#utility.yul\":3804:3808   */\n  dup3\n    /* \"#utility.yul\":3801:3822   */\n  or\n    /* \"#utility.yul\":3793:3822   */\n  swap1\n  pop\n    /* \"#utility.yul\":3533:3828   */\n  swap3\n  swap2\n  pop\n  pop\n  jump\t// out\n    /* \"#utility.yul\":3833:5228   */\ntag_16:\n    /* \"#utility.yul\":3950:3987   */\n  tag_96\n    /* \"#utility.yul\":3983:3986   */\n  dup3\n    /* \"#utility.yul\":3950:3987   */\n  tag_30\n  jump\t// in\ntag_96:\n    /* \"#utility.yul\":4052:4070   */\n  0xffffffffffffffff\n    /* \"#utility.yul\":4044:4050   */\n  dup2\n    /* \"#utility.yul\":4041:4071   */\n  gt\n    /* \"#utility.yul\":4038:4094   */\n  iszero\n  tag_97\n  jumpi\n    /* \"#utility.yul\":4074:4092   */\n  tag_98\n  tag_31\n  jump\t// in\ntag_98:\n    /* \"#utility.yul\":4038:4094   */\ntag_97:\n    /* \"#utility.yul\":4118:4156   */\n  tag_99\n    /* \"#utility.yul\":4150:4154   */\n  dup3\n    /* \"#utility.yul\":4144:4155   */\n  sload\n    /* \"#utility.yul\":4118:4156   */\n  tag_26\n  jump\t// in\ntag_99:\n    /* \"#utility.yul\":4203:4270   */\n  tag_100\n    /* \"#utility.yul\":4263:4269   */\n  dup3\n    /* \"#utility.yul\":4255:4261   */\n  dup3\n    /* \"#utility.yul\":4249:4253   */\n  dup6\n    /* \"#utility.yul\":4203:4270   */\n  tag_45\n  jump\t// in\ntag_100:\n    /* \"#utility.yul\":4297:4298   */\n  0x00\n    /* \"#utility.yul\":4321:4325   */\n  0x20\n    /* \"#utility.yul\":4308:4325   */\n  swap1\n  pop\n    /* \"#utility.yul\":4353:4355   */\n  0x1f\n    /* \"#utility.yul\":4345:4351   */\n  dup4\n    /* \"#utility.yul\":4342:4356   */\n  gt\n    /* \"#utility.yul\":4370:4371   */\n  0x01\n    /* \"#utility.yul\":4365:4983   */\n  dup2\n  eq\n  tag_102\n  jumpi\n    /* \"#utility.yul\":5027:5028   */\n  0x00\n    /* \"#utility.yul\":5044:5050   */\n  dup5\n    /* \"#utility.yul\":5041:5118   */\n  iszero\n  tag_103\n  jumpi\n    /* \"#utility.yul\":5093:5102   */\n  dup3\n    /* \"#utility.yul\":5088:5091   */\n  dup8\n    /* \"#utility.yul\":5084:5103   */\n  add\n    /* \"#utility.yul\":5078:5104   */\n  mload\n    /* \"#utility.yul\":5069:5104   */\n  swap1\n  pop\n    /* \"#utility.yul\":5041:5118   */\ntag_103:\n    /* \"#utility.yul\":5144:5211   */\n  tag_104\n    /* \"#utility.yul\":5204:5210   */\n  dup6\n    /* \"#utility.yul\":5197:5202   */\n  dup3\n    /* \"#utility.yul\":5144:5211   */\n  tag_48\n  jump\t// in\ntag_104:\n    /* \"#utility.yul\":5138:5142   */\n  dup7\n    /* \"#utility.yul\":5131:5212   */\n  sstore\n    /* \"#utility.yul\":5000:5222   */\n  pop\n    /* \"#utility.yul\":4335:5222   */\n  jump(tag_101)\n    /* \"#utility.yul\":4365:4983   */\ntag_102:\n    /* \"#utility.yul\":4417:4421   */\n  0x1f\n    /* \"#utility.yul\":4413:4422   */\n  not\n    /* \"#utility.yul\":4405:4411   */\n  dup5\n    /* \"#utility.yul\":4401:4423   */\n  and\n    /* \"#utility.yul\":4451:4488   */\n  tag_105\n    /* \"#utility.yul\":4483:4487   */\n  dup7\n    /* \"#utility.yul\":4451:4488   */\n  tag_33\n  jump\t// in\ntag_105:\n    /* \"#utility.yul\":4510:4511   */\n  0x00\n    /* \"#utility.yul\":4524:4732   */\ntag_106:\n    /* \"#utility.yul\":4538:4545   */\n  dup3\n    /* \"#utility.yul\":4535:4536   */\n  dup2\n    /* \"#utility.yul\":4532:4546   */\n  lt\n    /* \"#utility.yul\":4524:4732   */\n  iszero\n  tag_108\n  jumpi\n    /* \"#utility.yul\":4617:4626   */\n  dup5\n    /* \"#utility.yul\":4612:4615   */\n  dup10\n    /* \"#utility.yul\":4608:4627   */\n  add\n    /* \"#utility.yul\":4602:4628   */\n  mload\n    /* \"#utility.yul\":4594:4600   */\n  dup3\n    /* \"#utility.yul\":4587:4629   */\n  sstore\n    /* \"#utility.yul\":4668:4669   */\n  0x01\n    /* \"#utility.yul\":4660:4666   */\n  dup3\n    /* \"#utility.yul\":4656:4670   */\n  add\n    /* \"#utility.yul\":4646:4670   */\n  swap2\n  pop\n    /* \"#utility.yul\":4715:4717   */\n  0x20\n    /* \"#utility.yul\":4704:4713   */\n  dup6\n    /* \"#utility.yul\":4700:4718   */\n  add\n    /* \"#utility.yul\":4687:4718   */\n  swap5\n  pop\n    /* \"#utility.yul\":4561:4565   */\n  0x20\n    /* \"#utility.yul\":4558:4559   */\n  dup2\n    /* \"#utility.yul\":4554:4566   */\n  add\n    /* \"#utility.yul\":4549:4566   */\n  swap1\n  pop\n    /* \"#utility.yul\":4524:4732   */\n  jump(tag_106)\ntag_108:\n    /* \"#utility.yul\":4760:4766   */\n  dup7\n    /* \"#utility.yul\":4751:4758   */\n  dup4\n    /* \"#utility.yul\":4748:4767   */\n  lt\n    /* \"#utility.yul\":4745:4924   */\n  iszero\n  tag_109\n  jumpi\n    /* \"#utility.yul\":4818:4827   */\n  dup5\n    /* \"#utility.yul\":4813:4816   */\n  dup10\n    /* \"#utility.yul\":4809:4828   */\n  add\n    /* \"#utility.yul\":4803:4829   */\n  mload\n    /* \"#utility.yul\":4861:4909   */\n  tag_110\n    /* \"#utility.yul\":4903:4907   */\n  0x1f\n    /* \"#utility.yul\":4895:4901   */\n  dup10\n    /* \"#utility.yul\":4891:4908   */\n  and\n    /* \"#utility.yul\":4880:4889   */\n  dup3\n    /* \"#utility.yul\":4861:4909   */\n  tag_47\n  jump\t// in\ntag_110:\n    /* \"#utility.yul\":4853:4859   */\n  dup4\n    /* \"#utility.yul\":4846:4910   */\n  sstore\n    /* \"#utility.yul\":4768:4924   */\n  pop\n    /* \"#utility.yul\":4745:4924   */\ntag_109:\n    /* \"#utility.yul\":4970:4971   */\n  0x01\n    /* \"#utility.yul\":4966:4967   */\n  0x02\n    /* \"#utility.yul\":4958:4964   */\n  dup9\n    /* \"#utility.yul\":4954:4968   */\n  mul\n    /* \"#utility.yul\":4950:4972   */\n  add\n    /* \"#utility.yul\":4944:4948   */\n  dup9\n    /* \"#utility.yul\":4937:4973   */\n  sstore\n    /* \"#utility.yul\":4372:4983   */\n  pop\n  pop\n  pop\n    /* \"#utility.yul\":4335:5222   */\ntag_101:\n  pop\n    /* \"#utility.yul\":3925:5228   */\n  pop\n  pop\n  pop\n    /* \"#utility.yul\":3833:5228   */\n  pop\n  pop\n  jump\t// out\n    /* \"5\\xec\\x9e\\xa5_\\xeb\\xa7\\xa4\\xed\\x95\\x91,\\xeb\\xb0\\xb0\\xec\\x97\\xb4,\\xea\\xb5\\xac\\xec\\xa1\\xb0\\xec\\xb2\\xb4/5_4.sol\":124:819  contract Ex5_4{... */\ntag_6:\n  dataSize(sub_0)\n  dup1\n  dataOffset(sub_0)\n  0x00\n  codecopy\n  0x00\n  return\nstop\n\nsub_0: assembly {\n        /* \"5\\xec\\x9e\\xa5_\\xeb\\xa7\\xa4\\xed\\x95\\x91,\\xeb\\xb0\\xb0\\xec\\x97\\xb4,\\xea\\xb5\\xac\\xec\\xa1\\xb0\\xec\\xb2\\xb4/5_4.sol\":124:819  contract Ex5_4{... */\n      mstore(0x40, 0x80)\n      callvalue\n      dup1\n      iszero\n      tag_1\n      jumpi\n      0x00\n      dup1\n      revert\n    tag_1:\n      pop\n      jumpi(tag_2, lt(calldatasize, 0x04))\n      shr(0xe0, calldataload(0x00))\n      dup1\n      0x61125b63\n      gt\n      tag_10\n      jumpi\n      dup1\n      0x61125b63\n      eq\n      tag_6\n      jumpi\n      dup1\n      0x64924310\n      eq\n      tag_7\n      jumpi\n      dup1\n      0x8c00eb04\n      eq\n      tag_8\n      jumpi\n      dup1\n      0xbbea8c95\n      eq\n      tag_9\n      jumpi\n      jump(tag_2)\n    tag_10:\n      dup1\n      0x0df904c3\n      eq\n      tag_3\n      jumpi\n      dup1\n      0x2aab02d0\n      eq\n      tag_4\n      jumpi\n      dup1\n      0x4bae89cb\n      eq\n      tag_5\n      jumpi\n    tag_2:\n      0x00\n      dup1\n      revert\n        /* \"5\\xec\\x9e\\xa5_\\xeb\\xa7\\xa4\\xed\\x95\\x91,\\xeb\\xb0\\xb0\\xec\\x97\\xb4,\\xea\\xb5\\xac\\xec\\xa1\\xb0\\xec\\xb2\\xb4/5_4.sol\":713:816  function changeArray2(uint _index, string memory _value) public{... */\n    tag_3:\n      tag_11\n      0x04\n      dup1\n      calldatasize\n      sub\n      dup2\n      add\n      swap1\n      tag_12\n      swap2\n      swap1\n      tag_13\n      jump\t// in\n    tag_12:\n      tag_14\n      jump\t// in\n    tag_11:\n      stop\n        /* \"5\\xec\\x9e\\xa5_\\xeb\\xa7\\xa4\\xed\\x95\\x91,\\xeb\\xb0\\xb0\\xec\\x97\\xb4,\\xea\\xb5\\xac\\xec\\xa1\\xb0\\xec\\xb2\\xb4/5_4.sol\":332:418  function getLength2() public view returns(uint){... */\n    tag_4:\n      tag_15\n      tag_16\n      jump\t// in\n    tag_15:\n      mload(0x40)\n      tag_17\n      swap2\n      swap1\n      tag_18\n      jump\t// in\n    tag_17:\n      mload(0x40)\n      dup1\n      swap2\n      sub\n      swap1\n      return\n        /* \"5\\xec\\x9e\\xa5_\\xeb\\xa7\\xa4\\xed\\x95\\x91,\\xeb\\xb0\\xb0\\xec\\x97\\xb4,\\xea\\xb5\\xac\\xec\\xa1\\xb0\\xec\\xb2\\xb4/5_4.sol\":145:173  uint[] public array1=[97,98] */\n    tag_5:\n      tag_19\n      0x04\n      dup1\n      calldatasize\n      sub\n      dup2\n      add\n      swap1\n      tag_20\n      swap2\n      swap1\n      tag_21\n      jump\t// in\n    tag_20:\n      tag_22\n      jump\t// in\n    tag_19:\n      mload(0x40)\n      tag_23\n      swap2\n      swap1\n      tag_18\n      jump\t// in\n    tag_23:\n      mload(0x40)\n      dup1\n      swap2\n      sub\n      swap1\n      return\n        /* \"5\\xec\\x9e\\xa5_\\xeb\\xa7\\xa4\\xed\\x95\\x91,\\xeb\\xb0\\xb0\\xec\\x97\\xb4,\\xea\\xb5\\xac\\xec\\xa1\\xb0\\xec\\xb2\\xb4/5_4.sol\":180:232  string[5] public array2=[\"apple\",\"banana\",\"Coconut\"] */\n    tag_6:\n      tag_24\n      0x04\n      dup1\n      calldatasize\n      sub\n      dup2\n      add\n      swap1\n      tag_25\n      swap2\n      swap1\n      tag_21\n      jump\t// in\n    tag_25:\n      tag_26\n      jump\t// in\n    tag_24:\n      mload(0x40)\n      tag_27\n      swap2\n      swap1\n      tag_28\n      jump\t// in\n    tag_27:\n      mload(0x40)\n      dup1\n      swap2\n      sub\n      swap1\n      return\n        /* \"5\\xec\\x9e\\xa5_\\xeb\\xa7\\xa4\\xed\\x95\\x91,\\xeb\\xb0\\xb0\\xec\\x97\\xb4,\\xea\\xb5\\xac\\xec\\xa1\\xb0\\xec\\xb2\\xb4/5_4.sol\":424:500  function addArray1(uint _value) public{... */\n    tag_7:\n      tag_29\n      0x04\n      dup1\n      calldatasize\n      sub\n      dup2\n      add\n      swap1\n      tag_30\n      swap2\n      swap1\n      tag_21\n      jump\t// in\n    tag_30:\n      tag_31\n      jump\t// in\n    tag_29:\n      stop\n        /* \"5\\xec\\x9e\\xa5_\\xeb\\xa7\\xa4\\xed\\x95\\x91,\\xeb\\xb0\\xb0\\xec\\x97\\xb4,\\xea\\xb5\\xac\\xec\\xa1\\xb0\\xec\\xb2\\xb4/5_4.sol\":613:707  function changeArray1(uint _index, uint _value) public{... */\n    tag_8:\n      tag_32\n      0x04\n      dup1\n      calldatasize\n      sub\n      dup2\n      add\n      swap1\n      tag_33\n      swap2\n      swap1\n      tag_34\n      jump\t// in\n    tag_33:\n      tag_35\n      jump\t// in\n    tag_32:\n      stop\n        /* \"5\\xec\\x9e\\xa5_\\xeb\\xa7\\xa4\\xed\\x95\\x91,\\xeb\\xb0\\xb0\\xec\\x97\\xb4,\\xea\\xb5\\xac\\xec\\xa1\\xb0\\xec\\xb2\\xb4/5_4.sol\":241:326  function getLegth1() public view returns(uint){... */\n    tag_9:\n      tag_36\n      tag_37\n      jump\t// in\n    tag_36:\n      mload(0x40)\n      tag_38\n      swap2\n      swap1\n      tag_18\n      jump\t// in\n    tag_38:\n      mload(0x40)\n      dup1\n      swap2\n      sub\n      swap1\n      return\n        /* \"5\\xec\\x9e\\xa5_\\xeb\\xa7\\xa4\\xed\\x95\\x91,\\xeb\\xb0\\xb0\\xec\\x97\\xb4,\\xea\\xb5\\xac\\xec\\xa1\\xb0\\xec\\xb2\\xb4/5_4.sol\":713:816  function changeArray2(uint _index, string memory _value) public{... */\n    tag_14:\n        /* \"5\\xec\\x9e\\xa5_\\xeb\\xa7\\xa4\\xed\\x95\\x91,\\xeb\\xb0\\xb0\\xec\\x97\\xb4,\\xea\\xb5\\xac\\xec\\xa1\\xb0\\xec\\xb2\\xb4/5_4.sol\":802:808  _value */\n      dup1\n        /* \"5\\xec\\x9e\\xa5_\\xeb\\xa7\\xa4\\xed\\x95\\x91,\\xeb\\xb0\\xb0\\xec\\x97\\xb4,\\xea\\xb5\\xac\\xec\\xa1\\xb0\\xec\\xb2\\xb4/5_4.sol\":787:793  array2 */\n      0x01\n        /* \"5\\xec\\x9e\\xa5_\\xeb\\xa7\\xa4\\xed\\x95\\x91,\\xeb\\xb0\\xb0\\xec\\x97\\xb4,\\xea\\xb5\\xac\\xec\\xa1\\xb0\\xec\\xb2\\xb4/5_4.sol\":794:800  _index */\n      dup4\n        /* \"5\\xec\\x9e\\xa5_\\xeb\\xa7\\xa4\\xed\\x95\\x91,\\xeb\\xb0\\xb0\\xec\\x97\\xb4,\\xea\\xb5\\xac\\xec\\xa1\\xb0\\xec\\xb2\\xb4/5_4.sol\":787:801  array2[_index] */\n      0x05\n      dup2\n      lt\n      tag_40\n      jumpi\n      tag_41\n      tag_42\n      jump\t// in\n    tag_41:\n    tag_40:\n      add\n        /* \"5\\xec\\x9e\\xa5_\\xeb\\xa7\\xa4\\xed\\x95\\x91,\\xeb\\xb0\\xb0\\xec\\x97\\xb4,\\xea\\xb5\\xac\\xec\\xa1\\xb0\\xec\\xb2\\xb4/5_4.sol\":787:808  array2[_index]=_value */\n      swap1\n      dup2\n      tag_44\n      swap2\n      swap1\n      tag_45\n      jump\t// in\n    tag_44:\n      pop\n        /* \"5\\xec\\x9e\\xa5_\\xeb\\xa7\\xa4\\xed\\x95\\x91,\\xeb\\xb0\\xb0\\xec\\x97\\xb4,\\xea\\xb5\\xac\\xec\\xa1\\xb0\\xec\\xb2\\xb4/5_4.sol\":713:816  function changeArray2(uint _index, string memory _value) public{... */\n      pop\n      pop\n      jump\t// out\n        /* \"5\\xec\\x9e\\xa5_\\xeb\\xa7\\xa4\\xed\\x95\\x91,\\xeb\\xb0\\xb0\\xec\\x97\\xb4,\\xea\\xb5\\xac\\xec\\xa1\\xb0\\xec\\xb2\\xb4/5_4.sol\":332:418  function getLength2() public view returns(uint){... */\n    tag_16:\n        /* \"5\\xec\\x9e\\xa5_\\xeb\\xa7\\xa4\\xed\\x95\\x91,\\xeb\\xb0\\xb0\\xec\\x97\\xb4,\\xea\\xb5\\xac\\xec\\xa1\\xb0\\xec\\xb2\\xb4/5_4.sol\":374:378  uint */\n      0x00\n        /* \"5\\xec\\x9e\\xa5_\\xeb\\xa7\\xa4\\xed\\x95\\x91,\\xeb\\xb0\\xb0\\xec\\x97\\xb4,\\xea\\xb5\\xac\\xec\\xa1\\xb0\\xec\\xb2\\xb4/5_4.sol\":397:410  array2.length */\n      0x05\n        /* \"5\\xec\\x9e\\xa5_\\xeb\\xa7\\xa4\\xed\\x95\\x91,\\xeb\\xb0\\xb0\\xec\\x97\\xb4,\\xea\\xb5\\xac\\xec\\xa1\\xb0\\xec\\xb2\\xb4/5_4.sol\":390:410  return array2.length */\n      swap1\n      pop\n        /* \"5\\xec\\x9e\\xa5_\\xeb\\xa7\\xa4\\xed\\x95\\x91,\\xeb\\xb0\\xb0\\xec\\x97\\xb4,\\xea\\xb5\\xac\\xec\\xa1\\xb0\\xec\\xb2\\xb4/5_4.sol\":332:418  function getLength2() public view returns(uint){... */\n      swap1\n      jump\t// out\n        /* \"5\\xec\\x9e\\xa5_\\xeb\\xa7\\xa4\\xed\\x95\\x91,\\xeb\\xb0\\xb0\\xec\\x97\\xb4,\\xea\\xb5\\xac\\xec\\xa1\\xb0\\xec\\xb2\\xb4/5_4.sol\":145:173  uint[] public array1=[97,98] */\n    tag_22:\n      0x00\n      dup2\n      dup2\n      sload\n      dup2\n      lt\n      tag_47\n      jumpi\n      0x00\n      dup1\n      revert\n    tag_47:\n      swap1\n      0x00\n      mstore\n      keccak256(0x00, 0x20)\n      add\n      0x00\n      swap2\n      pop\n      swap1\n      pop\n      sload\n      dup2\n      jump\t// out\n        /* \"5\\xec\\x9e\\xa5_\\xeb\\xa7\\xa4\\xed\\x95\\x91,\\xeb\\xb0\\xb0\\xec\\x97\\xb4,\\xea\\xb5\\xac\\xec\\xa1\\xb0\\xec\\xb2\\xb4/5_4.sol\":180:232  string[5] public array2=[\"apple\",\"banana\",\"Coconut\"] */\n    tag_26:\n      0x01\n      dup2\n      0x05\n      dup2\n      lt\n      tag_49\n      jumpi\n      0x00\n      dup1\n      revert\n    tag_49:\n      add\n      0x00\n      swap2\n      pop\n      swap1\n      pop\n      dup1\n      sload\n      tag_51\n      swap1\n      tag_52\n      jump\t// in\n    tag_51:\n      dup1\n      0x1f\n      add\n      0x20\n      dup1\n      swap2\n      div\n      mul\n      0x20\n      add\n      mload(0x40)\n      swap1\n      dup2\n      add\n      0x40\n      mstore\n      dup1\n      swap3\n      swap2\n      swap1\n      dup2\n      dup2\n      mstore\n      0x20\n      add\n      dup3\n      dup1\n      sload\n      tag_53\n      swap1\n      tag_52\n      jump\t// in\n    tag_53:\n      dup1\n      iszero\n      tag_54\n      jumpi\n      dup1\n      0x1f\n      lt\n      tag_55\n      jumpi\n      0x0100\n      dup1\n      dup4\n      sload\n      div\n      mul\n      dup4\n      mstore\n      swap2\n      0x20\n      add\n      swap2\n      jump(tag_54)\n    tag_55:\n      dup3\n      add\n      swap2\n      swap1\n      0x00\n      mstore\n      keccak256(0x00, 0x20)\n      swap1\n    tag_56:\n      dup2\n      sload\n      dup2\n      mstore\n      swap1\n      0x01\n      add\n      swap1\n      0x20\n      add\n      dup1\n      dup4\n      gt\n      tag_56\n      jumpi\n      dup3\n      swap1\n      sub\n      0x1f\n      and\n      dup3\n      add\n      swap2\n    tag_54:\n      pop\n      pop\n      pop\n      pop\n      pop\n      dup2\n      jump\t// out\n        /* \"5\\xec\\x9e\\xa5_\\xeb\\xa7\\xa4\\xed\\x95\\x91,\\xeb\\xb0\\xb0\\xec\\x97\\xb4,\\xea\\xb5\\xac\\xec\\xa1\\xb0\\xec\\xb2\\xb4/5_4.sol\":424:500  function addArray1(uint _value) public{... */\n    tag_31:\n        /* \"5\\xec\\x9e\\xa5_\\xeb\\xa7\\xa4\\xed\\x95\\x91,\\xeb\\xb0\\xb0\\xec\\x97\\xb4,\\xea\\xb5\\xac\\xec\\xa1\\xb0\\xec\\xb2\\xb4/5_4.sol\":473:479  array1 */\n      0x00\n        /* \"5\\xec\\x9e\\xa5_\\xeb\\xa7\\xa4\\xed\\x95\\x91,\\xeb\\xb0\\xb0\\xec\\x97\\xb4,\\xea\\xb5\\xac\\xec\\xa1\\xb0\\xec\\xb2\\xb4/5_4.sol\":485:491  _value */\n      dup2\n        /* \"5\\xec\\x9e\\xa5_\\xeb\\xa7\\xa4\\xed\\x95\\x91,\\xeb\\xb0\\xb0\\xec\\x97\\xb4,\\xea\\xb5\\xac\\xec\\xa1\\xb0\\xec\\xb2\\xb4/5_4.sol\":473:492  array1.push(_value) */\n      swap1\n      dup1\n      0x01\n      dup2\n      sload\n      add\n      dup1\n      dup3\n      sstore\n      dup1\n      swap2\n      pop\n      pop\n      0x01\n      swap1\n      sub\n      swap1\n      0x00\n      mstore\n      keccak256(0x00, 0x20)\n      add\n      0x00\n      swap1\n      swap2\n      swap1\n      swap2\n      swap1\n      swap2\n      pop\n      sstore\n        /* \"5\\xec\\x9e\\xa5_\\xeb\\xa7\\xa4\\xed\\x95\\x91,\\xeb\\xb0\\xb0\\xec\\x97\\xb4,\\xea\\xb5\\xac\\xec\\xa1\\xb0\\xec\\xb2\\xb4/5_4.sol\":424:500  function addArray1(uint _value) public{... */\n      pop\n      jump\t// out\n        /* \"5\\xec\\x9e\\xa5_\\xeb\\xa7\\xa4\\xed\\x95\\x91,\\xeb\\xb0\\xb0\\xec\\x97\\xb4,\\xea\\xb5\\xac\\xec\\xa1\\xb0\\xec\\xb2\\xb4/5_4.sol\":613:707  function changeArray1(uint _index, uint _value) public{... */\n    tag_35:\n        /* \"5\\xec\\x9e\\xa5_\\xeb\\xa7\\xa4\\xed\\x95\\x91,\\xeb\\xb0\\xb0\\xec\\x97\\xb4,\\xea\\xb5\\xac\\xec\\xa1\\xb0\\xec\\xb2\\xb4/5_4.sol\":693:699  _value */\n      dup1\n        /* \"5\\xec\\x9e\\xa5_\\xeb\\xa7\\xa4\\xed\\x95\\x91,\\xeb\\xb0\\xb0\\xec\\x97\\xb4,\\xea\\xb5\\xac\\xec\\xa1\\xb0\\xec\\xb2\\xb4/5_4.sol\":678:684  array1 */\n      0x00\n        /* \"5\\xec\\x9e\\xa5_\\xeb\\xa7\\xa4\\xed\\x95\\x91,\\xeb\\xb0\\xb0\\xec\\x97\\xb4,\\xea\\xb5\\xac\\xec\\xa1\\xb0\\xec\\xb2\\xb4/5_4.sol\":685:691  _index */\n      dup4\n        /* \"5\\xec\\x9e\\xa5_\\xeb\\xa7\\xa4\\xed\\x95\\x91,\\xeb\\xb0\\xb0\\xec\\x97\\xb4,\\xea\\xb5\\xac\\xec\\xa1\\xb0\\xec\\xb2\\xb4/5_4.sol\":678:692  array1[_index] */\n      dup2\n      sload\n      dup2\n      lt\n      tag_60\n      jumpi\n      tag_61\n      tag_42\n      jump\t// in\n    tag_61:\n    tag_60:\n      swap1\n      0x00\n      mstore\n      keccak256(0x00, 0x20)\n      add\n        /* \"5\\xec\\x9e\\xa5_\\xeb\\xa7\\xa4\\xed\\x95\\x91,\\xeb\\xb0\\xb0\\xec\\x97\\xb4,\\xea\\xb5\\xac\\xec\\xa1\\xb0\\xec\\xb2\\xb4/5_4.sol\":678:699  array1[_index]=_value */\n      dup2\n      swap1\n      sstore\n      pop\n        /* \"5\\xec\\x9e\\xa5_\\xeb\\xa7\\xa4\\xed\\x95\\x91,\\xeb\\xb0\\xb0\\xec\\x97\\xb4,\\xea\\xb5\\xac\\xec\\xa1\\xb0\\xec\\xb2\\xb4/5_4.sol\":613:707  function changeArray1(uint _index, uint _value) public{... */\n      pop\n      pop\n      jump\t// out\n        /* \"5\\xec\\x9e\\xa5_\\xeb\\xa7\\xa4\\xed\\x95\\x91,\\xeb\\xb0\\xb0\\xec\\x97\\xb4,\\xea\\xb5\\xac\\xec\\xa1\\xb0\\xec\\xb2\\xb4/5_4.sol\":241:326  function getLegth1() public view returns(uint){... */\n    tag_37:\n        /* \"5\\xec\\x9e\\xa5_\\xeb\\xa7\\xa4\\xed\\x95\\x91,\\xeb\\xb0\\xb0\\xec\\x97\\xb4,\\xea\\xb5\\xac\\xec\\xa1\\xb0\\xec\\xb2\\xb4/5_4.sol\":282:286  uint */\n      0x00\n        /* \"5\\xec\\x9e\\xa5_\\xeb\\xa7\\xa4\\xed\\x95\\x91,\\xeb\\xb0\\xb0\\xec\\x97\\xb4,\\xea\\xb5\\xac\\xec\\xa1\\xb0\\xec\\xb2\\xb4/5_4.sol\":305:311  array1 */\n      dup1\n        /* \"5\\xec\\x9e\\xa5_\\xeb\\xa7\\xa4\\xed\\x95\\x91,\\xeb\\xb0\\xb0\\xec\\x97\\xb4,\\xea\\xb5\\xac\\xec\\xa1\\xb0\\xec\\xb2\\xb4/5_4.sol\":305:318  array1.length */\n      dup1\n      sload\n      swap1\n      pop\n        /* \"5\\xec\\x9e\\xa5_\\xeb\\xa7\\xa4\\xed\\x95\\x91,\\xeb\\xb0\\xb0\\xec\\x97\\xb4,\\xea\\xb5\\xac\\xec\\xa1\\xb0\\xec\\xb2\\xb4/5_4.sol\":298:318  return array1.length */\n      swap1\n      pop\n        /* \"5\\xec\\x9e\\xa5_\\xeb\\xa7\\xa4\\xed\\x95\\x91,\\xeb\\xb0\\xb0\\xec\\x97\\xb4,\\xea\\xb5\\xac\\xec\\xa1\\xb0\\xec\\xb2\\xb4/5_4.sol\":241:326  function getLegth1() public view returns(uint){... */\n      swap1\n      jump\t// out\n        /* \"#utility.yul\":7:82   */\n    tag_64:\n        /* \"#utility.yul\":40:46   */\n      0x00\n        /* \"#utility.yul\":73:75   */\n      0x40\n        /* \"#utility.yul\":67:76   */\n      mload\n        /* \"#utility.yul\":57:76   */\n      swap1\n      pop\n        /* \"#utility.yul\":7:82   */\n      swap1\n      jump\t// out\n        /* \"#utility.yul\":88:205   */\n    tag_65:\n        /* \"#utility.yul\":197:198   */\n      0x00\n        /* \"#utility.yul\":194:195   */\n      dup1\n        /* \"#utility.yul\":187:199   */\n      revert\n        /* \"#utility.yul\":211:328   */\n    tag_66:\n        /* \"#utility.yul\":320:321   */\n      0x00\n        /* \"#utility.yul\":317:318   */\n      dup1\n        /* \"#utility.yul\":310:322   */\n      revert\n        /* \"#utility.yul\":334:411   */\n    tag_67:\n        /* \"#utility.yul\":371:378   */\n      0x00\n        /* \"#utility.yul\":400:405   */\n      dup2\n        /* \"#utility.yul\":389:405   */\n      swap1\n      pop\n        /* \"#utility.yul\":334:411   */\n      swap2\n      swap1\n      pop\n      jump\t// out\n        /* \"#utility.yul\":417:539   */\n    tag_68:\n        /* \"#utility.yul\":490:514   */\n      tag_107\n        /* \"#utility.yul\":508:513   */\n      dup2\n        /* \"#utility.yul\":490:514   */\n      tag_67\n      jump\t// in\n    tag_107:\n        /* \"#utility.yul\":483:488   */\n      dup2\n        /* \"#utility.yul\":480:515   */\n      eq\n        /* \"#utility.yul\":470:533   */\n      tag_108\n      jumpi\n        /* \"#utility.yul\":529:530   */\n      0x00\n        /* \"#utility.yul\":526:527   */\n      dup1\n        /* \"#utility.yul\":519:531   */\n      revert\n        /* \"#utility.yul\":470:533   */\n    tag_108:\n        /* \"#utility.yul\":417:539   */\n      pop\n      jump\t// out\n        /* \"#utility.yul\":545:684   */\n    tag_69:\n        /* \"#utility.yul\":591:596   */\n      0x00\n        /* \"#utility.yul\":629:635   */\n      dup2\n        /* \"#utility.yul\":616:636   */\n      calldataload\n        /* \"#utility.yul\":607:636   */\n      swap1\n      pop\n        /* \"#utility.yul\":645:678   */\n      tag_110\n        /* \"#utility.yul\":672:677   */\n      dup2\n        /* \"#utility.yul\":645:678   */\n      tag_68\n      jump\t// in\n    tag_110:\n        /* \"#utility.yul\":545:684   */\n      swap3\n      swap2\n      pop\n      pop\n      jump\t// out\n        /* \"#utility.yul\":690:807   */\n    tag_70:\n        /* \"#utility.yul\":799:800   */\n      0x00\n        /* \"#utility.yul\":796:797   */\n      dup1\n        /* \"#utility.yul\":789:801   */\n      revert\n        /* \"#utility.yul\":813:930   */\n    tag_71:\n        /* \"#utility.yul\":922:923   */\n      0x00\n        /* \"#utility.yul\":919:920   */\n      dup1\n        /* \"#utility.yul\":912:924   */\n      revert\n        /* \"#utility.yul\":936:1038   */\n    tag_72:\n        /* \"#utility.yul\":977:983   */\n      0x00\n        /* \"#utility.yul\":1028:1030   */\n      0x1f\n        /* \"#utility.yul\":1024:1031   */\n      not\n        /* \"#utility.yul\":1019:1021   */\n      0x1f\n        /* \"#utility.yul\":1012:1017   */\n      dup4\n        /* \"#utility.yul\":1008:1022   */\n      add\n        /* \"#utility.yul\":1004:1032   */\n      and\n        /* \"#utility.yul\":994:1032   */\n      swap1\n      pop\n        /* \"#utility.yul\":936:1038   */\n      swap2\n      swap1\n      pop\n      jump\t// out\n        /* \"#utility.yul\":1044:1224   */\n    tag_73:\n        /* \"#utility.yul\":1092:1169   */\n      0x4e487b7100000000000000000000000000000000000000000000000000000000\n        /* \"#utility.yul\":1089:1090   */\n      0x00\n        /* \"#utility.yul\":1082:1170   */\n      mstore\n        /* \"#utility.yul\":1189:1193   */\n      0x41\n        /* \"#utility.yul\":1186:1187   */\n      0x04\n        /* \"#utility.yul\":1179:1194   */\n      mstore\n        /* \"#utility.yul\":1213:1217   */\n      0x24\n        /* \"#utility.yul\":1210:1211   */\n      0x00\n        /* \"#utility.yul\":1203:1218   */\n      revert\n        /* \"#utility.yul\":1230:1511   */\n    tag_74:\n        /* \"#utility.yul\":1313:1340   */\n      tag_116\n        /* \"#utility.yul\":1335:1339   */\n      dup3\n        /* \"#utility.yul\":1313:1340   */\n      tag_72\n      jump\t// in\n    tag_116:\n        /* \"#utility.yul\":1305:1311   */\n      dup2\n        /* \"#utility.yul\":1301:1341   */\n      add\n        /* \"#utility.yul\":1443:1449   */\n      dup2\n        /* \"#utility.yul\":1431:1441   */\n      dup2\n        /* \"#utility.yul\":1428:1450   */\n      lt\n        /* \"#utility.yul\":1407:1425   */\n      0xffffffffffffffff\n        /* \"#utility.yul\":1395:1405   */\n      dup3\n        /* \"#utility.yul\":1392:1426   */\n      gt\n        /* \"#utility.yul\":1389:1451   */\n      or\n        /* \"#utility.yul\":1386:1474   */\n      iszero\n      tag_117\n      jumpi\n        /* \"#utility.yul\":1454:1472   */\n      tag_118\n      tag_73\n      jump\t// in\n    tag_118:\n        /* \"#utility.yul\":1386:1474   */\n    tag_117:\n        /* \"#utility.yul\":1494:1504   */\n      dup1\n        /* \"#utility.yul\":1490:1492   */\n      0x40\n        /* \"#utility.yul\":1483:1505   */\n      mstore\n        /* \"#utility.yul\":1273:1511   */\n      pop\n        /* \"#utility.yul\":1230:1511   */\n      pop\n      pop\n      jump\t// out\n        /* \"#utility.yul\":1517:1646   */\n    tag_75:\n        /* \"#utility.yul\":1551:1557   */\n      0x00\n        /* \"#utility.yul\":1578:1598   */\n      tag_120\n      tag_64\n      jump\t// in\n    tag_120:\n        /* \"#utility.yul\":1568:1598   */\n      swap1\n      pop\n        /* \"#utility.yul\":1607:1640   */\n      tag_121\n        /* \"#utility.yul\":1635:1639   */\n      dup3\n        /* \"#utility.yul\":1627:1633   */\n      dup3\n        /* \"#utility.yul\":1607:1640   */\n      tag_74\n      jump\t// in\n    tag_121:\n        /* \"#utility.yul\":1517:1646   */\n      swap2\n      swap1\n      pop\n      jump\t// out\n        /* \"#utility.yul\":1652:1960   */\n    tag_76:\n        /* \"#utility.yul\":1714:1718   */\n      0x00\n        /* \"#utility.yul\":1804:1822   */\n      0xffffffffffffffff\n        /* \"#utility.yul\":1796:1802   */\n      dup3\n        /* \"#utility.yul\":1793:1823   */\n      gt\n        /* \"#utility.yul\":1790:1846   */\n      iszero\n      tag_123\n      jumpi\n        /* \"#utility.yul\":1826:1844   */\n      tag_124\n      tag_73\n      jump\t// in\n    tag_124:\n        /* \"#utility.yul\":1790:1846   */\n    tag_123:\n        /* \"#utility.yul\":1864:1893   */\n      tag_125\n        /* \"#utility.yul\":1886:1892   */\n      dup3\n        /* \"#utility.yul\":1864:1893   */\n      tag_72\n      jump\t// in\n    tag_125:\n        /* \"#utility.yul\":1856:1893   */\n      swap1\n      pop\n        /* \"#utility.yul\":1948:1952   */\n      0x20\n        /* \"#utility.yul\":1942:1946   */\n      dup2\n        /* \"#utility.yul\":1938:1953   */\n      add\n        /* \"#utility.yul\":1930:1953   */\n      swap1\n      pop\n        /* \"#utility.yul\":1652:1960   */\n      swap2\n      swap1\n      pop\n      jump\t// out\n        /* \"#utility.yul\":1966:2112   */\n    tag_77:\n        /* \"#utility.yul\":2063:2069   */\n      dup3\n        /* \"#utility.yul\":2058:2061   */\n      dup2\n        /* \"#utility.yul\":2053:2056   */\n      dup4\n        /* \"#utility.yul\":2040:2070   */\n      calldatacopy\n        /* \"#utility.yul\":2104:2105   */\n      0x00\n        /* \"#utility.yul\":2095:2101   */\n      dup4\n        /* \"#utility.yul\":2090:2093   */\n      dup4\n        /* \"#utility.yul\":2086:2102   */\n      add\n        /* \"#utility.yul\":2079:2106   */\n      mstore\n        /* \"#utility.yul\":1966:2112   */\n      pop\n      pop\n      pop\n      jump\t// out\n        /* \"#utility.yul\":2118:2543   */\n    tag_78:\n        /* \"#utility.yul\":2196:2201   */\n      0x00\n        /* \"#utility.yul\":2221:2287   */\n      tag_128\n        /* \"#utility.yul\":2237:2286   */\n      tag_129\n        /* \"#utility.yul\":2279:2285   */\n      dup5\n        /* \"#utility.yul\":2237:2286   */\n      tag_76\n      jump\t// in\n    tag_129:\n        /* \"#utility.yul\":2221:2287   */\n      tag_75\n      jump\t// in\n    tag_128:\n        /* \"#utility.yul\":2212:2287   */\n      swap1\n      pop\n        /* \"#utility.yul\":2310:2316   */\n      dup3\n        /* \"#utility.yul\":2303:2308   */\n      dup2\n        /* \"#utility.yul\":2296:2317   */\n      mstore\n        /* \"#utility.yul\":2348:2352   */\n      0x20\n        /* \"#utility.yul\":2341:2346   */\n      dup2\n        /* \"#utility.yul\":2337:2353   */\n      add\n        /* \"#utility.yul\":2386:2389   */\n      dup5\n        /* \"#utility.yul\":2377:2383   */\n      dup5\n        /* \"#utility.yul\":2372:2375   */\n      dup5\n        /* \"#utility.yul\":2368:2384   */\n      add\n        /* \"#utility.yul\":2365:2390   */\n      gt\n        /* \"#utility.yul\":2362:2474   */\n      iszero\n      tag_130\n      jumpi\n        /* \"#utility.yul\":2393:2472   */\n      tag_131\n      tag_71\n      jump\t// in\n    tag_131:\n        /* \"#utility.yul\":2362:2474   */\n    tag_130:\n        /* \"#utility.yul\":2483:2537   */\n      tag_132\n        /* \"#utility.yul\":2530:2536   */\n      dup5\n        /* \"#utility.yul\":2525:2528   */\n      dup3\n        /* \"#utility.yul\":2520:2523   */\n      dup6\n        /* \"#utility.yul\":2483:2537   */\n      tag_77\n      jump\t// in\n    tag_132:\n        /* \"#utility.yul\":2202:2543   */\n      pop\n        /* \"#utility.yul\":2118:2543   */\n      swap4\n      swap3\n      pop\n      pop\n      pop\n      jump\t// out\n        /* \"#utility.yul\":2563:2903   */\n    tag_79:\n        /* \"#utility.yul\":2619:2624   */\n      0x00\n        /* \"#utility.yul\":2668:2671   */\n      dup3\n        /* \"#utility.yul\":2661:2665   */\n      0x1f\n        /* \"#utility.yul\":2653:2659   */\n      dup4\n        /* \"#utility.yul\":2649:2666   */\n      add\n        /* \"#utility.yul\":2645:2672   */\n      slt\n        /* \"#utility.yul\":2635:2757   */\n      tag_134\n      jumpi\n        /* \"#utility.yul\":2676:2755   */\n      tag_135\n      tag_70\n      jump\t// in\n    tag_135:\n        /* \"#utility.yul\":2635:2757   */\n    tag_134:\n        /* \"#utility.yul\":2793:2799   */\n      dup2\n        /* \"#utility.yul\":2780:2800   */\n      calldataload\n        /* \"#utility.yul\":2818:2897   */\n      tag_136\n        /* \"#utility.yul\":2893:2896   */\n      dup5\n        /* \"#utility.yul\":2885:2891   */\n      dup3\n        /* \"#utility.yul\":2878:2882   */\n      0x20\n        /* \"#utility.yul\":2870:2876   */\n      dup7\n        /* \"#utility.yul\":2866:2883   */\n      add\n        /* \"#utility.yul\":2818:2897   */\n      tag_78\n      jump\t// in\n    tag_136:\n        /* \"#utility.yul\":2809:2897   */\n      swap2\n      pop\n        /* \"#utility.yul\":2625:2903   */\n      pop\n        /* \"#utility.yul\":2563:2903   */\n      swap3\n      swap2\n      pop\n      pop\n      jump\t// out\n        /* \"#utility.yul\":2909:3563   */\n    tag_13:\n        /* \"#utility.yul\":2987:2993   */\n      0x00\n        /* \"#utility.yul\":2995:3001   */\n      dup1\n        /* \"#utility.yul\":3044:3046   */\n      0x40\n        /* \"#utility.yul\":3032:3041   */\n      dup4\n        /* \"#utility.yul\":3023:3030   */\n      dup6\n        /* \"#utility.yul\":3019:3042   */\n      sub\n        /* \"#utility.yul\":3015:3047   */\n      slt\n        /* \"#utility.yul\":3012:3131   */\n      iszero\n      tag_138\n      jumpi\n        /* \"#utility.yul\":3050:3129   */\n      tag_139\n      tag_65\n      jump\t// in\n    tag_139:\n        /* \"#utility.yul\":3012:3131   */\n    tag_138:\n        /* \"#utility.yul\":3170:3171   */\n      0x00\n        /* \"#utility.yul\":3195:3248   */\n      tag_140\n        /* \"#utility.yul\":3240:3247   */\n      dup6\n        /* \"#utility.yul\":3231:3237   */\n      dup3\n        /* \"#utility.yul\":3220:3229   */\n      dup7\n        /* \"#utility.yul\":3216:3238   */\n      add\n        /* \"#utility.yul\":3195:3248   */\n      tag_69\n      jump\t// in\n    tag_140:\n        /* \"#utility.yul\":3185:3248   */\n      swap3\n      pop\n        /* \"#utility.yul\":3141:3258   */\n      pop\n        /* \"#utility.yul\":3325:3327   */\n      0x20\n        /* \"#utility.yul\":3314:3323   */\n      dup4\n        /* \"#utility.yul\":3310:3328   */\n      add\n        /* \"#utility.yul\":3297:3329   */\n      calldataload\n        /* \"#utility.yul\":3356:3374   */\n      0xffffffffffffffff\n        /* \"#utility.yul\":3348:3354   */\n      dup2\n        /* \"#utility.yul\":3345:3375   */\n      gt\n        /* \"#utility.yul\":3342:3459   */\n      iszero\n      tag_141\n      jumpi\n        /* \"#utility.yul\":3378:3457   */\n      tag_142\n      tag_66\n      jump\t// in\n    tag_142:\n        /* \"#utility.yul\":3342:3459   */\n    tag_141:\n        /* \"#utility.yul\":3483:3546   */\n      tag_143\n        /* \"#utility.yul\":3538:3545   */\n      dup6\n        /* \"#utility.yul\":3529:3535   */\n      dup3\n        /* \"#utility.yul\":3518:3527   */\n      dup7\n        /* \"#utility.yul\":3514:3536   */\n      add\n        /* \"#utility.yul\":3483:3546   */\n      tag_79\n      jump\t// in\n    tag_143:\n        /* \"#utility.yul\":3473:3546   */\n      swap2\n      pop\n        /* \"#utility.yul\":3268:3556   */\n      pop\n        /* \"#utility.yul\":2909:3563   */\n      swap3\n      pop\n      swap3\n      swap1\n      pop\n      jump\t// out\n        /* \"#utility.yul\":3569:3687   */\n    tag_80:\n        /* \"#utility.yul\":3656:3680   */\n      tag_145\n        /* \"#utility.yul\":3674:3679   */\n      dup2\n        /* \"#utility.yul\":3656:3680   */\n      tag_67\n      jump\t// in\n    tag_145:\n        /* \"#utility.yul\":3651:3654   */\n      dup3\n        /* \"#utility.yul\":3644:3681   */\n      mstore\n        /* \"#utility.yul\":3569:3687   */\n      pop\n      pop\n      jump\t// out\n        /* \"#utility.yul\":3693:3915   */\n    tag_18:\n        /* \"#utility.yul\":3786:3790   */\n      0x00\n        /* \"#utility.yul\":3824:3826   */\n      0x20\n        /* \"#utility.yul\":3813:3822   */\n      dup3\n        /* \"#utility.yul\":3809:3827   */\n      add\n        /* \"#utility.yul\":3801:3827   */\n      swap1\n      pop\n        /* \"#utility.yul\":3837:3908   */\n      tag_147\n        /* \"#utility.yul\":3905:3906   */\n      0x00\n        /* \"#utility.yul\":3894:3903   */\n      dup4\n        /* \"#utility.yul\":3890:3907   */\n      add\n        /* \"#utility.yul\":3881:3887   */\n      dup5\n        /* \"#utility.yul\":3837:3908   */\n      tag_80\n      jump\t// in\n    tag_147:\n        /* \"#utility.yul\":3693:3915   */\n      swap3\n      swap2\n      pop\n      pop\n      jump\t// out\n        /* \"#utility.yul\":3921:4250   */\n    tag_21:\n        /* \"#utility.yul\":3980:3986   */\n      0x00\n        /* \"#utility.yul\":4029:4031   */\n      0x20\n        /* \"#utility.yul\":4017:4026   */\n      dup3\n        /* \"#utility.yul\":4008:4015   */\n      dup5\n        /* \"#utility.yul\":4004:4027   */\n      sub\n        /* \"#utility.yul\":4000:4032   */\n      slt\n        /* \"#utility.yul\":3997:4116   */\n      iszero\n      tag_149\n      jumpi\n        /* \"#utility.yul\":4035:4114   */\n      tag_150\n      tag_65\n      jump\t// in\n    tag_150:\n        /* \"#utility.yul\":3997:4116   */\n    tag_149:\n        /* \"#utility.yul\":4155:4156   */\n      0x00\n        /* \"#utility.yul\":4180:4233   */\n      tag_151\n        /* \"#utility.yul\":4225:4232   */\n      dup5\n        /* \"#utility.yul\":4216:4222   */\n      dup3\n        /* \"#utility.yul\":4205:4214   */\n      dup6\n        /* \"#utility.yul\":4201:4223   */\n      add\n        /* \"#utility.yul\":4180:4233   */\n      tag_69\n      jump\t// in\n    tag_151:\n        /* \"#utility.yul\":4170:4233   */\n      swap2\n      pop\n        /* \"#utility.yul\":4126:4243   */\n      pop\n        /* \"#utility.yul\":3921:4250   */\n      swap3\n      swap2\n      pop\n      pop\n      jump\t// out\n        /* \"#utility.yul\":4256:4355   */\n    tag_81:\n        /* \"#utility.yul\":4308:4314   */\n      0x00\n        /* \"#utility.yul\":4342:4347   */\n      dup2\n        /* \"#utility.yul\":4336:4348   */\n      mload\n        /* \"#utility.yul\":4326:4348   */\n      swap1\n      pop\n        /* \"#utility.yul\":4256:4355   */\n      swap2\n      swap1\n      pop\n      jump\t// out\n        /* \"#utility.yul\":4361:4530   */\n    tag_82:\n        /* \"#utility.yul\":4445:4456   */\n      0x00\n        /* \"#utility.yul\":4479:4485   */\n      dup3\n        /* \"#utility.yul\":4474:4477   */\n      dup3\n        /* \"#utility.yul\":4467:4486   */\n      mstore\n        /* \"#utility.yul\":4519:4523   */\n      0x20\n        /* \"#utility.yul\":4514:4517   */\n      dup3\n        /* \"#utility.yul\":4510:4524   */\n      add\n        /* \"#utility.yul\":4495:4524   */\n      swap1\n      pop\n        /* \"#utility.yul\":4361:4530   */\n      swap3\n      swap2\n      pop\n      pop\n      jump\t// out\n        /* \"#utility.yul\":4536:4782   */\n    tag_83:\n        /* \"#utility.yul\":4617:4618   */\n      0x00\n        /* \"#utility.yul\":4627:4740   */\n    tag_155:\n        /* \"#utility.yul\":4641:4647   */\n      dup4\n        /* \"#utility.yul\":4638:4639   */\n      dup2\n        /* \"#utility.yul\":4635:4648   */\n      lt\n        /* \"#utility.yul\":4627:4740   */\n      iszero\n      tag_157\n      jumpi\n        /* \"#utility.yul\":4726:4727   */\n      dup1\n        /* \"#utility.yul\":4721:4724   */\n      dup3\n        /* \"#utility.yul\":4717:4728   */\n      add\n        /* \"#utility.yul\":4711:4729   */\n      mload\n        /* \"#utility.yul\":4707:4708   */\n      dup2\n        /* \"#utility.yul\":4702:4705   */\n      dup5\n        /* \"#utility.yul\":4698:4709   */\n      add\n        /* \"#utility.yul\":4691:4730   */\n      mstore\n        /* \"#utility.yul\":4663:4665   */\n      0x20\n        /* \"#utility.yul\":4660:4661   */\n      dup2\n        /* \"#utility.yul\":4656:4666   */\n      add\n        /* \"#utility.yul\":4651:4666   */\n      swap1\n      pop\n        /* \"#utility.yul\":4627:4740   */\n      jump(tag_155)\n    tag_157:\n        /* \"#utility.yul\":4774:4775   */\n      0x00\n        /* \"#utility.yul\":4765:4771   */\n      dup5\n        /* \"#utility.yul\":4760:4763   */\n      dup5\n        /* \"#utility.yul\":4756:4772   */\n      add\n        /* \"#utility.yul\":4749:4776   */\n      mstore\n        /* \"#utility.yul\":4598:4782   */\n      pop\n        /* \"#utility.yul\":4536:4782   */\n      pop\n      pop\n      pop\n      jump\t// out\n        /* \"#utility.yul\":4788:5165   */\n    tag_84:\n        /* \"#utility.yul\":4876:4879   */\n      0x00\n        /* \"#utility.yul\":4904:4943   */\n      tag_159\n        /* \"#utility.yul\":4937:4942   */\n      dup3\n        /* \"#utility.yul\":4904:4943   */\n      tag_81\n      jump\t// in\n    tag_159:\n        /* \"#utility.yul\":4959:5030   */\n      tag_160\n        /* \"#utility.yul\":5023:5029   */\n      dup2\n        /* \"#utility.yul\":5018:5021   */\n      dup6\n        /* \"#utility.yul\":4959:5030   */\n      tag_82\n      jump\t// in\n    tag_160:\n        /* \"#utility.yul\":4952:5030   */\n      swap4\n      pop\n        /* \"#utility.yul\":5039:5104   */\n      tag_161\n        /* \"#utility.yul\":5097:5103   */\n      dup2\n        /* \"#utility.yul\":5092:5095   */\n      dup6\n        /* \"#utility.yul\":5085:5089   */\n      0x20\n        /* \"#utility.yul\":5078:5083   */\n      dup7\n        /* \"#utility.yul\":5074:5090   */\n      add\n        /* \"#utility.yul\":5039:5104   */\n      tag_83\n      jump\t// in\n    tag_161:\n        /* \"#utility.yul\":5129:5158   */\n      tag_162\n        /* \"#utility.yul\":5151:5157   */\n      dup2\n        /* \"#utility.yul\":5129:5158   */\n      tag_72\n      jump\t// in\n    tag_162:\n        /* \"#utility.yul\":5124:5127   */\n      dup5\n        /* \"#utility.yul\":5120:5159   */\n      add\n        /* \"#utility.yul\":5113:5159   */\n      swap2\n      pop\n        /* \"#utility.yul\":4880:5165   */\n      pop\n        /* \"#utility.yul\":4788:5165   */\n      swap3\n      swap2\n      pop\n      pop\n      jump\t// out\n        /* \"#utility.yul\":5171:5484   */\n    tag_28:\n        /* \"#utility.yul\":5284:5288   */\n      0x00\n        /* \"#utility.yul\":5322:5324   */\n      0x20\n        /* \"#utility.yul\":5311:5320   */\n      dup3\n        /* \"#utility.yul\":5307:5325   */\n      add\n        /* \"#utility.yul\":5299:5325   */\n      swap1\n      pop\n        /* \"#utility.yul\":5371:5380   */\n      dup2\n        /* \"#utility.yul\":5365:5369   */\n      dup2\n        /* \"#utility.yul\":5361:5381   */\n      sub\n        /* \"#utility.yul\":5357:5358   */\n      0x00\n        /* \"#utility.yul\":5346:5355   */\n      dup4\n        /* \"#utility.yul\":5342:5359   */\n      add\n        /* \"#utility.yul\":5335:5382   */\n      mstore\n        /* \"#utility.yul\":5399:5477   */\n      tag_164\n        /* \"#utility.yul\":5472:5476   */\n      dup2\n        /* \"#utility.yul\":5463:5469   */\n      dup5\n        /* \"#utility.yul\":5399:5477   */\n      tag_84\n      jump\t// in\n    tag_164:\n        /* \"#utility.yul\":5391:5477   */\n      swap1\n      pop\n        /* \"#utility.yul\":5171:5484   */\n      swap3\n      swap2\n      pop\n      pop\n      jump\t// out\n        /* \"#utility.yul\":5490:5964   */\n    tag_34:\n        /* \"#utility.yul\":5558:5564   */\n      0x00\n        /* \"#utility.yul\":5566:5572   */\n      dup1\n        /* \"#utility.yul\":5615:5617   */\n      0x40\n        /* \"#utility.yul\":5603:5612   */\n      dup4\n        /* \"#utility.yul\":5594:5601   */\n      dup6\n        /* \"#utility.yul\":5590:5613   */\n      sub\n        /* \"#utility.yul\":5586:5618   */\n      slt\n        /* \"#utility.yul\":5583:5702   */\n      iszero\n      tag_166\n      jumpi\n        /* \"#utility.yul\":5621:5700   */\n      tag_167\n      tag_65\n      jump\t// in\n    tag_167:\n        /* \"#utility.yul\":5583:5702   */\n    tag_166:\n        /* \"#utility.yul\":5741:5742   */\n      0x00\n        /* \"#utility.yul\":5766:5819   */\n      tag_168\n        /* \"#utility.yul\":5811:5818   */\n      dup6\n        /* \"#utility.yul\":5802:5808   */\n      dup3\n        /* \"#utility.yul\":5791:5800   */\n      dup7\n        /* \"#utility.yul\":5787:5809   */\n      add\n        /* \"#utility.yul\":5766:5819   */\n      tag_69\n      jump\t// in\n    tag_168:\n        /* \"#utility.yul\":5756:5819   */\n      swap3\n      pop\n        /* \"#utility.yul\":5712:5829   */\n      pop\n        /* \"#utility.yul\":5868:5870   */\n      0x20\n        /* \"#utility.yul\":5894:5947   */\n      tag_169\n        /* \"#utility.yul\":5939:5946   */\n      dup6\n        /* \"#utility.yul\":5930:5936   */\n      dup3\n        /* \"#utility.yul\":5919:5928   */\n      dup7\n        /* \"#utility.yul\":5915:5937   */\n      add\n        /* \"#utility.yul\":5894:5947   */\n      tag_69\n      jump\t// in\n    tag_169:\n        /* \"#utility.yul\":5884:5947   */\n      swap2\n      pop\n        /* \"#utility.yul\":5839:5957   */\n      pop\n        /* \"#utility.yul\":5490:5964   */\n      swap3\n      pop\n      swap3\n      swap1\n      pop\n      jump\t// out\n        /* \"#utility.yul\":5970:6150   */\n    tag_42:\n        /* \"#utility.yul\":6018:6095   */\n      0x4e487b7100000000000000000000000000000000000000000000000000000000\n        /* \"#utility.yul\":6015:6016   */\n      0x00\n        /* \"#utility.yul\":6008:6096   */\n      mstore\n        /* \"#utility.yul\":6115:6119   */\n      0x32\n        /* \"#utility.yul\":6112:6113   */\n      0x04\n        /* \"#utility.yul\":6105:6120   */\n      mstore\n        /* \"#utility.yul\":6139:6143   */\n      0x24\n        /* \"#utility.yul\":6136:6137   */\n      0x00\n        /* \"#utility.yul\":6129:6144   */\n      revert\n        /* \"#utility.yul\":6156:6336   */\n    tag_85:\n        /* \"#utility.yul\":6204:6281   */\n      0x4e487b7100000000000000000000000000000000000000000000000000000000\n        /* \"#utility.yul\":6201:6202   */\n      0x00\n        /* \"#utility.yul\":6194:6282   */\n      mstore\n        /* \"#utility.yul\":6301:6305   */\n      0x22\n        /* \"#utility.yul\":6298:6299   */\n      0x04\n        /* \"#utility.yul\":6291:6306   */\n      mstore\n        /* \"#utility.yul\":6325:6329   */\n      0x24\n        /* \"#utility.yul\":6322:6323   */\n      0x00\n        /* \"#utility.yul\":6315:6330   */\n      revert\n        /* \"#utility.yul\":6342:6662   */\n    tag_52:\n        /* \"#utility.yul\":6386:6392   */\n      0x00\n        /* \"#utility.yul\":6423:6424   */\n      0x02\n        /* \"#utility.yul\":6417:6421   */\n      dup3\n        /* \"#utility.yul\":6413:6425   */\n      div\n        /* \"#utility.yul\":6403:6425   */\n      swap1\n      pop\n        /* \"#utility.yul\":6470:6471   */\n      0x01\n        /* \"#utility.yul\":6464:6468   */\n      dup3\n        /* \"#utility.yul\":6460:6472   */\n      and\n        /* \"#utility.yul\":6491:6509   */\n      dup1\n        /* \"#utility.yul\":6481:6562   */\n      tag_173\n      jumpi\n        /* \"#utility.yul\":6547:6551   */\n      0x7f\n        /* \"#utility.yul\":6539:6545   */\n      dup3\n        /* \"#utility.yul\":6535:6552   */\n      and\n        /* \"#utility.yul\":6525:6552   */\n      swap2\n      pop\n        /* \"#utility.yul\":6481:6562   */\n    tag_173:\n        /* \"#utility.yul\":6609:6611   */\n      0x20\n        /* \"#utility.yul\":6601:6607   */\n      dup3\n        /* \"#utility.yul\":6598:6612   */\n      lt\n        /* \"#utility.yul\":6578:6596   */\n      dup2\n        /* \"#utility.yul\":6575:6613   */\n      sub\n        /* \"#utility.yul\":6572:6656   */\n      tag_174\n      jumpi\n        /* \"#utility.yul\":6628:6646   */\n      tag_175\n      tag_85\n      jump\t// in\n    tag_175:\n        /* \"#utility.yul\":6572:6656   */\n    tag_174:\n        /* \"#utility.yul\":6393:6662   */\n      pop\n        /* \"#utility.yul\":6342:6662   */\n      swap2\n      swap1\n      pop\n      jump\t// out\n        /* \"#utility.yul\":6668:6809   */\n    tag_86:\n        /* \"#utility.yul\":6717:6721   */\n      0x00\n        /* \"#utility.yul\":6740:6743   */\n      dup2\n        /* \"#utility.yul\":6732:6743   */\n      swap1\n      pop\n        /* \"#utility.yul\":6763:6766   */\n      dup2\n        /* \"#utility.yul\":6760:6761   */\n      0x00\n        /* \"#utility.yul\":6753:6767   */\n      mstore\n        /* \"#utility.yul\":6797:6801   */\n      0x20\n        /* \"#utility.yul\":6794:6795   */\n      0x00\n        /* \"#utility.yul\":6784:6802   */\n      keccak256\n        /* \"#utility.yul\":6776:6802   */\n      swap1\n      pop\n        /* \"#utility.yul\":6668:6809   */\n      swap2\n      swap1\n      pop\n      jump\t// out\n        /* \"#utility.yul\":6815:6908   */\n    tag_87:\n        /* \"#utility.yul\":6852:6858   */\n      0x00\n        /* \"#utility.yul\":6899:6901   */\n      0x20\n        /* \"#utility.yul\":6894:6896   */\n      0x1f\n        /* \"#utility.yul\":6887:6892   */\n      dup4\n        /* \"#utility.yul\":6883:6897   */\n      add\n        /* \"#utility.yul\":6879:6902   */\n      div\n        /* \"#utility.yul\":6869:6902   */\n      swap1\n      pop\n        /* \"#utility.yul\":6815:6908   */\n      swap2\n      swap1\n      pop\n      jump\t// out\n        /* \"#utility.yul\":6914:7021   */\n    tag_88:\n        /* \"#utility.yul\":6958:6966   */\n      0x00\n        /* \"#utility.yul\":7008:7013   */\n      dup3\n        /* \"#utility.yul\":7002:7006   */\n      dup3\n        /* \"#utility.yul\":6998:7014   */\n      shl\n        /* \"#utility.yul\":6977:7014   */\n      swap1\n      pop\n        /* \"#utility.yul\":6914:7021   */\n      swap3\n      swap2\n      pop\n      pop\n      jump\t// out\n        /* \"#utility.yul\":7027:7420   */\n    tag_89:\n        /* \"#utility.yul\":7096:7102   */\n      0x00\n        /* \"#utility.yul\":7146:7147   */\n      0x08\n        /* \"#utility.yul\":7134:7144   */\n      dup4\n        /* \"#utility.yul\":7130:7148   */\n      mul\n        /* \"#utility.yul\":7169:7266   */\n      tag_180\n        /* \"#utility.yul\":7199:7265   */\n      0xffffffffffffffffffffffffffffffffffffffffffffffffffffffffffffffff\n        /* \"#utility.yul\":7188:7197   */\n      dup3\n        /* \"#utility.yul\":7169:7266   */\n      tag_88\n      jump\t// in\n    tag_180:\n        /* \"#utility.yul\":7287:7326   */\n      tag_181\n        /* \"#utility.yul\":7317:7325   */\n      dup7\n        /* \"#utility.yul\":7306:7315   */\n      dup4\n        /* \"#utility.yul\":7287:7326   */\n      tag_88\n      jump\t// in\n    tag_181:\n        /* \"#utility.yul\":7275:7326   */\n      swap6\n      pop\n        /* \"#utility.yul\":7359:7363   */\n      dup1\n        /* \"#utility.yul\":7355:7364   */\n      not\n        /* \"#utility.yul\":7348:7353   */\n      dup5\n        /* \"#utility.yul\":7344:7365   */\n      and\n        /* \"#utility.yul\":7335:7365   */\n      swap4\n      pop\n        /* \"#utility.yul\":7408:7412   */\n      dup1\n        /* \"#utility.yul\":7398:7406   */\n      dup7\n        /* \"#utility.yul\":7394:7413   */\n      and\n        /* \"#utility.yul\":7387:7392   */\n      dup5\n        /* \"#utility.yul\":7384:7414   */\n      or\n        /* \"#utility.yul\":7374:7414   */\n      swap3\n      pop\n        /* \"#utility.yul\":7103:7420   */\n      pop\n      pop\n        /* \"#utility.yul\":7027:7420   */\n      swap4\n      swap3\n      pop\n      pop\n      pop\n      jump\t// out\n        /* \"#utility.yul\":7426:7486   */\n    tag_90:\n        /* \"#utility.yul\":7454:7457   */\n      0x00\n        /* \"#utility.yul\":7475:7480   */\n      dup2\n        /* \"#utility.yul\":7468:7480   */\n      swap1\n      pop\n        /* \"#utility.yul\":7426:7486   */\n      swap2\n      swap1\n      pop\n      jump\t// out\n        /* \"#utility.yul\":7492:7634   */\n    tag_91:\n        /* \"#utility.yul\":7542:7551   */\n      0x00\n        /* \"#utility.yul\":7575:7628   */\n      tag_184\n        /* \"#utility.yul\":7593:7627   */\n      tag_185\n        /* \"#utility.yul\":7602:7626   */\n      tag_186\n        /* \"#utility.yul\":7620:7625   */\n      dup5\n        /* \"#utility.yul\":7602:7626   */\n      tag_67\n      jump\t// in\n    tag_186:\n        /* \"#utility.yul\":7593:7627   */\n      tag_90\n      jump\t// in\n    tag_185:\n        /* \"#utility.yul\":7575:7628   */\n      tag_67\n      jump\t// in\n    tag_184:\n        /* \"#utility.yul\":7562:7628   */\n      swap1\n      pop\n        /* \"#utility.yul\":7492:7634   */\n      swap2\n      swap1\n      pop\n      jump\t// out\n        /* \"#utility.yul\":7640:7715   */\n    tag_92:\n        /* \"#utility.yul\":7683:7686   */\n      0x00\n        /* \"#utility.yul\":7704:7709   */\n      dup2\n        /* \"#utility.yul\":7697:7709   */\n      swap1\n      pop\n        /* \"#utility.yul\":7640:7715   */\n      swap2\n      swap1\n      pop\n      jump\t// out\n        /* \"#utility.yul\":7721:7990   */\n    tag_93:\n        /* \"#utility.yul\":7831:7870   */\n      tag_189\n        /* \"#utility.yul\":7862:7869   */\n      dup4\n        /* \"#utility.yul\":7831:7870   */\n      tag_91\n      jump\t// in\n    tag_189:\n        /* \"#utility.yul\":7892:7983   */\n      tag_190\n        /* \"#utility.yul\":7941:7982   */\n      tag_191\n        /* \"#utility.yul\":7965:7981   */\n      dup3\n        /* \"#utility.yul\":7941:7982   */\n      tag_92\n      jump\t// in\n    tag_191:\n        /* \"#utility.yul\":7933:7939   */\n      dup5\n        /* \"#utility.yul\":7926:7930   */\n      dup5\n        /* \"#utility.yul\":7920:7931   */\n      sload\n        /* \"#utility.yul\":7892:7983   */\n      tag_89\n      jump\t// in\n    tag_190:\n        /* \"#utility.yul\":7886:7890   */\n      dup3\n        /* \"#utility.yul\":7879:7984   */\n      sstore\n        /* \"#utility.yul\":7797:7990   */\n      pop\n        /* \"#utility.yul\":7721:7990   */\n      pop\n      pop\n      pop\n      jump\t// out\n        /* \"#utility.yul\":7996:8069   */\n    tag_94:\n        /* \"#utility.yul\":8041:8044   */\n      0x00\n        /* \"#utility.yul\":7996:8069   */\n      swap1\n      jump\t// out\n        /* \"#utility.yul\":8075:8264   */\n    tag_95:\n        /* \"#utility.yul\":8152:8184   */\n      tag_194\n      tag_94\n      jump\t// in\n    tag_194:\n        /* \"#utility.yul\":8193:8258   */\n      tag_195\n        /* \"#utility.yul\":8251:8257   */\n      dup2\n        /* \"#utility.yul\":8243:8249   */\n      dup5\n        /* \"#utility.yul\":8237:8241   */\n      dup5\n        /* \"#utility.yul\":8193:8258   */\n      tag_93\n      jump\t// in\n    tag_195:\n        /* \"#utility.yul\":8128:8264   */\n      pop\n        /* \"#utility.yul\":8075:8264   */\n      pop\n      pop\n      jump\t// out\n        /* \"#utility.yul\":8270:8456   */\n    tag_96:\n        /* \"#utility.yul\":8330:8450   */\n    tag_197:\n        /* \"#utility.yul\":8347:8350   */\n      dup2\n        /* \"#utility.yul\":8340:8345   */\n      dup2\n        /* \"#utility.yul\":8337:8351   */\n      lt\n        /* \"#utility.yul\":8330:8450   */\n      iszero\n      tag_199\n      jumpi\n        /* \"#utility.yul\":8401:8440   */\n      tag_200\n        /* \"#utility.yul\":8438:8439   */\n      0x00\n        /* \"#utility.yul\":8431:8436   */\n      dup3\n        /* \"#utility.yul\":8401:8440   */\n      tag_95\n      jump\t// in\n    tag_200:\n        /* \"#utility.yul\":8374:8375   */\n      0x01\n        /* \"#utility.yul\":8367:8372   */\n      dup2\n        /* \"#utility.yul\":8363:8376   */\n      add\n        /* \"#utility.yul\":8354:8376   */\n      swap1\n      pop\n        /* \"#utility.yul\":8330:8450   */\n      jump(tag_197)\n    tag_199:\n        /* \"#utility.yul\":8270:8456   */\n      pop\n      pop\n      jump\t// out\n        /* \"#utility.yul\":8462:9005   */\n    tag_97:\n        /* \"#utility.yul\":8563:8565   */\n      0x1f\n        /* \"#utility.yul\":8558:8561   */\n      dup3\n        /* \"#utility.yul\":8555:8566   */\n      gt\n        /* \"#utility.yul\":8552:8998   */\n      iszero\n      tag_202\n      jumpi\n        /* \"#utility.yul\":8597:8635   */\n      tag_203\n        /* \"#utility.yul\":8629:8634   */\n      dup2\n        /* \"#utility.yul\":8597:8635   */\n      tag_86\n      jump\t// in\n    tag_203:\n        /* \"#utility.yul\":8681:8710   */\n      tag_204\n        /* \"#utility.yul\":8699:8709   */\n      dup5\n        /* \"#utility.yul\":8681:8710   */\n      tag_87\n      jump\t// in\n    tag_204:\n        /* \"#utility.yul\":8671:8679   */\n      dup2\n        /* \"#utility.yul\":8667:8711   */\n      add\n        /* \"#utility.yul\":8864:8866   */\n      0x20\n        /* \"#utility.yul\":8852:8862   */\n      dup6\n        /* \"#utility.yul\":8849:8867   */\n      lt\n        /* \"#utility.yul\":8846:8895   */\n      iszero\n      tag_205\n      jumpi\n        /* \"#utility.yul\":8885:8893   */\n      dup2\n        /* \"#utility.yul\":8870:8893   */\n      swap1\n      pop\n        /* \"#utility.yul\":8846:8895   */\n    tag_205:\n        /* \"#utility.yul\":8908:8988   */\n      tag_206\n        /* \"#utility.yul\":8964:8986   */\n      tag_207\n        /* \"#utility.yul\":8982:8985   */\n      dup6\n        /* \"#utility.yul\":8964:8986   */\n      tag_87\n      jump\t// in\n    tag_207:\n        /* \"#utility.yul\":8954:8962   */\n      dup4\n        /* \"#utility.yul\":8950:8987   */\n      add\n        /* \"#utility.yul\":8937:8948   */\n      dup3\n        /* \"#utility.yul\":8908:8988   */\n      tag_96\n      jump\t// in\n    tag_206:\n        /* \"#utility.yul\":8567:8998   */\n      pop\n      pop\n        /* \"#utility.yul\":8552:8998   */\n    tag_202:\n        /* \"#utility.yul\":8462:9005   */\n      pop\n      pop\n      pop\n      jump\t// out\n        /* \"#utility.yul\":9011:9128   */\n    tag_98:\n        /* \"#utility.yul\":9065:9073   */\n      0x00\n        /* \"#utility.yul\":9115:9120   */\n      dup3\n        /* \"#utility.yul\":9109:9113   */\n      dup3\n        /* \"#utility.yul\":9105:9121   */\n      shr\n        /* \"#utility.yul\":9084:9121   */\n      swap1\n      pop\n        /* \"#utility.yul\":9011:9128   */\n      swap3\n      swap2\n      pop\n      pop\n      jump\t// out\n        /* \"#utility.yul\":9134:9303   */\n    tag_99:\n        /* \"#utility.yul\":9178:9184   */\n      0x00\n        /* \"#utility.yul\":9211:9262   */\n      tag_210\n        /* \"#utility.yul\":9259:9260   */\n      0x00\n        /* \"#utility.yul\":9255:9261   */\n      not\n        /* \"#utility.yul\":9247:9252   */\n      dup5\n        /* \"#utility.yul\":9244:9245   */\n      0x08\n        /* \"#utility.yul\":9240:9253   */\n      mul\n        /* \"#utility.yul\":9211:9262   */\n      tag_98\n      jump\t// in\n    tag_210:\n        /* \"#utility.yul\":9207:9263   */\n      not\n        /* \"#utility.yul\":9292:9296   */\n      dup1\n        /* \"#utility.yul\":9286:9290   */\n      dup4\n        /* \"#utility.yul\":9282:9297   */\n      and\n        /* \"#utility.yul\":9272:9297   */\n      swap2\n      pop\n        /* \"#utility.yul\":9185:9303   */\n      pop\n        /* \"#utility.yul\":9134:9303   */\n      swap3\n      swap2\n      pop\n      pop\n      jump\t// out\n        /* \"#utility.yul\":9308:9603   */\n    tag_100:\n        /* \"#utility.yul\":9384:9388   */\n      0x00\n        /* \"#utility.yul\":9530:9559   */\n      tag_212\n        /* \"#utility.yul\":9555:9558   */\n      dup4\n        /* \"#utility.yul\":9549:9553   */\n      dup4\n        /* \"#utility.yul\":9530:9559   */\n      tag_99\n      jump\t// in\n    tag_212:\n        /* \"#utility.yul\":9522:9559   */\n      swap2\n      pop\n        /* \"#utility.yul\":9592:9595   */\n      dup3\n        /* \"#utility.yul\":9589:9590   */\n      0x02\n        /* \"#utility.yul\":9585:9596   */\n      mul\n        /* \"#utility.yul\":9579:9583   */\n      dup3\n        /* \"#utility.yul\":9576:9597   */\n      or\n        /* \"#utility.yul\":9568:9597   */\n      swap1\n      pop\n        /* \"#utility.yul\":9308:9603   */\n      swap3\n      swap2\n      pop\n      pop\n      jump\t// out\n        /* \"#utility.yul\":9608:11003   */\n    tag_45:\n        /* \"#utility.yul\":9725:9762   */\n      tag_214\n        /* \"#utility.yul\":9758:9761   */\n      dup3\n        /* \"#utility.yul\":9725:9762   */\n      tag_81\n      jump\t// in\n    tag_214:\n        /* \"#utility.yul\":9827:9845   */\n      0xffffffffffffffff\n        /* \"#utility.yul\":9819:9825   */\n      dup2\n        /* \"#utility.yul\":9816:9846   */\n      gt\n        /* \"#utility.yul\":9813:9869   */\n      iszero\n      tag_215\n      jumpi\n        /* \"#utility.yul\":9849:9867   */\n      tag_216\n      tag_73\n      jump\t// in\n    tag_216:\n        /* \"#utility.yul\":9813:9869   */\n    tag_215:\n        /* \"#utility.yul\":9893:9931   */\n      tag_217\n        /* \"#utility.yul\":9925:9929   */\n      dup3\n        /* \"#utility.yul\":9919:9930   */\n      sload\n        /* \"#utility.yul\":9893:9931   */\n      tag_52\n      jump\t// in\n    tag_217:\n        /* \"#utility.yul\":9978:10045   */\n      tag_218\n        /* \"#utility.yul\":10038:10044   */\n      dup3\n        /* \"#utility.yul\":10030:10036   */\n      dup3\n        /* \"#utility.yul\":10024:10028   */\n      dup6\n        /* \"#utility.yul\":9978:10045   */\n      tag_97\n      jump\t// in\n    tag_218:\n        /* \"#utility.yul\":10072:10073   */\n      0x00\n        /* \"#utility.yul\":10096:10100   */\n      0x20\n        /* \"#utility.yul\":10083:10100   */\n      swap1\n      pop\n        /* \"#utility.yul\":10128:10130   */\n      0x1f\n        /* \"#utility.yul\":10120:10126   */\n      dup4\n        /* \"#utility.yul\":10117:10131   */\n      gt\n        /* \"#utility.yul\":10145:10146   */\n      0x01\n        /* \"#utility.yul\":10140:10758   */\n      dup2\n      eq\n      tag_220\n      jumpi\n        /* \"#utility.yul\":10802:10803   */\n      0x00\n        /* \"#utility.yul\":10819:10825   */\n      dup5\n        /* \"#utility.yul\":10816:10893   */\n      iszero\n      tag_221\n      jumpi\n        /* \"#utility.yul\":10868:10877   */\n      dup3\n        /* \"#utility.yul\":10863:10866   */\n      dup8\n        /* \"#utility.yul\":10859:10878   */\n      add\n        /* \"#utility.yul\":10853:10879   */\n      mload\n        /* \"#utility.yul\":10844:10879   */\n      swap1\n      pop\n        /* \"#utility.yul\":10816:10893   */\n    tag_221:\n        /* \"#utility.yul\":10919:10986   */\n      tag_222\n        /* \"#utility.yul\":10979:10985   */\n      dup6\n        /* \"#utility.yul\":10972:10977   */\n      dup3\n        /* \"#utility.yul\":10919:10986   */\n      tag_100\n      jump\t// in\n    tag_222:\n        /* \"#utility.yul\":10913:10917   */\n      dup7\n        /* \"#utility.yul\":10906:10987   */\n      sstore\n        /* \"#utility.yul\":10775:10997   */\n      pop\n        /* \"#utility.yul\":10110:10997   */\n      jump(tag_219)\n        /* \"#utility.yul\":10140:10758   */\n    tag_220:\n        /* \"#utility.yul\":10192:10196   */\n      0x1f\n        /* \"#utility.yul\":10188:10197   */\n      not\n        /* \"#utility.yul\":10180:10186   */\n      dup5\n        /* \"#utility.yul\":10176:10198   */\n      and\n        /* \"#utility.yul\":10226:10263   */\n      tag_223\n        /* \"#utility.yul\":10258:10262   */\n      dup7\n        /* \"#utility.yul\":10226:10263   */\n      tag_86\n      jump\t// in\n    tag_223:\n        /* \"#utility.yul\":10285:10286   */\n      0x00\n        /* \"#utility.yul\":10299:10507   */\n    tag_224:\n        /* \"#utility.yul\":10313:10320   */\n      dup3\n        /* \"#utility.yul\":10310:10311   */\n      dup2\n        /* \"#utility.yul\":10307:10321   */\n      lt\n        /* \"#utility.yul\":10299:10507   */\n      iszero\n      tag_226\n      jumpi\n        /* \"#utility.yul\":10392:10401   */\n      dup5\n        /* \"#utility.yul\":10387:10390   */\n      dup10\n        /* \"#utility.yul\":10383:10402   */\n      add\n        /* \"#utility.yul\":10377:10403   */\n      mload\n        /* \"#utility.yul\":10369:10375   */\n      dup3\n        /* \"#utility.yul\":10362:10404   */\n      sstore\n        /* \"#utility.yul\":10443:10444   */\n      0x01\n        /* \"#utility.yul\":10435:10441   */\n      dup3\n        /* \"#utility.yul\":10431:10445   */\n      add\n        /* \"#utility.yul\":10421:10445   */\n      swap2\n      pop\n        /* \"#utility.yul\":10490:10492   */\n      0x20\n        /* \"#utility.yul\":10479:10488   */\n      dup6\n        /* \"#utility.yul\":10475:10493   */\n      add\n        /* \"#utility.yul\":10462:10493   */\n      swap5\n      pop\n        /* \"#utility.yul\":10336:10340   */\n      0x20\n        /* \"#utility.yul\":10333:10334   */\n      dup2\n        /* \"#utility.yul\":10329:10341   */\n      add\n        /* \"#utility.yul\":10324:10341   */\n      swap1\n      pop\n        /* \"#utility.yul\":10299:10507   */\n      jump(tag_224)\n    tag_226:\n        /* \"#utility.yul\":10535:10541   */\n      dup7\n        /* \"#utility.yul\":10526:10533   */\n      dup4\n        /* \"#utility.yul\":10523:10542   */\n      lt\n        /* \"#utility.yul\":10520:10699   */\n      iszero\n      tag_227\n      jumpi\n        /* \"#utility.yul\":10593:10602   */\n      dup5\n        /* \"#utility.yul\":10588:10591   */\n      dup10\n        /* \"#utility.yul\":10584:10603   */\n      add\n        /* \"#utility.yul\":10578:10604   */\n      mload\n        /* \"#utility.yul\":10636:10684   */\n      tag_228\n        /* \"#utility.yul\":10678:10682   */\n      0x1f\n        /* \"#utility.yul\":10670:10676   */\n      dup10\n        /* \"#utility.yul\":10666:10683   */\n      and\n        /* \"#utility.yul\":10655:10664   */\n      dup3\n        /* \"#utility.yul\":10636:10684   */\n      tag_99\n      jump\t// in\n    tag_228:\n        /* \"#utility.yul\":10628:10634   */\n      dup4\n        /* \"#utility.yul\":10621:10685   */\n      sstore\n        /* \"#utility.yul\":10543:10699   */\n      pop\n        /* \"#utility.yul\":10520:10699   */\n    tag_227:\n        /* \"#utility.yul\":10745:10746   */\n      0x01\n        /* \"#utility.yul\":10741:10742   */\n      0x02\n        /* \"#utility.yul\":10733:10739   */\n      dup9\n        /* \"#utility.yul\":10729:10743   */\n      mul\n        /* \"#utility.yul\":10725:10747   */\n      add\n        /* \"#utility.yul\":10719:10723   */\n      dup9\n        /* \"#utility.yul\":10712:10748   */\n      sstore\n        /* \"#utility.yul\":10147:10758   */\n      pop\n      pop\n      pop\n        /* \"#utility.yul\":10110:10997   */\n    tag_219:\n      pop\n        /* \"#utility.yul\":9700:11003   */\n      pop\n      pop\n      pop\n        /* \"#utility.yul\":9608:11003   */\n      pop\n      pop\n      jump\t// out\n\n    auxdata: 0xa264697066735822122046b85a348a301b90ffd0fddc7da811a43ca001514f0f1fcc58ddd98e285fff4e64736f6c63430008180033\n}\n",
				"bytecode": {
					"linkReferences": {},
					"object": "60806040526040518060400160405280606160ff168152602001606260ff168152505f9060026200003292919062000113565b5060405180606001604052806040518060400160405280600581526020017f6170706c6500000000000000000000000000000000000000000000000000000081525081526020016040518060400160405280600681526020017f62616e616e61000000000000000000000000000000000000000000000000000081525081526020016040518060400160405280600781526020017f436f636f6e7574000000000000000000000000000000000000000000000000008152508152506001906003620000ff92919062000168565b503480156200010c575f80fd5b506200058a565b828054828255905f5260205f2090810192821562000155579160200282015b8281111562000154578251829060ff1690559160200191906001019062000132565b5b509050620001649190620001bb565b5090565b8260058101928215620001a8579160200282015b82811115620001a7578251829081620001969190620004a6565b50916020019190600101906200017c565b5b509050620001b79190620001d8565b5090565b5b80821115620001d4575f815f905550600101620001bc565b5090565b5b80821115620001fb575f8181620001f19190620001ff565b50600101620001d9565b5090565b5080546200020d90620002a6565b5f825580601f106200022057506200023f565b601f0160209004905f5260205f20908101906200023e9190620001bb565b5b50565b5f81519050919050565b7f4e487b71000000000000000000000000000000000000000000000000000000005f52604160045260245ffd5b7f4e487b71000000000000000000000000000000000000000000000000000000005f52602260045260245ffd5b5f6002820490506001821680620002be57607f821691505b602082108103620002d457620002d362000279565b5b50919050565b5f819050815f5260205f209050919050565b5f6020601f8301049050919050565b5f82821b905092915050565b5f60088302620003387fffffffffffffffffffffffffffffffffffffffffffffffffffffffffffffffff82620002fb565b620003448683620002fb565b95508019841693508086168417925050509392505050565b5f819050919050565b5f819050919050565b5f6200038e6200038862000382846200035c565b62000365565b6200035c565b9050919050565b5f819050919050565b620003a9836200036e565b620003c1620003b88262000395565b84845462000307565b825550505050565b5f90565b620003d7620003c9565b620003e48184846200039e565b505050565b5b818110156200040b57620003ff5f82620003cd565b600181019050620003ea565b5050565b601f8211156200045a576200042481620002da565b6200042f84620002ec565b810160208510156200043f578190505b620004576200044e85620002ec565b830182620003e9565b50505b505050565b5f82821c905092915050565b5f6200047c5f19846008026200045f565b1980831691505092915050565b5f6200049683836200046b565b9150826002028217905092915050565b620004b18262000242565b67ffffffffffffffff811115620004cd57620004cc6200024c565b5b620004d98254620002a6565b620004e68282856200040f565b5f60209050601f8311600181146200051c575f841562000507578287015190505b62000513858262000489565b86555062000582565b601f1984166200052c86620002da565b5f5b8281101562000555578489015182556001820191506020850194506020810190506200052e565b8683101562000575578489015162000571601f8916826200046b565b8355505b6001600288020188555050505b505050505050565b6108e480620005985f395ff3fe608060405234801561000f575f80fd5b506004361061007b575f3560e01c806361125b631161005957806361125b63146100e957806364924310146101195780638c00eb0414610135578063bbea8c95146101515761007b565b80630df904c31461007f5780632aab02d01461009b5780634bae89cb146100b9575b5f80fd5b61009960048036038101906100949190610433565b61016f565b005b6100a3610196565b6040516100b0919061049c565b60405180910390f35b6100d360048036038101906100ce91906104b5565b61019e565b6040516100e0919061049c565b60405180910390f35b61010360048036038101906100fe91906104b5565b6101bd565b604051610110919061055a565b60405180910390f35b610133600480360381019061012e91906104b5565b61025c565b005b61014f600480360381019061014a919061057a565b610284565b005b6101596102a8565b604051610166919061049c565b60405180910390f35b8060018360058110610184576101836105b8565b5b01908161019191906107df565b505050565b5f6005905090565b5f81815481106101ac575f80fd5b905f5260205f20015f915090505481565b600181600581106101cc575f80fd5b015f9150905080546101dd90610612565b80601f016020809104026020016040519081016040528092919081815260200182805461020990610612565b80156102545780601f1061022b57610100808354040283529160200191610254565b820191905f5260205f20905b81548152906001019060200180831161023757829003601f168201915b505050505081565b5f81908060018154018082558091505060019003905f5260205f20015f909190919091505550565b805f8381548110610298576102976105b8565b5b905f5260205f2001819055505050565b5f8080549050905090565b5f604051905090565b5f80fd5b5f80fd5b5f819050919050565b6102d6816102c4565b81146102e0575f80fd5b50565b5f813590506102f1816102cd565b92915050565b5f80fd5b5f80fd5b5f601f19601f8301169050919050565b7f4e487b71000000000000000000000000000000000000000000000000000000005f52604160045260245ffd5b610345826102ff565b810181811067ffffffffffffffff821117156103645761036361030f565b5b80604052505050565b5f6103766102b3565b9050610382828261033c565b919050565b5f67ffffffffffffffff8211156103a1576103a061030f565b5b6103aa826102ff565b9050602081019050919050565b828183375f83830152505050565b5f6103d76103d284610387565b61036d565b9050828152602081018484840111156103f3576103f26102fb565b5b6103fe8482856103b7565b509392505050565b5f82601f83011261041a576104196102f7565b5b813561042a8482602086016103c5565b91505092915050565b5f8060408385031215610449576104486102bc565b5b5f610456858286016102e3565b925050602083013567ffffffffffffffff811115610477576104766102c0565b5b61048385828601610406565b9150509250929050565b610496816102c4565b82525050565b5f6020820190506104af5f83018461048d565b92915050565b5f602082840312156104ca576104c96102bc565b5b5f6104d7848285016102e3565b91505092915050565b5f81519050919050565b5f82825260208201905092915050565b5f5b838110156105175780820151818401526020810190506104fc565b5f8484015250505050565b5f61052c826104e0565b61053681856104ea565b93506105468185602086016104fa565b61054f816102ff565b840191505092915050565b5f6020820190508181035f8301526105728184610522565b905092915050565b5f80604083850312156105905761058f6102bc565b5b5f61059d858286016102e3565b92505060206105ae858286016102e3565b9150509250929050565b7f4e487b71000000000000000000000000000000000000000000000000000000005f52603260045260245ffd5b7f4e487b71000000000000000000000000000000000000000000000000000000005f52602260045260245ffd5b5f600282049050600182168061062957607f821691505b60208210810361063c5761063b6105e5565b5b50919050565b5f819050815f5260205f209050919050565b5f6020601f8301049050919050565b5f82821b905092915050565b5f6008830261069e7fffffffffffffffffffffffffffffffffffffffffffffffffffffffffffffffff82610663565b6106a88683610663565b95508019841693508086168417925050509392505050565b5f819050919050565b5f6106e36106de6106d9846102c4565b6106c0565b6102c4565b9050919050565b5f819050919050565b6106fc836106c9565b610710610708826106ea565b84845461066f565b825550505050565b5f90565b610724610718565b61072f8184846106f3565b505050565b5b81811015610752576107475f8261071c565b600181019050610735565b5050565b601f8211156107975761076881610642565b61077184610654565b81016020851015610780578190505b61079461078c85610654565b830182610734565b50505b505050565b5f82821c905092915050565b5f6107b75f198460080261079c565b1980831691505092915050565b5f6107cf83836107a8565b9150826002028217905092915050565b6107e8826104e0565b67ffffffffffffffff8111156108015761080061030f565b5b61080b8254610612565b610816828285610756565b5f60209050601f831160018114610847575f8415610835578287015190505b61083f85826107c4565b8655506108a6565b601f19841661085586610642565b5f5b8281101561087c57848901518255600182019150602085019450602081019050610857565b868310156108995784890151610895601f8916826107a8565b8355505b6001600288020188555050505b50505050505056fea264697066735822122046b85a348a301b90ffd0fddc7da811a43ca001514f0f1fcc58ddd98e285fff4e64736f6c63430008180033",
					"opcodes": "PUSH1 0x80 PUSH1 0x40 MSTORE PUSH1 0x40 MLOAD DUP1 PUSH1 0x40 ADD PUSH1 0x40 MSTORE DUP1 PUSH1 0x61 PUSH1 0xFF AND DUP2 MSTORE PUSH1 0x20 ADD PUSH1 0x62 PUSH1 0xFF AND DUP2 MSTORE POP PUSH0 SWAP1 PUSH1 0x2 PUSH3 0x32 SWAP3 SWAP2 SWAP1 PUSH3 0x113 JUMP JUMPDEST POP PUSH1 0x40 MLOAD DUP1 PUSH1 0x60 ADD PUSH1 0x40 MSTORE DUP1 PUSH1 0x40 MLOAD DUP1 PUSH1 0x40 ADD PUSH1 0x40 MSTORE DUP1 PUSH1 0x5 DUP2 MSTORE PUSH1 0x20 ADD PUSH32 0x6170706C65000000000000000000000000000000000000000000000000000000 DUP2 MSTORE POP DUP2 MSTORE PUSH1 0x20 ADD PUSH1 0x40 MLOAD DUP1 PUSH1 0x40 ADD PUSH1 0x40 MSTORE DUP1 PUSH1 0x6 DUP2 MSTORE PUSH1 0x20 ADD PUSH32 0x62616E616E610000000000000000000000000000000000000000000000000000 DUP2 MSTORE POP DUP2 MSTORE PUSH1 0x20 ADD PUSH1 0x40 MLOAD DUP1 PUSH1 0x40 ADD PUSH1 0x40 MSTORE DUP1 PUSH1 0x7 DUP2 MSTORE PUSH1 0x20 ADD PUSH32 0x436F636F6E757400000000000000000000000000000000000000000000000000 DUP2 MSTORE POP DUP2 MSTORE POP PUSH1 0x1 SWAP1 PUSH1 0x3 PUSH3 0xFF SWAP3 SWAP2 SWAP1 PUSH3 0x168 JUMP JUMPDEST POP CALLVALUE DUP1 ISZERO PUSH3 0x10C JUMPI PUSH0 DUP1 REVERT JUMPDEST POP PUSH3 0x58A JUMP JUMPDEST DUP3 DUP1 SLOAD DUP3 DUP3 SSTORE SWAP1 PUSH0 MSTORE PUSH1 0x20 PUSH0 KECCAK256 SWAP1 DUP2 ADD SWAP3 DUP3 ISZERO PUSH3 0x155 JUMPI SWAP2 PUSH1 0x20 MUL DUP3 ADD JUMPDEST DUP3 DUP2 GT ISZERO PUSH3 0x154 JUMPI DUP3 MLOAD DUP3 SWAP1 PUSH1 0xFF AND SWAP1 SSTORE SWAP2 PUSH1 0x20 ADD SWAP2 SWAP1 PUSH1 0x1 ADD SWAP1 PUSH3 0x132 JUMP JUMPDEST JUMPDEST POP SWAP1 POP PUSH3 0x164 SWAP2 SWAP1 PUSH3 0x1BB JUMP JUMPDEST POP SWAP1 JUMP JUMPDEST DUP3 PUSH1 0x5 DUP2 ADD SWAP3 DUP3 ISZERO PUSH3 0x1A8 JUMPI SWAP2 PUSH1 0x20 MUL DUP3 ADD JUMPDEST DUP3 DUP2 GT ISZERO PUSH3 0x1A7 JUMPI DUP3 MLOAD DUP3 SWAP1 DUP2 PUSH3 0x196 SWAP2 SWAP1 PUSH3 0x4A6 JUMP JUMPDEST POP SWAP2 PUSH1 0x20 ADD SWAP2 SWAP1 PUSH1 0x1 ADD SWAP1 PUSH3 0x17C JUMP JUMPDEST JUMPDEST POP SWAP1 POP PUSH3 0x1B7 SWAP2 SWAP1 PUSH3 0x1D8 JUMP JUMPDEST POP SWAP1 JUMP JUMPDEST JUMPDEST DUP1 DUP3 GT ISZERO PUSH3 0x1D4 JUMPI PUSH0 DUP2 PUSH0 SWAP1 SSTORE POP PUSH1 0x1 ADD PUSH3 0x1BC JUMP JUMPDEST POP SWAP1 JUMP JUMPDEST JUMPDEST DUP1 DUP3 GT ISZERO PUSH3 0x1FB JUMPI PUSH0 DUP2 DUP2 PUSH3 0x1F1 SWAP2 SWAP1 PUSH3 0x1FF JUMP JUMPDEST POP PUSH1 0x1 ADD PUSH3 0x1D9 JUMP JUMPDEST POP SWAP1 JUMP JUMPDEST POP DUP1 SLOAD PUSH3 0x20D SWAP1 PUSH3 0x2A6 JUMP JUMPDEST PUSH0 DUP3 SSTORE DUP1 PUSH1 0x1F LT PUSH3 0x220 JUMPI POP PUSH3 0x23F JUMP JUMPDEST PUSH1 0x1F ADD PUSH1 0x20 SWAP1 DIV SWAP1 PUSH0 MSTORE PUSH1 0x20 PUSH0 KECCAK256 SWAP1 DUP2 ADD SWAP1 PUSH3 0x23E SWAP2 SWAP1 PUSH3 0x1BB JUMP JUMPDEST JUMPDEST POP JUMP JUMPDEST PUSH0 DUP2 MLOAD SWAP1 POP SWAP2 SWAP1 POP JUMP JUMPDEST PUSH32 0x4E487B7100000000000000000000000000000000000000000000000000000000 PUSH0 MSTORE PUSH1 0x41 PUSH1 0x4 MSTORE PUSH1 0x24 PUSH0 REVERT JUMPDEST PUSH32 0x4E487B7100000000000000000000000000000000000000000000000000000000 PUSH0 MSTORE PUSH1 0x22 PUSH1 0x4 MSTORE PUSH1 0x24 PUSH0 REVERT JUMPDEST PUSH0 PUSH1 0x2 DUP3 DIV SWAP1 POP PUSH1 0x1 DUP3 AND DUP1 PUSH3 0x2BE JUMPI PUSH1 0x7F DUP3 AND SWAP2 POP JUMPDEST PUSH1 0x20 DUP3 LT DUP2 SUB PUSH3 0x2D4 JUMPI PUSH3 0x2D3 PUSH3 0x279 JUMP JUMPDEST JUMPDEST POP SWAP2 SWAP1 POP JUMP JUMPDEST PUSH0 DUP2 SWAP1 POP DUP2 PUSH0 MSTORE PUSH1 0x20 PUSH0 KECCAK256 SWAP1 POP SWAP2 SWAP1 POP JUMP JUMPDEST PUSH0 PUSH1 0x20 PUSH1 0x1F DUP4 ADD DIV SWAP1 POP SWAP2 SWAP1 POP JUMP JUMPDEST PUSH0 DUP3 DUP3 SHL SWAP1 POP SWAP3 SWAP2 POP POP JUMP JUMPDEST PUSH0 PUSH1 0x8 DUP4 MUL PUSH3 0x338 PUSH32 0xFFFFFFFFFFFFFFFFFFFFFFFFFFFFFFFFFFFFFFFFFFFFFFFFFFFFFFFFFFFFFFFF DUP3 PUSH3 0x2FB JUMP JUMPDEST PUSH3 0x344 DUP7 DUP4 PUSH3 0x2FB JUMP JUMPDEST SWAP6 POP DUP1 NOT DUP5 AND SWAP4 POP DUP1 DUP7 AND DUP5 OR SWAP3 POP POP POP SWAP4 SWAP3 POP POP POP JUMP JUMPDEST PUSH0 DUP2 SWAP1 POP SWAP2 SWAP1 POP JUMP JUMPDEST PUSH0 DUP2 SWAP1 POP SWAP2 SWAP1 POP JUMP JUMPDEST PUSH0 PUSH3 0x38E PUSH3 0x388 PUSH3 0x382 DUP5 PUSH3 0x35C JUMP JUMPDEST PUSH3 0x365 JUMP JUMPDEST PUSH3 0x35C JUMP JUMPDEST SWAP1 POP SWAP2 SWAP1 POP JUMP JUMPDEST PUSH0 DUP2 SWAP1 POP SWAP2 SWAP1 POP JUMP JUMPDEST PUSH3 0x3A9 DUP4 PUSH3 0x36E JUMP JUMPDEST PUSH3 0x3C1 PUSH3 0x3B8 DUP3 PUSH3 0x395 JUMP JUMPDEST DUP5 DUP5 SLOAD PUSH3 0x307 JUMP JUMPDEST DUP3 SSTORE POP POP POP POP JUMP JUMPDEST PUSH0 SWAP1 JUMP JUMPDEST PUSH3 0x3D7 PUSH3 0x3C9 JUMP JUMPDEST PUSH3 0x3E4 DUP2 DUP5 DUP5 PUSH3 0x39E JUMP JUMPDEST POP POP POP JUMP JUMPDEST JUMPDEST DUP2 DUP2 LT ISZERO PUSH3 0x40B JUMPI PUSH3 0x3FF PUSH0 DUP3 PUSH3 0x3CD JUMP JUMPDEST PUSH1 0x1 DUP2 ADD SWAP1 POP PUSH3 0x3EA JUMP JUMPDEST POP POP JUMP JUMPDEST PUSH1 0x1F DUP3 GT ISZERO PUSH3 0x45A JUMPI PUSH3 0x424 DUP2 PUSH3 0x2DA JUMP JUMPDEST PUSH3 0x42F DUP5 PUSH3 0x2EC JUMP JUMPDEST DUP2 ADD PUSH1 0x20 DUP6 LT ISZERO PUSH3 0x43F JUMPI DUP2 SWAP1 POP JUMPDEST PUSH3 0x457 PUSH3 0x44E DUP6 PUSH3 0x2EC JUMP JUMPDEST DUP4 ADD DUP3 PUSH3 0x3E9 JUMP JUMPDEST POP POP JUMPDEST POP POP POP JUMP JUMPDEST PUSH0 DUP3 DUP3 SHR SWAP1 POP SWAP3 SWAP2 POP POP JUMP JUMPDEST PUSH0 PUSH3 0x47C PUSH0 NOT DUP5 PUSH1 0x8 MUL PUSH3 0x45F JUMP JUMPDEST NOT DUP1 DUP4 AND SWAP2 POP POP SWAP3 SWAP2 POP POP JUMP JUMPDEST PUSH0 PUSH3 0x496 DUP4 DUP4 PUSH3 0x46B JUMP JUMPDEST SWAP2 POP DUP3 PUSH1 0x2 MUL DUP3 OR SWAP1 POP SWAP3 SWAP2 POP POP JUMP JUMPDEST PUSH3 0x4B1 DUP3 PUSH3 0x242 JUMP JUMPDEST PUSH8 0xFFFFFFFFFFFFFFFF DUP2 GT ISZERO PUSH3 0x4CD JUMPI PUSH3 0x4CC PUSH3 0x24C JUMP JUMPDEST JUMPDEST PUSH3 0x4D9 DUP3 SLOAD PUSH3 0x2A6 JUMP JUMPDEST PUSH3 0x4E6 DUP3 DUP3 DUP6 PUSH3 0x40F JUMP JUMPDEST PUSH0 PUSH1 0x20 SWAP1 POP PUSH1 0x1F DUP4 GT PUSH1 0x1 DUP2 EQ PUSH3 0x51C JUMPI PUSH0 DUP5 ISZERO PUSH3 0x507 JUMPI DUP3 DUP8 ADD MLOAD SWAP1 POP JUMPDEST PUSH3 0x513 DUP6 DUP3 PUSH3 0x489 JUMP JUMPDEST DUP7 SSTORE POP PUSH3 0x582 JUMP JUMPDEST PUSH1 0x1F NOT DUP5 AND PUSH3 0x52C DUP7 PUSH3 0x2DA JUMP JUMPDEST PUSH0 JUMPDEST DUP3 DUP2 LT ISZERO PUSH3 0x555 JUMPI DUP5 DUP10 ADD MLOAD DUP3 SSTORE PUSH1 0x1 DUP3 ADD SWAP2 POP PUSH1 0x20 DUP6 ADD SWAP5 POP PUSH1 0x20 DUP2 ADD SWAP1 POP PUSH3 0x52E JUMP JUMPDEST DUP7 DUP4 LT ISZERO PUSH3 0x575 JUMPI DUP5 DUP10 ADD MLOAD PUSH3 0x571 PUSH1 0x1F DUP10 AND DUP3 PUSH3 0x46B JUMP JUMPDEST DUP4 SSTORE POP JUMPDEST PUSH1 0x1 PUSH1 0x2 DUP9 MUL ADD DUP9 SSTORE POP POP POP JUMPDEST POP POP POP POP POP POP JUMP JUMPDEST PUSH2 0x8E4 DUP1 PUSH3 0x598 PUSH0 CODECOPY PUSH0 RETURN INVALID PUSH1 0x80 PUSH1 0x40 MSTORE CALLVALUE DUP1 ISZERO PUSH2 0xF JUMPI PUSH0 DUP1 REVERT JUMPDEST POP PUSH1 0x4 CALLDATASIZE LT PUSH2 0x7B JUMPI PUSH0 CALLDATALOAD PUSH1 0xE0 SHR DUP1 PUSH4 0x61125B63 GT PUSH2 0x59 JUMPI DUP1 PUSH4 0x61125B63 EQ PUSH2 0xE9 JUMPI DUP1 PUSH4 0x64924310 EQ PUSH2 0x119 JUMPI DUP1 PUSH4 0x8C00EB04 EQ PUSH2 0x135 JUMPI DUP1 PUSH4 0xBBEA8C95 EQ PUSH2 0x151 JUMPI PUSH2 0x7B JUMP JUMPDEST DUP1 PUSH4 0xDF904C3 EQ PUSH2 0x7F JUMPI DUP1 PUSH4 0x2AAB02D0 EQ PUSH2 0x9B JUMPI DUP1 PUSH4 0x4BAE89CB EQ PUSH2 0xB9 JUMPI JUMPDEST PUSH0 DUP1 REVERT JUMPDEST PUSH2 0x99 PUSH1 0x4 DUP1 CALLDATASIZE SUB DUP2 ADD SWAP1 PUSH2 0x94 SWAP2 SWAP1 PUSH2 0x433 JUMP JUMPDEST PUSH2 0x16F JUMP JUMPDEST STOP JUMPDEST PUSH2 0xA3 PUSH2 0x196 JUMP JUMPDEST PUSH1 0x40 MLOAD PUSH2 0xB0 SWAP2 SWAP1 PUSH2 0x49C JUMP JUMPDEST PUSH1 0x40 MLOAD DUP1 SWAP2 SUB SWAP1 RETURN JUMPDEST PUSH2 0xD3 PUSH1 0x4 DUP1 CALLDATASIZE SUB DUP2 ADD SWAP1 PUSH2 0xCE SWAP2 SWAP1 PUSH2 0x4B5 JUMP JUMPDEST PUSH2 0x19E JUMP JUMPDEST PUSH1 0x40 MLOAD PUSH2 0xE0 SWAP2 SWAP1 PUSH2 0x49C JUMP JUMPDEST PUSH1 0x40 MLOAD DUP1 SWAP2 SUB SWAP1 RETURN JUMPDEST PUSH2 0x103 PUSH1 0x4 DUP1 CALLDATASIZE SUB DUP2 ADD SWAP1 PUSH2 0xFE SWAP2 SWAP1 PUSH2 0x4B5 JUMP JUMPDEST PUSH2 0x1BD JUMP JUMPDEST PUSH1 0x40 MLOAD PUSH2 0x110 SWAP2 SWAP1 PUSH2 0x55A JUMP JUMPDEST PUSH1 0x40 MLOAD DUP1 SWAP2 SUB SWAP1 RETURN JUMPDEST PUSH2 0x133 PUSH1 0x4 DUP1 CALLDATASIZE SUB DUP2 ADD SWAP1 PUSH2 0x12E SWAP2 SWAP1 PUSH2 0x4B5 JUMP JUMPDEST PUSH2 0x25C JUMP JUMPDEST STOP JUMPDEST PUSH2 0x14F PUSH1 0x4 DUP1 CALLDATASIZE SUB DUP2 ADD SWAP1 PUSH2 0x14A SWAP2 SWAP1 PUSH2 0x57A JUMP JUMPDEST PUSH2 0x284 JUMP JUMPDEST STOP JUMPDEST PUSH2 0x159 PUSH2 0x2A8 JUMP JUMPDEST PUSH1 0x40 MLOAD PUSH2 0x166 SWAP2 SWAP1 PUSH2 0x49C JUMP JUMPDEST PUSH1 0x40 MLOAD DUP1 SWAP2 SUB SWAP1 RETURN JUMPDEST DUP1 PUSH1 0x1 DUP4 PUSH1 0x5 DUP2 LT PUSH2 0x184 JUMPI PUSH2 0x183 PUSH2 0x5B8 JUMP JUMPDEST JUMPDEST ADD SWAP1 DUP2 PUSH2 0x191 SWAP2 SWAP1 PUSH2 0x7DF JUMP JUMPDEST POP POP POP JUMP JUMPDEST PUSH0 PUSH1 0x5 SWAP1 POP SWAP1 JUMP JUMPDEST PUSH0 DUP2 DUP2 SLOAD DUP2 LT PUSH2 0x1AC JUMPI PUSH0 DUP1 REVERT JUMPDEST SWAP1 PUSH0 MSTORE PUSH1 0x20 PUSH0 KECCAK256 ADD PUSH0 SWAP2 POP SWAP1 POP SLOAD DUP2 JUMP JUMPDEST PUSH1 0x1 DUP2 PUSH1 0x5 DUP2 LT PUSH2 0x1CC JUMPI PUSH0 DUP1 REVERT JUMPDEST ADD PUSH0 SWAP2 POP SWAP1 POP DUP1 SLOAD PUSH2 0x1DD SWAP1 PUSH2 0x612 JUMP JUMPDEST DUP1 PUSH1 0x1F ADD PUSH1 0x20 DUP1 SWAP2 DIV MUL PUSH1 0x20 ADD PUSH1 0x40 MLOAD SWAP1 DUP2 ADD PUSH1 0x40 MSTORE DUP1 SWAP3 SWAP2 SWAP1 DUP2 DUP2 MSTORE PUSH1 0x20 ADD DUP3 DUP1 SLOAD PUSH2 0x209 SWAP1 PUSH2 0x612 JUMP JUMPDEST DUP1 ISZERO PUSH2 0x254 JUMPI DUP1 PUSH1 0x1F LT PUSH2 0x22B JUMPI PUSH2 0x100 DUP1 DUP4 SLOAD DIV MUL DUP4 MSTORE SWAP2 PUSH1 0x20 ADD SWAP2 PUSH2 0x254 JUMP JUMPDEST DUP3 ADD SWAP2 SWAP1 PUSH0 MSTORE PUSH1 0x20 PUSH0 KECCAK256 SWAP1 JUMPDEST DUP2 SLOAD DUP2 MSTORE SWAP1 PUSH1 0x1 ADD SWAP1 PUSH1 0x20 ADD DUP1 DUP4 GT PUSH2 0x237 JUMPI DUP3 SWAP1 SUB PUSH1 0x1F AND DUP3 ADD SWAP2 JUMPDEST POP POP POP POP POP DUP2 JUMP JUMPDEST PUSH0 DUP2 SWAP1 DUP1 PUSH1 0x1 DUP2 SLOAD ADD DUP1 DUP3 SSTORE DUP1 SWAP2 POP POP PUSH1 0x1 SWAP1 SUB SWAP1 PUSH0 MSTORE PUSH1 0x20 PUSH0 KECCAK256 ADD PUSH0 SWAP1 SWAP2 SWAP1 SWAP2 SWAP1 SWAP2 POP SSTORE POP JUMP JUMPDEST DUP1 PUSH0 DUP4 DUP2 SLOAD DUP2 LT PUSH2 0x298 JUMPI PUSH2 0x297 PUSH2 0x5B8 JUMP JUMPDEST JUMPDEST SWAP1 PUSH0 MSTORE PUSH1 0x20 PUSH0 KECCAK256 ADD DUP2 SWAP1 SSTORE POP POP POP JUMP JUMPDEST PUSH0 DUP1 DUP1 SLOAD SWAP1 POP SWAP1 POP SWAP1 JUMP JUMPDEST PUSH0 PUSH1 0x40 MLOAD SWAP1 POP SWAP1 JUMP JUMPDEST PUSH0 DUP1 REVERT JUMPDEST PUSH0 DUP1 REVERT JUMPDEST PUSH0 DUP2 SWAP1 POP SWAP2 SWAP1 POP JUMP JUMPDEST PUSH2 0x2D6 DUP2 PUSH2 0x2C4 JUMP JUMPDEST DUP2 EQ PUSH2 0x2E0 JUMPI PUSH0 DUP1 REVERT JUMPDEST POP JUMP JUMPDEST PUSH0 DUP2 CALLDATALOAD SWAP1 POP PUSH2 0x2F1 DUP2 PUSH2 0x2CD JUMP JUMPDEST SWAP3 SWAP2 POP POP JUMP JUMPDEST PUSH0 DUP1 REVERT JUMPDEST PUSH0 DUP1 REVERT JUMPDEST PUSH0 PUSH1 0x1F NOT PUSH1 0x1F DUP4 ADD AND SWAP1 POP SWAP2 SWAP1 POP JUMP JUMPDEST PUSH32 0x4E487B7100000000000000000000000000000000000000000000000000000000 PUSH0 MSTORE PUSH1 0x41 PUSH1 0x4 MSTORE PUSH1 0x24 PUSH0 REVERT JUMPDEST PUSH2 0x345 DUP3 PUSH2 0x2FF JUMP JUMPDEST DUP2 ADD DUP2 DUP2 LT PUSH8 0xFFFFFFFFFFFFFFFF DUP3 GT OR ISZERO PUSH2 0x364 JUMPI PUSH2 0x363 PUSH2 0x30F JUMP JUMPDEST JUMPDEST DUP1 PUSH1 0x40 MSTORE POP POP POP JUMP JUMPDEST PUSH0 PUSH2 0x376 PUSH2 0x2B3 JUMP JUMPDEST SWAP1 POP PUSH2 0x382 DUP3 DUP3 PUSH2 0x33C JUMP JUMPDEST SWAP2 SWAP1 POP JUMP JUMPDEST PUSH0 PUSH8 0xFFFFFFFFFFFFFFFF DUP3 GT ISZERO PUSH2 0x3A1 JUMPI PUSH2 0x3A0 PUSH2 0x30F JUMP JUMPDEST JUMPDEST PUSH2 0x3AA DUP3 PUSH2 0x2FF JUMP JUMPDEST SWAP1 POP PUSH1 0x20 DUP2 ADD SWAP1 POP SWAP2 SWAP1 POP JUMP JUMPDEST DUP3 DUP2 DUP4 CALLDATACOPY PUSH0 DUP4 DUP4 ADD MSTORE POP POP POP JUMP JUMPDEST PUSH0 PUSH2 0x3D7 PUSH2 0x3D2 DUP5 PUSH2 0x387 JUMP JUMPDEST PUSH2 0x36D JUMP JUMPDEST SWAP1 POP DUP3 DUP2 MSTORE PUSH1 0x20 DUP2 ADD DUP5 DUP5 DUP5 ADD GT ISZERO PUSH2 0x3F3 JUMPI PUSH2 0x3F2 PUSH2 0x2FB JUMP JUMPDEST JUMPDEST PUSH2 0x3FE DUP5 DUP3 DUP6 PUSH2 0x3B7 JUMP JUMPDEST POP SWAP4 SWAP3 POP POP POP JUMP JUMPDEST PUSH0 DUP3 PUSH1 0x1F DUP4 ADD SLT PUSH2 0x41A JUMPI PUSH2 0x419 PUSH2 0x2F7 JUMP JUMPDEST JUMPDEST DUP2 CALLDATALOAD PUSH2 0x42A DUP5 DUP3 PUSH1 0x20 DUP7 ADD PUSH2 0x3C5 JUMP JUMPDEST SWAP2 POP POP SWAP3 SWAP2 POP POP JUMP JUMPDEST PUSH0 DUP1 PUSH1 0x40 DUP4 DUP6 SUB SLT ISZERO PUSH2 0x449 JUMPI PUSH2 0x448 PUSH2 0x2BC JUMP JUMPDEST JUMPDEST PUSH0 PUSH2 0x456 DUP6 DUP3 DUP7 ADD PUSH2 0x2E3 JUMP JUMPDEST SWAP3 POP POP PUSH1 0x20 DUP4 ADD CALLDATALOAD PUSH8 0xFFFFFFFFFFFFFFFF DUP2 GT ISZERO PUSH2 0x477 JUMPI PUSH2 0x476 PUSH2 0x2C0 JUMP JUMPDEST JUMPDEST PUSH2 0x483 DUP6 DUP3 DUP7 ADD PUSH2 0x406 JUMP JUMPDEST SWAP2 POP POP SWAP3 POP SWAP3 SWAP1 POP JUMP JUMPDEST PUSH2 0x496 DUP2 PUSH2 0x2C4 JUMP JUMPDEST DUP3 MSTORE POP POP JUMP JUMPDEST PUSH0 PUSH1 0x20 DUP3 ADD SWAP1 POP PUSH2 0x4AF PUSH0 DUP4 ADD DUP5 PUSH2 0x48D JUMP JUMPDEST SWAP3 SWAP2 POP POP JUMP JUMPDEST PUSH0 PUSH1 0x20 DUP3 DUP5 SUB SLT ISZERO PUSH2 0x4CA JUMPI PUSH2 0x4C9 PUSH2 0x2BC JUMP JUMPDEST JUMPDEST PUSH0 PUSH2 0x4D7 DUP5 DUP3 DUP6 ADD PUSH2 0x2E3 JUMP JUMPDEST SWAP2 POP POP SWAP3 SWAP2 POP POP JUMP JUMPDEST PUSH0 DUP2 MLOAD SWAP1 POP SWAP2 SWAP1 POP JUMP JUMPDEST PUSH0 DUP3 DUP3 MSTORE PUSH1 0x20 DUP3 ADD SWAP1 POP SWAP3 SWAP2 POP POP JUMP JUMPDEST PUSH0 JUMPDEST DUP4 DUP2 LT ISZERO PUSH2 0x517 JUMPI DUP1 DUP3 ADD MLOAD DUP2 DUP5 ADD MSTORE PUSH1 0x20 DUP2 ADD SWAP1 POP PUSH2 0x4FC JUMP JUMPDEST PUSH0 DUP5 DUP5 ADD MSTORE POP POP POP POP JUMP JUMPDEST PUSH0 PUSH2 0x52C DUP3 PUSH2 0x4E0 JUMP JUMPDEST PUSH2 0x536 DUP2 DUP6 PUSH2 0x4EA JUMP JUMPDEST SWAP4 POP PUSH2 0x546 DUP2 DUP6 PUSH1 0x20 DUP7 ADD PUSH2 0x4FA JUMP JUMPDEST PUSH2 0x54F DUP2 PUSH2 0x2FF JUMP JUMPDEST DUP5 ADD SWAP2 POP POP SWAP3 SWAP2 POP POP JUMP JUMPDEST PUSH0 PUSH1 0x20 DUP3 ADD SWAP1 POP DUP2 DUP2 SUB PUSH0 DUP4 ADD MSTORE PUSH2 0x572 DUP2 DUP5 PUSH2 0x522 JUMP JUMPDEST SWAP1 POP SWAP3 SWAP2 POP POP JUMP JUMPDEST PUSH0 DUP1 PUSH1 0x40 DUP4 DUP6 SUB SLT ISZERO PUSH2 0x590 JUMPI PUSH2 0x58F PUSH2 0x2BC JUMP JUMPDEST JUMPDEST PUSH0 PUSH2 0x59D DUP6 DUP3 DUP7 ADD PUSH2 0x2E3 JUMP JUMPDEST SWAP3 POP POP PUSH1 0x20 PUSH2 0x5AE DUP6 DUP3 DUP7 ADD PUSH2 0x2E3 JUMP JUMPDEST SWAP2 POP POP SWAP3 POP SWAP3 SWAP1 POP JUMP JUMPDEST PUSH32 0x4E487B7100000000000000000000000000000000000000000000000000000000 PUSH0 MSTORE PUSH1 0x32 PUSH1 0x4 MSTORE PUSH1 0x24 PUSH0 REVERT JUMPDEST PUSH32 0x4E487B7100000000000000000000000000000000000000000000000000000000 PUSH0 MSTORE PUSH1 0x22 PUSH1 0x4 MSTORE PUSH1 0x24 PUSH0 REVERT JUMPDEST PUSH0 PUSH1 0x2 DUP3 DIV SWAP1 POP PUSH1 0x1 DUP3 AND DUP1 PUSH2 0x629 JUMPI PUSH1 0x7F DUP3 AND SWAP2 POP JUMPDEST PUSH1 0x20 DUP3 LT DUP2 SUB PUSH2 0x63C JUMPI PUSH2 0x63B PUSH2 0x5E5 JUMP JUMPDEST JUMPDEST POP SWAP2 SWAP1 POP JUMP JUMPDEST PUSH0 DUP2 SWAP1 POP DUP2 PUSH0 MSTORE PUSH1 0x20 PUSH0 KECCAK256 SWAP1 POP SWAP2 SWAP1 POP JUMP JUMPDEST PUSH0 PUSH1 0x20 PUSH1 0x1F DUP4 ADD DIV SWAP1 POP SWAP2 SWAP1 POP JUMP JUMPDEST PUSH0 DUP3 DUP3 SHL SWAP1 POP SWAP3 SWAP2 POP POP JUMP JUMPDEST PUSH0 PUSH1 0x8 DUP4 MUL PUSH2 0x69E PUSH32 0xFFFFFFFFFFFFFFFFFFFFFFFFFFFFFFFFFFFFFFFFFFFFFFFFFFFFFFFFFFFFFFFF DUP3 PUSH2 0x663 JUMP JUMPDEST PUSH2 0x6A8 DUP7 DUP4 PUSH2 0x663 JUMP JUMPDEST SWAP6 POP DUP1 NOT DUP5 AND SWAP4 POP DUP1 DUP7 AND DUP5 OR SWAP3 POP POP POP SWAP4 SWAP3 POP POP POP JUMP JUMPDEST PUSH0 DUP2 SWAP1 POP SWAP2 SWAP1 POP JUMP JUMPDEST PUSH0 PUSH2 0x6E3 PUSH2 0x6DE PUSH2 0x6D9 DUP5 PUSH2 0x2C4 JUMP JUMPDEST PUSH2 0x6C0 JUMP JUMPDEST PUSH2 0x2C4 JUMP JUMPDEST SWAP1 POP SWAP2 SWAP1 POP JUMP JUMPDEST PUSH0 DUP2 SWAP1 POP SWAP2 SWAP1 POP JUMP JUMPDEST PUSH2 0x6FC DUP4 PUSH2 0x6C9 JUMP JUMPDEST PUSH2 0x710 PUSH2 0x708 DUP3 PUSH2 0x6EA JUMP JUMPDEST DUP5 DUP5 SLOAD PUSH2 0x66F JUMP JUMPDEST DUP3 SSTORE POP POP POP POP JUMP JUMPDEST PUSH0 SWAP1 JUMP JUMPDEST PUSH2 0x724 PUSH2 0x718 JUMP JUMPDEST PUSH2 0x72F DUP2 DUP5 DUP5 PUSH2 0x6F3 JUMP JUMPDEST POP POP POP JUMP JUMPDEST JUMPDEST DUP2 DUP2 LT ISZERO PUSH2 0x752 JUMPI PUSH2 0x747 PUSH0 DUP3 PUSH2 0x71C JUMP JUMPDEST PUSH1 0x1 DUP2 ADD SWAP1 POP PUSH2 0x735 JUMP JUMPDEST POP POP JUMP JUMPDEST PUSH1 0x1F DUP3 GT ISZERO PUSH2 0x797 JUMPI PUSH2 0x768 DUP2 PUSH2 0x642 JUMP JUMPDEST PUSH2 0x771 DUP5 PUSH2 0x654 JUMP JUMPDEST DUP2 ADD PUSH1 0x20 DUP6 LT ISZERO PUSH2 0x780 JUMPI DUP2 SWAP1 POP JUMPDEST PUSH2 0x794 PUSH2 0x78C DUP6 PUSH2 0x654 JUMP JUMPDEST DUP4 ADD DUP3 PUSH2 0x734 JUMP JUMPDEST POP POP JUMPDEST POP POP POP JUMP JUMPDEST PUSH0 DUP3 DUP3 SHR SWAP1 POP SWAP3 SWAP2 POP POP JUMP JUMPDEST PUSH0 PUSH2 0x7B7 PUSH0 NOT DUP5 PUSH1 0x8 MUL PUSH2 0x79C JUMP JUMPDEST NOT DUP1 DUP4 AND SWAP2 POP POP SWAP3 SWAP2 POP POP JUMP JUMPDEST PUSH0 PUSH2 0x7CF DUP4 DUP4 PUSH2 0x7A8 JUMP JUMPDEST SWAP2 POP DUP3 PUSH1 0x2 MUL DUP3 OR SWAP1 POP SWAP3 SWAP2 POP POP JUMP JUMPDEST PUSH2 0x7E8 DUP3 PUSH2 0x4E0 JUMP JUMPDEST PUSH8 0xFFFFFFFFFFFFFFFF DUP2 GT ISZERO PUSH2 0x801 JUMPI PUSH2 0x800 PUSH2 0x30F JUMP JUMPDEST JUMPDEST PUSH2 0x80B DUP3 SLOAD PUSH2 0x612 JUMP JUMPDEST PUSH2 0x816 DUP3 DUP3 DUP6 PUSH2 0x756 JUMP JUMPDEST PUSH0 PUSH1 0x20 SWAP1 POP PUSH1 0x1F DUP4 GT PUSH1 0x1 DUP2 EQ PUSH2 0x847 JUMPI PUSH0 DUP5 ISZERO PUSH2 0x835 JUMPI DUP3 DUP8 ADD MLOAD SWAP1 POP JUMPDEST PUSH2 0x83F DUP6 DUP3 PUSH2 0x7C4 JUMP JUMPDEST DUP7 SSTORE POP PUSH2 0x8A6 JUMP JUMPDEST PUSH1 0x1F NOT DUP5 AND PUSH2 0x855 DUP7 PUSH2 0x642 JUMP JUMPDEST PUSH0 JUMPDEST DUP3 DUP2 LT ISZERO PUSH2 0x87C JUMPI DUP5 DUP10 ADD MLOAD DUP3 SSTORE PUSH1 0x1 DUP3 ADD SWAP2 POP PUSH1 0x20 DUP6 ADD SWAP5 POP PUSH1 0x20 DUP2 ADD SWAP1 POP PUSH2 0x857 JUMP JUMPDEST DUP7 DUP4 LT ISZERO PUSH2 0x899 JUMPI DUP5 DUP10 ADD MLOAD PUSH2 0x895 PUSH1 0x1F DUP10 AND DUP3 PUSH2 0x7A8 JUMP JUMPDEST DUP4 SSTORE POP JUMPDEST PUSH1 0x1 PUSH1 0x2 DUP9 MUL ADD DUP9 SSTORE POP POP POP JUMPDEST POP POP POP POP POP POP JUMP INVALID LOG2 PUSH5 0x6970667358 0x22 SLT KECCAK256 CHAINID 0xB8 GAS CALLVALUE DUP11 ADDRESS SHL SWAP1 SELFDESTRUCT 0xD0 REVERT 0xDC PUSH30 0xA811A43CA001514F0F1FCC58DDD98E285FFF4E64736F6C63430008180033 "
				},
				"gasEstimates": {
					"creation": {
						"codeDepositCost": "455200",
						"executionCost": "infinite",
						"totalCost": "infinite"
					},
					"external": {
						"addArray1(uint256)": "46842",
						"array1(uint256)": "infinite",
						"array2(uint256)": "infinite",
						"changeArray1(uint256,uint256)": "infinite",
						"changeArray2(uint256,string)": "infinite",
						"getLegth1()": "2506",
						"getLength2()": "355"
					}
				},
				"methodIdentifiers": {
					"addArray1(uint256)": "64924310",
					"array1(uint256)": "4bae89cb",
					"array2(uint256)": "61125b63",
					"changeArray1(uint256,uint256)": "8c00eb04",
					"changeArray2(uint256,string)": "0df904c3",
					"getLegth1()": "bbea8c95",
					"getLength2()": "2aab02d0"
				}
			},
			"storageLayout": {
				"storage": [
					{
						"astId": 7,
						"contract": "5장_매핑,배열,구조체/5_4.sol:Ex5_4",
						"label": "array1",
						"offset": 0,
						"slot": "0",
						"type": "t_array(t_uint256)dyn_storage"
					},
					{
						"astId": 15,
						"contract": "5장_매핑,배열,구조체/5_4.sol:Ex5_4",
						"label": "array2",
						"offset": 0,
						"slot": "1",
						"type": "t_array(t_string_storage)5_storage"
					}
				],
				"types": {
					"t_array(t_string_storage)5_storage": {
						"base": "t_string_storage",
						"encoding": "inplace",
						"label": "string[5]",
						"numberOfBytes": "160"
					},
					"t_array(t_uint256)dyn_storage": {
						"base": "t_uint256",
						"encoding": "dynamic_array",
						"label": "uint256[]",
						"numberOfBytes": "32"
					},
					"t_string_storage": {
						"encoding": "bytes",
						"label": "string",
						"numberOfBytes": "32"
					},
					"t_uint256": {
						"encoding": "inplace",
						"label": "uint256",
						"numberOfBytes": "32"
					}
				}
			},
			"userdoc": {
				"kind": "user",
				"methods": {},
				"version": 1
			}
		}
	}
}