{
	"5장_매핑,배열,구조체/5_7.sol": {
		"Ex5_7": {
			"abi": [
				{
					"inputs": [
						{
							"internalType": "string",
							"name": "_job",
							"type": "string"
						}
					],
					"name": "changeJobHuman1",
					"outputs": [],
					"stateMutability": "nonpayable",
					"type": "function"
				},
				{
					"inputs": [],
					"name": "getHuman1",
					"outputs": [
						{
							"components": [
								{
									"internalType": "string",
									"name": "name",
									"type": "string"
								},
								{
									"internalType": "uint256",
									"name": "age",
									"type": "uint256"
								},
								{
									"internalType": "string",
									"name": "job",
									"type": "string"
								}
							],
							"internalType": "struct Ex5_7.Human",
							"name": "",
							"type": "tuple"
						}
					],
					"stateMutability": "view",
					"type": "function"
				},
				{
					"inputs": [],
					"name": "getHuman2",
					"outputs": [
						{
							"components": [
								{
									"internalType": "string",
									"name": "name",
									"type": "string"
								},
								{
									"internalType": "uint256",
									"name": "age",
									"type": "uint256"
								},
								{
									"internalType": "string",
									"name": "job",
									"type": "string"
								}
							],
							"internalType": "struct Ex5_7.Human",
							"name": "",
							"type": "tuple"
						}
					],
					"stateMutability": "view",
					"type": "function"
				},
				{
					"inputs": [],
					"name": "getNamenHuman1",
					"outputs": [
						{
							"internalType": "string",
							"name": "",
							"type": "string"
						}
					],
					"stateMutability": "view",
					"type": "function"
				},
				{
					"inputs": [],
					"name": "human1",
					"outputs": [
						{
							"internalType": "string",
							"name": "name",
							"type": "string"
						},
						{
							"internalType": "uint256",
							"name": "age",
							"type": "uint256"
						},
						{
							"internalType": "string",
							"name": "job",
							"type": "string"
						}
					],
					"stateMutability": "view",
					"type": "function"
				},
				{
					"inputs": [],
					"name": "human2",
					"outputs": [
						{
							"internalType": "string",
							"name": "name",
							"type": "string"
						},
						{
							"internalType": "uint256",
							"name": "age",
							"type": "uint256"
						},
						{
							"internalType": "string",
							"name": "job",
							"type": "string"
						}
					],
					"stateMutability": "view",
					"type": "function"
				},
				{
					"inputs": [
						{
							"internalType": "string",
							"name": "_name",
							"type": "string"
						},
						{
							"internalType": "uint256",
							"name": "_age",
							"type": "uint256"
						},
						{
							"internalType": "string",
							"name": "_job",
							"type": "string"
						}
					],
					"name": "initializeHuman2",
					"outputs": [],
					"stateMutability": "nonpayable",
					"type": "function"
				}
			],
			"devdoc": {
				"kind": "dev",
				"methods": {},
				"version": 1
			},
			"evm": {
				"assembly": "    /* \"5\\xec\\x9e\\xa5_\\xeb\\xa7\\xa4\\xed\\x95\\x91,\\xeb\\xb0\\xb0\\xec\\x97\\xb4,\\xea\\xb5\\xac\\xec\\xa1\\xb0\\xec\\xb2\\xb4/5_7.sol\":102:812  contract Ex5_7{... */\n  mstore(0x40, 0x80)\n    /* \"5\\xec\\x9e\\xa5_\\xeb\\xa7\\xa4\\xed\\x95\\x91,\\xeb\\xb0\\xb0\\xec\\x97\\xb4,\\xea\\xb5\\xac\\xec\\xa1\\xb0\\xec\\xb2\\xb4/5_7.sol\":235:260  Human(\"ploy\",25,\"artist\") */\n  mload(0x40)\n  dup1\n  0x60\n  add\n  0x40\n  mstore\n  dup1\n  mload(0x40)\n  dup1\n  0x40\n  add\n  0x40\n  mstore\n  dup1\n  0x04\n  dup2\n  mstore\n  0x20\n  add\n  0x706c6f7900000000000000000000000000000000000000000000000000000000\n  dup2\n  mstore\n  pop\n  dup2\n  mstore\n  0x20\n  add\n    /* \"5\\xec\\x9e\\xa5_\\xeb\\xa7\\xa4\\xed\\x95\\x91,\\xeb\\xb0\\xb0\\xec\\x97\\xb4,\\xea\\xb5\\xac\\xec\\xa1\\xb0\\xec\\xb2\\xb4/5_7.sol\":248:250  25 */\n  0x19\n    /* \"5\\xec\\x9e\\xa5_\\xeb\\xa7\\xa4\\xed\\x95\\x91,\\xeb\\xb0\\xb0\\xec\\x97\\xb4,\\xea\\xb5\\xac\\xec\\xa1\\xb0\\xec\\xb2\\xb4/5_7.sol\":235:260  Human(\"ploy\",25,\"artist\") */\n  dup2\n  mstore\n  0x20\n  add\n  mload(0x40)\n  dup1\n  0x40\n  add\n  0x40\n  mstore\n  dup1\n  0x06\n  dup2\n  mstore\n  0x20\n  add\n  0x6172746973740000000000000000000000000000000000000000000000000000\n  dup2\n  mstore\n  pop\n  dup2\n  mstore\n  pop\n    /* \"5\\xec\\x9e\\xa5_\\xeb\\xa7\\xa4\\xed\\x95\\x91,\\xeb\\xb0\\xb0\\xec\\x97\\xb4,\\xea\\xb5\\xac\\xec\\xa1\\xb0\\xec\\xb2\\xb4/5_7.sol\":213:260  Human public human1 = Human(\"ploy\",25,\"artist\") */\n  0x00\n  dup1\n  dup3\n  add\n  mload\n  dup2\n  0x00\n  add\n  swap1\n  dup2\n  tag_1\n  swap2\n  swap1\n  tag_2\n  jump\t// in\ntag_1:\n  pop\n  0x20\n  dup3\n  add\n  mload\n  dup2\n  0x01\n  add\n  sstore\n  0x40\n  dup3\n  add\n  mload\n  dup2\n  0x02\n  add\n  swap1\n  dup2\n  tag_3\n  swap2\n  swap1\n  tag_2\n  jump\t// in\ntag_3:\n  pop\n  pop\n  pop\n    /* \"5\\xec\\x9e\\xa5_\\xeb\\xa7\\xa4\\xed\\x95\\x91,\\xeb\\xb0\\xb0\\xec\\x97\\xb4,\\xea\\xb5\\xac\\xec\\xa1\\xb0\\xec\\xb2\\xb4/5_7.sol\":102:812  contract Ex5_7{... */\n  callvalue\n  dup1\n  iszero\n  tag_4\n  jumpi\n  0x00\n  dup1\n  revert\ntag_4:\n  pop\n  jump(tag_5)\n    /* \"#utility.yul\":7:106   */\ntag_6:\n    /* \"#utility.yul\":59:65   */\n  0x00\n    /* \"#utility.yul\":93:98   */\n  dup2\n    /* \"#utility.yul\":87:99   */\n  mload\n    /* \"#utility.yul\":77:99   */\n  swap1\n  pop\n    /* \"#utility.yul\":7:106   */\n  swap2\n  swap1\n  pop\n  jump\t// out\n    /* \"#utility.yul\":112:292   */\ntag_7:\n    /* \"#utility.yul\":160:237   */\n  0x4e487b7100000000000000000000000000000000000000000000000000000000\n    /* \"#utility.yul\":157:158   */\n  0x00\n    /* \"#utility.yul\":150:238   */\n  mstore\n    /* \"#utility.yul\":257:261   */\n  0x41\n    /* \"#utility.yul\":254:255   */\n  0x04\n    /* \"#utility.yul\":247:262   */\n  mstore\n    /* \"#utility.yul\":281:285   */\n  0x24\n    /* \"#utility.yul\":278:279   */\n  0x00\n    /* \"#utility.yul\":271:286   */\n  revert\n    /* \"#utility.yul\":298:478   */\ntag_8:\n    /* \"#utility.yul\":346:423   */\n  0x4e487b7100000000000000000000000000000000000000000000000000000000\n    /* \"#utility.yul\":343:344   */\n  0x00\n    /* \"#utility.yul\":336:424   */\n  mstore\n    /* \"#utility.yul\":443:447   */\n  0x22\n    /* \"#utility.yul\":440:441   */\n  0x04\n    /* \"#utility.yul\":433:448   */\n  mstore\n    /* \"#utility.yul\":467:471   */\n  0x24\n    /* \"#utility.yul\":464:465   */\n  0x00\n    /* \"#utility.yul\":457:472   */\n  revert\n    /* \"#utility.yul\":484:804   */\ntag_9:\n    /* \"#utility.yul\":528:534   */\n  0x00\n    /* \"#utility.yul\":565:566   */\n  0x02\n    /* \"#utility.yul\":559:563   */\n  dup3\n    /* \"#utility.yul\":555:567   */\n  div\n    /* \"#utility.yul\":545:567   */\n  swap1\n  pop\n    /* \"#utility.yul\":612:613   */\n  0x01\n    /* \"#utility.yul\":606:610   */\n  dup3\n    /* \"#utility.yul\":602:614   */\n  and\n    /* \"#utility.yul\":633:651   */\n  dup1\n    /* \"#utility.yul\":623:704   */\n  tag_31\n  jumpi\n    /* \"#utility.yul\":689:693   */\n  0x7f\n    /* \"#utility.yul\":681:687   */\n  dup3\n    /* \"#utility.yul\":677:694   */\n  and\n    /* \"#utility.yul\":667:694   */\n  swap2\n  pop\n    /* \"#utility.yul\":623:704   */\ntag_31:\n    /* \"#utility.yul\":751:753   */\n  0x20\n    /* \"#utility.yul\":743:749   */\n  dup3\n    /* \"#utility.yul\":740:754   */\n  lt\n    /* \"#utility.yul\":720:738   */\n  dup2\n    /* \"#utility.yul\":717:755   */\n  sub\n    /* \"#utility.yul\":714:798   */\n  tag_32\n  jumpi\n    /* \"#utility.yul\":770:788   */\n  tag_33\n  tag_8\n  jump\t// in\ntag_33:\n    /* \"#utility.yul\":714:798   */\ntag_32:\n    /* \"#utility.yul\":535:804   */\n  pop\n    /* \"#utility.yul\":484:804   */\n  swap2\n  swap1\n  pop\n  jump\t// out\n    /* \"#utility.yul\":810:951   */\ntag_10:\n    /* \"#utility.yul\":859:863   */\n  0x00\n    /* \"#utility.yul\":882:885   */\n  dup2\n    /* \"#utility.yul\":874:885   */\n  swap1\n  pop\n    /* \"#utility.yul\":905:908   */\n  dup2\n    /* \"#utility.yul\":902:903   */\n  0x00\n    /* \"#utility.yul\":895:909   */\n  mstore\n    /* \"#utility.yul\":939:943   */\n  0x20\n    /* \"#utility.yul\":936:937   */\n  0x00\n    /* \"#utility.yul\":926:944   */\n  keccak256\n    /* \"#utility.yul\":918:944   */\n  swap1\n  pop\n    /* \"#utility.yul\":810:951   */\n  swap2\n  swap1\n  pop\n  jump\t// out\n    /* \"#utility.yul\":957:1050   */\ntag_11:\n    /* \"#utility.yul\":994:1000   */\n  0x00\n    /* \"#utility.yul\":1041:1043   */\n  0x20\n    /* \"#utility.yul\":1036:1038   */\n  0x1f\n    /* \"#utility.yul\":1029:1034   */\n  dup4\n    /* \"#utility.yul\":1025:1039   */\n  add\n    /* \"#utility.yul\":1021:1044   */\n  div\n    /* \"#utility.yul\":1011:1044   */\n  swap1\n  pop\n    /* \"#utility.yul\":957:1050   */\n  swap2\n  swap1\n  pop\n  jump\t// out\n    /* \"#utility.yul\":1056:1163   */\ntag_12:\n    /* \"#utility.yul\":1100:1108   */\n  0x00\n    /* \"#utility.yul\":1150:1155   */\n  dup3\n    /* \"#utility.yul\":1144:1148   */\n  dup3\n    /* \"#utility.yul\":1140:1156   */\n  shl\n    /* \"#utility.yul\":1119:1156   */\n  swap1\n  pop\n    /* \"#utility.yul\":1056:1163   */\n  swap3\n  swap2\n  pop\n  pop\n  jump\t// out\n    /* \"#utility.yul\":1169:1562   */\ntag_13:\n    /* \"#utility.yul\":1238:1244   */\n  0x00\n    /* \"#utility.yul\":1288:1289   */\n  0x08\n    /* \"#utility.yul\":1276:1286   */\n  dup4\n    /* \"#utility.yul\":1272:1290   */\n  mul\n    /* \"#utility.yul\":1311:1408   */\n  tag_38\n    /* \"#utility.yul\":1341:1407   */\n  0xffffffffffffffffffffffffffffffffffffffffffffffffffffffffffffffff\n    /* \"#utility.yul\":1330:1339   */\n  dup3\n    /* \"#utility.yul\":1311:1408   */\n  tag_12\n  jump\t// in\ntag_38:\n    /* \"#utility.yul\":1429:1468   */\n  tag_39\n    /* \"#utility.yul\":1459:1467   */\n  dup7\n    /* \"#utility.yul\":1448:1457   */\n  dup4\n    /* \"#utility.yul\":1429:1468   */\n  tag_12\n  jump\t// in\ntag_39:\n    /* \"#utility.yul\":1417:1468   */\n  swap6\n  pop\n    /* \"#utility.yul\":1501:1505   */\n  dup1\n    /* \"#utility.yul\":1497:1506   */\n  not\n    /* \"#utility.yul\":1490:1495   */\n  dup5\n    /* \"#utility.yul\":1486:1507   */\n  and\n    /* \"#utility.yul\":1477:1507   */\n  swap4\n  pop\n    /* \"#utility.yul\":1550:1554   */\n  dup1\n    /* \"#utility.yul\":1540:1548   */\n  dup7\n    /* \"#utility.yul\":1536:1555   */\n  and\n    /* \"#utility.yul\":1529:1534   */\n  dup5\n    /* \"#utility.yul\":1526:1556   */\n  or\n    /* \"#utility.yul\":1516:1556   */\n  swap3\n  pop\n    /* \"#utility.yul\":1245:1562   */\n  pop\n  pop\n    /* \"#utility.yul\":1169:1562   */\n  swap4\n  swap3\n  pop\n  pop\n  pop\n  jump\t// out\n    /* \"#utility.yul\":1568:1645   */\ntag_14:\n    /* \"#utility.yul\":1605:1612   */\n  0x00\n    /* \"#utility.yul\":1634:1639   */\n  dup2\n    /* \"#utility.yul\":1623:1639   */\n  swap1\n  pop\n    /* \"#utility.yul\":1568:1645   */\n  swap2\n  swap1\n  pop\n  jump\t// out\n    /* \"#utility.yul\":1651:1711   */\ntag_15:\n    /* \"#utility.yul\":1679:1682   */\n  0x00\n    /* \"#utility.yul\":1700:1705   */\n  dup2\n    /* \"#utility.yul\":1693:1705   */\n  swap1\n  pop\n    /* \"#utility.yul\":1651:1711   */\n  swap2\n  swap1\n  pop\n  jump\t// out\n    /* \"#utility.yul\":1717:1859   */\ntag_16:\n    /* \"#utility.yul\":1767:1776   */\n  0x00\n    /* \"#utility.yul\":1800:1853   */\n  tag_43\n    /* \"#utility.yul\":1818:1852   */\n  tag_44\n    /* \"#utility.yul\":1827:1851   */\n  tag_45\n    /* \"#utility.yul\":1845:1850   */\n  dup5\n    /* \"#utility.yul\":1827:1851   */\n  tag_14\n  jump\t// in\ntag_45:\n    /* \"#utility.yul\":1818:1852   */\n  tag_15\n  jump\t// in\ntag_44:\n    /* \"#utility.yul\":1800:1853   */\n  tag_14\n  jump\t// in\ntag_43:\n    /* \"#utility.yul\":1787:1853   */\n  swap1\n  pop\n    /* \"#utility.yul\":1717:1859   */\n  swap2\n  swap1\n  pop\n  jump\t// out\n    /* \"#utility.yul\":1865:1940   */\ntag_17:\n    /* \"#utility.yul\":1908:1911   */\n  0x00\n    /* \"#utility.yul\":1929:1934   */\n  dup2\n    /* \"#utility.yul\":1922:1934   */\n  swap1\n  pop\n    /* \"#utility.yul\":1865:1940   */\n  swap2\n  swap1\n  pop\n  jump\t// out\n    /* \"#utility.yul\":1946:2215   */\ntag_18:\n    /* \"#utility.yul\":2056:2095   */\n  tag_48\n    /* \"#utility.yul\":2087:2094   */\n  dup4\n    /* \"#utility.yul\":2056:2095   */\n  tag_16\n  jump\t// in\ntag_48:\n    /* \"#utility.yul\":2117:2208   */\n  tag_49\n    /* \"#utility.yul\":2166:2207   */\n  tag_50\n    /* \"#utility.yul\":2190:2206   */\n  dup3\n    /* \"#utility.yul\":2166:2207   */\n  tag_17\n  jump\t// in\ntag_50:\n    /* \"#utility.yul\":2158:2164   */\n  dup5\n    /* \"#utility.yul\":2151:2155   */\n  dup5\n    /* \"#utility.yul\":2145:2156   */\n  sload\n    /* \"#utility.yul\":2117:2208   */\n  tag_13\n  jump\t// in\ntag_49:\n    /* \"#utility.yul\":2111:2115   */\n  dup3\n    /* \"#utility.yul\":2104:2209   */\n  sstore\n    /* \"#utility.yul\":2022:2215   */\n  pop\n    /* \"#utility.yul\":1946:2215   */\n  pop\n  pop\n  pop\n  jump\t// out\n    /* \"#utility.yul\":2221:2294   */\ntag_19:\n    /* \"#utility.yul\":2266:2269   */\n  0x00\n    /* \"#utility.yul\":2221:2294   */\n  swap1\n  jump\t// out\n    /* \"#utility.yul\":2300:2489   */\ntag_20:\n    /* \"#utility.yul\":2377:2409   */\n  tag_53\n  tag_19\n  jump\t// in\ntag_53:\n    /* \"#utility.yul\":2418:2483   */\n  tag_54\n    /* \"#utility.yul\":2476:2482   */\n  dup2\n    /* \"#utility.yul\":2468:2474   */\n  dup5\n    /* \"#utility.yul\":2462:2466   */\n  dup5\n    /* \"#utility.yul\":2418:2483   */\n  tag_18\n  jump\t// in\ntag_54:\n    /* \"#utility.yul\":2353:2489   */\n  pop\n    /* \"#utility.yul\":2300:2489   */\n  pop\n  pop\n  jump\t// out\n    /* \"#utility.yul\":2495:2681   */\ntag_21:\n    /* \"#utility.yul\":2555:2675   */\ntag_56:\n    /* \"#utility.yul\":2572:2575   */\n  dup2\n    /* \"#utility.yul\":2565:2570   */\n  dup2\n    /* \"#utility.yul\":2562:2576   */\n  lt\n    /* \"#utility.yul\":2555:2675   */\n  iszero\n  tag_58\n  jumpi\n    /* \"#utility.yul\":2626:2665   */\n  tag_59\n    /* \"#utility.yul\":2663:2664   */\n  0x00\n    /* \"#utility.yul\":2656:2661   */\n  dup3\n    /* \"#utility.yul\":2626:2665   */\n  tag_20\n  jump\t// in\ntag_59:\n    /* \"#utility.yul\":2599:2600   */\n  0x01\n    /* \"#utility.yul\":2592:2597   */\n  dup2\n    /* \"#utility.yul\":2588:2601   */\n  add\n    /* \"#utility.yul\":2579:2601   */\n  swap1\n  pop\n    /* \"#utility.yul\":2555:2675   */\n  jump(tag_56)\ntag_58:\n    /* \"#utility.yul\":2495:2681   */\n  pop\n  pop\n  jump\t// out\n    /* \"#utility.yul\":2687:3230   */\ntag_22:\n    /* \"#utility.yul\":2788:2790   */\n  0x1f\n    /* \"#utility.yul\":2783:2786   */\n  dup3\n    /* \"#utility.yul\":2780:2791   */\n  gt\n    /* \"#utility.yul\":2777:3223   */\n  iszero\n  tag_61\n  jumpi\n    /* \"#utility.yul\":2822:2860   */\n  tag_62\n    /* \"#utility.yul\":2854:2859   */\n  dup2\n    /* \"#utility.yul\":2822:2860   */\n  tag_10\n  jump\t// in\ntag_62:\n    /* \"#utility.yul\":2906:2935   */\n  tag_63\n    /* \"#utility.yul\":2924:2934   */\n  dup5\n    /* \"#utility.yul\":2906:2935   */\n  tag_11\n  jump\t// in\ntag_63:\n    /* \"#utility.yul\":2896:2904   */\n  dup2\n    /* \"#utility.yul\":2892:2936   */\n  add\n    /* \"#utility.yul\":3089:3091   */\n  0x20\n    /* \"#utility.yul\":3077:3087   */\n  dup6\n    /* \"#utility.yul\":3074:3092   */\n  lt\n    /* \"#utility.yul\":3071:3120   */\n  iszero\n  tag_64\n  jumpi\n    /* \"#utility.yul\":3110:3118   */\n  dup2\n    /* \"#utility.yul\":3095:3118   */\n  swap1\n  pop\n    /* \"#utility.yul\":3071:3120   */\ntag_64:\n    /* \"#utility.yul\":3133:3213   */\n  tag_65\n    /* \"#utility.yul\":3189:3211   */\n  tag_66\n    /* \"#utility.yul\":3207:3210   */\n  dup6\n    /* \"#utility.yul\":3189:3211   */\n  tag_11\n  jump\t// in\ntag_66:\n    /* \"#utility.yul\":3179:3187   */\n  dup4\n    /* \"#utility.yul\":3175:3212   */\n  add\n    /* \"#utility.yul\":3162:3173   */\n  dup3\n    /* \"#utility.yul\":3133:3213   */\n  tag_21\n  jump\t// in\ntag_65:\n    /* \"#utility.yul\":2792:3223   */\n  pop\n  pop\n    /* \"#utility.yul\":2777:3223   */\ntag_61:\n    /* \"#utility.yul\":2687:3230   */\n  pop\n  pop\n  pop\n  jump\t// out\n    /* \"#utility.yul\":3236:3353   */\ntag_23:\n    /* \"#utility.yul\":3290:3298   */\n  0x00\n    /* \"#utility.yul\":3340:3345   */\n  dup3\n    /* \"#utility.yul\":3334:3338   */\n  dup3\n    /* \"#utility.yul\":3330:3346   */\n  shr\n    /* \"#utility.yul\":3309:3346   */\n  swap1\n  pop\n    /* \"#utility.yul\":3236:3353   */\n  swap3\n  swap2\n  pop\n  pop\n  jump\t// out\n    /* \"#utility.yul\":3359:3528   */\ntag_24:\n    /* \"#utility.yul\":3403:3409   */\n  0x00\n    /* \"#utility.yul\":3436:3487   */\n  tag_69\n    /* \"#utility.yul\":3484:3485   */\n  0x00\n    /* \"#utility.yul\":3480:3486   */\n  not\n    /* \"#utility.yul\":3472:3477   */\n  dup5\n    /* \"#utility.yul\":3469:3470   */\n  0x08\n    /* \"#utility.yul\":3465:3478   */\n  mul\n    /* \"#utility.yul\":3436:3487   */\n  tag_23\n  jump\t// in\ntag_69:\n    /* \"#utility.yul\":3432:3488   */\n  not\n    /* \"#utility.yul\":3517:3521   */\n  dup1\n    /* \"#utility.yul\":3511:3515   */\n  dup4\n    /* \"#utility.yul\":3507:3522   */\n  and\n    /* \"#utility.yul\":3497:3522   */\n  swap2\n  pop\n    /* \"#utility.yul\":3410:3528   */\n  pop\n    /* \"#utility.yul\":3359:3528   */\n  swap3\n  swap2\n  pop\n  pop\n  jump\t// out\n    /* \"#utility.yul\":3533:3828   */\ntag_25:\n    /* \"#utility.yul\":3609:3613   */\n  0x00\n    /* \"#utility.yul\":3755:3784   */\n  tag_71\n    /* \"#utility.yul\":3780:3783   */\n  dup4\n    /* \"#utility.yul\":3774:3778   */\n  dup4\n    /* \"#utility.yul\":3755:3784   */\n  tag_24\n  jump\t// in\ntag_71:\n    /* \"#utility.yul\":3747:3784   */\n  swap2\n  pop\n    /* \"#utility.yul\":3817:3820   */\n  dup3\n    /* \"#utility.yul\":3814:3815   */\n  0x02\n    /* \"#utility.yul\":3810:3821   */\n  mul\n    /* \"#utility.yul\":3804:3808   */\n  dup3\n    /* \"#utility.yul\":3801:3822   */\n  or\n    /* \"#utility.yul\":3793:3822   */\n  swap1\n  pop\n    /* \"#utility.yul\":3533:3828   */\n  swap3\n  swap2\n  pop\n  pop\n  jump\t// out\n    /* \"#utility.yul\":3833:5228   */\ntag_2:\n    /* \"#utility.yul\":3950:3987   */\n  tag_73\n    /* \"#utility.yul\":3983:3986   */\n  dup3\n    /* \"#utility.yul\":3950:3987   */\n  tag_6\n  jump\t// in\ntag_73:\n    /* \"#utility.yul\":4052:4070   */\n  0xffffffffffffffff\n    /* \"#utility.yul\":4044:4050   */\n  dup2\n    /* \"#utility.yul\":4041:4071   */\n  gt\n    /* \"#utility.yul\":4038:4094   */\n  iszero\n  tag_74\n  jumpi\n    /* \"#utility.yul\":4074:4092   */\n  tag_75\n  tag_7\n  jump\t// in\ntag_75:\n    /* \"#utility.yul\":4038:4094   */\ntag_74:\n    /* \"#utility.yul\":4118:4156   */\n  tag_76\n    /* \"#utility.yul\":4150:4154   */\n  dup3\n    /* \"#utility.yul\":4144:4155   */\n  sload\n    /* \"#utility.yul\":4118:4156   */\n  tag_9\n  jump\t// in\ntag_76:\n    /* \"#utility.yul\":4203:4270   */\n  tag_77\n    /* \"#utility.yul\":4263:4269   */\n  dup3\n    /* \"#utility.yul\":4255:4261   */\n  dup3\n    /* \"#utility.yul\":4249:4253   */\n  dup6\n    /* \"#utility.yul\":4203:4270   */\n  tag_22\n  jump\t// in\ntag_77:\n    /* \"#utility.yul\":4297:4298   */\n  0x00\n    /* \"#utility.yul\":4321:4325   */\n  0x20\n    /* \"#utility.yul\":4308:4325   */\n  swap1\n  pop\n    /* \"#utility.yul\":4353:4355   */\n  0x1f\n    /* \"#utility.yul\":4345:4351   */\n  dup4\n    /* \"#utility.yul\":4342:4356   */\n  gt\n    /* \"#utility.yul\":4370:4371   */\n  0x01\n    /* \"#utility.yul\":4365:4983   */\n  dup2\n  eq\n  tag_79\n  jumpi\n    /* \"#utility.yul\":5027:5028   */\n  0x00\n    /* \"#utility.yul\":5044:5050   */\n  dup5\n    /* \"#utility.yul\":5041:5118   */\n  iszero\n  tag_80\n  jumpi\n    /* \"#utility.yul\":5093:5102   */\n  dup3\n    /* \"#utility.yul\":5088:5091   */\n  dup8\n    /* \"#utility.yul\":5084:5103   */\n  add\n    /* \"#utility.yul\":5078:5104   */\n  mload\n    /* \"#utility.yul\":5069:5104   */\n  swap1\n  pop\n    /* \"#utility.yul\":5041:5118   */\ntag_80:\n    /* \"#utility.yul\":5144:5211   */\n  tag_81\n    /* \"#utility.yul\":5204:5210   */\n  dup6\n    /* \"#utility.yul\":5197:5202   */\n  dup3\n    /* \"#utility.yul\":5144:5211   */\n  tag_25\n  jump\t// in\ntag_81:\n    /* \"#utility.yul\":5138:5142   */\n  dup7\n    /* \"#utility.yul\":5131:5212   */\n  sstore\n    /* \"#utility.yul\":5000:5222   */\n  pop\n    /* \"#utility.yul\":4335:5222   */\n  jump(tag_78)\n    /* \"#utility.yul\":4365:4983   */\ntag_79:\n    /* \"#utility.yul\":4417:4421   */\n  0x1f\n    /* \"#utility.yul\":4413:4422   */\n  not\n    /* \"#utility.yul\":4405:4411   */\n  dup5\n    /* \"#utility.yul\":4401:4423   */\n  and\n    /* \"#utility.yul\":4451:4488   */\n  tag_82\n    /* \"#utility.yul\":4483:4487   */\n  dup7\n    /* \"#utility.yul\":4451:4488   */\n  tag_10\n  jump\t// in\ntag_82:\n    /* \"#utility.yul\":4510:4511   */\n  0x00\n    /* \"#utility.yul\":4524:4732   */\ntag_83:\n    /* \"#utility.yul\":4538:4545   */\n  dup3\n    /* \"#utility.yul\":4535:4536   */\n  dup2\n    /* \"#utility.yul\":4532:4546   */\n  lt\n    /* \"#utility.yul\":4524:4732   */\n  iszero\n  tag_85\n  jumpi\n    /* \"#utility.yul\":4617:4626   */\n  dup5\n    /* \"#utility.yul\":4612:4615   */\n  dup10\n    /* \"#utility.yul\":4608:4627   */\n  add\n    /* \"#utility.yul\":4602:4628   */\n  mload\n    /* \"#utility.yul\":4594:4600   */\n  dup3\n    /* \"#utility.yul\":4587:4629   */\n  sstore\n    /* \"#utility.yul\":4668:4669   */\n  0x01\n    /* \"#utility.yul\":4660:4666   */\n  dup3\n    /* \"#utility.yul\":4656:4670   */\n  add\n    /* \"#utility.yul\":4646:4670   */\n  swap2\n  pop\n    /* \"#utility.yul\":4715:4717   */\n  0x20\n    /* \"#utility.yul\":4704:4713   */\n  dup6\n    /* \"#utility.yul\":4700:4718   */\n  add\n    /* \"#utility.yul\":4687:4718   */\n  swap5\n  pop\n    /* \"#utility.yul\":4561:4565   */\n  0x20\n    /* \"#utility.yul\":4558:4559   */\n  dup2\n    /* \"#utility.yul\":4554:4566   */\n  add\n    /* \"#utility.yul\":4549:4566   */\n  swap1\n  pop\n    /* \"#utility.yul\":4524:4732   */\n  jump(tag_83)\ntag_85:\n    /* \"#utility.yul\":4760:4766   */\n  dup7\n    /* \"#utility.yul\":4751:4758   */\n  dup4\n    /* \"#utility.yul\":4748:4767   */\n  lt\n    /* \"#utility.yul\":4745:4924   */\n  iszero\n  tag_86\n  jumpi\n    /* \"#utility.yul\":4818:4827   */\n  dup5\n    /* \"#utility.yul\":4813:4816   */\n  dup10\n    /* \"#utility.yul\":4809:4828   */\n  add\n    /* \"#utility.yul\":4803:4829   */\n  mload\n    /* \"#utility.yul\":4861:4909   */\n  tag_87\n    /* \"#utility.yul\":4903:4907   */\n  0x1f\n    /* \"#utility.yul\":4895:4901   */\n  dup10\n    /* \"#utility.yul\":4891:4908   */\n  and\n    /* \"#utility.yul\":4880:4889   */\n  dup3\n    /* \"#utility.yul\":4861:4909   */\n  tag_24\n  jump\t// in\ntag_87:\n    /* \"#utility.yul\":4853:4859   */\n  dup4\n    /* \"#utility.yul\":4846:4910   */\n  sstore\n    /* \"#utility.yul\":4768:4924   */\n  pop\n    /* \"#utility.yul\":4745:4924   */\ntag_86:\n    /* \"#utility.yul\":4970:4971   */\n  0x01\n    /* \"#utility.yul\":4966:4967   */\n  0x02\n    /* \"#utility.yul\":4958:4964   */\n  dup9\n    /* \"#utility.yul\":4954:4968   */\n  mul\n    /* \"#utility.yul\":4950:4972   */\n  add\n    /* \"#utility.yul\":4944:4948   */\n  dup9\n    /* \"#utility.yul\":4937:4973   */\n  sstore\n    /* \"#utility.yul\":4372:4983   */\n  pop\n  pop\n  pop\n    /* \"#utility.yul\":4335:5222   */\ntag_78:\n  pop\n    /* \"#utility.yul\":3925:5228   */\n  pop\n  pop\n  pop\n    /* \"#utility.yul\":3833:5228   */\n  pop\n  pop\n  jump\t// out\n    /* \"5\\xec\\x9e\\xa5_\\xeb\\xa7\\xa4\\xed\\x95\\x91,\\xeb\\xb0\\xb0\\xec\\x97\\xb4,\\xea\\xb5\\xac\\xec\\xa1\\xb0\\xec\\xb2\\xb4/5_7.sol\":102:812  contract Ex5_7{... */\ntag_5:\n  dataSize(sub_0)\n  dup1\n  dataOffset(sub_0)\n  0x00\n  codecopy\n  0x00\n  return\nstop\n\nsub_0: assembly {\n        /* \"5\\xec\\x9e\\xa5_\\xeb\\xa7\\xa4\\xed\\x95\\x91,\\xeb\\xb0\\xb0\\xec\\x97\\xb4,\\xea\\xb5\\xac\\xec\\xa1\\xb0\\xec\\xb2\\xb4/5_7.sol\":102:812  contract Ex5_7{... */\n      mstore(0x40, 0x80)\n      callvalue\n      dup1\n      iszero\n      tag_1\n      jumpi\n      0x00\n      dup1\n      revert\n    tag_1:\n      pop\n      jumpi(tag_2, lt(calldatasize, 0x04))\n      shr(0xe0, calldataload(0x00))\n      dup1\n      0x757f29c6\n      gt\n      tag_10\n      jumpi\n      dup1\n      0x757f29c6\n      eq\n      tag_6\n      jumpi\n      dup1\n      0xae5e1170\n      eq\n      tag_7\n      jumpi\n      dup1\n      0xaf2dd4d4\n      eq\n      tag_8\n      jumpi\n      dup1\n      0xddd6016c\n      eq\n      tag_9\n      jumpi\n      jump(tag_2)\n    tag_10:\n      dup1\n      0x0a9a0533\n      eq\n      tag_3\n      jumpi\n      dup1\n      0x396466b7\n      eq\n      tag_4\n      jumpi\n      dup1\n      0x427156f3\n      eq\n      tag_5\n      jumpi\n    tag_2:\n      0x00\n      dup1\n      revert\n        /* \"5\\xec\\x9e\\xa5_\\xeb\\xa7\\xa4\\xed\\x95\\x91,\\xeb\\xb0\\xb0\\xec\\x97\\xb4,\\xea\\xb5\\xac\\xec\\xa1\\xb0\\xec\\xb2\\xb4/5_7.sol\":712:809  function getNamenHuman1() public view returns(string memory){... */\n    tag_3:\n      tag_11\n      tag_12\n      jump\t// in\n    tag_11:\n      mload(0x40)\n      tag_13\n      swap2\n      swap1\n      tag_14\n      jump\t// in\n    tag_13:\n      mload(0x40)\n      dup1\n      swap2\n      sub\n      swap1\n      return\n        /* \"5\\xec\\x9e\\xa5_\\xeb\\xa7\\xa4\\xed\\x95\\x91,\\xeb\\xb0\\xb0\\xec\\x97\\xb4,\\xea\\xb5\\xac\\xec\\xa1\\xb0\\xec\\xb2\\xb4/5_7.sol\":267:286  Human public human2 */\n    tag_4:\n      tag_15\n      tag_16\n      jump\t// in\n    tag_15:\n      mload(0x40)\n      tag_17\n      swap4\n      swap3\n      swap2\n      swap1\n      tag_18\n      jump\t// in\n    tag_17:\n      mload(0x40)\n      dup1\n      swap2\n      sub\n      swap1\n      return\n        /* \"5\\xec\\x9e\\xa5_\\xeb\\xa7\\xa4\\xed\\x95\\x91,\\xeb\\xb0\\xb0\\xec\\x97\\xb4,\\xea\\xb5\\xac\\xec\\xa1\\xb0\\xec\\xb2\\xb4/5_7.sol\":295:381  function getHuman1() public view returns(Human memory){... */\n    tag_5:\n      tag_19\n      tag_20\n      jump\t// in\n    tag_19:\n      mload(0x40)\n      tag_21\n      swap2\n      swap1\n      tag_22\n      jump\t// in\n    tag_21:\n      mload(0x40)\n      dup1\n      swap2\n      sub\n      swap1\n      return\n        /* \"5\\xec\\x9e\\xa5_\\xeb\\xa7\\xa4\\xed\\x95\\x91,\\xeb\\xb0\\xb0\\xec\\x97\\xb4,\\xea\\xb5\\xac\\xec\\xa1\\xb0\\xec\\xb2\\xb4/5_7.sol\":387:473  function getHuman2() public view returns(Human memory){... */\n    tag_6:\n      tag_23\n      tag_24\n      jump\t// in\n    tag_23:\n      mload(0x40)\n      tag_25\n      swap2\n      swap1\n      tag_22\n      jump\t// in\n    tag_25:\n      mload(0x40)\n      dup1\n      swap2\n      sub\n      swap1\n      return\n        /* \"5\\xec\\x9e\\xa5_\\xeb\\xa7\\xa4\\xed\\x95\\x91,\\xeb\\xb0\\xb0\\xec\\x97\\xb4,\\xea\\xb5\\xac\\xec\\xa1\\xb0\\xec\\xb2\\xb4/5_7.sol\":213:260  Human public human1 = Human(\"ploy\",25,\"artist\") */\n    tag_7:\n      tag_26\n      tag_27\n      jump\t// in\n    tag_26:\n      mload(0x40)\n      tag_28\n      swap4\n      swap3\n      swap2\n      swap1\n      tag_18\n      jump\t// in\n    tag_28:\n      mload(0x40)\n      dup1\n      swap2\n      sub\n      swap1\n      return\n        /* \"5\\xec\\x9e\\xa5_\\xeb\\xa7\\xa4\\xed\\x95\\x91,\\xeb\\xb0\\xb0\\xec\\x97\\xb4,\\xea\\xb5\\xac\\xec\\xa1\\xb0\\xec\\xb2\\xb4/5_7.sol\":479:614  function initializeHuman2(string memory _name, uint _age, string memory _job) public {... */\n    tag_8:\n      tag_29\n      0x04\n      dup1\n      calldatasize\n      sub\n      dup2\n      add\n      swap1\n      tag_30\n      swap2\n      swap1\n      tag_31\n      jump\t// in\n    tag_30:\n      tag_32\n      jump\t// in\n    tag_29:\n      stop\n        /* \"5\\xec\\x9e\\xa5_\\xeb\\xa7\\xa4\\xed\\x95\\x91,\\xeb\\xb0\\xb0\\xec\\x97\\xb4,\\xea\\xb5\\xac\\xec\\xa1\\xb0\\xec\\xb2\\xb4/5_7.sol\":620:706  function changeJobHuman1(string memory _job) public {... */\n    tag_9:\n      tag_33\n      0x04\n      dup1\n      calldatasize\n      sub\n      dup2\n      add\n      swap1\n      tag_34\n      swap2\n      swap1\n      tag_35\n      jump\t// in\n    tag_34:\n      tag_36\n      jump\t// in\n    tag_33:\n      stop\n        /* \"5\\xec\\x9e\\xa5_\\xeb\\xa7\\xa4\\xed\\x95\\x91,\\xeb\\xb0\\xb0\\xec\\x97\\xb4,\\xea\\xb5\\xac\\xec\\xa1\\xb0\\xec\\xb2\\xb4/5_7.sol\":712:809  function getNamenHuman1() public view returns(string memory){... */\n    tag_12:\n        /* \"5\\xec\\x9e\\xa5_\\xeb\\xa7\\xa4\\xed\\x95\\x91,\\xeb\\xb0\\xb0\\xec\\x97\\xb4,\\xea\\xb5\\xac\\xec\\xa1\\xb0\\xec\\xb2\\xb4/5_7.sol\":758:771  string memory */\n      0x60\n        /* \"5\\xec\\x9e\\xa5_\\xeb\\xa7\\xa4\\xed\\x95\\x91,\\xeb\\xb0\\xb0\\xec\\x97\\xb4,\\xea\\xb5\\xac\\xec\\xa1\\xb0\\xec\\xb2\\xb4/5_7.sol\":790:796  human1 */\n      0x00\n        /* \"5\\xec\\x9e\\xa5_\\xeb\\xa7\\xa4\\xed\\x95\\x91,\\xeb\\xb0\\xb0\\xec\\x97\\xb4,\\xea\\xb5\\xac\\xec\\xa1\\xb0\\xec\\xb2\\xb4/5_7.sol\":790:801  human1.name */\n      dup1\n      add\n        /* \"5\\xec\\x9e\\xa5_\\xeb\\xa7\\xa4\\xed\\x95\\x91,\\xeb\\xb0\\xb0\\xec\\x97\\xb4,\\xea\\xb5\\xac\\xec\\xa1\\xb0\\xec\\xb2\\xb4/5_7.sol\":783:801  return human1.name */\n      dup1\n      sload\n      tag_38\n      swap1\n      tag_39\n      jump\t// in\n    tag_38:\n      dup1\n      0x1f\n      add\n      0x20\n      dup1\n      swap2\n      div\n      mul\n      0x20\n      add\n      mload(0x40)\n      swap1\n      dup2\n      add\n      0x40\n      mstore\n      dup1\n      swap3\n      swap2\n      swap1\n      dup2\n      dup2\n      mstore\n      0x20\n      add\n      dup3\n      dup1\n      sload\n      tag_40\n      swap1\n      tag_39\n      jump\t// in\n    tag_40:\n      dup1\n      iszero\n      tag_41\n      jumpi\n      dup1\n      0x1f\n      lt\n      tag_42\n      jumpi\n      0x0100\n      dup1\n      dup4\n      sload\n      div\n      mul\n      dup4\n      mstore\n      swap2\n      0x20\n      add\n      swap2\n      jump(tag_41)\n    tag_42:\n      dup3\n      add\n      swap2\n      swap1\n      0x00\n      mstore\n      keccak256(0x00, 0x20)\n      swap1\n    tag_43:\n      dup2\n      sload\n      dup2\n      mstore\n      swap1\n      0x01\n      add\n      swap1\n      0x20\n      add\n      dup1\n      dup4\n      gt\n      tag_43\n      jumpi\n      dup3\n      swap1\n      sub\n      0x1f\n      and\n      dup3\n      add\n      swap2\n    tag_41:\n      pop\n      pop\n      pop\n      pop\n      pop\n      swap1\n      pop\n        /* \"5\\xec\\x9e\\xa5_\\xeb\\xa7\\xa4\\xed\\x95\\x91,\\xeb\\xb0\\xb0\\xec\\x97\\xb4,\\xea\\xb5\\xac\\xec\\xa1\\xb0\\xec\\xb2\\xb4/5_7.sol\":712:809  function getNamenHuman1() public view returns(string memory){... */\n      swap1\n      jump\t// out\n        /* \"5\\xec\\x9e\\xa5_\\xeb\\xa7\\xa4\\xed\\x95\\x91,\\xeb\\xb0\\xb0\\xec\\x97\\xb4,\\xea\\xb5\\xac\\xec\\xa1\\xb0\\xec\\xb2\\xb4/5_7.sol\":267:286  Human public human2 */\n    tag_16:\n      0x03\n      dup1\n      0x00\n      add\n      dup1\n      sload\n      tag_44\n      swap1\n      tag_39\n      jump\t// in\n    tag_44:\n      dup1\n      0x1f\n      add\n      0x20\n      dup1\n      swap2\n      div\n      mul\n      0x20\n      add\n      mload(0x40)\n      swap1\n      dup2\n      add\n      0x40\n      mstore\n      dup1\n      swap3\n      swap2\n      swap1\n      dup2\n      dup2\n      mstore\n      0x20\n      add\n      dup3\n      dup1\n      sload\n      tag_45\n      swap1\n      tag_39\n      jump\t// in\n    tag_45:\n      dup1\n      iszero\n      tag_46\n      jumpi\n      dup1\n      0x1f\n      lt\n      tag_47\n      jumpi\n      0x0100\n      dup1\n      dup4\n      sload\n      div\n      mul\n      dup4\n      mstore\n      swap2\n      0x20\n      add\n      swap2\n      jump(tag_46)\n    tag_47:\n      dup3\n      add\n      swap2\n      swap1\n      0x00\n      mstore\n      keccak256(0x00, 0x20)\n      swap1\n    tag_48:\n      dup2\n      sload\n      dup2\n      mstore\n      swap1\n      0x01\n      add\n      swap1\n      0x20\n      add\n      dup1\n      dup4\n      gt\n      tag_48\n      jumpi\n      dup3\n      swap1\n      sub\n      0x1f\n      and\n      dup3\n      add\n      swap2\n    tag_46:\n      pop\n      pop\n      pop\n      pop\n      pop\n      swap1\n      dup1\n      0x01\n      add\n      sload\n      swap1\n      dup1\n      0x02\n      add\n      dup1\n      sload\n      tag_49\n      swap1\n      tag_39\n      jump\t// in\n    tag_49:\n      dup1\n      0x1f\n      add\n      0x20\n      dup1\n      swap2\n      div\n      mul\n      0x20\n      add\n      mload(0x40)\n      swap1\n      dup2\n      add\n      0x40\n      mstore\n      dup1\n      swap3\n      swap2\n      swap1\n      dup2\n      dup2\n      mstore\n      0x20\n      add\n      dup3\n      dup1\n      sload\n      tag_50\n      swap1\n      tag_39\n      jump\t// in\n    tag_50:\n      dup1\n      iszero\n      tag_51\n      jumpi\n      dup1\n      0x1f\n      lt\n      tag_52\n      jumpi\n      0x0100\n      dup1\n      dup4\n      sload\n      div\n      mul\n      dup4\n      mstore\n      swap2\n      0x20\n      add\n      swap2\n      jump(tag_51)\n    tag_52:\n      dup3\n      add\n      swap2\n      swap1\n      0x00\n      mstore\n      keccak256(0x00, 0x20)\n      swap1\n    tag_53:\n      dup2\n      sload\n      dup2\n      mstore\n      swap1\n      0x01\n      add\n      swap1\n      0x20\n      add\n      dup1\n      dup4\n      gt\n      tag_53\n      jumpi\n      dup3\n      swap1\n      sub\n      0x1f\n      and\n      dup3\n      add\n      swap2\n    tag_51:\n      pop\n      pop\n      pop\n      pop\n      pop\n      swap1\n      pop\n      dup4\n      jump\t// out\n        /* \"5\\xec\\x9e\\xa5_\\xeb\\xa7\\xa4\\xed\\x95\\x91,\\xeb\\xb0\\xb0\\xec\\x97\\xb4,\\xea\\xb5\\xac\\xec\\xa1\\xb0\\xec\\xb2\\xb4/5_7.sol\":295:381  function getHuman1() public view returns(Human memory){... */\n    tag_20:\n        /* \"5\\xec\\x9e\\xa5_\\xeb\\xa7\\xa4\\xed\\x95\\x91,\\xeb\\xb0\\xb0\\xec\\x97\\xb4,\\xea\\xb5\\xac\\xec\\xa1\\xb0\\xec\\xb2\\xb4/5_7.sol\":336:348  Human memory */\n      tag_54\n      tag_55\n      jump\t// in\n    tag_54:\n        /* \"5\\xec\\x9e\\xa5_\\xeb\\xa7\\xa4\\xed\\x95\\x91,\\xeb\\xb0\\xb0\\xec\\x97\\xb4,\\xea\\xb5\\xac\\xec\\xa1\\xb0\\xec\\xb2\\xb4/5_7.sol\":367:373  human1 */\n      0x00\n        /* \"5\\xec\\x9e\\xa5_\\xeb\\xa7\\xa4\\xed\\x95\\x91,\\xeb\\xb0\\xb0\\xec\\x97\\xb4,\\xea\\xb5\\xac\\xec\\xa1\\xb0\\xec\\xb2\\xb4/5_7.sol\":360:373  return human1 */\n      mload(0x40)\n      dup1\n      0x60\n      add\n      0x40\n      mstore\n      swap1\n      dup2\n      0x00\n      dup3\n      add\n      dup1\n      sload\n      tag_57\n      swap1\n      tag_39\n      jump\t// in\n    tag_57:\n      dup1\n      0x1f\n      add\n      0x20\n      dup1\n      swap2\n      div\n      mul\n      0x20\n      add\n      mload(0x40)\n      swap1\n      dup2\n      add\n      0x40\n      mstore\n      dup1\n      swap3\n      swap2\n      swap1\n      dup2\n      dup2\n      mstore\n      0x20\n      add\n      dup3\n      dup1\n      sload\n      tag_58\n      swap1\n      tag_39\n      jump\t// in\n    tag_58:\n      dup1\n      iszero\n      tag_59\n      jumpi\n      dup1\n      0x1f\n      lt\n      tag_60\n      jumpi\n      0x0100\n      dup1\n      dup4\n      sload\n      div\n      mul\n      dup4\n      mstore\n      swap2\n      0x20\n      add\n      swap2\n      jump(tag_59)\n    tag_60:\n      dup3\n      add\n      swap2\n      swap1\n      0x00\n      mstore\n      keccak256(0x00, 0x20)\n      swap1\n    tag_61:\n      dup2\n      sload\n      dup2\n      mstore\n      swap1\n      0x01\n      add\n      swap1\n      0x20\n      add\n      dup1\n      dup4\n      gt\n      tag_61\n      jumpi\n      dup3\n      swap1\n      sub\n      0x1f\n      and\n      dup3\n      add\n      swap2\n    tag_59:\n      pop\n      pop\n      pop\n      pop\n      pop\n      dup2\n      mstore\n      0x20\n      add\n      0x01\n      dup3\n      add\n      sload\n      dup2\n      mstore\n      0x20\n      add\n      0x02\n      dup3\n      add\n      dup1\n      sload\n      tag_62\n      swap1\n      tag_39\n      jump\t// in\n    tag_62:\n      dup1\n      0x1f\n      add\n      0x20\n      dup1\n      swap2\n      div\n      mul\n      0x20\n      add\n      mload(0x40)\n      swap1\n      dup2\n      add\n      0x40\n      mstore\n      dup1\n      swap3\n      swap2\n      swap1\n      dup2\n      dup2\n      mstore\n      0x20\n      add\n      dup3\n      dup1\n      sload\n      tag_63\n      swap1\n      tag_39\n      jump\t// in\n    tag_63:\n      dup1\n      iszero\n      tag_64\n      jumpi\n      dup1\n      0x1f\n      lt\n      tag_65\n      jumpi\n      0x0100\n      dup1\n      dup4\n      sload\n      div\n      mul\n      dup4\n      mstore\n      swap2\n      0x20\n      add\n      swap2\n      jump(tag_64)\n    tag_65:\n      dup3\n      add\n      swap2\n      swap1\n      0x00\n      mstore\n      keccak256(0x00, 0x20)\n      swap1\n    tag_66:\n      dup2\n      sload\n      dup2\n      mstore\n      swap1\n      0x01\n      add\n      swap1\n      0x20\n      add\n      dup1\n      dup4\n      gt\n      tag_66\n      jumpi\n      dup3\n      swap1\n      sub\n      0x1f\n      and\n      dup3\n      add\n      swap2\n    tag_64:\n      pop\n      pop\n      pop\n      pop\n      pop\n      dup2\n      mstore\n      pop\n      pop\n      swap1\n      pop\n        /* \"5\\xec\\x9e\\xa5_\\xeb\\xa7\\xa4\\xed\\x95\\x91,\\xeb\\xb0\\xb0\\xec\\x97\\xb4,\\xea\\xb5\\xac\\xec\\xa1\\xb0\\xec\\xb2\\xb4/5_7.sol\":295:381  function getHuman1() public view returns(Human memory){... */\n      swap1\n      jump\t// out\n        /* \"5\\xec\\x9e\\xa5_\\xeb\\xa7\\xa4\\xed\\x95\\x91,\\xeb\\xb0\\xb0\\xec\\x97\\xb4,\\xea\\xb5\\xac\\xec\\xa1\\xb0\\xec\\xb2\\xb4/5_7.sol\":387:473  function getHuman2() public view returns(Human memory){... */\n    tag_24:\n        /* \"5\\xec\\x9e\\xa5_\\xeb\\xa7\\xa4\\xed\\x95\\x91,\\xeb\\xb0\\xb0\\xec\\x97\\xb4,\\xea\\xb5\\xac\\xec\\xa1\\xb0\\xec\\xb2\\xb4/5_7.sol\":428:440  Human memory */\n      tag_67\n      tag_55\n      jump\t// in\n    tag_67:\n        /* \"5\\xec\\x9e\\xa5_\\xeb\\xa7\\xa4\\xed\\x95\\x91,\\xeb\\xb0\\xb0\\xec\\x97\\xb4,\\xea\\xb5\\xac\\xec\\xa1\\xb0\\xec\\xb2\\xb4/5_7.sol\":459:465  human2 */\n      0x03\n        /* \"5\\xec\\x9e\\xa5_\\xeb\\xa7\\xa4\\xed\\x95\\x91,\\xeb\\xb0\\xb0\\xec\\x97\\xb4,\\xea\\xb5\\xac\\xec\\xa1\\xb0\\xec\\xb2\\xb4/5_7.sol\":452:465  return human2 */\n      mload(0x40)\n      dup1\n      0x60\n      add\n      0x40\n      mstore\n      swap1\n      dup2\n      0x00\n      dup3\n      add\n      dup1\n      sload\n      tag_69\n      swap1\n      tag_39\n      jump\t// in\n    tag_69:\n      dup1\n      0x1f\n      add\n      0x20\n      dup1\n      swap2\n      div\n      mul\n      0x20\n      add\n      mload(0x40)\n      swap1\n      dup2\n      add\n      0x40\n      mstore\n      dup1\n      swap3\n      swap2\n      swap1\n      dup2\n      dup2\n      mstore\n      0x20\n      add\n      dup3\n      dup1\n      sload\n      tag_70\n      swap1\n      tag_39\n      jump\t// in\n    tag_70:\n      dup1\n      iszero\n      tag_71\n      jumpi\n      dup1\n      0x1f\n      lt\n      tag_72\n      jumpi\n      0x0100\n      dup1\n      dup4\n      sload\n      div\n      mul\n      dup4\n      mstore\n      swap2\n      0x20\n      add\n      swap2\n      jump(tag_71)\n    tag_72:\n      dup3\n      add\n      swap2\n      swap1\n      0x00\n      mstore\n      keccak256(0x00, 0x20)\n      swap1\n    tag_73:\n      dup2\n      sload\n      dup2\n      mstore\n      swap1\n      0x01\n      add\n      swap1\n      0x20\n      add\n      dup1\n      dup4\n      gt\n      tag_73\n      jumpi\n      dup3\n      swap1\n      sub\n      0x1f\n      and\n      dup3\n      add\n      swap2\n    tag_71:\n      pop\n      pop\n      pop\n      pop\n      pop\n      dup2\n      mstore\n      0x20\n      add\n      0x01\n      dup3\n      add\n      sload\n      dup2\n      mstore\n      0x20\n      add\n      0x02\n      dup3\n      add\n      dup1\n      sload\n      tag_74\n      swap1\n      tag_39\n      jump\t// in\n    tag_74:\n      dup1\n      0x1f\n      add\n      0x20\n      dup1\n      swap2\n      div\n      mul\n      0x20\n      add\n      mload(0x40)\n      swap1\n      dup2\n      add\n      0x40\n      mstore\n      dup1\n      swap3\n      swap2\n      swap1\n      dup2\n      dup2\n      mstore\n      0x20\n      add\n      dup3\n      dup1\n      sload\n      tag_75\n      swap1\n      tag_39\n      jump\t// in\n    tag_75:\n      dup1\n      iszero\n      tag_76\n      jumpi\n      dup1\n      0x1f\n      lt\n      tag_77\n      jumpi\n      0x0100\n      dup1\n      dup4\n      sload\n      div\n      mul\n      dup4\n      mstore\n      swap2\n      0x20\n      add\n      swap2\n      jump(tag_76)\n    tag_77:\n      dup3\n      add\n      swap2\n      swap1\n      0x00\n      mstore\n      keccak256(0x00, 0x20)\n      swap1\n    tag_78:\n      dup2\n      sload\n      dup2\n      mstore\n      swap1\n      0x01\n      add\n      swap1\n      0x20\n      add\n      dup1\n      dup4\n      gt\n      tag_78\n      jumpi\n      dup3\n      swap1\n      sub\n      0x1f\n      and\n      dup3\n      add\n      swap2\n    tag_76:\n      pop\n      pop\n      pop\n      pop\n      pop\n      dup2\n      mstore\n      pop\n      pop\n      swap1\n      pop\n        /* \"5\\xec\\x9e\\xa5_\\xeb\\xa7\\xa4\\xed\\x95\\x91,\\xeb\\xb0\\xb0\\xec\\x97\\xb4,\\xea\\xb5\\xac\\xec\\xa1\\xb0\\xec\\xb2\\xb4/5_7.sol\":387:473  function getHuman2() public view returns(Human memory){... */\n      swap1\n      jump\t// out\n        /* \"5\\xec\\x9e\\xa5_\\xeb\\xa7\\xa4\\xed\\x95\\x91,\\xeb\\xb0\\xb0\\xec\\x97\\xb4,\\xea\\xb5\\xac\\xec\\xa1\\xb0\\xec\\xb2\\xb4/5_7.sol\":213:260  Human public human1 = Human(\"ploy\",25,\"artist\") */\n    tag_27:\n      0x00\n      dup1\n      0x00\n      add\n      dup1\n      sload\n      tag_79\n      swap1\n      tag_39\n      jump\t// in\n    tag_79:\n      dup1\n      0x1f\n      add\n      0x20\n      dup1\n      swap2\n      div\n      mul\n      0x20\n      add\n      mload(0x40)\n      swap1\n      dup2\n      add\n      0x40\n      mstore\n      dup1\n      swap3\n      swap2\n      swap1\n      dup2\n      dup2\n      mstore\n      0x20\n      add\n      dup3\n      dup1\n      sload\n      tag_80\n      swap1\n      tag_39\n      jump\t// in\n    tag_80:\n      dup1\n      iszero\n      tag_81\n      jumpi\n      dup1\n      0x1f\n      lt\n      tag_82\n      jumpi\n      0x0100\n      dup1\n      dup4\n      sload\n      div\n      mul\n      dup4\n      mstore\n      swap2\n      0x20\n      add\n      swap2\n      jump(tag_81)\n    tag_82:\n      dup3\n      add\n      swap2\n      swap1\n      0x00\n      mstore\n      keccak256(0x00, 0x20)\n      swap1\n    tag_83:\n      dup2\n      sload\n      dup2\n      mstore\n      swap1\n      0x01\n      add\n      swap1\n      0x20\n      add\n      dup1\n      dup4\n      gt\n      tag_83\n      jumpi\n      dup3\n      swap1\n      sub\n      0x1f\n      and\n      dup3\n      add\n      swap2\n    tag_81:\n      pop\n      pop\n      pop\n      pop\n      pop\n      swap1\n      dup1\n      0x01\n      add\n      sload\n      swap1\n      dup1\n      0x02\n      add\n      dup1\n      sload\n      tag_84\n      swap1\n      tag_39\n      jump\t// in\n    tag_84:\n      dup1\n      0x1f\n      add\n      0x20\n      dup1\n      swap2\n      div\n      mul\n      0x20\n      add\n      mload(0x40)\n      swap1\n      dup2\n      add\n      0x40\n      mstore\n      dup1\n      swap3\n      swap2\n      swap1\n      dup2\n      dup2\n      mstore\n      0x20\n      add\n      dup3\n      dup1\n      sload\n      tag_85\n      swap1\n      tag_39\n      jump\t// in\n    tag_85:\n      dup1\n      iszero\n      tag_86\n      jumpi\n      dup1\n      0x1f\n      lt\n      tag_87\n      jumpi\n      0x0100\n      dup1\n      dup4\n      sload\n      div\n      mul\n      dup4\n      mstore\n      swap2\n      0x20\n      add\n      swap2\n      jump(tag_86)\n    tag_87:\n      dup3\n      add\n      swap2\n      swap1\n      0x00\n      mstore\n      keccak256(0x00, 0x20)\n      swap1\n    tag_88:\n      dup2\n      sload\n      dup2\n      mstore\n      swap1\n      0x01\n      add\n      swap1\n      0x20\n      add\n      dup1\n      dup4\n      gt\n      tag_88\n      jumpi\n      dup3\n      swap1\n      sub\n      0x1f\n      and\n      dup3\n      add\n      swap2\n    tag_86:\n      pop\n      pop\n      pop\n      pop\n      pop\n      swap1\n      pop\n      dup4\n      jump\t// out\n        /* \"5\\xec\\x9e\\xa5_\\xeb\\xa7\\xa4\\xed\\x95\\x91,\\xeb\\xb0\\xb0\\xec\\x97\\xb4,\\xea\\xb5\\xac\\xec\\xa1\\xb0\\xec\\xb2\\xb4/5_7.sol\":479:614  function initializeHuman2(string memory _name, uint _age, string memory _job) public {... */\n    tag_32:\n        /* \"5\\xec\\x9e\\xa5_\\xeb\\xa7\\xa4\\xed\\x95\\x91,\\xeb\\xb0\\xb0\\xec\\x97\\xb4,\\xea\\xb5\\xac\\xec\\xa1\\xb0\\xec\\xb2\\xb4/5_7.sol\":584:606  Human(_name,_age,_job) */\n      mload(0x40)\n      dup1\n      0x60\n      add\n      0x40\n      mstore\n      dup1\n        /* \"5\\xec\\x9e\\xa5_\\xeb\\xa7\\xa4\\xed\\x95\\x91,\\xeb\\xb0\\xb0\\xec\\x97\\xb4,\\xea\\xb5\\xac\\xec\\xa1\\xb0\\xec\\xb2\\xb4/5_7.sol\":590:595  _name */\n      dup5\n        /* \"5\\xec\\x9e\\xa5_\\xeb\\xa7\\xa4\\xed\\x95\\x91,\\xeb\\xb0\\xb0\\xec\\x97\\xb4,\\xea\\xb5\\xac\\xec\\xa1\\xb0\\xec\\xb2\\xb4/5_7.sol\":584:606  Human(_name,_age,_job) */\n      dup2\n      mstore\n      0x20\n      add\n        /* \"5\\xec\\x9e\\xa5_\\xeb\\xa7\\xa4\\xed\\x95\\x91,\\xeb\\xb0\\xb0\\xec\\x97\\xb4,\\xea\\xb5\\xac\\xec\\xa1\\xb0\\xec\\xb2\\xb4/5_7.sol\":596:600  _age */\n      dup4\n        /* \"5\\xec\\x9e\\xa5_\\xeb\\xa7\\xa4\\xed\\x95\\x91,\\xeb\\xb0\\xb0\\xec\\x97\\xb4,\\xea\\xb5\\xac\\xec\\xa1\\xb0\\xec\\xb2\\xb4/5_7.sol\":584:606  Human(_name,_age,_job) */\n      dup2\n      mstore\n      0x20\n      add\n        /* \"5\\xec\\x9e\\xa5_\\xeb\\xa7\\xa4\\xed\\x95\\x91,\\xeb\\xb0\\xb0\\xec\\x97\\xb4,\\xea\\xb5\\xac\\xec\\xa1\\xb0\\xec\\xb2\\xb4/5_7.sol\":601:605  _job */\n      dup3\n        /* \"5\\xec\\x9e\\xa5_\\xeb\\xa7\\xa4\\xed\\x95\\x91,\\xeb\\xb0\\xb0\\xec\\x97\\xb4,\\xea\\xb5\\xac\\xec\\xa1\\xb0\\xec\\xb2\\xb4/5_7.sol\":584:606  Human(_name,_age,_job) */\n      dup2\n      mstore\n      pop\n        /* \"5\\xec\\x9e\\xa5_\\xeb\\xa7\\xa4\\xed\\x95\\x91,\\xeb\\xb0\\xb0\\xec\\x97\\xb4,\\xea\\xb5\\xac\\xec\\xa1\\xb0\\xec\\xb2\\xb4/5_7.sol\":575:581  human2 */\n      0x03\n        /* \"5\\xec\\x9e\\xa5_\\xeb\\xa7\\xa4\\xed\\x95\\x91,\\xeb\\xb0\\xb0\\xec\\x97\\xb4,\\xea\\xb5\\xac\\xec\\xa1\\xb0\\xec\\xb2\\xb4/5_7.sol\":575:606  human2 = Human(_name,_age,_job) */\n      0x00\n      dup3\n      add\n      mload\n      dup2\n      0x00\n      add\n      swap1\n      dup2\n      tag_90\n      swap2\n      swap1\n      tag_91\n      jump\t// in\n    tag_90:\n      pop\n      0x20\n      dup3\n      add\n      mload\n      dup2\n      0x01\n      add\n      sstore\n      0x40\n      dup3\n      add\n      mload\n      dup2\n      0x02\n      add\n      swap1\n      dup2\n      tag_92\n      swap2\n      swap1\n      tag_91\n      jump\t// in\n    tag_92:\n      pop\n      swap1\n      pop\n      pop\n        /* \"5\\xec\\x9e\\xa5_\\xeb\\xa7\\xa4\\xed\\x95\\x91,\\xeb\\xb0\\xb0\\xec\\x97\\xb4,\\xea\\xb5\\xac\\xec\\xa1\\xb0\\xec\\xb2\\xb4/5_7.sol\":479:614  function initializeHuman2(string memory _name, uint _age, string memory _job) public {... */\n      pop\n      pop\n      pop\n      jump\t// out\n        /* \"5\\xec\\x9e\\xa5_\\xeb\\xa7\\xa4\\xed\\x95\\x91,\\xeb\\xb0\\xb0\\xec\\x97\\xb4,\\xea\\xb5\\xac\\xec\\xa1\\xb0\\xec\\xb2\\xb4/5_7.sol\":620:706  function changeJobHuman1(string memory _job) public {... */\n    tag_36:\n        /* \"5\\xec\\x9e\\xa5_\\xeb\\xa7\\xa4\\xed\\x95\\x91,\\xeb\\xb0\\xb0\\xec\\x97\\xb4,\\xea\\xb5\\xac\\xec\\xa1\\xb0\\xec\\xb2\\xb4/5_7.sol\":694:698  _job */\n      dup1\n        /* \"5\\xec\\x9e\\xa5_\\xeb\\xa7\\xa4\\xed\\x95\\x91,\\xeb\\xb0\\xb0\\xec\\x97\\xb4,\\xea\\xb5\\xac\\xec\\xa1\\xb0\\xec\\xb2\\xb4/5_7.sol\":683:689  human1 */\n      0x00\n        /* \"5\\xec\\x9e\\xa5_\\xeb\\xa7\\xa4\\xed\\x95\\x91,\\xeb\\xb0\\xb0\\xec\\x97\\xb4,\\xea\\xb5\\xac\\xec\\xa1\\xb0\\xec\\xb2\\xb4/5_7.sol\":683:693  human1.job */\n      0x02\n      add\n        /* \"5\\xec\\x9e\\xa5_\\xeb\\xa7\\xa4\\xed\\x95\\x91,\\xeb\\xb0\\xb0\\xec\\x97\\xb4,\\xea\\xb5\\xac\\xec\\xa1\\xb0\\xec\\xb2\\xb4/5_7.sol\":683:698  human1.job=_job */\n      swap1\n      dup2\n      tag_94\n      swap2\n      swap1\n      tag_91\n      jump\t// in\n    tag_94:\n      pop\n        /* \"5\\xec\\x9e\\xa5_\\xeb\\xa7\\xa4\\xed\\x95\\x91,\\xeb\\xb0\\xb0\\xec\\x97\\xb4,\\xea\\xb5\\xac\\xec\\xa1\\xb0\\xec\\xb2\\xb4/5_7.sol\":620:706  function changeJobHuman1(string memory _job) public {... */\n      pop\n      jump\t// out\n    tag_55:\n      mload(0x40)\n      dup1\n      0x60\n      add\n      0x40\n      mstore\n      dup1\n      0x60\n      dup2\n      mstore\n      0x20\n      add\n      0x00\n      dup2\n      mstore\n      0x20\n      add\n      0x60\n      dup2\n      mstore\n      pop\n      swap1\n      jump\t// out\n        /* \"#utility.yul\":7:106   */\n    tag_95:\n        /* \"#utility.yul\":59:65   */\n      0x00\n        /* \"#utility.yul\":93:98   */\n      dup2\n        /* \"#utility.yul\":87:99   */\n      mload\n        /* \"#utility.yul\":77:99   */\n      swap1\n      pop\n        /* \"#utility.yul\":7:106   */\n      swap2\n      swap1\n      pop\n      jump\t// out\n        /* \"#utility.yul\":112:281   */\n    tag_96:\n        /* \"#utility.yul\":196:207   */\n      0x00\n        /* \"#utility.yul\":230:236   */\n      dup3\n        /* \"#utility.yul\":225:228   */\n      dup3\n        /* \"#utility.yul\":218:237   */\n      mstore\n        /* \"#utility.yul\":270:274   */\n      0x20\n        /* \"#utility.yul\":265:268   */\n      dup3\n        /* \"#utility.yul\":261:275   */\n      add\n        /* \"#utility.yul\":246:275   */\n      swap1\n      pop\n        /* \"#utility.yul\":112:281   */\n      swap3\n      swap2\n      pop\n      pop\n      jump\t// out\n        /* \"#utility.yul\":287:533   */\n    tag_97:\n        /* \"#utility.yul\":368:369   */\n      0x00\n        /* \"#utility.yul\":378:491   */\n    tag_140:\n        /* \"#utility.yul\":392:398   */\n      dup4\n        /* \"#utility.yul\":389:390   */\n      dup2\n        /* \"#utility.yul\":386:399   */\n      lt\n        /* \"#utility.yul\":378:491   */\n      iszero\n      tag_142\n      jumpi\n        /* \"#utility.yul\":477:478   */\n      dup1\n        /* \"#utility.yul\":472:475   */\n      dup3\n        /* \"#utility.yul\":468:479   */\n      add\n        /* \"#utility.yul\":462:480   */\n      mload\n        /* \"#utility.yul\":458:459   */\n      dup2\n        /* \"#utility.yul\":453:456   */\n      dup5\n        /* \"#utility.yul\":449:460   */\n      add\n        /* \"#utility.yul\":442:481   */\n      mstore\n        /* \"#utility.yul\":414:416   */\n      0x20\n        /* \"#utility.yul\":411:412   */\n      dup2\n        /* \"#utility.yul\":407:417   */\n      add\n        /* \"#utility.yul\":402:417   */\n      swap1\n      pop\n        /* \"#utility.yul\":378:491   */\n      jump(tag_140)\n    tag_142:\n        /* \"#utility.yul\":525:526   */\n      0x00\n        /* \"#utility.yul\":516:522   */\n      dup5\n        /* \"#utility.yul\":511:514   */\n      dup5\n        /* \"#utility.yul\":507:523   */\n      add\n        /* \"#utility.yul\":500:527   */\n      mstore\n        /* \"#utility.yul\":349:533   */\n      pop\n        /* \"#utility.yul\":287:533   */\n      pop\n      pop\n      pop\n      jump\t// out\n        /* \"#utility.yul\":539:641   */\n    tag_98:\n        /* \"#utility.yul\":580:586   */\n      0x00\n        /* \"#utility.yul\":631:633   */\n      0x1f\n        /* \"#utility.yul\":627:634   */\n      not\n        /* \"#utility.yul\":622:624   */\n      0x1f\n        /* \"#utility.yul\":615:620   */\n      dup4\n        /* \"#utility.yul\":611:625   */\n      add\n        /* \"#utility.yul\":607:635   */\n      and\n        /* \"#utility.yul\":597:635   */\n      swap1\n      pop\n        /* \"#utility.yul\":539:641   */\n      swap2\n      swap1\n      pop\n      jump\t// out\n        /* \"#utility.yul\":647:1024   */\n    tag_99:\n        /* \"#utility.yul\":735:738   */\n      0x00\n        /* \"#utility.yul\":763:802   */\n      tag_145\n        /* \"#utility.yul\":796:801   */\n      dup3\n        /* \"#utility.yul\":763:802   */\n      tag_95\n      jump\t// in\n    tag_145:\n        /* \"#utility.yul\":818:889   */\n      tag_146\n        /* \"#utility.yul\":882:888   */\n      dup2\n        /* \"#utility.yul\":877:880   */\n      dup6\n        /* \"#utility.yul\":818:889   */\n      tag_96\n      jump\t// in\n    tag_146:\n        /* \"#utility.yul\":811:889   */\n      swap4\n      pop\n        /* \"#utility.yul\":898:963   */\n      tag_147\n        /* \"#utility.yul\":956:962   */\n      dup2\n        /* \"#utility.yul\":951:954   */\n      dup6\n        /* \"#utility.yul\":944:948   */\n      0x20\n        /* \"#utility.yul\":937:942   */\n      dup7\n        /* \"#utility.yul\":933:949   */\n      add\n        /* \"#utility.yul\":898:963   */\n      tag_97\n      jump\t// in\n    tag_147:\n        /* \"#utility.yul\":988:1017   */\n      tag_148\n        /* \"#utility.yul\":1010:1016   */\n      dup2\n        /* \"#utility.yul\":988:1017   */\n      tag_98\n      jump\t// in\n    tag_148:\n        /* \"#utility.yul\":983:986   */\n      dup5\n        /* \"#utility.yul\":979:1018   */\n      add\n        /* \"#utility.yul\":972:1018   */\n      swap2\n      pop\n        /* \"#utility.yul\":739:1024   */\n      pop\n        /* \"#utility.yul\":647:1024   */\n      swap3\n      swap2\n      pop\n      pop\n      jump\t// out\n        /* \"#utility.yul\":1030:1343   */\n    tag_14:\n        /* \"#utility.yul\":1143:1147   */\n      0x00\n        /* \"#utility.yul\":1181:1183   */\n      0x20\n        /* \"#utility.yul\":1170:1179   */\n      dup3\n        /* \"#utility.yul\":1166:1184   */\n      add\n        /* \"#utility.yul\":1158:1184   */\n      swap1\n      pop\n        /* \"#utility.yul\":1230:1239   */\n      dup2\n        /* \"#utility.yul\":1224:1228   */\n      dup2\n        /* \"#utility.yul\":1220:1240   */\n      sub\n        /* \"#utility.yul\":1216:1217   */\n      0x00\n        /* \"#utility.yul\":1205:1214   */\n      dup4\n        /* \"#utility.yul\":1201:1218   */\n      add\n        /* \"#utility.yul\":1194:1241   */\n      mstore\n        /* \"#utility.yul\":1258:1336   */\n      tag_150\n        /* \"#utility.yul\":1331:1335   */\n      dup2\n        /* \"#utility.yul\":1322:1328   */\n      dup5\n        /* \"#utility.yul\":1258:1336   */\n      tag_99\n      jump\t// in\n    tag_150:\n        /* \"#utility.yul\":1250:1336   */\n      swap1\n      pop\n        /* \"#utility.yul\":1030:1343   */\n      swap3\n      swap2\n      pop\n      pop\n      jump\t// out\n        /* \"#utility.yul\":1349:1426   */\n    tag_100:\n        /* \"#utility.yul\":1386:1393   */\n      0x00\n        /* \"#utility.yul\":1415:1420   */\n      dup2\n        /* \"#utility.yul\":1404:1420   */\n      swap1\n      pop\n        /* \"#utility.yul\":1349:1426   */\n      swap2\n      swap1\n      pop\n      jump\t// out\n        /* \"#utility.yul\":1432:1550   */\n    tag_101:\n        /* \"#utility.yul\":1519:1543   */\n      tag_153\n        /* \"#utility.yul\":1537:1542   */\n      dup2\n        /* \"#utility.yul\":1519:1543   */\n      tag_100\n      jump\t// in\n    tag_153:\n        /* \"#utility.yul\":1514:1517   */\n      dup3\n        /* \"#utility.yul\":1507:1544   */\n      mstore\n        /* \"#utility.yul\":1432:1550   */\n      pop\n      pop\n      jump\t// out\n        /* \"#utility.yul\":1556:2180   */\n    tag_18:\n        /* \"#utility.yul\":1745:1749   */\n      0x00\n        /* \"#utility.yul\":1783:1785   */\n      0x60\n        /* \"#utility.yul\":1772:1781   */\n      dup3\n        /* \"#utility.yul\":1768:1786   */\n      add\n        /* \"#utility.yul\":1760:1786   */\n      swap1\n      pop\n        /* \"#utility.yul\":1832:1841   */\n      dup2\n        /* \"#utility.yul\":1826:1830   */\n      dup2\n        /* \"#utility.yul\":1822:1842   */\n      sub\n        /* \"#utility.yul\":1818:1819   */\n      0x00\n        /* \"#utility.yul\":1807:1816   */\n      dup4\n        /* \"#utility.yul\":1803:1820   */\n      add\n        /* \"#utility.yul\":1796:1843   */\n      mstore\n        /* \"#utility.yul\":1860:1938   */\n      tag_155\n        /* \"#utility.yul\":1933:1937   */\n      dup2\n        /* \"#utility.yul\":1924:1930   */\n      dup7\n        /* \"#utility.yul\":1860:1938   */\n      tag_99\n      jump\t// in\n    tag_155:\n        /* \"#utility.yul\":1852:1938   */\n      swap1\n      pop\n        /* \"#utility.yul\":1948:2020   */\n      tag_156\n        /* \"#utility.yul\":2016:2018   */\n      0x20\n        /* \"#utility.yul\":2005:2014   */\n      dup4\n        /* \"#utility.yul\":2001:2019   */\n      add\n        /* \"#utility.yul\":1992:1998   */\n      dup6\n        /* \"#utility.yul\":1948:2020   */\n      tag_101\n      jump\t// in\n    tag_156:\n        /* \"#utility.yul\":2067:2076   */\n      dup2\n        /* \"#utility.yul\":2061:2065   */\n      dup2\n        /* \"#utility.yul\":2057:2077   */\n      sub\n        /* \"#utility.yul\":2052:2054   */\n      0x40\n        /* \"#utility.yul\":2041:2050   */\n      dup4\n        /* \"#utility.yul\":2037:2055   */\n      add\n        /* \"#utility.yul\":2030:2078   */\n      mstore\n        /* \"#utility.yul\":2095:2173   */\n      tag_157\n        /* \"#utility.yul\":2168:2172   */\n      dup2\n        /* \"#utility.yul\":2159:2165   */\n      dup5\n        /* \"#utility.yul\":2095:2173   */\n      tag_99\n      jump\t// in\n    tag_157:\n        /* \"#utility.yul\":2087:2173   */\n      swap1\n      pop\n        /* \"#utility.yul\":1556:2180   */\n      swap5\n      swap4\n      pop\n      pop\n      pop\n      pop\n      jump\t// out\n        /* \"#utility.yul\":2186:2345   */\n    tag_102:\n        /* \"#utility.yul\":2260:2271   */\n      0x00\n        /* \"#utility.yul\":2294:2300   */\n      dup3\n        /* \"#utility.yul\":2289:2292   */\n      dup3\n        /* \"#utility.yul\":2282:2301   */\n      mstore\n        /* \"#utility.yul\":2334:2338   */\n      0x20\n        /* \"#utility.yul\":2329:2332   */\n      dup3\n        /* \"#utility.yul\":2325:2339   */\n      add\n        /* \"#utility.yul\":2310:2339   */\n      swap1\n      pop\n        /* \"#utility.yul\":2186:2345   */\n      swap3\n      swap2\n      pop\n      pop\n      jump\t// out\n        /* \"#utility.yul\":2351:2708   */\n    tag_103:\n        /* \"#utility.yul\":2429:2432   */\n      0x00\n        /* \"#utility.yul\":2457:2496   */\n      tag_160\n        /* \"#utility.yul\":2490:2495   */\n      dup3\n        /* \"#utility.yul\":2457:2496   */\n      tag_95\n      jump\t// in\n    tag_160:\n        /* \"#utility.yul\":2512:2573   */\n      tag_161\n        /* \"#utility.yul\":2566:2572   */\n      dup2\n        /* \"#utility.yul\":2561:2564   */\n      dup6\n        /* \"#utility.yul\":2512:2573   */\n      tag_102\n      jump\t// in\n    tag_161:\n        /* \"#utility.yul\":2505:2573   */\n      swap4\n      pop\n        /* \"#utility.yul\":2582:2647   */\n      tag_162\n        /* \"#utility.yul\":2640:2646   */\n      dup2\n        /* \"#utility.yul\":2635:2638   */\n      dup6\n        /* \"#utility.yul\":2628:2632   */\n      0x20\n        /* \"#utility.yul\":2621:2626   */\n      dup7\n        /* \"#utility.yul\":2617:2633   */\n      add\n        /* \"#utility.yul\":2582:2647   */\n      tag_97\n      jump\t// in\n    tag_162:\n        /* \"#utility.yul\":2672:2701   */\n      tag_163\n        /* \"#utility.yul\":2694:2700   */\n      dup2\n        /* \"#utility.yul\":2672:2701   */\n      tag_98\n      jump\t// in\n    tag_163:\n        /* \"#utility.yul\":2667:2670   */\n      dup5\n        /* \"#utility.yul\":2663:2702   */\n      add\n        /* \"#utility.yul\":2656:2702   */\n      swap2\n      pop\n        /* \"#utility.yul\":2433:2708   */\n      pop\n        /* \"#utility.yul\":2351:2708   */\n      swap3\n      swap2\n      pop\n      pop\n      jump\t// out\n        /* \"#utility.yul\":2714:2822   */\n    tag_104:\n        /* \"#utility.yul\":2791:2815   */\n      tag_165\n        /* \"#utility.yul\":2809:2814   */\n      dup2\n        /* \"#utility.yul\":2791:2815   */\n      tag_100\n      jump\t// in\n    tag_165:\n        /* \"#utility.yul\":2786:2789   */\n      dup3\n        /* \"#utility.yul\":2779:2816   */\n      mstore\n        /* \"#utility.yul\":2714:2822   */\n      pop\n      pop\n      jump\t// out\n        /* \"#utility.yul\":2876:3715   */\n    tag_105:\n        /* \"#utility.yul\":2985:2988   */\n      0x00\n        /* \"#utility.yul\":3021:3025   */\n      0x60\n        /* \"#utility.yul\":3016:3019   */\n      dup4\n        /* \"#utility.yul\":3012:3026   */\n      add\n        /* \"#utility.yul\":3108:3112   */\n      0x00\n        /* \"#utility.yul\":3101:3106   */\n      dup4\n        /* \"#utility.yul\":3097:3113   */\n      add\n        /* \"#utility.yul\":3091:3114   */\n      mload\n        /* \"#utility.yul\":3161:3164   */\n      dup5\n        /* \"#utility.yul\":3155:3159   */\n      dup3\n        /* \"#utility.yul\":3151:3165   */\n      sub\n        /* \"#utility.yul\":3144:3148   */\n      0x00\n        /* \"#utility.yul\":3139:3142   */\n      dup7\n        /* \"#utility.yul\":3135:3149   */\n      add\n        /* \"#utility.yul\":3128:3166   */\n      mstore\n        /* \"#utility.yul\":3187:3260   */\n      tag_167\n        /* \"#utility.yul\":3255:3259   */\n      dup3\n        /* \"#utility.yul\":3241:3253   */\n      dup3\n        /* \"#utility.yul\":3187:3260   */\n      tag_103\n      jump\t// in\n    tag_167:\n        /* \"#utility.yul\":3179:3260   */\n      swap2\n      pop\n        /* \"#utility.yul\":3036:3271   */\n      pop\n        /* \"#utility.yul\":3352:3356   */\n      0x20\n        /* \"#utility.yul\":3345:3350   */\n      dup4\n        /* \"#utility.yul\":3341:3357   */\n      add\n        /* \"#utility.yul\":3335:3358   */\n      mload\n        /* \"#utility.yul\":3371:3434   */\n      tag_168\n        /* \"#utility.yul\":3428:3432   */\n      0x20\n        /* \"#utility.yul\":3423:3426   */\n      dup7\n        /* \"#utility.yul\":3419:3433   */\n      add\n        /* \"#utility.yul\":3405:3417   */\n      dup3\n        /* \"#utility.yul\":3371:3434   */\n      tag_104\n      jump\t// in\n    tag_168:\n        /* \"#utility.yul\":3281:3444   */\n      pop\n        /* \"#utility.yul\":3525:3529   */\n      0x40\n        /* \"#utility.yul\":3518:3523   */\n      dup4\n        /* \"#utility.yul\":3514:3530   */\n      add\n        /* \"#utility.yul\":3508:3531   */\n      mload\n        /* \"#utility.yul\":3578:3581   */\n      dup5\n        /* \"#utility.yul\":3572:3576   */\n      dup3\n        /* \"#utility.yul\":3568:3582   */\n      sub\n        /* \"#utility.yul\":3561:3565   */\n      0x40\n        /* \"#utility.yul\":3556:3559   */\n      dup7\n        /* \"#utility.yul\":3552:3566   */\n      add\n        /* \"#utility.yul\":3545:3583   */\n      mstore\n        /* \"#utility.yul\":3604:3677   */\n      tag_169\n        /* \"#utility.yul\":3672:3676   */\n      dup3\n        /* \"#utility.yul\":3658:3670   */\n      dup3\n        /* \"#utility.yul\":3604:3677   */\n      tag_103\n      jump\t// in\n    tag_169:\n        /* \"#utility.yul\":3596:3677   */\n      swap2\n      pop\n        /* \"#utility.yul\":3454:3688   */\n      pop\n        /* \"#utility.yul\":3705:3709   */\n      dup1\n        /* \"#utility.yul\":3698:3709   */\n      swap2\n      pop\n        /* \"#utility.yul\":2990:3715   */\n      pop\n        /* \"#utility.yul\":2876:3715   */\n      swap3\n      swap2\n      pop\n      pop\n      jump\t// out\n        /* \"#utility.yul\":3721:4074   */\n    tag_22:\n        /* \"#utility.yul\":3854:3858   */\n      0x00\n        /* \"#utility.yul\":3892:3894   */\n      0x20\n        /* \"#utility.yul\":3881:3890   */\n      dup3\n        /* \"#utility.yul\":3877:3895   */\n      add\n        /* \"#utility.yul\":3869:3895   */\n      swap1\n      pop\n        /* \"#utility.yul\":3941:3950   */\n      dup2\n        /* \"#utility.yul\":3935:3939   */\n      dup2\n        /* \"#utility.yul\":3931:3951   */\n      sub\n        /* \"#utility.yul\":3927:3928   */\n      0x00\n        /* \"#utility.yul\":3916:3925   */\n      dup4\n        /* \"#utility.yul\":3912:3929   */\n      add\n        /* \"#utility.yul\":3905:3952   */\n      mstore\n        /* \"#utility.yul\":3969:4067   */\n      tag_171\n        /* \"#utility.yul\":4062:4066   */\n      dup2\n        /* \"#utility.yul\":4053:4059   */\n      dup5\n        /* \"#utility.yul\":3969:4067   */\n      tag_105\n      jump\t// in\n    tag_171:\n        /* \"#utility.yul\":3961:4067   */\n      swap1\n      pop\n        /* \"#utility.yul\":3721:4074   */\n      swap3\n      swap2\n      pop\n      pop\n      jump\t// out\n        /* \"#utility.yul\":4080:4155   */\n    tag_106:\n        /* \"#utility.yul\":4113:4119   */\n      0x00\n        /* \"#utility.yul\":4146:4148   */\n      0x40\n        /* \"#utility.yul\":4140:4149   */\n      mload\n        /* \"#utility.yul\":4130:4149   */\n      swap1\n      pop\n        /* \"#utility.yul\":4080:4155   */\n      swap1\n      jump\t// out\n        /* \"#utility.yul\":4161:4278   */\n    tag_107:\n        /* \"#utility.yul\":4270:4271   */\n      0x00\n        /* \"#utility.yul\":4267:4268   */\n      dup1\n        /* \"#utility.yul\":4260:4272   */\n      revert\n        /* \"#utility.yul\":4284:4401   */\n    tag_108:\n        /* \"#utility.yul\":4393:4394   */\n      0x00\n        /* \"#utility.yul\":4390:4391   */\n      dup1\n        /* \"#utility.yul\":4383:4395   */\n      revert\n        /* \"#utility.yul\":4407:4524   */\n    tag_109:\n        /* \"#utility.yul\":4516:4517   */\n      0x00\n        /* \"#utility.yul\":4513:4514   */\n      dup1\n        /* \"#utility.yul\":4506:4518   */\n      revert\n        /* \"#utility.yul\":4530:4647   */\n    tag_110:\n        /* \"#utility.yul\":4639:4640   */\n      0x00\n        /* \"#utility.yul\":4636:4637   */\n      dup1\n        /* \"#utility.yul\":4629:4641   */\n      revert\n        /* \"#utility.yul\":4653:4833   */\n    tag_111:\n        /* \"#utility.yul\":4701:4778   */\n      0x4e487b7100000000000000000000000000000000000000000000000000000000\n        /* \"#utility.yul\":4698:4699   */\n      0x00\n        /* \"#utility.yul\":4691:4779   */\n      mstore\n        /* \"#utility.yul\":4798:4802   */\n      0x41\n        /* \"#utility.yul\":4795:4796   */\n      0x04\n        /* \"#utility.yul\":4788:4803   */\n      mstore\n        /* \"#utility.yul\":4822:4826   */\n      0x24\n        /* \"#utility.yul\":4819:4820   */\n      0x00\n        /* \"#utility.yul\":4812:4827   */\n      revert\n        /* \"#utility.yul\":4839:5120   */\n    tag_112:\n        /* \"#utility.yul\":4922:4949   */\n      tag_179\n        /* \"#utility.yul\":4944:4948   */\n      dup3\n        /* \"#utility.yul\":4922:4949   */\n      tag_98\n      jump\t// in\n    tag_179:\n        /* \"#utility.yul\":4914:4920   */\n      dup2\n        /* \"#utility.yul\":4910:4950   */\n      add\n        /* \"#utility.yul\":5052:5058   */\n      dup2\n        /* \"#utility.yul\":5040:5050   */\n      dup2\n        /* \"#utility.yul\":5037:5059   */\n      lt\n        /* \"#utility.yul\":5016:5034   */\n      0xffffffffffffffff\n        /* \"#utility.yul\":5004:5014   */\n      dup3\n        /* \"#utility.yul\":5001:5035   */\n      gt\n        /* \"#utility.yul\":4998:5060   */\n      or\n        /* \"#utility.yul\":4995:5083   */\n      iszero\n      tag_180\n      jumpi\n        /* \"#utility.yul\":5063:5081   */\n      tag_181\n      tag_111\n      jump\t// in\n    tag_181:\n        /* \"#utility.yul\":4995:5083   */\n    tag_180:\n        /* \"#utility.yul\":5103:5113   */\n      dup1\n        /* \"#utility.yul\":5099:5101   */\n      0x40\n        /* \"#utility.yul\":5092:5114   */\n      mstore\n        /* \"#utility.yul\":4882:5120   */\n      pop\n        /* \"#utility.yul\":4839:5120   */\n      pop\n      pop\n      jump\t// out\n        /* \"#utility.yul\":5126:5255   */\n    tag_113:\n        /* \"#utility.yul\":5160:5166   */\n      0x00\n        /* \"#utility.yul\":5187:5207   */\n      tag_183\n      tag_106\n      jump\t// in\n    tag_183:\n        /* \"#utility.yul\":5177:5207   */\n      swap1\n      pop\n        /* \"#utility.yul\":5216:5249   */\n      tag_184\n        /* \"#utility.yul\":5244:5248   */\n      dup3\n        /* \"#utility.yul\":5236:5242   */\n      dup3\n        /* \"#utility.yul\":5216:5249   */\n      tag_112\n      jump\t// in\n    tag_184:\n        /* \"#utility.yul\":5126:5255   */\n      swap2\n      swap1\n      pop\n      jump\t// out\n        /* \"#utility.yul\":5261:5569   */\n    tag_114:\n        /* \"#utility.yul\":5323:5327   */\n      0x00\n        /* \"#utility.yul\":5413:5431   */\n      0xffffffffffffffff\n        /* \"#utility.yul\":5405:5411   */\n      dup3\n        /* \"#utility.yul\":5402:5432   */\n      gt\n        /* \"#utility.yul\":5399:5455   */\n      iszero\n      tag_186\n      jumpi\n        /* \"#utility.yul\":5435:5453   */\n      tag_187\n      tag_111\n      jump\t// in\n    tag_187:\n        /* \"#utility.yul\":5399:5455   */\n    tag_186:\n        /* \"#utility.yul\":5473:5502   */\n      tag_188\n        /* \"#utility.yul\":5495:5501   */\n      dup3\n        /* \"#utility.yul\":5473:5502   */\n      tag_98\n      jump\t// in\n    tag_188:\n        /* \"#utility.yul\":5465:5502   */\n      swap1\n      pop\n        /* \"#utility.yul\":5557:5561   */\n      0x20\n        /* \"#utility.yul\":5551:5555   */\n      dup2\n        /* \"#utility.yul\":5547:5562   */\n      add\n        /* \"#utility.yul\":5539:5562   */\n      swap1\n      pop\n        /* \"#utility.yul\":5261:5569   */\n      swap2\n      swap1\n      pop\n      jump\t// out\n        /* \"#utility.yul\":5575:5721   */\n    tag_115:\n        /* \"#utility.yul\":5672:5678   */\n      dup3\n        /* \"#utility.yul\":5667:5670   */\n      dup2\n        /* \"#utility.yul\":5662:5665   */\n      dup4\n        /* \"#utility.yul\":5649:5679   */\n      calldatacopy\n        /* \"#utility.yul\":5713:5714   */\n      0x00\n        /* \"#utility.yul\":5704:5710   */\n      dup4\n        /* \"#utility.yul\":5699:5702   */\n      dup4\n        /* \"#utility.yul\":5695:5711   */\n      add\n        /* \"#utility.yul\":5688:5715   */\n      mstore\n        /* \"#utility.yul\":5575:5721   */\n      pop\n      pop\n      pop\n      jump\t// out\n        /* \"#utility.yul\":5727:6152   */\n    tag_116:\n        /* \"#utility.yul\":5805:5810   */\n      0x00\n        /* \"#utility.yul\":5830:5896   */\n      tag_191\n        /* \"#utility.yul\":5846:5895   */\n      tag_192\n        /* \"#utility.yul\":5888:5894   */\n      dup5\n        /* \"#utility.yul\":5846:5895   */\n      tag_114\n      jump\t// in\n    tag_192:\n        /* \"#utility.yul\":5830:5896   */\n      tag_113\n      jump\t// in\n    tag_191:\n        /* \"#utility.yul\":5821:5896   */\n      swap1\n      pop\n        /* \"#utility.yul\":5919:5925   */\n      dup3\n        /* \"#utility.yul\":5912:5917   */\n      dup2\n        /* \"#utility.yul\":5905:5926   */\n      mstore\n        /* \"#utility.yul\":5957:5961   */\n      0x20\n        /* \"#utility.yul\":5950:5955   */\n      dup2\n        /* \"#utility.yul\":5946:5962   */\n      add\n        /* \"#utility.yul\":5995:5998   */\n      dup5\n        /* \"#utility.yul\":5986:5992   */\n      dup5\n        /* \"#utility.yul\":5981:5984   */\n      dup5\n        /* \"#utility.yul\":5977:5993   */\n      add\n        /* \"#utility.yul\":5974:5999   */\n      gt\n        /* \"#utility.yul\":5971:6083   */\n      iszero\n      tag_193\n      jumpi\n        /* \"#utility.yul\":6002:6081   */\n      tag_194\n      tag_110\n      jump\t// in\n    tag_194:\n        /* \"#utility.yul\":5971:6083   */\n    tag_193:\n        /* \"#utility.yul\":6092:6146   */\n      tag_195\n        /* \"#utility.yul\":6139:6145   */\n      dup5\n        /* \"#utility.yul\":6134:6137   */\n      dup3\n        /* \"#utility.yul\":6129:6132   */\n      dup6\n        /* \"#utility.yul\":6092:6146   */\n      tag_115\n      jump\t// in\n    tag_195:\n        /* \"#utility.yul\":5811:6152   */\n      pop\n        /* \"#utility.yul\":5727:6152   */\n      swap4\n      swap3\n      pop\n      pop\n      pop\n      jump\t// out\n        /* \"#utility.yul\":6172:6512   */\n    tag_117:\n        /* \"#utility.yul\":6228:6233   */\n      0x00\n        /* \"#utility.yul\":6277:6280   */\n      dup3\n        /* \"#utility.yul\":6270:6274   */\n      0x1f\n        /* \"#utility.yul\":6262:6268   */\n      dup4\n        /* \"#utility.yul\":6258:6275   */\n      add\n        /* \"#utility.yul\":6254:6281   */\n      slt\n        /* \"#utility.yul\":6244:6366   */\n      tag_197\n      jumpi\n        /* \"#utility.yul\":6285:6364   */\n      tag_198\n      tag_109\n      jump\t// in\n    tag_198:\n        /* \"#utility.yul\":6244:6366   */\n    tag_197:\n        /* \"#utility.yul\":6402:6408   */\n      dup2\n        /* \"#utility.yul\":6389:6409   */\n      calldataload\n        /* \"#utility.yul\":6427:6506   */\n      tag_199\n        /* \"#utility.yul\":6502:6505   */\n      dup5\n        /* \"#utility.yul\":6494:6500   */\n      dup3\n        /* \"#utility.yul\":6487:6491   */\n      0x20\n        /* \"#utility.yul\":6479:6485   */\n      dup7\n        /* \"#utility.yul\":6475:6492   */\n      add\n        /* \"#utility.yul\":6427:6506   */\n      tag_116\n      jump\t// in\n    tag_199:\n        /* \"#utility.yul\":6418:6506   */\n      swap2\n      pop\n        /* \"#utility.yul\":6234:6512   */\n      pop\n        /* \"#utility.yul\":6172:6512   */\n      swap3\n      swap2\n      pop\n      pop\n      jump\t// out\n        /* \"#utility.yul\":6518:6640   */\n    tag_118:\n        /* \"#utility.yul\":6591:6615   */\n      tag_201\n        /* \"#utility.yul\":6609:6614   */\n      dup2\n        /* \"#utility.yul\":6591:6615   */\n      tag_100\n      jump\t// in\n    tag_201:\n        /* \"#utility.yul\":6584:6589   */\n      dup2\n        /* \"#utility.yul\":6581:6616   */\n      eq\n        /* \"#utility.yul\":6571:6634   */\n      tag_202\n      jumpi\n        /* \"#utility.yul\":6630:6631   */\n      0x00\n        /* \"#utility.yul\":6627:6628   */\n      dup1\n        /* \"#utility.yul\":6620:6632   */\n      revert\n        /* \"#utility.yul\":6571:6634   */\n    tag_202:\n        /* \"#utility.yul\":6518:6640   */\n      pop\n      jump\t// out\n        /* \"#utility.yul\":6646:6785   */\n    tag_119:\n        /* \"#utility.yul\":6692:6697   */\n      0x00\n        /* \"#utility.yul\":6730:6736   */\n      dup2\n        /* \"#utility.yul\":6717:6737   */\n      calldataload\n        /* \"#utility.yul\":6708:6737   */\n      swap1\n      pop\n        /* \"#utility.yul\":6746:6779   */\n      tag_204\n        /* \"#utility.yul\":6773:6778   */\n      dup2\n        /* \"#utility.yul\":6746:6779   */\n      tag_118\n      jump\t// in\n    tag_204:\n        /* \"#utility.yul\":6646:6785   */\n      swap3\n      swap2\n      pop\n      pop\n      jump\t// out\n        /* \"#utility.yul\":6791:7770   */\n    tag_31:\n        /* \"#utility.yul\":6888:6894   */\n      0x00\n        /* \"#utility.yul\":6896:6902   */\n      dup1\n        /* \"#utility.yul\":6904:6910   */\n      0x00\n        /* \"#utility.yul\":6953:6955   */\n      0x60\n        /* \"#utility.yul\":6941:6950   */\n      dup5\n        /* \"#utility.yul\":6932:6939   */\n      dup7\n        /* \"#utility.yul\":6928:6951   */\n      sub\n        /* \"#utility.yul\":6924:6956   */\n      slt\n        /* \"#utility.yul\":6921:7040   */\n      iszero\n      tag_206\n      jumpi\n        /* \"#utility.yul\":6959:7038   */\n      tag_207\n      tag_107\n      jump\t// in\n    tag_207:\n        /* \"#utility.yul\":6921:7040   */\n    tag_206:\n        /* \"#utility.yul\":7107:7108   */\n      0x00\n        /* \"#utility.yul\":7096:7105   */\n      dup5\n        /* \"#utility.yul\":7092:7109   */\n      add\n        /* \"#utility.yul\":7079:7110   */\n      calldataload\n        /* \"#utility.yul\":7137:7155   */\n      0xffffffffffffffff\n        /* \"#utility.yul\":7129:7135   */\n      dup2\n        /* \"#utility.yul\":7126:7156   */\n      gt\n        /* \"#utility.yul\":7123:7240   */\n      iszero\n      tag_208\n      jumpi\n        /* \"#utility.yul\":7159:7238   */\n      tag_209\n      tag_108\n      jump\t// in\n    tag_209:\n        /* \"#utility.yul\":7123:7240   */\n    tag_208:\n        /* \"#utility.yul\":7264:7327   */\n      tag_210\n        /* \"#utility.yul\":7319:7326   */\n      dup7\n        /* \"#utility.yul\":7310:7316   */\n      dup3\n        /* \"#utility.yul\":7299:7308   */\n      dup8\n        /* \"#utility.yul\":7295:7317   */\n      add\n        /* \"#utility.yul\":7264:7327   */\n      tag_117\n      jump\t// in\n    tag_210:\n        /* \"#utility.yul\":7254:7327   */\n      swap4\n      pop\n        /* \"#utility.yul\":7050:7337   */\n      pop\n        /* \"#utility.yul\":7376:7378   */\n      0x20\n        /* \"#utility.yul\":7402:7455   */\n      tag_211\n        /* \"#utility.yul\":7447:7454   */\n      dup7\n        /* \"#utility.yul\":7438:7444   */\n      dup3\n        /* \"#utility.yul\":7427:7436   */\n      dup8\n        /* \"#utility.yul\":7423:7445   */\n      add\n        /* \"#utility.yul\":7402:7455   */\n      tag_119\n      jump\t// in\n    tag_211:\n        /* \"#utility.yul\":7392:7455   */\n      swap3\n      pop\n        /* \"#utility.yul\":7347:7465   */\n      pop\n        /* \"#utility.yul\":7532:7534   */\n      0x40\n        /* \"#utility.yul\":7521:7530   */\n      dup5\n        /* \"#utility.yul\":7517:7535   */\n      add\n        /* \"#utility.yul\":7504:7536   */\n      calldataload\n        /* \"#utility.yul\":7563:7581   */\n      0xffffffffffffffff\n        /* \"#utility.yul\":7555:7561   */\n      dup2\n        /* \"#utility.yul\":7552:7582   */\n      gt\n        /* \"#utility.yul\":7549:7666   */\n      iszero\n      tag_212\n      jumpi\n        /* \"#utility.yul\":7585:7664   */\n      tag_213\n      tag_108\n      jump\t// in\n    tag_213:\n        /* \"#utility.yul\":7549:7666   */\n    tag_212:\n        /* \"#utility.yul\":7690:7753   */\n      tag_214\n        /* \"#utility.yul\":7745:7752   */\n      dup7\n        /* \"#utility.yul\":7736:7742   */\n      dup3\n        /* \"#utility.yul\":7725:7734   */\n      dup8\n        /* \"#utility.yul\":7721:7743   */\n      add\n        /* \"#utility.yul\":7690:7753   */\n      tag_117\n      jump\t// in\n    tag_214:\n        /* \"#utility.yul\":7680:7753   */\n      swap2\n      pop\n        /* \"#utility.yul\":7475:7763   */\n      pop\n        /* \"#utility.yul\":6791:7770   */\n      swap3\n      pop\n      swap3\n      pop\n      swap3\n      jump\t// out\n        /* \"#utility.yul\":7776:8285   */\n    tag_35:\n        /* \"#utility.yul\":7845:7851   */\n      0x00\n        /* \"#utility.yul\":7894:7896   */\n      0x20\n        /* \"#utility.yul\":7882:7891   */\n      dup3\n        /* \"#utility.yul\":7873:7880   */\n      dup5\n        /* \"#utility.yul\":7869:7892   */\n      sub\n        /* \"#utility.yul\":7865:7897   */\n      slt\n        /* \"#utility.yul\":7862:7981   */\n      iszero\n      tag_216\n      jumpi\n        /* \"#utility.yul\":7900:7979   */\n      tag_217\n      tag_107\n      jump\t// in\n    tag_217:\n        /* \"#utility.yul\":7862:7981   */\n    tag_216:\n        /* \"#utility.yul\":8048:8049   */\n      0x00\n        /* \"#utility.yul\":8037:8046   */\n      dup3\n        /* \"#utility.yul\":8033:8050   */\n      add\n        /* \"#utility.yul\":8020:8051   */\n      calldataload\n        /* \"#utility.yul\":8078:8096   */\n      0xffffffffffffffff\n        /* \"#utility.yul\":8070:8076   */\n      dup2\n        /* \"#utility.yul\":8067:8097   */\n      gt\n        /* \"#utility.yul\":8064:8181   */\n      iszero\n      tag_218\n      jumpi\n        /* \"#utility.yul\":8100:8179   */\n      tag_219\n      tag_108\n      jump\t// in\n    tag_219:\n        /* \"#utility.yul\":8064:8181   */\n    tag_218:\n        /* \"#utility.yul\":8205:8268   */\n      tag_220\n        /* \"#utility.yul\":8260:8267   */\n      dup5\n        /* \"#utility.yul\":8251:8257   */\n      dup3\n        /* \"#utility.yul\":8240:8249   */\n      dup6\n        /* \"#utility.yul\":8236:8258   */\n      add\n        /* \"#utility.yul\":8205:8268   */\n      tag_117\n      jump\t// in\n    tag_220:\n        /* \"#utility.yul\":8195:8268   */\n      swap2\n      pop\n        /* \"#utility.yul\":7991:8278   */\n      pop\n        /* \"#utility.yul\":7776:8285   */\n      swap3\n      swap2\n      pop\n      pop\n      jump\t// out\n        /* \"#utility.yul\":8291:8471   */\n    tag_120:\n        /* \"#utility.yul\":8339:8416   */\n      0x4e487b7100000000000000000000000000000000000000000000000000000000\n        /* \"#utility.yul\":8336:8337   */\n      0x00\n        /* \"#utility.yul\":8329:8417   */\n      mstore\n        /* \"#utility.yul\":8436:8440   */\n      0x22\n        /* \"#utility.yul\":8433:8434   */\n      0x04\n        /* \"#utility.yul\":8426:8441   */\n      mstore\n        /* \"#utility.yul\":8460:8464   */\n      0x24\n        /* \"#utility.yul\":8457:8458   */\n      0x00\n        /* \"#utility.yul\":8450:8465   */\n      revert\n        /* \"#utility.yul\":8477:8797   */\n    tag_39:\n        /* \"#utility.yul\":8521:8527   */\n      0x00\n        /* \"#utility.yul\":8558:8559   */\n      0x02\n        /* \"#utility.yul\":8552:8556   */\n      dup3\n        /* \"#utility.yul\":8548:8560   */\n      div\n        /* \"#utility.yul\":8538:8560   */\n      swap1\n      pop\n        /* \"#utility.yul\":8605:8606   */\n      0x01\n        /* \"#utility.yul\":8599:8603   */\n      dup3\n        /* \"#utility.yul\":8595:8607   */\n      and\n        /* \"#utility.yul\":8626:8644   */\n      dup1\n        /* \"#utility.yul\":8616:8697   */\n      tag_223\n      jumpi\n        /* \"#utility.yul\":8682:8686   */\n      0x7f\n        /* \"#utility.yul\":8674:8680   */\n      dup3\n        /* \"#utility.yul\":8670:8687   */\n      and\n        /* \"#utility.yul\":8660:8687   */\n      swap2\n      pop\n        /* \"#utility.yul\":8616:8697   */\n    tag_223:\n        /* \"#utility.yul\":8744:8746   */\n      0x20\n        /* \"#utility.yul\":8736:8742   */\n      dup3\n        /* \"#utility.yul\":8733:8747   */\n      lt\n        /* \"#utility.yul\":8713:8731   */\n      dup2\n        /* \"#utility.yul\":8710:8748   */\n      sub\n        /* \"#utility.yul\":8707:8791   */\n      tag_224\n      jumpi\n        /* \"#utility.yul\":8763:8781   */\n      tag_225\n      tag_120\n      jump\t// in\n    tag_225:\n        /* \"#utility.yul\":8707:8791   */\n    tag_224:\n        /* \"#utility.yul\":8528:8797   */\n      pop\n        /* \"#utility.yul\":8477:8797   */\n      swap2\n      swap1\n      pop\n      jump\t// out\n        /* \"#utility.yul\":8803:8944   */\n    tag_121:\n        /* \"#utility.yul\":8852:8856   */\n      0x00\n        /* \"#utility.yul\":8875:8878   */\n      dup2\n        /* \"#utility.yul\":8867:8878   */\n      swap1\n      pop\n        /* \"#utility.yul\":8898:8901   */\n      dup2\n        /* \"#utility.yul\":8895:8896   */\n      0x00\n        /* \"#utility.yul\":8888:8902   */\n      mstore\n        /* \"#utility.yul\":8932:8936   */\n      0x20\n        /* \"#utility.yul\":8929:8930   */\n      0x00\n        /* \"#utility.yul\":8919:8937   */\n      keccak256\n        /* \"#utility.yul\":8911:8937   */\n      swap1\n      pop\n        /* \"#utility.yul\":8803:8944   */\n      swap2\n      swap1\n      pop\n      jump\t// out\n        /* \"#utility.yul\":8950:9043   */\n    tag_122:\n        /* \"#utility.yul\":8987:8993   */\n      0x00\n        /* \"#utility.yul\":9034:9036   */\n      0x20\n        /* \"#utility.yul\":9029:9031   */\n      0x1f\n        /* \"#utility.yul\":9022:9027   */\n      dup4\n        /* \"#utility.yul\":9018:9032   */\n      add\n        /* \"#utility.yul\":9014:9037   */\n      div\n        /* \"#utility.yul\":9004:9037   */\n      swap1\n      pop\n        /* \"#utility.yul\":8950:9043   */\n      swap2\n      swap1\n      pop\n      jump\t// out\n        /* \"#utility.yul\":9049:9156   */\n    tag_123:\n        /* \"#utility.yul\":9093:9101   */\n      0x00\n        /* \"#utility.yul\":9143:9148   */\n      dup3\n        /* \"#utility.yul\":9137:9141   */\n      dup3\n        /* \"#utility.yul\":9133:9149   */\n      shl\n        /* \"#utility.yul\":9112:9149   */\n      swap1\n      pop\n        /* \"#utility.yul\":9049:9156   */\n      swap3\n      swap2\n      pop\n      pop\n      jump\t// out\n        /* \"#utility.yul\":9162:9555   */\n    tag_124:\n        /* \"#utility.yul\":9231:9237   */\n      0x00\n        /* \"#utility.yul\":9281:9282   */\n      0x08\n        /* \"#utility.yul\":9269:9279   */\n      dup4\n        /* \"#utility.yul\":9265:9283   */\n      mul\n        /* \"#utility.yul\":9304:9401   */\n      tag_230\n        /* \"#utility.yul\":9334:9400   */\n      0xffffffffffffffffffffffffffffffffffffffffffffffffffffffffffffffff\n        /* \"#utility.yul\":9323:9332   */\n      dup3\n        /* \"#utility.yul\":9304:9401   */\n      tag_123\n      jump\t// in\n    tag_230:\n        /* \"#utility.yul\":9422:9461   */\n      tag_231\n        /* \"#utility.yul\":9452:9460   */\n      dup7\n        /* \"#utility.yul\":9441:9450   */\n      dup4\n        /* \"#utility.yul\":9422:9461   */\n      tag_123\n      jump\t// in\n    tag_231:\n        /* \"#utility.yul\":9410:9461   */\n      swap6\n      pop\n        /* \"#utility.yul\":9494:9498   */\n      dup1\n        /* \"#utility.yul\":9490:9499   */\n      not\n        /* \"#utility.yul\":9483:9488   */\n      dup5\n        /* \"#utility.yul\":9479:9500   */\n      and\n        /* \"#utility.yul\":9470:9500   */\n      swap4\n      pop\n        /* \"#utility.yul\":9543:9547   */\n      dup1\n        /* \"#utility.yul\":9533:9541   */\n      dup7\n        /* \"#utility.yul\":9529:9548   */\n      and\n        /* \"#utility.yul\":9522:9527   */\n      dup5\n        /* \"#utility.yul\":9519:9549   */\n      or\n        /* \"#utility.yul\":9509:9549   */\n      swap3\n      pop\n        /* \"#utility.yul\":9238:9555   */\n      pop\n      pop\n        /* \"#utility.yul\":9162:9555   */\n      swap4\n      swap3\n      pop\n      pop\n      pop\n      jump\t// out\n        /* \"#utility.yul\":9561:9621   */\n    tag_125:\n        /* \"#utility.yul\":9589:9592   */\n      0x00\n        /* \"#utility.yul\":9610:9615   */\n      dup2\n        /* \"#utility.yul\":9603:9615   */\n      swap1\n      pop\n        /* \"#utility.yul\":9561:9621   */\n      swap2\n      swap1\n      pop\n      jump\t// out\n        /* \"#utility.yul\":9627:9769   */\n    tag_126:\n        /* \"#utility.yul\":9677:9686   */\n      0x00\n        /* \"#utility.yul\":9710:9763   */\n      tag_234\n        /* \"#utility.yul\":9728:9762   */\n      tag_235\n        /* \"#utility.yul\":9737:9761   */\n      tag_236\n        /* \"#utility.yul\":9755:9760   */\n      dup5\n        /* \"#utility.yul\":9737:9761   */\n      tag_100\n      jump\t// in\n    tag_236:\n        /* \"#utility.yul\":9728:9762   */\n      tag_125\n      jump\t// in\n    tag_235:\n        /* \"#utility.yul\":9710:9763   */\n      tag_100\n      jump\t// in\n    tag_234:\n        /* \"#utility.yul\":9697:9763   */\n      swap1\n      pop\n        /* \"#utility.yul\":9627:9769   */\n      swap2\n      swap1\n      pop\n      jump\t// out\n        /* \"#utility.yul\":9775:9850   */\n    tag_127:\n        /* \"#utility.yul\":9818:9821   */\n      0x00\n        /* \"#utility.yul\":9839:9844   */\n      dup2\n        /* \"#utility.yul\":9832:9844   */\n      swap1\n      pop\n        /* \"#utility.yul\":9775:9850   */\n      swap2\n      swap1\n      pop\n      jump\t// out\n        /* \"#utility.yul\":9856:10125   */\n    tag_128:\n        /* \"#utility.yul\":9966:10005   */\n      tag_239\n        /* \"#utility.yul\":9997:10004   */\n      dup4\n        /* \"#utility.yul\":9966:10005   */\n      tag_126\n      jump\t// in\n    tag_239:\n        /* \"#utility.yul\":10027:10118   */\n      tag_240\n        /* \"#utility.yul\":10076:10117   */\n      tag_241\n        /* \"#utility.yul\":10100:10116   */\n      dup3\n        /* \"#utility.yul\":10076:10117   */\n      tag_127\n      jump\t// in\n    tag_241:\n        /* \"#utility.yul\":10068:10074   */\n      dup5\n        /* \"#utility.yul\":10061:10065   */\n      dup5\n        /* \"#utility.yul\":10055:10066   */\n      sload\n        /* \"#utility.yul\":10027:10118   */\n      tag_124\n      jump\t// in\n    tag_240:\n        /* \"#utility.yul\":10021:10025   */\n      dup3\n        /* \"#utility.yul\":10014:10119   */\n      sstore\n        /* \"#utility.yul\":9932:10125   */\n      pop\n        /* \"#utility.yul\":9856:10125   */\n      pop\n      pop\n      pop\n      jump\t// out\n        /* \"#utility.yul\":10131:10204   */\n    tag_129:\n        /* \"#utility.yul\":10176:10179   */\n      0x00\n        /* \"#utility.yul\":10131:10204   */\n      swap1\n      jump\t// out\n        /* \"#utility.yul\":10210:10399   */\n    tag_130:\n        /* \"#utility.yul\":10287:10319   */\n      tag_244\n      tag_129\n      jump\t// in\n    tag_244:\n        /* \"#utility.yul\":10328:10393   */\n      tag_245\n        /* \"#utility.yul\":10386:10392   */\n      dup2\n        /* \"#utility.yul\":10378:10384   */\n      dup5\n        /* \"#utility.yul\":10372:10376   */\n      dup5\n        /* \"#utility.yul\":10328:10393   */\n      tag_128\n      jump\t// in\n    tag_245:\n        /* \"#utility.yul\":10263:10399   */\n      pop\n        /* \"#utility.yul\":10210:10399   */\n      pop\n      pop\n      jump\t// out\n        /* \"#utility.yul\":10405:10591   */\n    tag_131:\n        /* \"#utility.yul\":10465:10585   */\n    tag_247:\n        /* \"#utility.yul\":10482:10485   */\n      dup2\n        /* \"#utility.yul\":10475:10480   */\n      dup2\n        /* \"#utility.yul\":10472:10486   */\n      lt\n        /* \"#utility.yul\":10465:10585   */\n      iszero\n      tag_249\n      jumpi\n        /* \"#utility.yul\":10536:10575   */\n      tag_250\n        /* \"#utility.yul\":10573:10574   */\n      0x00\n        /* \"#utility.yul\":10566:10571   */\n      dup3\n        /* \"#utility.yul\":10536:10575   */\n      tag_130\n      jump\t// in\n    tag_250:\n        /* \"#utility.yul\":10509:10510   */\n      0x01\n        /* \"#utility.yul\":10502:10507   */\n      dup2\n        /* \"#utility.yul\":10498:10511   */\n      add\n        /* \"#utility.yul\":10489:10511   */\n      swap1\n      pop\n        /* \"#utility.yul\":10465:10585   */\n      jump(tag_247)\n    tag_249:\n        /* \"#utility.yul\":10405:10591   */\n      pop\n      pop\n      jump\t// out\n        /* \"#utility.yul\":10597:11140   */\n    tag_132:\n        /* \"#utility.yul\":10698:10700   */\n      0x1f\n        /* \"#utility.yul\":10693:10696   */\n      dup3\n        /* \"#utility.yul\":10690:10701   */\n      gt\n        /* \"#utility.yul\":10687:11133   */\n      iszero\n      tag_252\n      jumpi\n        /* \"#utility.yul\":10732:10770   */\n      tag_253\n        /* \"#utility.yul\":10764:10769   */\n      dup2\n        /* \"#utility.yul\":10732:10770   */\n      tag_121\n      jump\t// in\n    tag_253:\n        /* \"#utility.yul\":10816:10845   */\n      tag_254\n        /* \"#utility.yul\":10834:10844   */\n      dup5\n        /* \"#utility.yul\":10816:10845   */\n      tag_122\n      jump\t// in\n    tag_254:\n        /* \"#utility.yul\":10806:10814   */\n      dup2\n        /* \"#utility.yul\":10802:10846   */\n      add\n        /* \"#utility.yul\":10999:11001   */\n      0x20\n        /* \"#utility.yul\":10987:10997   */\n      dup6\n        /* \"#utility.yul\":10984:11002   */\n      lt\n        /* \"#utility.yul\":10981:11030   */\n      iszero\n      tag_255\n      jumpi\n        /* \"#utility.yul\":11020:11028   */\n      dup2\n        /* \"#utility.yul\":11005:11028   */\n      swap1\n      pop\n        /* \"#utility.yul\":10981:11030   */\n    tag_255:\n        /* \"#utility.yul\":11043:11123   */\n      tag_256\n        /* \"#utility.yul\":11099:11121   */\n      tag_257\n        /* \"#utility.yul\":11117:11120   */\n      dup6\n        /* \"#utility.yul\":11099:11121   */\n      tag_122\n      jump\t// in\n    tag_257:\n        /* \"#utility.yul\":11089:11097   */\n      dup4\n        /* \"#utility.yul\":11085:11122   */\n      add\n        /* \"#utility.yul\":11072:11083   */\n      dup3\n        /* \"#utility.yul\":11043:11123   */\n      tag_131\n      jump\t// in\n    tag_256:\n        /* \"#utility.yul\":10702:11133   */\n      pop\n      pop\n        /* \"#utility.yul\":10687:11133   */\n    tag_252:\n        /* \"#utility.yul\":10597:11140   */\n      pop\n      pop\n      pop\n      jump\t// out\n        /* \"#utility.yul\":11146:11263   */\n    tag_133:\n        /* \"#utility.yul\":11200:11208   */\n      0x00\n        /* \"#utility.yul\":11250:11255   */\n      dup3\n        /* \"#utility.yul\":11244:11248   */\n      dup3\n        /* \"#utility.yul\":11240:11256   */\n      shr\n        /* \"#utility.yul\":11219:11256   */\n      swap1\n      pop\n        /* \"#utility.yul\":11146:11263   */\n      swap3\n      swap2\n      pop\n      pop\n      jump\t// out\n        /* \"#utility.yul\":11269:11438   */\n    tag_134:\n        /* \"#utility.yul\":11313:11319   */\n      0x00\n        /* \"#utility.yul\":11346:11397   */\n      tag_260\n        /* \"#utility.yul\":11394:11395   */\n      0x00\n        /* \"#utility.yul\":11390:11396   */\n      not\n        /* \"#utility.yul\":11382:11387   */\n      dup5\n        /* \"#utility.yul\":11379:11380   */\n      0x08\n        /* \"#utility.yul\":11375:11388   */\n      mul\n        /* \"#utility.yul\":11346:11397   */\n      tag_133\n      jump\t// in\n    tag_260:\n        /* \"#utility.yul\":11342:11398   */\n      not\n        /* \"#utility.yul\":11427:11431   */\n      dup1\n        /* \"#utility.yul\":11421:11425   */\n      dup4\n        /* \"#utility.yul\":11417:11432   */\n      and\n        /* \"#utility.yul\":11407:11432   */\n      swap2\n      pop\n        /* \"#utility.yul\":11320:11438   */\n      pop\n        /* \"#utility.yul\":11269:11438   */\n      swap3\n      swap2\n      pop\n      pop\n      jump\t// out\n        /* \"#utility.yul\":11443:11738   */\n    tag_135:\n        /* \"#utility.yul\":11519:11523   */\n      0x00\n        /* \"#utility.yul\":11665:11694   */\n      tag_262\n        /* \"#utility.yul\":11690:11693   */\n      dup4\n        /* \"#utility.yul\":11684:11688   */\n      dup4\n        /* \"#utility.yul\":11665:11694   */\n      tag_134\n      jump\t// in\n    tag_262:\n        /* \"#utility.yul\":11657:11694   */\n      swap2\n      pop\n        /* \"#utility.yul\":11727:11730   */\n      dup3\n        /* \"#utility.yul\":11724:11725   */\n      0x02\n        /* \"#utility.yul\":11720:11731   */\n      mul\n        /* \"#utility.yul\":11714:11718   */\n      dup3\n        /* \"#utility.yul\":11711:11732   */\n      or\n        /* \"#utility.yul\":11703:11732   */\n      swap1\n      pop\n        /* \"#utility.yul\":11443:11738   */\n      swap3\n      swap2\n      pop\n      pop\n      jump\t// out\n        /* \"#utility.yul\":11743:13138   */\n    tag_91:\n        /* \"#utility.yul\":11860:11897   */\n      tag_264\n        /* \"#utility.yul\":11893:11896   */\n      dup3\n        /* \"#utility.yul\":11860:11897   */\n      tag_95\n      jump\t// in\n    tag_264:\n        /* \"#utility.yul\":11962:11980   */\n      0xffffffffffffffff\n        /* \"#utility.yul\":11954:11960   */\n      dup2\n        /* \"#utility.yul\":11951:11981   */\n      gt\n        /* \"#utility.yul\":11948:12004   */\n      iszero\n      tag_265\n      jumpi\n        /* \"#utility.yul\":11984:12002   */\n      tag_266\n      tag_111\n      jump\t// in\n    tag_266:\n        /* \"#utility.yul\":11948:12004   */\n    tag_265:\n        /* \"#utility.yul\":12028:12066   */\n      tag_267\n        /* \"#utility.yul\":12060:12064   */\n      dup3\n        /* \"#utility.yul\":12054:12065   */\n      sload\n        /* \"#utility.yul\":12028:12066   */\n      tag_39\n      jump\t// in\n    tag_267:\n        /* \"#utility.yul\":12113:12180   */\n      tag_268\n        /* \"#utility.yul\":12173:12179   */\n      dup3\n        /* \"#utility.yul\":12165:12171   */\n      dup3\n        /* \"#utility.yul\":12159:12163   */\n      dup6\n        /* \"#utility.yul\":12113:12180   */\n      tag_132\n      jump\t// in\n    tag_268:\n        /* \"#utility.yul\":12207:12208   */\n      0x00\n        /* \"#utility.yul\":12231:12235   */\n      0x20\n        /* \"#utility.yul\":12218:12235   */\n      swap1\n      pop\n        /* \"#utility.yul\":12263:12265   */\n      0x1f\n        /* \"#utility.yul\":12255:12261   */\n      dup4\n        /* \"#utility.yul\":12252:12266   */\n      gt\n        /* \"#utility.yul\":12280:12281   */\n      0x01\n        /* \"#utility.yul\":12275:12893   */\n      dup2\n      eq\n      tag_270\n      jumpi\n        /* \"#utility.yul\":12937:12938   */\n      0x00\n        /* \"#utility.yul\":12954:12960   */\n      dup5\n        /* \"#utility.yul\":12951:13028   */\n      iszero\n      tag_271\n      jumpi\n        /* \"#utility.yul\":13003:13012   */\n      dup3\n        /* \"#utility.yul\":12998:13001   */\n      dup8\n        /* \"#utility.yul\":12994:13013   */\n      add\n        /* \"#utility.yul\":12988:13014   */\n      mload\n        /* \"#utility.yul\":12979:13014   */\n      swap1\n      pop\n        /* \"#utility.yul\":12951:13028   */\n    tag_271:\n        /* \"#utility.yul\":13054:13121   */\n      tag_272\n        /* \"#utility.yul\":13114:13120   */\n      dup6\n        /* \"#utility.yul\":13107:13112   */\n      dup3\n        /* \"#utility.yul\":13054:13121   */\n      tag_135\n      jump\t// in\n    tag_272:\n        /* \"#utility.yul\":13048:13052   */\n      dup7\n        /* \"#utility.yul\":13041:13122   */\n      sstore\n        /* \"#utility.yul\":12910:13132   */\n      pop\n        /* \"#utility.yul\":12245:13132   */\n      jump(tag_269)\n        /* \"#utility.yul\":12275:12893   */\n    tag_270:\n        /* \"#utility.yul\":12327:12331   */\n      0x1f\n        /* \"#utility.yul\":12323:12332   */\n      not\n        /* \"#utility.yul\":12315:12321   */\n      dup5\n        /* \"#utility.yul\":12311:12333   */\n      and\n        /* \"#utility.yul\":12361:12398   */\n      tag_273\n        /* \"#utility.yul\":12393:12397   */\n      dup7\n        /* \"#utility.yul\":12361:12398   */\n      tag_121\n      jump\t// in\n    tag_273:\n        /* \"#utility.yul\":12420:12421   */\n      0x00\n        /* \"#utility.yul\":12434:12642   */\n    tag_274:\n        /* \"#utility.yul\":12448:12455   */\n      dup3\n        /* \"#utility.yul\":12445:12446   */\n      dup2\n        /* \"#utility.yul\":12442:12456   */\n      lt\n        /* \"#utility.yul\":12434:12642   */\n      iszero\n      tag_276\n      jumpi\n        /* \"#utility.yul\":12527:12536   */\n      dup5\n        /* \"#utility.yul\":12522:12525   */\n      dup10\n        /* \"#utility.yul\":12518:12537   */\n      add\n        /* \"#utility.yul\":12512:12538   */\n      mload\n        /* \"#utility.yul\":12504:12510   */\n      dup3\n        /* \"#utility.yul\":12497:12539   */\n      sstore\n        /* \"#utility.yul\":12578:12579   */\n      0x01\n        /* \"#utility.yul\":12570:12576   */\n      dup3\n        /* \"#utility.yul\":12566:12580   */\n      add\n        /* \"#utility.yul\":12556:12580   */\n      swap2\n      pop\n        /* \"#utility.yul\":12625:12627   */\n      0x20\n        /* \"#utility.yul\":12614:12623   */\n      dup6\n        /* \"#utility.yul\":12610:12628   */\n      add\n        /* \"#utility.yul\":12597:12628   */\n      swap5\n      pop\n        /* \"#utility.yul\":12471:12475   */\n      0x20\n        /* \"#utility.yul\":12468:12469   */\n      dup2\n        /* \"#utility.yul\":12464:12476   */\n      add\n        /* \"#utility.yul\":12459:12476   */\n      swap1\n      pop\n        /* \"#utility.yul\":12434:12642   */\n      jump(tag_274)\n    tag_276:\n        /* \"#utility.yul\":12670:12676   */\n      dup7\n        /* \"#utility.yul\":12661:12668   */\n      dup4\n        /* \"#utility.yul\":12658:12677   */\n      lt\n        /* \"#utility.yul\":12655:12834   */\n      iszero\n      tag_277\n      jumpi\n        /* \"#utility.yul\":12728:12737   */\n      dup5\n        /* \"#utility.yul\":12723:12726   */\n      dup10\n        /* \"#utility.yul\":12719:12738   */\n      add\n        /* \"#utility.yul\":12713:12739   */\n      mload\n        /* \"#utility.yul\":12771:12819   */\n      tag_278\n        /* \"#utility.yul\":12813:12817   */\n      0x1f\n        /* \"#utility.yul\":12805:12811   */\n      dup10\n        /* \"#utility.yul\":12801:12818   */\n      and\n        /* \"#utility.yul\":12790:12799   */\n      dup3\n        /* \"#utility.yul\":12771:12819   */\n      tag_134\n      jump\t// in\n    tag_278:\n        /* \"#utility.yul\":12763:12769   */\n      dup4\n        /* \"#utility.yul\":12756:12820   */\n      sstore\n        /* \"#utility.yul\":12678:12834   */\n      pop\n        /* \"#utility.yul\":12655:12834   */\n    tag_277:\n        /* \"#utility.yul\":12880:12881   */\n      0x01\n        /* \"#utility.yul\":12876:12877   */\n      0x02\n        /* \"#utility.yul\":12868:12874   */\n      dup9\n        /* \"#utility.yul\":12864:12878   */\n      mul\n        /* \"#utility.yul\":12860:12882   */\n      add\n        /* \"#utility.yul\":12854:12858   */\n      dup9\n        /* \"#utility.yul\":12847:12883   */\n      sstore\n        /* \"#utility.yul\":12282:12893   */\n      pop\n      pop\n      pop\n        /* \"#utility.yul\":12245:13132   */\n    tag_269:\n      pop\n        /* \"#utility.yul\":11835:13138   */\n      pop\n      pop\n      pop\n        /* \"#utility.yul\":11743:13138   */\n      pop\n      pop\n      jump\t// out\n\n    auxdata: 0xa2646970667358221220b5dc986e2b4f2e4cfd7e6f6ffda092da6fa9d572ceba20eab0bef06b780f121764736f6c63430008180033\n}\n",
				"bytecode": {
					"linkReferences": {},
					"object": "608060405260405180606001604052806040518060400160405280600481526020017f706c6f79000000000000000000000000000000000000000000000000000000008152508152602001601981526020016040518060400160405280600681526020017f61727469737400000000000000000000000000000000000000000000000000008152508152505f80820151815f019081620000a091906200033c565b50602082015181600101556040820151816002019081620000c291906200033c565b505050348015620000d1575f80fd5b5062000420565b5f81519050919050565b7f4e487b71000000000000000000000000000000000000000000000000000000005f52604160045260245ffd5b7f4e487b71000000000000000000000000000000000000000000000000000000005f52602260045260245ffd5b5f60028204905060018216806200015457607f821691505b6020821081036200016a57620001696200010f565b5b50919050565b5f819050815f5260205f209050919050565b5f6020601f8301049050919050565b5f82821b905092915050565b5f60088302620001ce7fffffffffffffffffffffffffffffffffffffffffffffffffffffffffffffffff8262000191565b620001da868362000191565b95508019841693508086168417925050509392505050565b5f819050919050565b5f819050919050565b5f620002246200021e6200021884620001f2565b620001fb565b620001f2565b9050919050565b5f819050919050565b6200023f8362000204565b620002576200024e826200022b565b8484546200019d565b825550505050565b5f90565b6200026d6200025f565b6200027a81848462000234565b505050565b5b81811015620002a157620002955f8262000263565b60018101905062000280565b5050565b601f821115620002f057620002ba8162000170565b620002c58462000182565b81016020851015620002d5578190505b620002ed620002e48562000182565b8301826200027f565b50505b505050565b5f82821c905092915050565b5f620003125f1984600802620002f5565b1980831691505092915050565b5f6200032c838362000301565b9150826002028217905092915050565b6200034782620000d8565b67ffffffffffffffff811115620003635762000362620000e2565b5b6200036f82546200013c565b6200037c828285620002a5565b5f60209050601f831160018114620003b2575f84156200039d578287015190505b620003a985826200031f565b86555062000418565b601f198416620003c28662000170565b5f5b82811015620003eb57848901518255600182019150602085019450602081019050620003c4565b868310156200040b578489015162000407601f89168262000301565b8355505b6001600288020188555050505b505050505050565b610e3f806200042e5f395ff3fe608060405234801561000f575f80fd5b506004361061007b575f3560e01c8063757f29c611610059578063757f29c6146100db578063ae5e1170146100f9578063af2dd4d414610119578063ddd6016c146101355761007b565b80630a9a05331461007f578063396466b71461009d578063427156f3146100bd575b5f80fd5b610087610151565b60405161009491906107c4565b60405180910390f35b6100a56101e2565b6040516100b4939291906107fc565b60405180910390f35b6100c5610305565b6040516100d291906108ea565b60405180910390f35b6100e3610447565b6040516100f091906108ea565b60405180910390f35b61010161058a565b604051610110939291906107fc565b60405180910390f35b610133600480360381019061012e9190610a71565b6106ac565b005b61014f600480360381019061014a9190610af9565b610705565b005b60605f8001805461016190610b6d565b80601f016020809104026020016040519081016040528092919081815260200182805461018d90610b6d565b80156101d85780601f106101af576101008083540402835291602001916101d8565b820191905f5260205f20905b8154815290600101906020018083116101bb57829003601f168201915b5050505050905090565b6003805f0180546101f290610b6d565b80601f016020809104026020016040519081016040528092919081815260200182805461021e90610b6d565b80156102695780601f1061024057610100808354040283529160200191610269565b820191905f5260205f20905b81548152906001019060200180831161024c57829003601f168201915b50505050509080600101549080600201805461028490610b6d565b80601f01602080910402602001604051908101604052809291908181526020018280546102b090610b6d565b80156102fb5780601f106102d2576101008083540402835291602001916102fb565b820191905f5260205f20905b8154815290600101906020018083116102de57829003601f168201915b5050505050905083565b61030d61071a565b5f6040518060600160405290815f8201805461032890610b6d565b80601f016020809104026020016040519081016040528092919081815260200182805461035490610b6d565b801561039f5780601f106103765761010080835404028352916020019161039f565b820191905f5260205f20905b81548152906001019060200180831161038257829003601f168201915b50505050508152602001600182015481526020016002820180546103c290610b6d565b80601f01602080910402602001604051908101604052809291908181526020018280546103ee90610b6d565b80156104395780601f1061041057610100808354040283529160200191610439565b820191905f5260205f20905b81548152906001019060200180831161041c57829003601f168201915b505050505081525050905090565b61044f61071a565b60036040518060600160405290815f8201805461046b90610b6d565b80601f016020809104026020016040519081016040528092919081815260200182805461049790610b6d565b80156104e25780601f106104b9576101008083540402835291602001916104e2565b820191905f5260205f20905b8154815290600101906020018083116104c557829003601f168201915b505050505081526020016001820154815260200160028201805461050590610b6d565b80601f016020809104026020016040519081016040528092919081815260200182805461053190610b6d565b801561057c5780601f106105535761010080835404028352916020019161057c565b820191905f5260205f20905b81548152906001019060200180831161055f57829003601f168201915b505050505081525050905090565b5f805f01805461059990610b6d565b80601f01602080910402602001604051908101604052809291908181526020018280546105c590610b6d565b80156106105780601f106105e757610100808354040283529160200191610610565b820191905f5260205f20905b8154815290600101906020018083116105f357829003601f168201915b50505050509080600101549080600201805461062b90610b6d565b80601f016020809104026020016040519081016040528092919081815260200182805461065790610b6d565b80156106a25780601f10610679576101008083540402835291602001916106a2565b820191905f5260205f20905b81548152906001019060200180831161068557829003601f168201915b5050505050905083565b60405180606001604052808481526020018381526020018281525060035f820151815f0190816106dc9190610d3a565b506020820151816001015560408201518160020190816106fc9190610d3a565b50905050505050565b805f60020190816107169190610d3a565b5050565b6040518060600160405280606081526020015f8152602001606081525090565b5f81519050919050565b5f82825260208201905092915050565b5f5b83811015610771578082015181840152602081019050610756565b5f8484015250505050565b5f601f19601f8301169050919050565b5f6107968261073a565b6107a08185610744565b93506107b0818560208601610754565b6107b98161077c565b840191505092915050565b5f6020820190508181035f8301526107dc818461078c565b905092915050565b5f819050919050565b6107f6816107e4565b82525050565b5f6060820190508181035f830152610814818661078c565b905061082360208301856107ed565b8181036040830152610835818461078c565b9050949350505050565b5f82825260208201905092915050565b5f6108598261073a565b610863818561083f565b9350610873818560208601610754565b61087c8161077c565b840191505092915050565b610890816107e4565b82525050565b5f606083015f8301518482035f8601526108b0828261084f565b91505060208301516108c56020860182610887565b50604083015184820360408601526108dd828261084f565b9150508091505092915050565b5f6020820190508181035f8301526109028184610896565b905092915050565b5f604051905090565b5f80fd5b5f80fd5b5f80fd5b5f80fd5b7f4e487b71000000000000000000000000000000000000000000000000000000005f52604160045260245ffd5b6109598261077c565b810181811067ffffffffffffffff8211171561097857610977610923565b5b80604052505050565b5f61098a61090a565b90506109968282610950565b919050565b5f67ffffffffffffffff8211156109b5576109b4610923565b5b6109be8261077c565b9050602081019050919050565b828183375f83830152505050565b5f6109eb6109e68461099b565b610981565b905082815260208101848484011115610a0757610a0661091f565b5b610a128482856109cb565b509392505050565b5f82601f830112610a2e57610a2d61091b565b5b8135610a3e8482602086016109d9565b91505092915050565b610a50816107e4565b8114610a5a575f80fd5b50565b5f81359050610a6b81610a47565b92915050565b5f805f60608486031215610a8857610a87610913565b5b5f84013567ffffffffffffffff811115610aa557610aa4610917565b5b610ab186828701610a1a565b9350506020610ac286828701610a5d565b925050604084013567ffffffffffffffff811115610ae357610ae2610917565b5b610aef86828701610a1a565b9150509250925092565b5f60208284031215610b0e57610b0d610913565b5b5f82013567ffffffffffffffff811115610b2b57610b2a610917565b5b610b3784828501610a1a565b91505092915050565b7f4e487b71000000000000000000000000000000000000000000000000000000005f52602260045260245ffd5b5f6002820490506001821680610b8457607f821691505b602082108103610b9757610b96610b40565b5b50919050565b5f819050815f5260205f209050919050565b5f6020601f8301049050919050565b5f82821b905092915050565b5f60088302610bf97fffffffffffffffffffffffffffffffffffffffffffffffffffffffffffffffff82610bbe565b610c038683610bbe565b95508019841693508086168417925050509392505050565b5f819050919050565b5f610c3e610c39610c34846107e4565b610c1b565b6107e4565b9050919050565b5f819050919050565b610c5783610c24565b610c6b610c6382610c45565b848454610bca565b825550505050565b5f90565b610c7f610c73565b610c8a818484610c4e565b505050565b5b81811015610cad57610ca25f82610c77565b600181019050610c90565b5050565b601f821115610cf257610cc381610b9d565b610ccc84610baf565b81016020851015610cdb578190505b610cef610ce785610baf565b830182610c8f565b50505b505050565b5f82821c905092915050565b5f610d125f1984600802610cf7565b1980831691505092915050565b5f610d2a8383610d03565b9150826002028217905092915050565b610d438261073a565b67ffffffffffffffff811115610d5c57610d5b610923565b5b610d668254610b6d565b610d71828285610cb1565b5f60209050601f831160018114610da2575f8415610d90578287015190505b610d9a8582610d1f565b865550610e01565b601f198416610db086610b9d565b5f5b82811015610dd757848901518255600182019150602085019450602081019050610db2565b86831015610df45784890151610df0601f891682610d03565b8355505b6001600288020188555050505b50505050505056fea2646970667358221220b5dc986e2b4f2e4cfd7e6f6ffda092da6fa9d572ceba20eab0bef06b780f121764736f6c63430008180033",
					"opcodes": "PUSH1 0x80 PUSH1 0x40 MSTORE PUSH1 0x40 MLOAD DUP1 PUSH1 0x60 ADD PUSH1 0x40 MSTORE DUP1 PUSH1 0x40 MLOAD DUP1 PUSH1 0x40 ADD PUSH1 0x40 MSTORE DUP1 PUSH1 0x4 DUP2 MSTORE PUSH1 0x20 ADD PUSH32 0x706C6F7900000000000000000000000000000000000000000000000000000000 DUP2 MSTORE POP DUP2 MSTORE PUSH1 0x20 ADD PUSH1 0x19 DUP2 MSTORE PUSH1 0x20 ADD PUSH1 0x40 MLOAD DUP1 PUSH1 0x40 ADD PUSH1 0x40 MSTORE DUP1 PUSH1 0x6 DUP2 MSTORE PUSH1 0x20 ADD PUSH32 0x6172746973740000000000000000000000000000000000000000000000000000 DUP2 MSTORE POP DUP2 MSTORE POP PUSH0 DUP1 DUP3 ADD MLOAD DUP2 PUSH0 ADD SWAP1 DUP2 PUSH3 0xA0 SWAP2 SWAP1 PUSH3 0x33C JUMP JUMPDEST POP PUSH1 0x20 DUP3 ADD MLOAD DUP2 PUSH1 0x1 ADD SSTORE PUSH1 0x40 DUP3 ADD MLOAD DUP2 PUSH1 0x2 ADD SWAP1 DUP2 PUSH3 0xC2 SWAP2 SWAP1 PUSH3 0x33C JUMP JUMPDEST POP POP POP CALLVALUE DUP1 ISZERO PUSH3 0xD1 JUMPI PUSH0 DUP1 REVERT JUMPDEST POP PUSH3 0x420 JUMP JUMPDEST PUSH0 DUP2 MLOAD SWAP1 POP SWAP2 SWAP1 POP JUMP JUMPDEST PUSH32 0x4E487B7100000000000000000000000000000000000000000000000000000000 PUSH0 MSTORE PUSH1 0x41 PUSH1 0x4 MSTORE PUSH1 0x24 PUSH0 REVERT JUMPDEST PUSH32 0x4E487B7100000000000000000000000000000000000000000000000000000000 PUSH0 MSTORE PUSH1 0x22 PUSH1 0x4 MSTORE PUSH1 0x24 PUSH0 REVERT JUMPDEST PUSH0 PUSH1 0x2 DUP3 DIV SWAP1 POP PUSH1 0x1 DUP3 AND DUP1 PUSH3 0x154 JUMPI PUSH1 0x7F DUP3 AND SWAP2 POP JUMPDEST PUSH1 0x20 DUP3 LT DUP2 SUB PUSH3 0x16A JUMPI PUSH3 0x169 PUSH3 0x10F JUMP JUMPDEST JUMPDEST POP SWAP2 SWAP1 POP JUMP JUMPDEST PUSH0 DUP2 SWAP1 POP DUP2 PUSH0 MSTORE PUSH1 0x20 PUSH0 KECCAK256 SWAP1 POP SWAP2 SWAP1 POP JUMP JUMPDEST PUSH0 PUSH1 0x20 PUSH1 0x1F DUP4 ADD DIV SWAP1 POP SWAP2 SWAP1 POP JUMP JUMPDEST PUSH0 DUP3 DUP3 SHL SWAP1 POP SWAP3 SWAP2 POP POP JUMP JUMPDEST PUSH0 PUSH1 0x8 DUP4 MUL PUSH3 0x1CE PUSH32 0xFFFFFFFFFFFFFFFFFFFFFFFFFFFFFFFFFFFFFFFFFFFFFFFFFFFFFFFFFFFFFFFF DUP3 PUSH3 0x191 JUMP JUMPDEST PUSH3 0x1DA DUP7 DUP4 PUSH3 0x191 JUMP JUMPDEST SWAP6 POP DUP1 NOT DUP5 AND SWAP4 POP DUP1 DUP7 AND DUP5 OR SWAP3 POP POP POP SWAP4 SWAP3 POP POP POP JUMP JUMPDEST PUSH0 DUP2 SWAP1 POP SWAP2 SWAP1 POP JUMP JUMPDEST PUSH0 DUP2 SWAP1 POP SWAP2 SWAP1 POP JUMP JUMPDEST PUSH0 PUSH3 0x224 PUSH3 0x21E PUSH3 0x218 DUP5 PUSH3 0x1F2 JUMP JUMPDEST PUSH3 0x1FB JUMP JUMPDEST PUSH3 0x1F2 JUMP JUMPDEST SWAP1 POP SWAP2 SWAP1 POP JUMP JUMPDEST PUSH0 DUP2 SWAP1 POP SWAP2 SWAP1 POP JUMP JUMPDEST PUSH3 0x23F DUP4 PUSH3 0x204 JUMP JUMPDEST PUSH3 0x257 PUSH3 0x24E DUP3 PUSH3 0x22B JUMP JUMPDEST DUP5 DUP5 SLOAD PUSH3 0x19D JUMP JUMPDEST DUP3 SSTORE POP POP POP POP JUMP JUMPDEST PUSH0 SWAP1 JUMP JUMPDEST PUSH3 0x26D PUSH3 0x25F JUMP JUMPDEST PUSH3 0x27A DUP2 DUP5 DUP5 PUSH3 0x234 JUMP JUMPDEST POP POP POP JUMP JUMPDEST JUMPDEST DUP2 DUP2 LT ISZERO PUSH3 0x2A1 JUMPI PUSH3 0x295 PUSH0 DUP3 PUSH3 0x263 JUMP JUMPDEST PUSH1 0x1 DUP2 ADD SWAP1 POP PUSH3 0x280 JUMP JUMPDEST POP POP JUMP JUMPDEST PUSH1 0x1F DUP3 GT ISZERO PUSH3 0x2F0 JUMPI PUSH3 0x2BA DUP2 PUSH3 0x170 JUMP JUMPDEST PUSH3 0x2C5 DUP5 PUSH3 0x182 JUMP JUMPDEST DUP2 ADD PUSH1 0x20 DUP6 LT ISZERO PUSH3 0x2D5 JUMPI DUP2 SWAP1 POP JUMPDEST PUSH3 0x2ED PUSH3 0x2E4 DUP6 PUSH3 0x182 JUMP JUMPDEST DUP4 ADD DUP3 PUSH3 0x27F JUMP JUMPDEST POP POP JUMPDEST POP POP POP JUMP JUMPDEST PUSH0 DUP3 DUP3 SHR SWAP1 POP SWAP3 SWAP2 POP POP JUMP JUMPDEST PUSH0 PUSH3 0x312 PUSH0 NOT DUP5 PUSH1 0x8 MUL PUSH3 0x2F5 JUMP JUMPDEST NOT DUP1 DUP4 AND SWAP2 POP POP SWAP3 SWAP2 POP POP JUMP JUMPDEST PUSH0 PUSH3 0x32C DUP4 DUP4 PUSH3 0x301 JUMP JUMPDEST SWAP2 POP DUP3 PUSH1 0x2 MUL DUP3 OR SWAP1 POP SWAP3 SWAP2 POP POP JUMP JUMPDEST PUSH3 0x347 DUP3 PUSH3 0xD8 JUMP JUMPDEST PUSH8 0xFFFFFFFFFFFFFFFF DUP2 GT ISZERO PUSH3 0x363 JUMPI PUSH3 0x362 PUSH3 0xE2 JUMP JUMPDEST JUMPDEST PUSH3 0x36F DUP3 SLOAD PUSH3 0x13C JUMP JUMPDEST PUSH3 0x37C DUP3 DUP3 DUP6 PUSH3 0x2A5 JUMP JUMPDEST PUSH0 PUSH1 0x20 SWAP1 POP PUSH1 0x1F DUP4 GT PUSH1 0x1 DUP2 EQ PUSH3 0x3B2 JUMPI PUSH0 DUP5 ISZERO PUSH3 0x39D JUMPI DUP3 DUP8 ADD MLOAD SWAP1 POP JUMPDEST PUSH3 0x3A9 DUP6 DUP3 PUSH3 0x31F JUMP JUMPDEST DUP7 SSTORE POP PUSH3 0x418 JUMP JUMPDEST PUSH1 0x1F NOT DUP5 AND PUSH3 0x3C2 DUP7 PUSH3 0x170 JUMP JUMPDEST PUSH0 JUMPDEST DUP3 DUP2 LT ISZERO PUSH3 0x3EB JUMPI DUP5 DUP10 ADD MLOAD DUP3 SSTORE PUSH1 0x1 DUP3 ADD SWAP2 POP PUSH1 0x20 DUP6 ADD SWAP5 POP PUSH1 0x20 DUP2 ADD SWAP1 POP PUSH3 0x3C4 JUMP JUMPDEST DUP7 DUP4 LT ISZERO PUSH3 0x40B JUMPI DUP5 DUP10 ADD MLOAD PUSH3 0x407 PUSH1 0x1F DUP10 AND DUP3 PUSH3 0x301 JUMP JUMPDEST DUP4 SSTORE POP JUMPDEST PUSH1 0x1 PUSH1 0x2 DUP9 MUL ADD DUP9 SSTORE POP POP POP JUMPDEST POP POP POP POP POP POP JUMP JUMPDEST PUSH2 0xE3F DUP1 PUSH3 0x42E PUSH0 CODECOPY PUSH0 RETURN INVALID PUSH1 0x80 PUSH1 0x40 MSTORE CALLVALUE DUP1 ISZERO PUSH2 0xF JUMPI PUSH0 DUP1 REVERT JUMPDEST POP PUSH1 0x4 CALLDATASIZE LT PUSH2 0x7B JUMPI PUSH0 CALLDATALOAD PUSH1 0xE0 SHR DUP1 PUSH4 0x757F29C6 GT PUSH2 0x59 JUMPI DUP1 PUSH4 0x757F29C6 EQ PUSH2 0xDB JUMPI DUP1 PUSH4 0xAE5E1170 EQ PUSH2 0xF9 JUMPI DUP1 PUSH4 0xAF2DD4D4 EQ PUSH2 0x119 JUMPI DUP1 PUSH4 0xDDD6016C EQ PUSH2 0x135 JUMPI PUSH2 0x7B JUMP JUMPDEST DUP1 PUSH4 0xA9A0533 EQ PUSH2 0x7F JUMPI DUP1 PUSH4 0x396466B7 EQ PUSH2 0x9D JUMPI DUP1 PUSH4 0x427156F3 EQ PUSH2 0xBD JUMPI JUMPDEST PUSH0 DUP1 REVERT JUMPDEST PUSH2 0x87 PUSH2 0x151 JUMP JUMPDEST PUSH1 0x40 MLOAD PUSH2 0x94 SWAP2 SWAP1 PUSH2 0x7C4 JUMP JUMPDEST PUSH1 0x40 MLOAD DUP1 SWAP2 SUB SWAP1 RETURN JUMPDEST PUSH2 0xA5 PUSH2 0x1E2 JUMP JUMPDEST PUSH1 0x40 MLOAD PUSH2 0xB4 SWAP4 SWAP3 SWAP2 SWAP1 PUSH2 0x7FC JUMP JUMPDEST PUSH1 0x40 MLOAD DUP1 SWAP2 SUB SWAP1 RETURN JUMPDEST PUSH2 0xC5 PUSH2 0x305 JUMP JUMPDEST PUSH1 0x40 MLOAD PUSH2 0xD2 SWAP2 SWAP1 PUSH2 0x8EA JUMP JUMPDEST PUSH1 0x40 MLOAD DUP1 SWAP2 SUB SWAP1 RETURN JUMPDEST PUSH2 0xE3 PUSH2 0x447 JUMP JUMPDEST PUSH1 0x40 MLOAD PUSH2 0xF0 SWAP2 SWAP1 PUSH2 0x8EA JUMP JUMPDEST PUSH1 0x40 MLOAD DUP1 SWAP2 SUB SWAP1 RETURN JUMPDEST PUSH2 0x101 PUSH2 0x58A JUMP JUMPDEST PUSH1 0x40 MLOAD PUSH2 0x110 SWAP4 SWAP3 SWAP2 SWAP1 PUSH2 0x7FC JUMP JUMPDEST PUSH1 0x40 MLOAD DUP1 SWAP2 SUB SWAP1 RETURN JUMPDEST PUSH2 0x133 PUSH1 0x4 DUP1 CALLDATASIZE SUB DUP2 ADD SWAP1 PUSH2 0x12E SWAP2 SWAP1 PUSH2 0xA71 JUMP JUMPDEST PUSH2 0x6AC JUMP JUMPDEST STOP JUMPDEST PUSH2 0x14F PUSH1 0x4 DUP1 CALLDATASIZE SUB DUP2 ADD SWAP1 PUSH2 0x14A SWAP2 SWAP1 PUSH2 0xAF9 JUMP JUMPDEST PUSH2 0x705 JUMP JUMPDEST STOP JUMPDEST PUSH1 0x60 PUSH0 DUP1 ADD DUP1 SLOAD PUSH2 0x161 SWAP1 PUSH2 0xB6D JUMP JUMPDEST DUP1 PUSH1 0x1F ADD PUSH1 0x20 DUP1 SWAP2 DIV MUL PUSH1 0x20 ADD PUSH1 0x40 MLOAD SWAP1 DUP2 ADD PUSH1 0x40 MSTORE DUP1 SWAP3 SWAP2 SWAP1 DUP2 DUP2 MSTORE PUSH1 0x20 ADD DUP3 DUP1 SLOAD PUSH2 0x18D SWAP1 PUSH2 0xB6D JUMP JUMPDEST DUP1 ISZERO PUSH2 0x1D8 JUMPI DUP1 PUSH1 0x1F LT PUSH2 0x1AF JUMPI PUSH2 0x100 DUP1 DUP4 SLOAD DIV MUL DUP4 MSTORE SWAP2 PUSH1 0x20 ADD SWAP2 PUSH2 0x1D8 JUMP JUMPDEST DUP3 ADD SWAP2 SWAP1 PUSH0 MSTORE PUSH1 0x20 PUSH0 KECCAK256 SWAP1 JUMPDEST DUP2 SLOAD DUP2 MSTORE SWAP1 PUSH1 0x1 ADD SWAP1 PUSH1 0x20 ADD DUP1 DUP4 GT PUSH2 0x1BB JUMPI DUP3 SWAP1 SUB PUSH1 0x1F AND DUP3 ADD SWAP2 JUMPDEST POP POP POP POP POP SWAP1 POP SWAP1 JUMP JUMPDEST PUSH1 0x3 DUP1 PUSH0 ADD DUP1 SLOAD PUSH2 0x1F2 SWAP1 PUSH2 0xB6D JUMP JUMPDEST DUP1 PUSH1 0x1F ADD PUSH1 0x20 DUP1 SWAP2 DIV MUL PUSH1 0x20 ADD PUSH1 0x40 MLOAD SWAP1 DUP2 ADD PUSH1 0x40 MSTORE DUP1 SWAP3 SWAP2 SWAP1 DUP2 DUP2 MSTORE PUSH1 0x20 ADD DUP3 DUP1 SLOAD PUSH2 0x21E SWAP1 PUSH2 0xB6D JUMP JUMPDEST DUP1 ISZERO PUSH2 0x269 JUMPI DUP1 PUSH1 0x1F LT PUSH2 0x240 JUMPI PUSH2 0x100 DUP1 DUP4 SLOAD DIV MUL DUP4 MSTORE SWAP2 PUSH1 0x20 ADD SWAP2 PUSH2 0x269 JUMP JUMPDEST DUP3 ADD SWAP2 SWAP1 PUSH0 MSTORE PUSH1 0x20 PUSH0 KECCAK256 SWAP1 JUMPDEST DUP2 SLOAD DUP2 MSTORE SWAP1 PUSH1 0x1 ADD SWAP1 PUSH1 0x20 ADD DUP1 DUP4 GT PUSH2 0x24C JUMPI DUP3 SWAP1 SUB PUSH1 0x1F AND DUP3 ADD SWAP2 JUMPDEST POP POP POP POP POP SWAP1 DUP1 PUSH1 0x1 ADD SLOAD SWAP1 DUP1 PUSH1 0x2 ADD DUP1 SLOAD PUSH2 0x284 SWAP1 PUSH2 0xB6D JUMP JUMPDEST DUP1 PUSH1 0x1F ADD PUSH1 0x20 DUP1 SWAP2 DIV MUL PUSH1 0x20 ADD PUSH1 0x40 MLOAD SWAP1 DUP2 ADD PUSH1 0x40 MSTORE DUP1 SWAP3 SWAP2 SWAP1 DUP2 DUP2 MSTORE PUSH1 0x20 ADD DUP3 DUP1 SLOAD PUSH2 0x2B0 SWAP1 PUSH2 0xB6D JUMP JUMPDEST DUP1 ISZERO PUSH2 0x2FB JUMPI DUP1 PUSH1 0x1F LT PUSH2 0x2D2 JUMPI PUSH2 0x100 DUP1 DUP4 SLOAD DIV MUL DUP4 MSTORE SWAP2 PUSH1 0x20 ADD SWAP2 PUSH2 0x2FB JUMP JUMPDEST DUP3 ADD SWAP2 SWAP1 PUSH0 MSTORE PUSH1 0x20 PUSH0 KECCAK256 SWAP1 JUMPDEST DUP2 SLOAD DUP2 MSTORE SWAP1 PUSH1 0x1 ADD SWAP1 PUSH1 0x20 ADD DUP1 DUP4 GT PUSH2 0x2DE JUMPI DUP3 SWAP1 SUB PUSH1 0x1F AND DUP3 ADD SWAP2 JUMPDEST POP POP POP POP POP SWAP1 POP DUP4 JUMP JUMPDEST PUSH2 0x30D PUSH2 0x71A JUMP JUMPDEST PUSH0 PUSH1 0x40 MLOAD DUP1 PUSH1 0x60 ADD PUSH1 0x40 MSTORE SWAP1 DUP2 PUSH0 DUP3 ADD DUP1 SLOAD PUSH2 0x328 SWAP1 PUSH2 0xB6D JUMP JUMPDEST DUP1 PUSH1 0x1F ADD PUSH1 0x20 DUP1 SWAP2 DIV MUL PUSH1 0x20 ADD PUSH1 0x40 MLOAD SWAP1 DUP2 ADD PUSH1 0x40 MSTORE DUP1 SWAP3 SWAP2 SWAP1 DUP2 DUP2 MSTORE PUSH1 0x20 ADD DUP3 DUP1 SLOAD PUSH2 0x354 SWAP1 PUSH2 0xB6D JUMP JUMPDEST DUP1 ISZERO PUSH2 0x39F JUMPI DUP1 PUSH1 0x1F LT PUSH2 0x376 JUMPI PUSH2 0x100 DUP1 DUP4 SLOAD DIV MUL DUP4 MSTORE SWAP2 PUSH1 0x20 ADD SWAP2 PUSH2 0x39F JUMP JUMPDEST DUP3 ADD SWAP2 SWAP1 PUSH0 MSTORE PUSH1 0x20 PUSH0 KECCAK256 SWAP1 JUMPDEST DUP2 SLOAD DUP2 MSTORE SWAP1 PUSH1 0x1 ADD SWAP1 PUSH1 0x20 ADD DUP1 DUP4 GT PUSH2 0x382 JUMPI DUP3 SWAP1 SUB PUSH1 0x1F AND DUP3 ADD SWAP2 JUMPDEST POP POP POP POP POP DUP2 MSTORE PUSH1 0x20 ADD PUSH1 0x1 DUP3 ADD SLOAD DUP2 MSTORE PUSH1 0x20 ADD PUSH1 0x2 DUP3 ADD DUP1 SLOAD PUSH2 0x3C2 SWAP1 PUSH2 0xB6D JUMP JUMPDEST DUP1 PUSH1 0x1F ADD PUSH1 0x20 DUP1 SWAP2 DIV MUL PUSH1 0x20 ADD PUSH1 0x40 MLOAD SWAP1 DUP2 ADD PUSH1 0x40 MSTORE DUP1 SWAP3 SWAP2 SWAP1 DUP2 DUP2 MSTORE PUSH1 0x20 ADD DUP3 DUP1 SLOAD PUSH2 0x3EE SWAP1 PUSH2 0xB6D JUMP JUMPDEST DUP1 ISZERO PUSH2 0x439 JUMPI DUP1 PUSH1 0x1F LT PUSH2 0x410 JUMPI PUSH2 0x100 DUP1 DUP4 SLOAD DIV MUL DUP4 MSTORE SWAP2 PUSH1 0x20 ADD SWAP2 PUSH2 0x439 JUMP JUMPDEST DUP3 ADD SWAP2 SWAP1 PUSH0 MSTORE PUSH1 0x20 PUSH0 KECCAK256 SWAP1 JUMPDEST DUP2 SLOAD DUP2 MSTORE SWAP1 PUSH1 0x1 ADD SWAP1 PUSH1 0x20 ADD DUP1 DUP4 GT PUSH2 0x41C JUMPI DUP3 SWAP1 SUB PUSH1 0x1F AND DUP3 ADD SWAP2 JUMPDEST POP POP POP POP POP DUP2 MSTORE POP POP SWAP1 POP SWAP1 JUMP JUMPDEST PUSH2 0x44F PUSH2 0x71A JUMP JUMPDEST PUSH1 0x3 PUSH1 0x40 MLOAD DUP1 PUSH1 0x60 ADD PUSH1 0x40 MSTORE SWAP1 DUP2 PUSH0 DUP3 ADD DUP1 SLOAD PUSH2 0x46B SWAP1 PUSH2 0xB6D JUMP JUMPDEST DUP1 PUSH1 0x1F ADD PUSH1 0x20 DUP1 SWAP2 DIV MUL PUSH1 0x20 ADD PUSH1 0x40 MLOAD SWAP1 DUP2 ADD PUSH1 0x40 MSTORE DUP1 SWAP3 SWAP2 SWAP1 DUP2 DUP2 MSTORE PUSH1 0x20 ADD DUP3 DUP1 SLOAD PUSH2 0x497 SWAP1 PUSH2 0xB6D JUMP JUMPDEST DUP1 ISZERO PUSH2 0x4E2 JUMPI DUP1 PUSH1 0x1F LT PUSH2 0x4B9 JUMPI PUSH2 0x100 DUP1 DUP4 SLOAD DIV MUL DUP4 MSTORE SWAP2 PUSH1 0x20 ADD SWAP2 PUSH2 0x4E2 JUMP JUMPDEST DUP3 ADD SWAP2 SWAP1 PUSH0 MSTORE PUSH1 0x20 PUSH0 KECCAK256 SWAP1 JUMPDEST DUP2 SLOAD DUP2 MSTORE SWAP1 PUSH1 0x1 ADD SWAP1 PUSH1 0x20 ADD DUP1 DUP4 GT PUSH2 0x4C5 JUMPI DUP3 SWAP1 SUB PUSH1 0x1F AND DUP3 ADD SWAP2 JUMPDEST POP POP POP POP POP DUP2 MSTORE PUSH1 0x20 ADD PUSH1 0x1 DUP3 ADD SLOAD DUP2 MSTORE PUSH1 0x20 ADD PUSH1 0x2 DUP3 ADD DUP1 SLOAD PUSH2 0x505 SWAP1 PUSH2 0xB6D JUMP JUMPDEST DUP1 PUSH1 0x1F ADD PUSH1 0x20 DUP1 SWAP2 DIV MUL PUSH1 0x20 ADD PUSH1 0x40 MLOAD SWAP1 DUP2 ADD PUSH1 0x40 MSTORE DUP1 SWAP3 SWAP2 SWAP1 DUP2 DUP2 MSTORE PUSH1 0x20 ADD DUP3 DUP1 SLOAD PUSH2 0x531 SWAP1 PUSH2 0xB6D JUMP JUMPDEST DUP1 ISZERO PUSH2 0x57C JUMPI DUP1 PUSH1 0x1F LT PUSH2 0x553 JUMPI PUSH2 0x100 DUP1 DUP4 SLOAD DIV MUL DUP4 MSTORE SWAP2 PUSH1 0x20 ADD SWAP2 PUSH2 0x57C JUMP JUMPDEST DUP3 ADD SWAP2 SWAP1 PUSH0 MSTORE PUSH1 0x20 PUSH0 KECCAK256 SWAP1 JUMPDEST DUP2 SLOAD DUP2 MSTORE SWAP1 PUSH1 0x1 ADD SWAP1 PUSH1 0x20 ADD DUP1 DUP4 GT PUSH2 0x55F JUMPI DUP3 SWAP1 SUB PUSH1 0x1F AND DUP3 ADD SWAP2 JUMPDEST POP POP POP POP POP DUP2 MSTORE POP POP SWAP1 POP SWAP1 JUMP JUMPDEST PUSH0 DUP1 PUSH0 ADD DUP1 SLOAD PUSH2 0x599 SWAP1 PUSH2 0xB6D JUMP JUMPDEST DUP1 PUSH1 0x1F ADD PUSH1 0x20 DUP1 SWAP2 DIV MUL PUSH1 0x20 ADD PUSH1 0x40 MLOAD SWAP1 DUP2 ADD PUSH1 0x40 MSTORE DUP1 SWAP3 SWAP2 SWAP1 DUP2 DUP2 MSTORE PUSH1 0x20 ADD DUP3 DUP1 SLOAD PUSH2 0x5C5 SWAP1 PUSH2 0xB6D JUMP JUMPDEST DUP1 ISZERO PUSH2 0x610 JUMPI DUP1 PUSH1 0x1F LT PUSH2 0x5E7 JUMPI PUSH2 0x100 DUP1 DUP4 SLOAD DIV MUL DUP4 MSTORE SWAP2 PUSH1 0x20 ADD SWAP2 PUSH2 0x610 JUMP JUMPDEST DUP3 ADD SWAP2 SWAP1 PUSH0 MSTORE PUSH1 0x20 PUSH0 KECCAK256 SWAP1 JUMPDEST DUP2 SLOAD DUP2 MSTORE SWAP1 PUSH1 0x1 ADD SWAP1 PUSH1 0x20 ADD DUP1 DUP4 GT PUSH2 0x5F3 JUMPI DUP3 SWAP1 SUB PUSH1 0x1F AND DUP3 ADD SWAP2 JUMPDEST POP POP POP POP POP SWAP1 DUP1 PUSH1 0x1 ADD SLOAD SWAP1 DUP1 PUSH1 0x2 ADD DUP1 SLOAD PUSH2 0x62B SWAP1 PUSH2 0xB6D JUMP JUMPDEST DUP1 PUSH1 0x1F ADD PUSH1 0x20 DUP1 SWAP2 DIV MUL PUSH1 0x20 ADD PUSH1 0x40 MLOAD SWAP1 DUP2 ADD PUSH1 0x40 MSTORE DUP1 SWAP3 SWAP2 SWAP1 DUP2 DUP2 MSTORE PUSH1 0x20 ADD DUP3 DUP1 SLOAD PUSH2 0x657 SWAP1 PUSH2 0xB6D JUMP JUMPDEST DUP1 ISZERO PUSH2 0x6A2 JUMPI DUP1 PUSH1 0x1F LT PUSH2 0x679 JUMPI PUSH2 0x100 DUP1 DUP4 SLOAD DIV MUL DUP4 MSTORE SWAP2 PUSH1 0x20 ADD SWAP2 PUSH2 0x6A2 JUMP JUMPDEST DUP3 ADD SWAP2 SWAP1 PUSH0 MSTORE PUSH1 0x20 PUSH0 KECCAK256 SWAP1 JUMPDEST DUP2 SLOAD DUP2 MSTORE SWAP1 PUSH1 0x1 ADD SWAP1 PUSH1 0x20 ADD DUP1 DUP4 GT PUSH2 0x685 JUMPI DUP3 SWAP1 SUB PUSH1 0x1F AND DUP3 ADD SWAP2 JUMPDEST POP POP POP POP POP SWAP1 POP DUP4 JUMP JUMPDEST PUSH1 0x40 MLOAD DUP1 PUSH1 0x60 ADD PUSH1 0x40 MSTORE DUP1 DUP5 DUP2 MSTORE PUSH1 0x20 ADD DUP4 DUP2 MSTORE PUSH1 0x20 ADD DUP3 DUP2 MSTORE POP PUSH1 0x3 PUSH0 DUP3 ADD MLOAD DUP2 PUSH0 ADD SWAP1 DUP2 PUSH2 0x6DC SWAP2 SWAP1 PUSH2 0xD3A JUMP JUMPDEST POP PUSH1 0x20 DUP3 ADD MLOAD DUP2 PUSH1 0x1 ADD SSTORE PUSH1 0x40 DUP3 ADD MLOAD DUP2 PUSH1 0x2 ADD SWAP1 DUP2 PUSH2 0x6FC SWAP2 SWAP1 PUSH2 0xD3A JUMP JUMPDEST POP SWAP1 POP POP POP POP POP JUMP JUMPDEST DUP1 PUSH0 PUSH1 0x2 ADD SWAP1 DUP2 PUSH2 0x716 SWAP2 SWAP1 PUSH2 0xD3A JUMP JUMPDEST POP POP JUMP JUMPDEST PUSH1 0x40 MLOAD DUP1 PUSH1 0x60 ADD PUSH1 0x40 MSTORE DUP1 PUSH1 0x60 DUP2 MSTORE PUSH1 0x20 ADD PUSH0 DUP2 MSTORE PUSH1 0x20 ADD PUSH1 0x60 DUP2 MSTORE POP SWAP1 JUMP JUMPDEST PUSH0 DUP2 MLOAD SWAP1 POP SWAP2 SWAP1 POP JUMP JUMPDEST PUSH0 DUP3 DUP3 MSTORE PUSH1 0x20 DUP3 ADD SWAP1 POP SWAP3 SWAP2 POP POP JUMP JUMPDEST PUSH0 JUMPDEST DUP4 DUP2 LT ISZERO PUSH2 0x771 JUMPI DUP1 DUP3 ADD MLOAD DUP2 DUP5 ADD MSTORE PUSH1 0x20 DUP2 ADD SWAP1 POP PUSH2 0x756 JUMP JUMPDEST PUSH0 DUP5 DUP5 ADD MSTORE POP POP POP POP JUMP JUMPDEST PUSH0 PUSH1 0x1F NOT PUSH1 0x1F DUP4 ADD AND SWAP1 POP SWAP2 SWAP1 POP JUMP JUMPDEST PUSH0 PUSH2 0x796 DUP3 PUSH2 0x73A JUMP JUMPDEST PUSH2 0x7A0 DUP2 DUP6 PUSH2 0x744 JUMP JUMPDEST SWAP4 POP PUSH2 0x7B0 DUP2 DUP6 PUSH1 0x20 DUP7 ADD PUSH2 0x754 JUMP JUMPDEST PUSH2 0x7B9 DUP2 PUSH2 0x77C JUMP JUMPDEST DUP5 ADD SWAP2 POP POP SWAP3 SWAP2 POP POP JUMP JUMPDEST PUSH0 PUSH1 0x20 DUP3 ADD SWAP1 POP DUP2 DUP2 SUB PUSH0 DUP4 ADD MSTORE PUSH2 0x7DC DUP2 DUP5 PUSH2 0x78C JUMP JUMPDEST SWAP1 POP SWAP3 SWAP2 POP POP JUMP JUMPDEST PUSH0 DUP2 SWAP1 POP SWAP2 SWAP1 POP JUMP JUMPDEST PUSH2 0x7F6 DUP2 PUSH2 0x7E4 JUMP JUMPDEST DUP3 MSTORE POP POP JUMP JUMPDEST PUSH0 PUSH1 0x60 DUP3 ADD SWAP1 POP DUP2 DUP2 SUB PUSH0 DUP4 ADD MSTORE PUSH2 0x814 DUP2 DUP7 PUSH2 0x78C JUMP JUMPDEST SWAP1 POP PUSH2 0x823 PUSH1 0x20 DUP4 ADD DUP6 PUSH2 0x7ED JUMP JUMPDEST DUP2 DUP2 SUB PUSH1 0x40 DUP4 ADD MSTORE PUSH2 0x835 DUP2 DUP5 PUSH2 0x78C JUMP JUMPDEST SWAP1 POP SWAP5 SWAP4 POP POP POP POP JUMP JUMPDEST PUSH0 DUP3 DUP3 MSTORE PUSH1 0x20 DUP3 ADD SWAP1 POP SWAP3 SWAP2 POP POP JUMP JUMPDEST PUSH0 PUSH2 0x859 DUP3 PUSH2 0x73A JUMP JUMPDEST PUSH2 0x863 DUP2 DUP6 PUSH2 0x83F JUMP JUMPDEST SWAP4 POP PUSH2 0x873 DUP2 DUP6 PUSH1 0x20 DUP7 ADD PUSH2 0x754 JUMP JUMPDEST PUSH2 0x87C DUP2 PUSH2 0x77C JUMP JUMPDEST DUP5 ADD SWAP2 POP POP SWAP3 SWAP2 POP POP JUMP JUMPDEST PUSH2 0x890 DUP2 PUSH2 0x7E4 JUMP JUMPDEST DUP3 MSTORE POP POP JUMP JUMPDEST PUSH0 PUSH1 0x60 DUP4 ADD PUSH0 DUP4 ADD MLOAD DUP5 DUP3 SUB PUSH0 DUP7 ADD MSTORE PUSH2 0x8B0 DUP3 DUP3 PUSH2 0x84F JUMP JUMPDEST SWAP2 POP POP PUSH1 0x20 DUP4 ADD MLOAD PUSH2 0x8C5 PUSH1 0x20 DUP7 ADD DUP3 PUSH2 0x887 JUMP JUMPDEST POP PUSH1 0x40 DUP4 ADD MLOAD DUP5 DUP3 SUB PUSH1 0x40 DUP7 ADD MSTORE PUSH2 0x8DD DUP3 DUP3 PUSH2 0x84F JUMP JUMPDEST SWAP2 POP POP DUP1 SWAP2 POP POP SWAP3 SWAP2 POP POP JUMP JUMPDEST PUSH0 PUSH1 0x20 DUP3 ADD SWAP1 POP DUP2 DUP2 SUB PUSH0 DUP4 ADD MSTORE PUSH2 0x902 DUP2 DUP5 PUSH2 0x896 JUMP JUMPDEST SWAP1 POP SWAP3 SWAP2 POP POP JUMP JUMPDEST PUSH0 PUSH1 0x40 MLOAD SWAP1 POP SWAP1 JUMP JUMPDEST PUSH0 DUP1 REVERT JUMPDEST PUSH0 DUP1 REVERT JUMPDEST PUSH0 DUP1 REVERT JUMPDEST PUSH0 DUP1 REVERT JUMPDEST PUSH32 0x4E487B7100000000000000000000000000000000000000000000000000000000 PUSH0 MSTORE PUSH1 0x41 PUSH1 0x4 MSTORE PUSH1 0x24 PUSH0 REVERT JUMPDEST PUSH2 0x959 DUP3 PUSH2 0x77C JUMP JUMPDEST DUP2 ADD DUP2 DUP2 LT PUSH8 0xFFFFFFFFFFFFFFFF DUP3 GT OR ISZERO PUSH2 0x978 JUMPI PUSH2 0x977 PUSH2 0x923 JUMP JUMPDEST JUMPDEST DUP1 PUSH1 0x40 MSTORE POP POP POP JUMP JUMPDEST PUSH0 PUSH2 0x98A PUSH2 0x90A JUMP JUMPDEST SWAP1 POP PUSH2 0x996 DUP3 DUP3 PUSH2 0x950 JUMP JUMPDEST SWAP2 SWAP1 POP JUMP JUMPDEST PUSH0 PUSH8 0xFFFFFFFFFFFFFFFF DUP3 GT ISZERO PUSH2 0x9B5 JUMPI PUSH2 0x9B4 PUSH2 0x923 JUMP JUMPDEST JUMPDEST PUSH2 0x9BE DUP3 PUSH2 0x77C JUMP JUMPDEST SWAP1 POP PUSH1 0x20 DUP2 ADD SWAP1 POP SWAP2 SWAP1 POP JUMP JUMPDEST DUP3 DUP2 DUP4 CALLDATACOPY PUSH0 DUP4 DUP4 ADD MSTORE POP POP POP JUMP JUMPDEST PUSH0 PUSH2 0x9EB PUSH2 0x9E6 DUP5 PUSH2 0x99B JUMP JUMPDEST PUSH2 0x981 JUMP JUMPDEST SWAP1 POP DUP3 DUP2 MSTORE PUSH1 0x20 DUP2 ADD DUP5 DUP5 DUP5 ADD GT ISZERO PUSH2 0xA07 JUMPI PUSH2 0xA06 PUSH2 0x91F JUMP JUMPDEST JUMPDEST PUSH2 0xA12 DUP5 DUP3 DUP6 PUSH2 0x9CB JUMP JUMPDEST POP SWAP4 SWAP3 POP POP POP JUMP JUMPDEST PUSH0 DUP3 PUSH1 0x1F DUP4 ADD SLT PUSH2 0xA2E JUMPI PUSH2 0xA2D PUSH2 0x91B JUMP JUMPDEST JUMPDEST DUP2 CALLDATALOAD PUSH2 0xA3E DUP5 DUP3 PUSH1 0x20 DUP7 ADD PUSH2 0x9D9 JUMP JUMPDEST SWAP2 POP POP SWAP3 SWAP2 POP POP JUMP JUMPDEST PUSH2 0xA50 DUP2 PUSH2 0x7E4 JUMP JUMPDEST DUP2 EQ PUSH2 0xA5A JUMPI PUSH0 DUP1 REVERT JUMPDEST POP JUMP JUMPDEST PUSH0 DUP2 CALLDATALOAD SWAP1 POP PUSH2 0xA6B DUP2 PUSH2 0xA47 JUMP JUMPDEST SWAP3 SWAP2 POP POP JUMP JUMPDEST PUSH0 DUP1 PUSH0 PUSH1 0x60 DUP5 DUP7 SUB SLT ISZERO PUSH2 0xA88 JUMPI PUSH2 0xA87 PUSH2 0x913 JUMP JUMPDEST JUMPDEST PUSH0 DUP5 ADD CALLDATALOAD PUSH8 0xFFFFFFFFFFFFFFFF DUP2 GT ISZERO PUSH2 0xAA5 JUMPI PUSH2 0xAA4 PUSH2 0x917 JUMP JUMPDEST JUMPDEST PUSH2 0xAB1 DUP7 DUP3 DUP8 ADD PUSH2 0xA1A JUMP JUMPDEST SWAP4 POP POP PUSH1 0x20 PUSH2 0xAC2 DUP7 DUP3 DUP8 ADD PUSH2 0xA5D JUMP JUMPDEST SWAP3 POP POP PUSH1 0x40 DUP5 ADD CALLDATALOAD PUSH8 0xFFFFFFFFFFFFFFFF DUP2 GT ISZERO PUSH2 0xAE3 JUMPI PUSH2 0xAE2 PUSH2 0x917 JUMP JUMPDEST JUMPDEST PUSH2 0xAEF DUP7 DUP3 DUP8 ADD PUSH2 0xA1A JUMP JUMPDEST SWAP2 POP POP SWAP3 POP SWAP3 POP SWAP3 JUMP JUMPDEST PUSH0 PUSH1 0x20 DUP3 DUP5 SUB SLT ISZERO PUSH2 0xB0E JUMPI PUSH2 0xB0D PUSH2 0x913 JUMP JUMPDEST JUMPDEST PUSH0 DUP3 ADD CALLDATALOAD PUSH8 0xFFFFFFFFFFFFFFFF DUP2 GT ISZERO PUSH2 0xB2B JUMPI PUSH2 0xB2A PUSH2 0x917 JUMP JUMPDEST JUMPDEST PUSH2 0xB37 DUP5 DUP3 DUP6 ADD PUSH2 0xA1A JUMP JUMPDEST SWAP2 POP POP SWAP3 SWAP2 POP POP JUMP JUMPDEST PUSH32 0x4E487B7100000000000000000000000000000000000000000000000000000000 PUSH0 MSTORE PUSH1 0x22 PUSH1 0x4 MSTORE PUSH1 0x24 PUSH0 REVERT JUMPDEST PUSH0 PUSH1 0x2 DUP3 DIV SWAP1 POP PUSH1 0x1 DUP3 AND DUP1 PUSH2 0xB84 JUMPI PUSH1 0x7F DUP3 AND SWAP2 POP JUMPDEST PUSH1 0x20 DUP3 LT DUP2 SUB PUSH2 0xB97 JUMPI PUSH2 0xB96 PUSH2 0xB40 JUMP JUMPDEST JUMPDEST POP SWAP2 SWAP1 POP JUMP JUMPDEST PUSH0 DUP2 SWAP1 POP DUP2 PUSH0 MSTORE PUSH1 0x20 PUSH0 KECCAK256 SWAP1 POP SWAP2 SWAP1 POP JUMP JUMPDEST PUSH0 PUSH1 0x20 PUSH1 0x1F DUP4 ADD DIV SWAP1 POP SWAP2 SWAP1 POP JUMP JUMPDEST PUSH0 DUP3 DUP3 SHL SWAP1 POP SWAP3 SWAP2 POP POP JUMP JUMPDEST PUSH0 PUSH1 0x8 DUP4 MUL PUSH2 0xBF9 PUSH32 0xFFFFFFFFFFFFFFFFFFFFFFFFFFFFFFFFFFFFFFFFFFFFFFFFFFFFFFFFFFFFFFFF DUP3 PUSH2 0xBBE JUMP JUMPDEST PUSH2 0xC03 DUP7 DUP4 PUSH2 0xBBE JUMP JUMPDEST SWAP6 POP DUP1 NOT DUP5 AND SWAP4 POP DUP1 DUP7 AND DUP5 OR SWAP3 POP POP POP SWAP4 SWAP3 POP POP POP JUMP JUMPDEST PUSH0 DUP2 SWAP1 POP SWAP2 SWAP1 POP JUMP JUMPDEST PUSH0 PUSH2 0xC3E PUSH2 0xC39 PUSH2 0xC34 DUP5 PUSH2 0x7E4 JUMP JUMPDEST PUSH2 0xC1B JUMP JUMPDEST PUSH2 0x7E4 JUMP JUMPDEST SWAP1 POP SWAP2 SWAP1 POP JUMP JUMPDEST PUSH0 DUP2 SWAP1 POP SWAP2 SWAP1 POP JUMP JUMPDEST PUSH2 0xC57 DUP4 PUSH2 0xC24 JUMP JUMPDEST PUSH2 0xC6B PUSH2 0xC63 DUP3 PUSH2 0xC45 JUMP JUMPDEST DUP5 DUP5 SLOAD PUSH2 0xBCA JUMP JUMPDEST DUP3 SSTORE POP POP POP POP JUMP JUMPDEST PUSH0 SWAP1 JUMP JUMPDEST PUSH2 0xC7F PUSH2 0xC73 JUMP JUMPDEST PUSH2 0xC8A DUP2 DUP5 DUP5 PUSH2 0xC4E JUMP JUMPDEST POP POP POP JUMP JUMPDEST JUMPDEST DUP2 DUP2 LT ISZERO PUSH2 0xCAD JUMPI PUSH2 0xCA2 PUSH0 DUP3 PUSH2 0xC77 JUMP JUMPDEST PUSH1 0x1 DUP2 ADD SWAP1 POP PUSH2 0xC90 JUMP JUMPDEST POP POP JUMP JUMPDEST PUSH1 0x1F DUP3 GT ISZERO PUSH2 0xCF2 JUMPI PUSH2 0xCC3 DUP2 PUSH2 0xB9D JUMP JUMPDEST PUSH2 0xCCC DUP5 PUSH2 0xBAF JUMP JUMPDEST DUP2 ADD PUSH1 0x20 DUP6 LT ISZERO PUSH2 0xCDB JUMPI DUP2 SWAP1 POP JUMPDEST PUSH2 0xCEF PUSH2 0xCE7 DUP6 PUSH2 0xBAF JUMP JUMPDEST DUP4 ADD DUP3 PUSH2 0xC8F JUMP JUMPDEST POP POP JUMPDEST POP POP POP JUMP JUMPDEST PUSH0 DUP3 DUP3 SHR SWAP1 POP SWAP3 SWAP2 POP POP JUMP JUMPDEST PUSH0 PUSH2 0xD12 PUSH0 NOT DUP5 PUSH1 0x8 MUL PUSH2 0xCF7 JUMP JUMPDEST NOT DUP1 DUP4 AND SWAP2 POP POP SWAP3 SWAP2 POP POP JUMP JUMPDEST PUSH0 PUSH2 0xD2A DUP4 DUP4 PUSH2 0xD03 JUMP JUMPDEST SWAP2 POP DUP3 PUSH1 0x2 MUL DUP3 OR SWAP1 POP SWAP3 SWAP2 POP POP JUMP JUMPDEST PUSH2 0xD43 DUP3 PUSH2 0x73A JUMP JUMPDEST PUSH8 0xFFFFFFFFFFFFFFFF DUP2 GT ISZERO PUSH2 0xD5C JUMPI PUSH2 0xD5B PUSH2 0x923 JUMP JUMPDEST JUMPDEST PUSH2 0xD66 DUP3 SLOAD PUSH2 0xB6D JUMP JUMPDEST PUSH2 0xD71 DUP3 DUP3 DUP6 PUSH2 0xCB1 JUMP JUMPDEST PUSH0 PUSH1 0x20 SWAP1 POP PUSH1 0x1F DUP4 GT PUSH1 0x1 DUP2 EQ PUSH2 0xDA2 JUMPI PUSH0 DUP5 ISZERO PUSH2 0xD90 JUMPI DUP3 DUP8 ADD MLOAD SWAP1 POP JUMPDEST PUSH2 0xD9A DUP6 DUP3 PUSH2 0xD1F JUMP JUMPDEST DUP7 SSTORE POP PUSH2 0xE01 JUMP JUMPDEST PUSH1 0x1F NOT DUP5 AND PUSH2 0xDB0 DUP7 PUSH2 0xB9D JUMP JUMPDEST PUSH0 JUMPDEST DUP3 DUP2 LT ISZERO PUSH2 0xDD7 JUMPI DUP5 DUP10 ADD MLOAD DUP3 SSTORE PUSH1 0x1 DUP3 ADD SWAP2 POP PUSH1 0x20 DUP6 ADD SWAP5 POP PUSH1 0x20 DUP2 ADD SWAP1 POP PUSH2 0xDB2 JUMP JUMPDEST DUP7 DUP4 LT ISZERO PUSH2 0xDF4 JUMPI DUP5 DUP10 ADD MLOAD PUSH2 0xDF0 PUSH1 0x1F DUP10 AND DUP3 PUSH2 0xD03 JUMP JUMPDEST DUP4 SSTORE POP JUMPDEST PUSH1 0x1 PUSH1 0x2 DUP9 MUL ADD DUP9 SSTORE POP POP POP JUMPDEST POP POP POP POP POP POP JUMP INVALID LOG2 PUSH5 0x6970667358 0x22 SLT KECCAK256 0xB5 0xDC SWAP9 PUSH15 0x2B4F2E4CFD7E6F6FFDA092DA6FA9D5 PUSH19 0xCEBA20EAB0BEF06B780F121764736F6C634300 ADDMOD XOR STOP CALLER "
				},
				"gasEstimates": {
					"creation": {
						"codeDepositCost": "729400",
						"executionCost": "infinite",
						"totalCost": "infinite"
					},
					"external": {
						"changeJobHuman1(string)": "infinite",
						"getHuman1()": "infinite",
						"getHuman2()": "infinite",
						"getNamenHuman1()": "infinite",
						"human1()": "infinite",
						"human2()": "infinite",
						"initializeHuman2(string,uint256,string)": "infinite"
					}
				},
				"methodIdentifiers": {
					"changeJobHuman1(string)": "ddd6016c",
					"getHuman1()": "427156f3",
					"getHuman2()": "757f29c6",
					"getNamenHuman1()": "0a9a0533",
					"human1()": "ae5e1170",
					"human2()": "396466b7",
					"initializeHuman2(string,uint256,string)": "af2dd4d4"
				}
			},
			"storageLayout": {
				"storage": [
					{
						"astId": 16,
						"contract": "5장_매핑,배열,구조체/5_7.sol:Ex5_7",
						"label": "human1",
						"offset": 0,
						"slot": "0",
						"type": "t_struct(Human)8_storage"
					},
					{
						"astId": 19,
						"contract": "5장_매핑,배열,구조체/5_7.sol:Ex5_7",
						"label": "human2",
						"offset": 0,
						"slot": "3",
						"type": "t_struct(Human)8_storage"
					}
				],
				"types": {
					"t_string_storage": {
						"encoding": "bytes",
						"label": "string",
						"numberOfBytes": "32"
					},
					"t_struct(Human)8_storage": {
						"encoding": "inplace",
						"label": "struct Ex5_7.Human",
						"members": [
							{
								"astId": 3,
								"contract": "5장_매핑,배열,구조체/5_7.sol:Ex5_7",
								"label": "name",
								"offset": 0,
								"slot": "0",
								"type": "t_string_storage"
							},
							{
								"astId": 5,
								"contract": "5장_매핑,배열,구조체/5_7.sol:Ex5_7",
								"label": "age",
								"offset": 0,
								"slot": "1",
								"type": "t_uint256"
							},
							{
								"astId": 7,
								"contract": "5장_매핑,배열,구조체/5_7.sol:Ex5_7",
								"label": "job",
								"offset": 0,
								"slot": "2",
								"type": "t_string_storage"
							}
						],
						"numberOfBytes": "96"
					},
					"t_uint256": {
						"encoding": "inplace",
						"label": "uint256",
						"numberOfBytes": "32"
					}
				}
			},
			"userdoc": {
				"kind": "user",
				"methods": {},
				"version": 1
			}
		}
	}
}