{
	"5장_매핑,배열,구조체/5_6.sol": {
		"Ex5_6": {
			"abi": [
				{
					"inputs": [
						{
							"internalType": "uint256",
							"name": "",
							"type": "uint256"
						}
					],
					"name": "fruitArray",
					"outputs": [
						{
							"internalType": "string",
							"name": "",
							"type": "string"
						}
					],
					"stateMutability": "view",
					"type": "function"
				},
				{
					"inputs": [
						{
							"internalType": "string",
							"name": "_word",
							"type": "string"
						}
					],
					"name": "linearSearch",
					"outputs": [
						{
							"internalType": "uint256",
							"name": "",
							"type": "uint256"
						},
						{
							"internalType": "string",
							"name": "",
							"type": "string"
						}
					],
					"stateMutability": "view",
					"type": "function"
				}
			],
			"devdoc": {
				"kind": "dev",
				"methods": {},
				"version": 1
			},
			"evm": {
				"assembly": "    /* \"5\\xec\\x9e\\xa5_\\xeb\\xa7\\xa4\\xed\\x95\\x91,\\xeb\\xb0\\xb0\\xec\\x97\\xb4,\\xea\\xb5\\xac\\xec\\xa1\\xb0\\xec\\xb2\\xb4/5_6.sol\":88:1751  contract Ex5_6{... */\n  mstore(0x40, 0x80)\n    /* \"5\\xec\\x9e\\xa5_\\xeb\\xa7\\xa4\\xed\\x95\\x91,\\xeb\\xb0\\xb0\\xec\\x97\\xb4,\\xea\\xb5\\xac\\xec\\xa1\\xb0\\xec\\xb2\\xb4/5_6.sol\":109:181  string[] public fruitArray=[\"apple\",\"banana\",\"coconut\",\"durian\",\"etrog\"] */\n  mload(0x40)\n  dup1\n  0xa0\n  add\n  0x40\n  mstore\n  dup1\n  mload(0x40)\n  dup1\n  0x40\n  add\n  0x40\n  mstore\n  dup1\n  0x05\n  dup2\n  mstore\n  0x20\n  add\n  0x6170706c65000000000000000000000000000000000000000000000000000000\n  dup2\n  mstore\n  pop\n  dup2\n  mstore\n  0x20\n  add\n  mload(0x40)\n  dup1\n  0x40\n  add\n  0x40\n  mstore\n  dup1\n  0x06\n  dup2\n  mstore\n  0x20\n  add\n  0x62616e616e610000000000000000000000000000000000000000000000000000\n  dup2\n  mstore\n  pop\n  dup2\n  mstore\n  0x20\n  add\n  mload(0x40)\n  dup1\n  0x40\n  add\n  0x40\n  mstore\n  dup1\n  0x07\n  dup2\n  mstore\n  0x20\n  add\n  0x636f636f6e757400000000000000000000000000000000000000000000000000\n  dup2\n  mstore\n  pop\n  dup2\n  mstore\n  0x20\n  add\n  mload(0x40)\n  dup1\n  0x40\n  add\n  0x40\n  mstore\n  dup1\n  0x06\n  dup2\n  mstore\n  0x20\n  add\n  0x64757269616e0000000000000000000000000000000000000000000000000000\n  dup2\n  mstore\n  pop\n  dup2\n  mstore\n  0x20\n  add\n  mload(0x40)\n  dup1\n  0x40\n  add\n  0x40\n  mstore\n  dup1\n  0x05\n  dup2\n  mstore\n  0x20\n  add\n  0x6574726f67000000000000000000000000000000000000000000000000000000\n  dup2\n  mstore\n  pop\n  dup2\n  mstore\n  pop\n  0x00\n  swap1\n  0x05\n  tag_1\n  swap3\n  swap2\n  swap1\n  tag_2\n  jump\t// in\ntag_1:\n  pop\n    /* \"5\\xec\\x9e\\xa5_\\xeb\\xa7\\xa4\\xed\\x95\\x91,\\xeb\\xb0\\xb0\\xec\\x97\\xb4,\\xea\\xb5\\xac\\xec\\xa1\\xb0\\xec\\xb2\\xb4/5_6.sol\":88:1751  contract Ex5_6{... */\n  callvalue\n  dup1\n  iszero\n  tag_3\n  jumpi\n  0x00\n  dup1\n  revert\ntag_3:\n  pop\n  jump(tag_4)\ntag_2:\n  dup3\n  dup1\n  sload\n  dup3\n  dup3\n  sstore\n  swap1\n  0x00\n  mstore\n  keccak256(0x00, 0x20)\n  swap1\n  dup2\n  add\n  swap3\n  dup3\n  iszero\n  tag_5\n  jumpi\n  swap2\n  0x20\n  mul\n  dup3\n  add\ntag_6:\n  dup3\n  dup2\n  gt\n  iszero\n  tag_7\n  jumpi\n  dup3\n  mload\n  dup3\n  swap1\n  dup2\n  tag_8\n  swap2\n  swap1\n  tag_9\n  jump\t// in\ntag_8:\n  pop\n  swap2\n  0x20\n  add\n  swap2\n  swap1\n  0x01\n  add\n  swap1\n  jump(tag_6)\ntag_7:\ntag_5:\n  pop\n  swap1\n  pop\n  tag_10\n  swap2\n  swap1\n  tag_11\n  jump\t// in\ntag_10:\n  pop\n  swap1\n  jump\t// out\ntag_11:\ntag_12:\n  dup1\n  dup3\n  gt\n  iszero\n  tag_13\n  jumpi\n  0x00\n  dup2\n  dup2\n  tag_14\n  swap2\n  swap1\n  tag_15\n  jump\t// in\ntag_14:\n  pop\n  0x01\n  add\n  jump(tag_12)\ntag_13:\n  pop\n  swap1\n  jump\t// out\ntag_15:\n  pop\n  dup1\n  sload\n  tag_16\n  swap1\n  tag_17\n  jump\t// in\ntag_16:\n  0x00\n  dup3\n  sstore\n  dup1\n  0x1f\n  lt\n  tag_19\n  jumpi\n  pop\n  jump(tag_18)\ntag_19:\n  0x1f\n  add\n  0x20\n  swap1\n  div\n  swap1\n  0x00\n  mstore\n  keccak256(0x00, 0x20)\n  swap1\n  dup2\n  add\n  swap1\n  tag_20\n  swap2\n  swap1\n  tag_21\n  jump\t// in\ntag_20:\ntag_18:\n  pop\n  jump\t// out\ntag_21:\ntag_22:\n  dup1\n  dup3\n  gt\n  iszero\n  tag_23\n  jumpi\n  0x00\n  dup2\n  0x00\n  swap1\n  sstore\n  pop\n  0x01\n  add\n  jump(tag_22)\ntag_23:\n  pop\n  swap1\n  jump\t// out\n    /* \"#utility.yul\":7:106   */\ntag_24:\n    /* \"#utility.yul\":59:65   */\n  0x00\n    /* \"#utility.yul\":93:98   */\n  dup2\n    /* \"#utility.yul\":87:99   */\n  mload\n    /* \"#utility.yul\":77:99   */\n  swap1\n  pop\n    /* \"#utility.yul\":7:106   */\n  swap2\n  swap1\n  pop\n  jump\t// out\n    /* \"#utility.yul\":112:292   */\ntag_25:\n    /* \"#utility.yul\":160:237   */\n  0x4e487b7100000000000000000000000000000000000000000000000000000000\n    /* \"#utility.yul\":157:158   */\n  0x00\n    /* \"#utility.yul\":150:238   */\n  mstore\n    /* \"#utility.yul\":257:261   */\n  0x41\n    /* \"#utility.yul\":254:255   */\n  0x04\n    /* \"#utility.yul\":247:262   */\n  mstore\n    /* \"#utility.yul\":281:285   */\n  0x24\n    /* \"#utility.yul\":278:279   */\n  0x00\n    /* \"#utility.yul\":271:286   */\n  revert\n    /* \"#utility.yul\":298:478   */\ntag_26:\n    /* \"#utility.yul\":346:423   */\n  0x4e487b7100000000000000000000000000000000000000000000000000000000\n    /* \"#utility.yul\":343:344   */\n  0x00\n    /* \"#utility.yul\":336:424   */\n  mstore\n    /* \"#utility.yul\":443:447   */\n  0x22\n    /* \"#utility.yul\":440:441   */\n  0x04\n    /* \"#utility.yul\":433:448   */\n  mstore\n    /* \"#utility.yul\":467:471   */\n  0x24\n    /* \"#utility.yul\":464:465   */\n  0x00\n    /* \"#utility.yul\":457:472   */\n  revert\n    /* \"#utility.yul\":484:804   */\ntag_17:\n    /* \"#utility.yul\":528:534   */\n  0x00\n    /* \"#utility.yul\":565:566   */\n  0x02\n    /* \"#utility.yul\":559:563   */\n  dup3\n    /* \"#utility.yul\":555:567   */\n  div\n    /* \"#utility.yul\":545:567   */\n  swap1\n  pop\n    /* \"#utility.yul\":612:613   */\n  0x01\n    /* \"#utility.yul\":606:610   */\n  dup3\n    /* \"#utility.yul\":602:614   */\n  and\n    /* \"#utility.yul\":633:651   */\n  dup1\n    /* \"#utility.yul\":623:704   */\n  tag_48\n  jumpi\n    /* \"#utility.yul\":689:693   */\n  0x7f\n    /* \"#utility.yul\":681:687   */\n  dup3\n    /* \"#utility.yul\":677:694   */\n  and\n    /* \"#utility.yul\":667:694   */\n  swap2\n  pop\n    /* \"#utility.yul\":623:704   */\ntag_48:\n    /* \"#utility.yul\":751:753   */\n  0x20\n    /* \"#utility.yul\":743:749   */\n  dup3\n    /* \"#utility.yul\":740:754   */\n  lt\n    /* \"#utility.yul\":720:738   */\n  dup2\n    /* \"#utility.yul\":717:755   */\n  sub\n    /* \"#utility.yul\":714:798   */\n  tag_49\n  jumpi\n    /* \"#utility.yul\":770:788   */\n  tag_50\n  tag_26\n  jump\t// in\ntag_50:\n    /* \"#utility.yul\":714:798   */\ntag_49:\n    /* \"#utility.yul\":535:804   */\n  pop\n    /* \"#utility.yul\":484:804   */\n  swap2\n  swap1\n  pop\n  jump\t// out\n    /* \"#utility.yul\":810:951   */\ntag_27:\n    /* \"#utility.yul\":859:863   */\n  0x00\n    /* \"#utility.yul\":882:885   */\n  dup2\n    /* \"#utility.yul\":874:885   */\n  swap1\n  pop\n    /* \"#utility.yul\":905:908   */\n  dup2\n    /* \"#utility.yul\":902:903   */\n  0x00\n    /* \"#utility.yul\":895:909   */\n  mstore\n    /* \"#utility.yul\":939:943   */\n  0x20\n    /* \"#utility.yul\":936:937   */\n  0x00\n    /* \"#utility.yul\":926:944   */\n  keccak256\n    /* \"#utility.yul\":918:944   */\n  swap1\n  pop\n    /* \"#utility.yul\":810:951   */\n  swap2\n  swap1\n  pop\n  jump\t// out\n    /* \"#utility.yul\":957:1050   */\ntag_28:\n    /* \"#utility.yul\":994:1000   */\n  0x00\n    /* \"#utility.yul\":1041:1043   */\n  0x20\n    /* \"#utility.yul\":1036:1038   */\n  0x1f\n    /* \"#utility.yul\":1029:1034   */\n  dup4\n    /* \"#utility.yul\":1025:1039   */\n  add\n    /* \"#utility.yul\":1021:1044   */\n  div\n    /* \"#utility.yul\":1011:1044   */\n  swap1\n  pop\n    /* \"#utility.yul\":957:1050   */\n  swap2\n  swap1\n  pop\n  jump\t// out\n    /* \"#utility.yul\":1056:1163   */\ntag_29:\n    /* \"#utility.yul\":1100:1108   */\n  0x00\n    /* \"#utility.yul\":1150:1155   */\n  dup3\n    /* \"#utility.yul\":1144:1148   */\n  dup3\n    /* \"#utility.yul\":1140:1156   */\n  shl\n    /* \"#utility.yul\":1119:1156   */\n  swap1\n  pop\n    /* \"#utility.yul\":1056:1163   */\n  swap3\n  swap2\n  pop\n  pop\n  jump\t// out\n    /* \"#utility.yul\":1169:1562   */\ntag_30:\n    /* \"#utility.yul\":1238:1244   */\n  0x00\n    /* \"#utility.yul\":1288:1289   */\n  0x08\n    /* \"#utility.yul\":1276:1286   */\n  dup4\n    /* \"#utility.yul\":1272:1290   */\n  mul\n    /* \"#utility.yul\":1311:1408   */\n  tag_55\n    /* \"#utility.yul\":1341:1407   */\n  0xffffffffffffffffffffffffffffffffffffffffffffffffffffffffffffffff\n    /* \"#utility.yul\":1330:1339   */\n  dup3\n    /* \"#utility.yul\":1311:1408   */\n  tag_29\n  jump\t// in\ntag_55:\n    /* \"#utility.yul\":1429:1468   */\n  tag_56\n    /* \"#utility.yul\":1459:1467   */\n  dup7\n    /* \"#utility.yul\":1448:1457   */\n  dup4\n    /* \"#utility.yul\":1429:1468   */\n  tag_29\n  jump\t// in\ntag_56:\n    /* \"#utility.yul\":1417:1468   */\n  swap6\n  pop\n    /* \"#utility.yul\":1501:1505   */\n  dup1\n    /* \"#utility.yul\":1497:1506   */\n  not\n    /* \"#utility.yul\":1490:1495   */\n  dup5\n    /* \"#utility.yul\":1486:1507   */\n  and\n    /* \"#utility.yul\":1477:1507   */\n  swap4\n  pop\n    /* \"#utility.yul\":1550:1554   */\n  dup1\n    /* \"#utility.yul\":1540:1548   */\n  dup7\n    /* \"#utility.yul\":1536:1555   */\n  and\n    /* \"#utility.yul\":1529:1534   */\n  dup5\n    /* \"#utility.yul\":1526:1556   */\n  or\n    /* \"#utility.yul\":1516:1556   */\n  swap3\n  pop\n    /* \"#utility.yul\":1245:1562   */\n  pop\n  pop\n    /* \"#utility.yul\":1169:1562   */\n  swap4\n  swap3\n  pop\n  pop\n  pop\n  jump\t// out\n    /* \"#utility.yul\":1568:1645   */\ntag_31:\n    /* \"#utility.yul\":1605:1612   */\n  0x00\n    /* \"#utility.yul\":1634:1639   */\n  dup2\n    /* \"#utility.yul\":1623:1639   */\n  swap1\n  pop\n    /* \"#utility.yul\":1568:1645   */\n  swap2\n  swap1\n  pop\n  jump\t// out\n    /* \"#utility.yul\":1651:1711   */\ntag_32:\n    /* \"#utility.yul\":1679:1682   */\n  0x00\n    /* \"#utility.yul\":1700:1705   */\n  dup2\n    /* \"#utility.yul\":1693:1705   */\n  swap1\n  pop\n    /* \"#utility.yul\":1651:1711   */\n  swap2\n  swap1\n  pop\n  jump\t// out\n    /* \"#utility.yul\":1717:1859   */\ntag_33:\n    /* \"#utility.yul\":1767:1776   */\n  0x00\n    /* \"#utility.yul\":1800:1853   */\n  tag_60\n    /* \"#utility.yul\":1818:1852   */\n  tag_61\n    /* \"#utility.yul\":1827:1851   */\n  tag_62\n    /* \"#utility.yul\":1845:1850   */\n  dup5\n    /* \"#utility.yul\":1827:1851   */\n  tag_31\n  jump\t// in\ntag_62:\n    /* \"#utility.yul\":1818:1852   */\n  tag_32\n  jump\t// in\ntag_61:\n    /* \"#utility.yul\":1800:1853   */\n  tag_31\n  jump\t// in\ntag_60:\n    /* \"#utility.yul\":1787:1853   */\n  swap1\n  pop\n    /* \"#utility.yul\":1717:1859   */\n  swap2\n  swap1\n  pop\n  jump\t// out\n    /* \"#utility.yul\":1865:1940   */\ntag_34:\n    /* \"#utility.yul\":1908:1911   */\n  0x00\n    /* \"#utility.yul\":1929:1934   */\n  dup2\n    /* \"#utility.yul\":1922:1934   */\n  swap1\n  pop\n    /* \"#utility.yul\":1865:1940   */\n  swap2\n  swap1\n  pop\n  jump\t// out\n    /* \"#utility.yul\":1946:2215   */\ntag_35:\n    /* \"#utility.yul\":2056:2095   */\n  tag_65\n    /* \"#utility.yul\":2087:2094   */\n  dup4\n    /* \"#utility.yul\":2056:2095   */\n  tag_33\n  jump\t// in\ntag_65:\n    /* \"#utility.yul\":2117:2208   */\n  tag_66\n    /* \"#utility.yul\":2166:2207   */\n  tag_67\n    /* \"#utility.yul\":2190:2206   */\n  dup3\n    /* \"#utility.yul\":2166:2207   */\n  tag_34\n  jump\t// in\ntag_67:\n    /* \"#utility.yul\":2158:2164   */\n  dup5\n    /* \"#utility.yul\":2151:2155   */\n  dup5\n    /* \"#utility.yul\":2145:2156   */\n  sload\n    /* \"#utility.yul\":2117:2208   */\n  tag_30\n  jump\t// in\ntag_66:\n    /* \"#utility.yul\":2111:2115   */\n  dup3\n    /* \"#utility.yul\":2104:2209   */\n  sstore\n    /* \"#utility.yul\":2022:2215   */\n  pop\n    /* \"#utility.yul\":1946:2215   */\n  pop\n  pop\n  pop\n  jump\t// out\n    /* \"#utility.yul\":2221:2294   */\ntag_36:\n    /* \"#utility.yul\":2266:2269   */\n  0x00\n    /* \"#utility.yul\":2221:2294   */\n  swap1\n  jump\t// out\n    /* \"#utility.yul\":2300:2489   */\ntag_37:\n    /* \"#utility.yul\":2377:2409   */\n  tag_70\n  tag_36\n  jump\t// in\ntag_70:\n    /* \"#utility.yul\":2418:2483   */\n  tag_71\n    /* \"#utility.yul\":2476:2482   */\n  dup2\n    /* \"#utility.yul\":2468:2474   */\n  dup5\n    /* \"#utility.yul\":2462:2466   */\n  dup5\n    /* \"#utility.yul\":2418:2483   */\n  tag_35\n  jump\t// in\ntag_71:\n    /* \"#utility.yul\":2353:2489   */\n  pop\n    /* \"#utility.yul\":2300:2489   */\n  pop\n  pop\n  jump\t// out\n    /* \"#utility.yul\":2495:2681   */\ntag_38:\n    /* \"#utility.yul\":2555:2675   */\ntag_73:\n    /* \"#utility.yul\":2572:2575   */\n  dup2\n    /* \"#utility.yul\":2565:2570   */\n  dup2\n    /* \"#utility.yul\":2562:2576   */\n  lt\n    /* \"#utility.yul\":2555:2675   */\n  iszero\n  tag_75\n  jumpi\n    /* \"#utility.yul\":2626:2665   */\n  tag_76\n    /* \"#utility.yul\":2663:2664   */\n  0x00\n    /* \"#utility.yul\":2656:2661   */\n  dup3\n    /* \"#utility.yul\":2626:2665   */\n  tag_37\n  jump\t// in\ntag_76:\n    /* \"#utility.yul\":2599:2600   */\n  0x01\n    /* \"#utility.yul\":2592:2597   */\n  dup2\n    /* \"#utility.yul\":2588:2601   */\n  add\n    /* \"#utility.yul\":2579:2601   */\n  swap1\n  pop\n    /* \"#utility.yul\":2555:2675   */\n  jump(tag_73)\ntag_75:\n    /* \"#utility.yul\":2495:2681   */\n  pop\n  pop\n  jump\t// out\n    /* \"#utility.yul\":2687:3230   */\ntag_39:\n    /* \"#utility.yul\":2788:2790   */\n  0x1f\n    /* \"#utility.yul\":2783:2786   */\n  dup3\n    /* \"#utility.yul\":2780:2791   */\n  gt\n    /* \"#utility.yul\":2777:3223   */\n  iszero\n  tag_78\n  jumpi\n    /* \"#utility.yul\":2822:2860   */\n  tag_79\n    /* \"#utility.yul\":2854:2859   */\n  dup2\n    /* \"#utility.yul\":2822:2860   */\n  tag_27\n  jump\t// in\ntag_79:\n    /* \"#utility.yul\":2906:2935   */\n  tag_80\n    /* \"#utility.yul\":2924:2934   */\n  dup5\n    /* \"#utility.yul\":2906:2935   */\n  tag_28\n  jump\t// in\ntag_80:\n    /* \"#utility.yul\":2896:2904   */\n  dup2\n    /* \"#utility.yul\":2892:2936   */\n  add\n    /* \"#utility.yul\":3089:3091   */\n  0x20\n    /* \"#utility.yul\":3077:3087   */\n  dup6\n    /* \"#utility.yul\":3074:3092   */\n  lt\n    /* \"#utility.yul\":3071:3120   */\n  iszero\n  tag_81\n  jumpi\n    /* \"#utility.yul\":3110:3118   */\n  dup2\n    /* \"#utility.yul\":3095:3118   */\n  swap1\n  pop\n    /* \"#utility.yul\":3071:3120   */\ntag_81:\n    /* \"#utility.yul\":3133:3213   */\n  tag_82\n    /* \"#utility.yul\":3189:3211   */\n  tag_83\n    /* \"#utility.yul\":3207:3210   */\n  dup6\n    /* \"#utility.yul\":3189:3211   */\n  tag_28\n  jump\t// in\ntag_83:\n    /* \"#utility.yul\":3179:3187   */\n  dup4\n    /* \"#utility.yul\":3175:3212   */\n  add\n    /* \"#utility.yul\":3162:3173   */\n  dup3\n    /* \"#utility.yul\":3133:3213   */\n  tag_38\n  jump\t// in\ntag_82:\n    /* \"#utility.yul\":2792:3223   */\n  pop\n  pop\n    /* \"#utility.yul\":2777:3223   */\ntag_78:\n    /* \"#utility.yul\":2687:3230   */\n  pop\n  pop\n  pop\n  jump\t// out\n    /* \"#utility.yul\":3236:3353   */\ntag_40:\n    /* \"#utility.yul\":3290:3298   */\n  0x00\n    /* \"#utility.yul\":3340:3345   */\n  dup3\n    /* \"#utility.yul\":3334:3338   */\n  dup3\n    /* \"#utility.yul\":3330:3346   */\n  shr\n    /* \"#utility.yul\":3309:3346   */\n  swap1\n  pop\n    /* \"#utility.yul\":3236:3353   */\n  swap3\n  swap2\n  pop\n  pop\n  jump\t// out\n    /* \"#utility.yul\":3359:3528   */\ntag_41:\n    /* \"#utility.yul\":3403:3409   */\n  0x00\n    /* \"#utility.yul\":3436:3487   */\n  tag_86\n    /* \"#utility.yul\":3484:3485   */\n  0x00\n    /* \"#utility.yul\":3480:3486   */\n  not\n    /* \"#utility.yul\":3472:3477   */\n  dup5\n    /* \"#utility.yul\":3469:3470   */\n  0x08\n    /* \"#utility.yul\":3465:3478   */\n  mul\n    /* \"#utility.yul\":3436:3487   */\n  tag_40\n  jump\t// in\ntag_86:\n    /* \"#utility.yul\":3432:3488   */\n  not\n    /* \"#utility.yul\":3517:3521   */\n  dup1\n    /* \"#utility.yul\":3511:3515   */\n  dup4\n    /* \"#utility.yul\":3507:3522   */\n  and\n    /* \"#utility.yul\":3497:3522   */\n  swap2\n  pop\n    /* \"#utility.yul\":3410:3528   */\n  pop\n    /* \"#utility.yul\":3359:3528   */\n  swap3\n  swap2\n  pop\n  pop\n  jump\t// out\n    /* \"#utility.yul\":3533:3828   */\ntag_42:\n    /* \"#utility.yul\":3609:3613   */\n  0x00\n    /* \"#utility.yul\":3755:3784   */\n  tag_88\n    /* \"#utility.yul\":3780:3783   */\n  dup4\n    /* \"#utility.yul\":3774:3778   */\n  dup4\n    /* \"#utility.yul\":3755:3784   */\n  tag_41\n  jump\t// in\ntag_88:\n    /* \"#utility.yul\":3747:3784   */\n  swap2\n  pop\n    /* \"#utility.yul\":3817:3820   */\n  dup3\n    /* \"#utility.yul\":3814:3815   */\n  0x02\n    /* \"#utility.yul\":3810:3821   */\n  mul\n    /* \"#utility.yul\":3804:3808   */\n  dup3\n    /* \"#utility.yul\":3801:3822   */\n  or\n    /* \"#utility.yul\":3793:3822   */\n  swap1\n  pop\n    /* \"#utility.yul\":3533:3828   */\n  swap3\n  swap2\n  pop\n  pop\n  jump\t// out\n    /* \"#utility.yul\":3833:5228   */\ntag_9:\n    /* \"#utility.yul\":3950:3987   */\n  tag_90\n    /* \"#utility.yul\":3983:3986   */\n  dup3\n    /* \"#utility.yul\":3950:3987   */\n  tag_24\n  jump\t// in\ntag_90:\n    /* \"#utility.yul\":4052:4070   */\n  0xffffffffffffffff\n    /* \"#utility.yul\":4044:4050   */\n  dup2\n    /* \"#utility.yul\":4041:4071   */\n  gt\n    /* \"#utility.yul\":4038:4094   */\n  iszero\n  tag_91\n  jumpi\n    /* \"#utility.yul\":4074:4092   */\n  tag_92\n  tag_25\n  jump\t// in\ntag_92:\n    /* \"#utility.yul\":4038:4094   */\ntag_91:\n    /* \"#utility.yul\":4118:4156   */\n  tag_93\n    /* \"#utility.yul\":4150:4154   */\n  dup3\n    /* \"#utility.yul\":4144:4155   */\n  sload\n    /* \"#utility.yul\":4118:4156   */\n  tag_17\n  jump\t// in\ntag_93:\n    /* \"#utility.yul\":4203:4270   */\n  tag_94\n    /* \"#utility.yul\":4263:4269   */\n  dup3\n    /* \"#utility.yul\":4255:4261   */\n  dup3\n    /* \"#utility.yul\":4249:4253   */\n  dup6\n    /* \"#utility.yul\":4203:4270   */\n  tag_39\n  jump\t// in\ntag_94:\n    /* \"#utility.yul\":4297:4298   */\n  0x00\n    /* \"#utility.yul\":4321:4325   */\n  0x20\n    /* \"#utility.yul\":4308:4325   */\n  swap1\n  pop\n    /* \"#utility.yul\":4353:4355   */\n  0x1f\n    /* \"#utility.yul\":4345:4351   */\n  dup4\n    /* \"#utility.yul\":4342:4356   */\n  gt\n    /* \"#utility.yul\":4370:4371   */\n  0x01\n    /* \"#utility.yul\":4365:4983   */\n  dup2\n  eq\n  tag_96\n  jumpi\n    /* \"#utility.yul\":5027:5028   */\n  0x00\n    /* \"#utility.yul\":5044:5050   */\n  dup5\n    /* \"#utility.yul\":5041:5118   */\n  iszero\n  tag_97\n  jumpi\n    /* \"#utility.yul\":5093:5102   */\n  dup3\n    /* \"#utility.yul\":5088:5091   */\n  dup8\n    /* \"#utility.yul\":5084:5103   */\n  add\n    /* \"#utility.yul\":5078:5104   */\n  mload\n    /* \"#utility.yul\":5069:5104   */\n  swap1\n  pop\n    /* \"#utility.yul\":5041:5118   */\ntag_97:\n    /* \"#utility.yul\":5144:5211   */\n  tag_98\n    /* \"#utility.yul\":5204:5210   */\n  dup6\n    /* \"#utility.yul\":5197:5202   */\n  dup3\n    /* \"#utility.yul\":5144:5211   */\n  tag_42\n  jump\t// in\ntag_98:\n    /* \"#utility.yul\":5138:5142   */\n  dup7\n    /* \"#utility.yul\":5131:5212   */\n  sstore\n    /* \"#utility.yul\":5000:5222   */\n  pop\n    /* \"#utility.yul\":4335:5222   */\n  jump(tag_95)\n    /* \"#utility.yul\":4365:4983   */\ntag_96:\n    /* \"#utility.yul\":4417:4421   */\n  0x1f\n    /* \"#utility.yul\":4413:4422   */\n  not\n    /* \"#utility.yul\":4405:4411   */\n  dup5\n    /* \"#utility.yul\":4401:4423   */\n  and\n    /* \"#utility.yul\":4451:4488   */\n  tag_99\n    /* \"#utility.yul\":4483:4487   */\n  dup7\n    /* \"#utility.yul\":4451:4488   */\n  tag_27\n  jump\t// in\ntag_99:\n    /* \"#utility.yul\":4510:4511   */\n  0x00\n    /* \"#utility.yul\":4524:4732   */\ntag_100:\n    /* \"#utility.yul\":4538:4545   */\n  dup3\n    /* \"#utility.yul\":4535:4536   */\n  dup2\n    /* \"#utility.yul\":4532:4546   */\n  lt\n    /* \"#utility.yul\":4524:4732   */\n  iszero\n  tag_102\n  jumpi\n    /* \"#utility.yul\":4617:4626   */\n  dup5\n    /* \"#utility.yul\":4612:4615   */\n  dup10\n    /* \"#utility.yul\":4608:4627   */\n  add\n    /* \"#utility.yul\":4602:4628   */\n  mload\n    /* \"#utility.yul\":4594:4600   */\n  dup3\n    /* \"#utility.yul\":4587:4629   */\n  sstore\n    /* \"#utility.yul\":4668:4669   */\n  0x01\n    /* \"#utility.yul\":4660:4666   */\n  dup3\n    /* \"#utility.yul\":4656:4670   */\n  add\n    /* \"#utility.yul\":4646:4670   */\n  swap2\n  pop\n    /* \"#utility.yul\":4715:4717   */\n  0x20\n    /* \"#utility.yul\":4704:4713   */\n  dup6\n    /* \"#utility.yul\":4700:4718   */\n  add\n    /* \"#utility.yul\":4687:4718   */\n  swap5\n  pop\n    /* \"#utility.yul\":4561:4565   */\n  0x20\n    /* \"#utility.yul\":4558:4559   */\n  dup2\n    /* \"#utility.yul\":4554:4566   */\n  add\n    /* \"#utility.yul\":4549:4566   */\n  swap1\n  pop\n    /* \"#utility.yul\":4524:4732   */\n  jump(tag_100)\ntag_102:\n    /* \"#utility.yul\":4760:4766   */\n  dup7\n    /* \"#utility.yul\":4751:4758   */\n  dup4\n    /* \"#utility.yul\":4748:4767   */\n  lt\n    /* \"#utility.yul\":4745:4924   */\n  iszero\n  tag_103\n  jumpi\n    /* \"#utility.yul\":4818:4827   */\n  dup5\n    /* \"#utility.yul\":4813:4816   */\n  dup10\n    /* \"#utility.yul\":4809:4828   */\n  add\n    /* \"#utility.yul\":4803:4829   */\n  mload\n    /* \"#utility.yul\":4861:4909   */\n  tag_104\n    /* \"#utility.yul\":4903:4907   */\n  0x1f\n    /* \"#utility.yul\":4895:4901   */\n  dup10\n    /* \"#utility.yul\":4891:4908   */\n  and\n    /* \"#utility.yul\":4880:4889   */\n  dup3\n    /* \"#utility.yul\":4861:4909   */\n  tag_41\n  jump\t// in\ntag_104:\n    /* \"#utility.yul\":4853:4859   */\n  dup4\n    /* \"#utility.yul\":4846:4910   */\n  sstore\n    /* \"#utility.yul\":4768:4924   */\n  pop\n    /* \"#utility.yul\":4745:4924   */\ntag_103:\n    /* \"#utility.yul\":4970:4971   */\n  0x01\n    /* \"#utility.yul\":4966:4967   */\n  0x02\n    /* \"#utility.yul\":4958:4964   */\n  dup9\n    /* \"#utility.yul\":4954:4968   */\n  mul\n    /* \"#utility.yul\":4950:4972   */\n  add\n    /* \"#utility.yul\":4944:4948   */\n  dup9\n    /* \"#utility.yul\":4937:4973   */\n  sstore\n    /* \"#utility.yul\":4372:4983   */\n  pop\n  pop\n  pop\n    /* \"#utility.yul\":4335:5222   */\ntag_95:\n  pop\n    /* \"#utility.yul\":3925:5228   */\n  pop\n  pop\n  pop\n    /* \"#utility.yul\":3833:5228   */\n  pop\n  pop\n  jump\t// out\n    /* \"5\\xec\\x9e\\xa5_\\xeb\\xa7\\xa4\\xed\\x95\\x91,\\xeb\\xb0\\xb0\\xec\\x97\\xb4,\\xea\\xb5\\xac\\xec\\xa1\\xb0\\xec\\xb2\\xb4/5_6.sol\":88:1751  contract Ex5_6{... */\ntag_4:\n  dataSize(sub_0)\n  dup1\n  dataOffset(sub_0)\n  0x00\n  codecopy\n  0x00\n  return\nstop\n\nsub_0: assembly {\n        /* \"5\\xec\\x9e\\xa5_\\xeb\\xa7\\xa4\\xed\\x95\\x91,\\xeb\\xb0\\xb0\\xec\\x97\\xb4,\\xea\\xb5\\xac\\xec\\xa1\\xb0\\xec\\xb2\\xb4/5_6.sol\":88:1751  contract Ex5_6{... */\n      mstore(0x40, 0x80)\n      callvalue\n      dup1\n      iszero\n      tag_1\n      jumpi\n      0x00\n      dup1\n      revert\n    tag_1:\n      pop\n      jumpi(tag_2, lt(calldatasize, 0x04))\n      shr(0xe0, calldataload(0x00))\n      dup1\n      0x655f478b\n      eq\n      tag_3\n      jumpi\n      dup1\n      0xdfaadcbf\n      eq\n      tag_4\n      jumpi\n    tag_2:\n      0x00\n      dup1\n      revert\n        /* \"5\\xec\\x9e\\xa5_\\xeb\\xa7\\xa4\\xed\\x95\\x91,\\xeb\\xb0\\xb0\\xec\\x97\\xb4,\\xea\\xb5\\xac\\xec\\xa1\\xb0\\xec\\xb2\\xb4/5_6.sol\":194:1748  function linearSearch(string memory _word) public view returns(uint256, string memory){... */\n    tag_3:\n      tag_5\n      0x04\n      dup1\n      calldatasize\n      sub\n      dup2\n      add\n      swap1\n      tag_6\n      swap2\n      swap1\n      tag_7\n      jump\t// in\n    tag_6:\n      tag_8\n      jump\t// in\n    tag_5:\n      mload(0x40)\n      tag_9\n      swap3\n      swap2\n      swap1\n      tag_10\n      jump\t// in\n    tag_9:\n      mload(0x40)\n      dup1\n      swap2\n      sub\n      swap1\n      return\n        /* \"5\\xec\\x9e\\xa5_\\xeb\\xa7\\xa4\\xed\\x95\\x91,\\xeb\\xb0\\xb0\\xec\\x97\\xb4,\\xea\\xb5\\xac\\xec\\xa1\\xb0\\xec\\xb2\\xb4/5_6.sol\":109:181  string[] public fruitArray=[\"apple\",\"banana\",\"coconut\",\"durian\",\"etrog\"] */\n    tag_4:\n      tag_11\n      0x04\n      dup1\n      calldatasize\n      sub\n      dup2\n      add\n      swap1\n      tag_12\n      swap2\n      swap1\n      tag_13\n      jump\t// in\n    tag_12:\n      tag_14\n      jump\t// in\n    tag_11:\n      mload(0x40)\n      tag_15\n      swap2\n      swap1\n      tag_16\n      jump\t// in\n    tag_15:\n      mload(0x40)\n      dup1\n      swap2\n      sub\n      swap1\n      return\n        /* \"5\\xec\\x9e\\xa5_\\xeb\\xa7\\xa4\\xed\\x95\\x91,\\xeb\\xb0\\xb0\\xec\\x97\\xb4,\\xea\\xb5\\xac\\xec\\xa1\\xb0\\xec\\xb2\\xb4/5_6.sol\":194:1748  function linearSearch(string memory _word) public view returns(uint256, string memory){... */\n    tag_8:\n        /* \"5\\xec\\x9e\\xa5_\\xeb\\xa7\\xa4\\xed\\x95\\x91,\\xeb\\xb0\\xb0\\xec\\x97\\xb4,\\xea\\xb5\\xac\\xec\\xa1\\xb0\\xec\\xb2\\xb4/5_6.sol\":257:264  uint256 */\n      0x00\n        /* \"5\\xec\\x9e\\xa5_\\xeb\\xa7\\xa4\\xed\\x95\\x91,\\xeb\\xb0\\xb0\\xec\\x97\\xb4,\\xea\\xb5\\xac\\xec\\xa1\\xb0\\xec\\xb2\\xb4/5_6.sol\":266:279  string memory */\n      0x60\n        /* \"5\\xec\\x9e\\xa5_\\xeb\\xa7\\xa4\\xed\\x95\\x91,\\xeb\\xb0\\xb0\\xec\\x97\\xb4,\\xea\\xb5\\xac\\xec\\xa1\\xb0\\xec\\xb2\\xb4/5_6.sol\":578:588  uint index */\n      0x00\n        /* \"5\\xec\\x9e\\xa5_\\xeb\\xa7\\xa4\\xed\\x95\\x91,\\xeb\\xb0\\xb0\\xec\\x97\\xb4,\\xea\\xb5\\xac\\xec\\xa1\\xb0\\xec\\xb2\\xb4/5_6.sol\":574:1709  for(uint index=0; index<fruitArray.length; ++index){... */\n    tag_18:\n        /* \"5\\xec\\x9e\\xa5_\\xeb\\xa7\\xa4\\xed\\x95\\x91,\\xeb\\xb0\\xb0\\xec\\x97\\xb4,\\xea\\xb5\\xac\\xec\\xa1\\xb0\\xec\\xb2\\xb4/5_6.sol\":598:608  fruitArray */\n      0x00\n        /* \"5\\xec\\x9e\\xa5_\\xeb\\xa7\\xa4\\xed\\x95\\x91,\\xeb\\xb0\\xb0\\xec\\x97\\xb4,\\xea\\xb5\\xac\\xec\\xa1\\xb0\\xec\\xb2\\xb4/5_6.sol\":598:615  fruitArray.length */\n      dup1\n      sload\n      swap1\n      pop\n        /* \"5\\xec\\x9e\\xa5_\\xeb\\xa7\\xa4\\xed\\x95\\x91,\\xeb\\xb0\\xb0\\xec\\x97\\xb4,\\xea\\xb5\\xac\\xec\\xa1\\xb0\\xec\\xb2\\xb4/5_6.sol\":592:597  index */\n      dup2\n        /* \"5\\xec\\x9e\\xa5_\\xeb\\xa7\\xa4\\xed\\x95\\x91,\\xeb\\xb0\\xb0\\xec\\x97\\xb4,\\xea\\xb5\\xac\\xec\\xa1\\xb0\\xec\\xb2\\xb4/5_6.sol\":592:615  index<fruitArray.length */\n      lt\n        /* \"5\\xec\\x9e\\xa5_\\xeb\\xa7\\xa4\\xed\\x95\\x91,\\xeb\\xb0\\xb0\\xec\\x97\\xb4,\\xea\\xb5\\xac\\xec\\xa1\\xb0\\xec\\xb2\\xb4/5_6.sol\":574:1709  for(uint index=0; index<fruitArray.length; ++index){... */\n      iszero\n      tag_19\n      jumpi\n        /* \"5\\xec\\x9e\\xa5_\\xeb\\xa7\\xa4\\xed\\x95\\x91,\\xeb\\xb0\\xb0\\xec\\x97\\xb4,\\xea\\xb5\\xac\\xec\\xa1\\xb0\\xec\\xb2\\xb4/5_6.sol\":696:701  _word */\n      dup4\n        /* \"5\\xec\\x9e\\xa5_\\xeb\\xa7\\xa4\\xed\\x95\\x91,\\xeb\\xb0\\xb0\\xec\\x97\\xb4,\\xea\\xb5\\xac\\xec\\xa1\\xb0\\xec\\xb2\\xb4/5_6.sol\":680:703  keccak256(bytes(_word)) */\n      dup1\n      mload\n      swap1\n      0x20\n      add\n      keccak256\n        /* \"5\\xec\\x9e\\xa5_\\xeb\\xa7\\xa4\\xed\\x95\\x91,\\xeb\\xb0\\xb0\\xec\\x97\\xb4,\\xea\\xb5\\xac\\xec\\xa1\\xb0\\xec\\xb2\\xb4/5_6.sol\":659:669  fruitArray */\n      0x00\n        /* \"5\\xec\\x9e\\xa5_\\xeb\\xa7\\xa4\\xed\\x95\\x91,\\xeb\\xb0\\xb0\\xec\\x97\\xb4,\\xea\\xb5\\xac\\xec\\xa1\\xb0\\xec\\xb2\\xb4/5_6.sol\":670:675  index */\n      dup3\n        /* \"5\\xec\\x9e\\xa5_\\xeb\\xa7\\xa4\\xed\\x95\\x91,\\xeb\\xb0\\xb0\\xec\\x97\\xb4,\\xea\\xb5\\xac\\xec\\xa1\\xb0\\xec\\xb2\\xb4/5_6.sol\":659:676  fruitArray[index] */\n      dup2\n      sload\n      dup2\n      lt\n      tag_21\n      jumpi\n      tag_22\n      tag_23\n      jump\t// in\n    tag_22:\n    tag_21:\n      swap1\n      0x00\n      mstore\n      keccak256(0x00, 0x20)\n      add\n        /* \"5\\xec\\x9e\\xa5_\\xeb\\xa7\\xa4\\xed\\x95\\x91,\\xeb\\xb0\\xb0\\xec\\x97\\xb4,\\xea\\xb5\\xac\\xec\\xa1\\xb0\\xec\\xb2\\xb4/5_6.sol\":643:678  keccak256(bytes(fruitArray[index])) */\n      mload(0x40)\n      tag_25\n      swap2\n      swap1\n      tag_26\n      jump\t// in\n    tag_25:\n      mload(0x40)\n      dup1\n      swap2\n      sub\n      swap1\n      keccak256\n        /* \"5\\xec\\x9e\\xa5_\\xeb\\xa7\\xa4\\xed\\x95\\x91,\\xeb\\xb0\\xb0\\xec\\x97\\xb4,\\xea\\xb5\\xac\\xec\\xa1\\xb0\\xec\\xb2\\xb4/5_6.sol\":643:703  keccak256(bytes(fruitArray[index]))==keccak256(bytes(_word)) */\n      sub\n        /* \"5\\xec\\x9e\\xa5_\\xeb\\xa7\\xa4\\xed\\x95\\x91,\\xeb\\xb0\\xb0\\xec\\x97\\xb4,\\xea\\xb5\\xac\\xec\\xa1\\xb0\\xec\\xb2\\xb4/5_6.sol\":640:1698  if(keccak256(bytes(fruitArray[index]))==keccak256(bytes(_word))){... */\n      tag_27\n      jumpi\n        /* \"5\\xec\\x9e\\xa5_\\xeb\\xa7\\xa4\\xed\\x95\\x91,\\xeb\\xb0\\xb0\\xec\\x97\\xb4,\\xea\\xb5\\xac\\xec\\xa1\\xb0\\xec\\xb2\\xb4/5_6.sol\":1657:1662  index */\n      dup1\n        /* \"5\\xec\\x9e\\xa5_\\xeb\\xa7\\xa4\\xed\\x95\\x91,\\xeb\\xb0\\xb0\\xec\\x97\\xb4,\\xea\\xb5\\xac\\xec\\xa1\\xb0\\xec\\xb2\\xb4/5_6.sol\":1664:1674  fruitArray */\n      0x00\n        /* \"5\\xec\\x9e\\xa5_\\xeb\\xa7\\xa4\\xed\\x95\\x91,\\xeb\\xb0\\xb0\\xec\\x97\\xb4,\\xea\\xb5\\xac\\xec\\xa1\\xb0\\xec\\xb2\\xb4/5_6.sol\":1675:1680  index */\n      dup3\n        /* \"5\\xec\\x9e\\xa5_\\xeb\\xa7\\xa4\\xed\\x95\\x91,\\xeb\\xb0\\xb0\\xec\\x97\\xb4,\\xea\\xb5\\xac\\xec\\xa1\\xb0\\xec\\xb2\\xb4/5_6.sol\":1664:1681  fruitArray[index] */\n      dup2\n      sload\n      dup2\n      lt\n      tag_28\n      jumpi\n      tag_29\n      tag_23\n      jump\t// in\n    tag_29:\n    tag_28:\n      swap1\n      0x00\n      mstore\n      keccak256(0x00, 0x20)\n      add\n        /* \"5\\xec\\x9e\\xa5_\\xeb\\xa7\\xa4\\xed\\x95\\x91,\\xeb\\xb0\\xb0\\xec\\x97\\xb4,\\xea\\xb5\\xac\\xec\\xa1\\xb0\\xec\\xb2\\xb4/5_6.sol\":1650:1682  return(index, fruitArray[index]) */\n      dup1\n      dup1\n      sload\n      tag_31\n      swap1\n      tag_32\n      jump\t// in\n    tag_31:\n      dup1\n      0x1f\n      add\n      0x20\n      dup1\n      swap2\n      div\n      mul\n      0x20\n      add\n      mload(0x40)\n      swap1\n      dup2\n      add\n      0x40\n      mstore\n      dup1\n      swap3\n      swap2\n      swap1\n      dup2\n      dup2\n      mstore\n      0x20\n      add\n      dup3\n      dup1\n      sload\n      tag_33\n      swap1\n      tag_32\n      jump\t// in\n    tag_33:\n      dup1\n      iszero\n      tag_34\n      jumpi\n      dup1\n      0x1f\n      lt\n      tag_35\n      jumpi\n      0x0100\n      dup1\n      dup4\n      sload\n      div\n      mul\n      dup4\n      mstore\n      swap2\n      0x20\n      add\n      swap2\n      jump(tag_34)\n    tag_35:\n      dup3\n      add\n      swap2\n      swap1\n      0x00\n      mstore\n      keccak256(0x00, 0x20)\n      swap1\n    tag_36:\n      dup2\n      sload\n      dup2\n      mstore\n      swap1\n      0x01\n      add\n      swap1\n      0x20\n      add\n      dup1\n      dup4\n      gt\n      tag_36\n      jumpi\n      dup3\n      swap1\n      sub\n      0x1f\n      and\n      dup3\n      add\n      swap2\n    tag_34:\n      pop\n      pop\n      pop\n      pop\n      pop\n      swap1\n      pop\n      swap3\n      pop\n      swap3\n      pop\n      pop\n      jump(tag_17)\n        /* \"5\\xec\\x9e\\xa5_\\xeb\\xa7\\xa4\\xed\\x95\\x91,\\xeb\\xb0\\xb0\\xec\\x97\\xb4,\\xea\\xb5\\xac\\xec\\xa1\\xb0\\xec\\xb2\\xb4/5_6.sol\":640:1698  if(keccak256(bytes(fruitArray[index]))==keccak256(bytes(_word))){... */\n    tag_27:\n        /* \"5\\xec\\x9e\\xa5_\\xeb\\xa7\\xa4\\xed\\x95\\x91,\\xeb\\xb0\\xb0\\xec\\x97\\xb4,\\xea\\xb5\\xac\\xec\\xa1\\xb0\\xec\\xb2\\xb4/5_6.sol\":617:624  ++index */\n      dup1\n      0x01\n      add\n      swap1\n      pop\n        /* \"5\\xec\\x9e\\xa5_\\xeb\\xa7\\xa4\\xed\\x95\\x91,\\xeb\\xb0\\xb0\\xec\\x97\\xb4,\\xea\\xb5\\xac\\xec\\xa1\\xb0\\xec\\xb2\\xb4/5_6.sol\":574:1709  for(uint index=0; index<fruitArray.length; ++index){... */\n      jump(tag_18)\n    tag_19:\n      pop\n        /* \"5\\xec\\x9e\\xa5_\\xeb\\xa7\\xa4\\xed\\x95\\x91,\\xeb\\xb0\\xb0\\xec\\x97\\xb4,\\xea\\xb5\\xac\\xec\\xa1\\xb0\\xec\\xb2\\xb4/5_6.sol\":1727:1728  0 */\n      0x00\n        /* \"5\\xec\\x9e\\xa5_\\xeb\\xa7\\xa4\\xed\\x95\\x91,\\xeb\\xb0\\xb0\\xec\\x97\\xb4,\\xea\\xb5\\xac\\xec\\xa1\\xb0\\xec\\xb2\\xb4/5_6.sol\":1719:1740  return (0, \"Nothing\") */\n      mload(0x40)\n      dup1\n      0x40\n      add\n      0x40\n      mstore\n      dup1\n      0x07\n      dup2\n      mstore\n      0x20\n      add\n      0x4e6f7468696e6700000000000000000000000000000000000000000000000000\n      dup2\n      mstore\n      pop\n      swap2\n      pop\n      swap2\n      pop\n        /* \"5\\xec\\x9e\\xa5_\\xeb\\xa7\\xa4\\xed\\x95\\x91,\\xeb\\xb0\\xb0\\xec\\x97\\xb4,\\xea\\xb5\\xac\\xec\\xa1\\xb0\\xec\\xb2\\xb4/5_6.sol\":194:1748  function linearSearch(string memory _word) public view returns(uint256, string memory){... */\n    tag_17:\n      swap2\n      pop\n      swap2\n      jump\t// out\n        /* \"5\\xec\\x9e\\xa5_\\xeb\\xa7\\xa4\\xed\\x95\\x91,\\xeb\\xb0\\xb0\\xec\\x97\\xb4,\\xea\\xb5\\xac\\xec\\xa1\\xb0\\xec\\xb2\\xb4/5_6.sol\":109:181  string[] public fruitArray=[\"apple\",\"banana\",\"coconut\",\"durian\",\"etrog\"] */\n    tag_14:\n      0x00\n      dup2\n      dup2\n      sload\n      dup2\n      lt\n      tag_37\n      jumpi\n      0x00\n      dup1\n      revert\n    tag_37:\n      swap1\n      0x00\n      mstore\n      keccak256(0x00, 0x20)\n      add\n      0x00\n      swap2\n      pop\n      swap1\n      pop\n      dup1\n      sload\n      tag_39\n      swap1\n      tag_32\n      jump\t// in\n    tag_39:\n      dup1\n      0x1f\n      add\n      0x20\n      dup1\n      swap2\n      div\n      mul\n      0x20\n      add\n      mload(0x40)\n      swap1\n      dup2\n      add\n      0x40\n      mstore\n      dup1\n      swap3\n      swap2\n      swap1\n      dup2\n      dup2\n      mstore\n      0x20\n      add\n      dup3\n      dup1\n      sload\n      tag_40\n      swap1\n      tag_32\n      jump\t// in\n    tag_40:\n      dup1\n      iszero\n      tag_41\n      jumpi\n      dup1\n      0x1f\n      lt\n      tag_42\n      jumpi\n      0x0100\n      dup1\n      dup4\n      sload\n      div\n      mul\n      dup4\n      mstore\n      swap2\n      0x20\n      add\n      swap2\n      jump(tag_41)\n    tag_42:\n      dup3\n      add\n      swap2\n      swap1\n      0x00\n      mstore\n      keccak256(0x00, 0x20)\n      swap1\n    tag_43:\n      dup2\n      sload\n      dup2\n      mstore\n      swap1\n      0x01\n      add\n      swap1\n      0x20\n      add\n      dup1\n      dup4\n      gt\n      tag_43\n      jumpi\n      dup3\n      swap1\n      sub\n      0x1f\n      and\n      dup3\n      add\n      swap2\n    tag_41:\n      pop\n      pop\n      pop\n      pop\n      pop\n      dup2\n      jump\t// out\n        /* \"#utility.yul\":7:82   */\n    tag_44:\n        /* \"#utility.yul\":40:46   */\n      0x00\n        /* \"#utility.yul\":73:75   */\n      0x40\n        /* \"#utility.yul\":67:76   */\n      mload\n        /* \"#utility.yul\":57:76   */\n      swap1\n      pop\n        /* \"#utility.yul\":7:82   */\n      swap1\n      jump\t// out\n        /* \"#utility.yul\":88:205   */\n    tag_45:\n        /* \"#utility.yul\":197:198   */\n      0x00\n        /* \"#utility.yul\":194:195   */\n      dup1\n        /* \"#utility.yul\":187:199   */\n      revert\n        /* \"#utility.yul\":211:328   */\n    tag_46:\n        /* \"#utility.yul\":320:321   */\n      0x00\n        /* \"#utility.yul\":317:318   */\n      dup1\n        /* \"#utility.yul\":310:322   */\n      revert\n        /* \"#utility.yul\":334:451   */\n    tag_47:\n        /* \"#utility.yul\":443:444   */\n      0x00\n        /* \"#utility.yul\":440:441   */\n      dup1\n        /* \"#utility.yul\":433:445   */\n      revert\n        /* \"#utility.yul\":457:574   */\n    tag_48:\n        /* \"#utility.yul\":566:567   */\n      0x00\n        /* \"#utility.yul\":563:564   */\n      dup1\n        /* \"#utility.yul\":556:568   */\n      revert\n        /* \"#utility.yul\":580:682   */\n    tag_49:\n        /* \"#utility.yul\":621:627   */\n      0x00\n        /* \"#utility.yul\":672:674   */\n      0x1f\n        /* \"#utility.yul\":668:675   */\n      not\n        /* \"#utility.yul\":663:665   */\n      0x1f\n        /* \"#utility.yul\":656:661   */\n      dup4\n        /* \"#utility.yul\":652:666   */\n      add\n        /* \"#utility.yul\":648:676   */\n      and\n        /* \"#utility.yul\":638:676   */\n      swap1\n      pop\n        /* \"#utility.yul\":580:682   */\n      swap2\n      swap1\n      pop\n      jump\t// out\n        /* \"#utility.yul\":688:868   */\n    tag_50:\n        /* \"#utility.yul\":736:813   */\n      0x4e487b7100000000000000000000000000000000000000000000000000000000\n        /* \"#utility.yul\":733:734   */\n      0x00\n        /* \"#utility.yul\":726:814   */\n      mstore\n        /* \"#utility.yul\":833:837   */\n      0x41\n        /* \"#utility.yul\":830:831   */\n      0x04\n        /* \"#utility.yul\":823:838   */\n      mstore\n        /* \"#utility.yul\":857:861   */\n      0x24\n        /* \"#utility.yul\":854:855   */\n      0x00\n        /* \"#utility.yul\":847:862   */\n      revert\n        /* \"#utility.yul\":874:1155   */\n    tag_51:\n        /* \"#utility.yul\":957:984   */\n      tag_78\n        /* \"#utility.yul\":979:983   */\n      dup3\n        /* \"#utility.yul\":957:984   */\n      tag_49\n      jump\t// in\n    tag_78:\n        /* \"#utility.yul\":949:955   */\n      dup2\n        /* \"#utility.yul\":945:985   */\n      add\n        /* \"#utility.yul\":1087:1093   */\n      dup2\n        /* \"#utility.yul\":1075:1085   */\n      dup2\n        /* \"#utility.yul\":1072:1094   */\n      lt\n        /* \"#utility.yul\":1051:1069   */\n      0xffffffffffffffff\n        /* \"#utility.yul\":1039:1049   */\n      dup3\n        /* \"#utility.yul\":1036:1070   */\n      gt\n        /* \"#utility.yul\":1033:1095   */\n      or\n        /* \"#utility.yul\":1030:1118   */\n      iszero\n      tag_79\n      jumpi\n        /* \"#utility.yul\":1098:1116   */\n      tag_80\n      tag_50\n      jump\t// in\n    tag_80:\n        /* \"#utility.yul\":1030:1118   */\n    tag_79:\n        /* \"#utility.yul\":1138:1148   */\n      dup1\n        /* \"#utility.yul\":1134:1136   */\n      0x40\n        /* \"#utility.yul\":1127:1149   */\n      mstore\n        /* \"#utility.yul\":917:1155   */\n      pop\n        /* \"#utility.yul\":874:1155   */\n      pop\n      pop\n      jump\t// out\n        /* \"#utility.yul\":1161:1290   */\n    tag_52:\n        /* \"#utility.yul\":1195:1201   */\n      0x00\n        /* \"#utility.yul\":1222:1242   */\n      tag_82\n      tag_44\n      jump\t// in\n    tag_82:\n        /* \"#utility.yul\":1212:1242   */\n      swap1\n      pop\n        /* \"#utility.yul\":1251:1284   */\n      tag_83\n        /* \"#utility.yul\":1279:1283   */\n      dup3\n        /* \"#utility.yul\":1271:1277   */\n      dup3\n        /* \"#utility.yul\":1251:1284   */\n      tag_51\n      jump\t// in\n    tag_83:\n        /* \"#utility.yul\":1161:1290   */\n      swap2\n      swap1\n      pop\n      jump\t// out\n        /* \"#utility.yul\":1296:1604   */\n    tag_53:\n        /* \"#utility.yul\":1358:1362   */\n      0x00\n        /* \"#utility.yul\":1448:1466   */\n      0xffffffffffffffff\n        /* \"#utility.yul\":1440:1446   */\n      dup3\n        /* \"#utility.yul\":1437:1467   */\n      gt\n        /* \"#utility.yul\":1434:1490   */\n      iszero\n      tag_85\n      jumpi\n        /* \"#utility.yul\":1470:1488   */\n      tag_86\n      tag_50\n      jump\t// in\n    tag_86:\n        /* \"#utility.yul\":1434:1490   */\n    tag_85:\n        /* \"#utility.yul\":1508:1537   */\n      tag_87\n        /* \"#utility.yul\":1530:1536   */\n      dup3\n        /* \"#utility.yul\":1508:1537   */\n      tag_49\n      jump\t// in\n    tag_87:\n        /* \"#utility.yul\":1500:1537   */\n      swap1\n      pop\n        /* \"#utility.yul\":1592:1596   */\n      0x20\n        /* \"#utility.yul\":1586:1590   */\n      dup2\n        /* \"#utility.yul\":1582:1597   */\n      add\n        /* \"#utility.yul\":1574:1597   */\n      swap1\n      pop\n        /* \"#utility.yul\":1296:1604   */\n      swap2\n      swap1\n      pop\n      jump\t// out\n        /* \"#utility.yul\":1610:1756   */\n    tag_54:\n        /* \"#utility.yul\":1707:1713   */\n      dup3\n        /* \"#utility.yul\":1702:1705   */\n      dup2\n        /* \"#utility.yul\":1697:1700   */\n      dup4\n        /* \"#utility.yul\":1684:1714   */\n      calldatacopy\n        /* \"#utility.yul\":1748:1749   */\n      0x00\n        /* \"#utility.yul\":1739:1745   */\n      dup4\n        /* \"#utility.yul\":1734:1737   */\n      dup4\n        /* \"#utility.yul\":1730:1746   */\n      add\n        /* \"#utility.yul\":1723:1750   */\n      mstore\n        /* \"#utility.yul\":1610:1756   */\n      pop\n      pop\n      pop\n      jump\t// out\n        /* \"#utility.yul\":1762:2187   */\n    tag_55:\n        /* \"#utility.yul\":1840:1845   */\n      0x00\n        /* \"#utility.yul\":1865:1931   */\n      tag_90\n        /* \"#utility.yul\":1881:1930   */\n      tag_91\n        /* \"#utility.yul\":1923:1929   */\n      dup5\n        /* \"#utility.yul\":1881:1930   */\n      tag_53\n      jump\t// in\n    tag_91:\n        /* \"#utility.yul\":1865:1931   */\n      tag_52\n      jump\t// in\n    tag_90:\n        /* \"#utility.yul\":1856:1931   */\n      swap1\n      pop\n        /* \"#utility.yul\":1954:1960   */\n      dup3\n        /* \"#utility.yul\":1947:1952   */\n      dup2\n        /* \"#utility.yul\":1940:1961   */\n      mstore\n        /* \"#utility.yul\":1992:1996   */\n      0x20\n        /* \"#utility.yul\":1985:1990   */\n      dup2\n        /* \"#utility.yul\":1981:1997   */\n      add\n        /* \"#utility.yul\":2030:2033   */\n      dup5\n        /* \"#utility.yul\":2021:2027   */\n      dup5\n        /* \"#utility.yul\":2016:2019   */\n      dup5\n        /* \"#utility.yul\":2012:2028   */\n      add\n        /* \"#utility.yul\":2009:2034   */\n      gt\n        /* \"#utility.yul\":2006:2118   */\n      iszero\n      tag_92\n      jumpi\n        /* \"#utility.yul\":2037:2116   */\n      tag_93\n      tag_48\n      jump\t// in\n    tag_93:\n        /* \"#utility.yul\":2006:2118   */\n    tag_92:\n        /* \"#utility.yul\":2127:2181   */\n      tag_94\n        /* \"#utility.yul\":2174:2180   */\n      dup5\n        /* \"#utility.yul\":2169:2172   */\n      dup3\n        /* \"#utility.yul\":2164:2167   */\n      dup6\n        /* \"#utility.yul\":2127:2181   */\n      tag_54\n      jump\t// in\n    tag_94:\n        /* \"#utility.yul\":1846:2187   */\n      pop\n        /* \"#utility.yul\":1762:2187   */\n      swap4\n      swap3\n      pop\n      pop\n      pop\n      jump\t// out\n        /* \"#utility.yul\":2207:2547   */\n    tag_56:\n        /* \"#utility.yul\":2263:2268   */\n      0x00\n        /* \"#utility.yul\":2312:2315   */\n      dup3\n        /* \"#utility.yul\":2305:2309   */\n      0x1f\n        /* \"#utility.yul\":2297:2303   */\n      dup4\n        /* \"#utility.yul\":2293:2310   */\n      add\n        /* \"#utility.yul\":2289:2316   */\n      slt\n        /* \"#utility.yul\":2279:2401   */\n      tag_96\n      jumpi\n        /* \"#utility.yul\":2320:2399   */\n      tag_97\n      tag_47\n      jump\t// in\n    tag_97:\n        /* \"#utility.yul\":2279:2401   */\n    tag_96:\n        /* \"#utility.yul\":2437:2443   */\n      dup2\n        /* \"#utility.yul\":2424:2444   */\n      calldataload\n        /* \"#utility.yul\":2462:2541   */\n      tag_98\n        /* \"#utility.yul\":2537:2540   */\n      dup5\n        /* \"#utility.yul\":2529:2535   */\n      dup3\n        /* \"#utility.yul\":2522:2526   */\n      0x20\n        /* \"#utility.yul\":2514:2520   */\n      dup7\n        /* \"#utility.yul\":2510:2527   */\n      add\n        /* \"#utility.yul\":2462:2541   */\n      tag_55\n      jump\t// in\n    tag_98:\n        /* \"#utility.yul\":2453:2541   */\n      swap2\n      pop\n        /* \"#utility.yul\":2269:2547   */\n      pop\n        /* \"#utility.yul\":2207:2547   */\n      swap3\n      swap2\n      pop\n      pop\n      jump\t// out\n        /* \"#utility.yul\":2553:3062   */\n    tag_7:\n        /* \"#utility.yul\":2622:2628   */\n      0x00\n        /* \"#utility.yul\":2671:2673   */\n      0x20\n        /* \"#utility.yul\":2659:2668   */\n      dup3\n        /* \"#utility.yul\":2650:2657   */\n      dup5\n        /* \"#utility.yul\":2646:2669   */\n      sub\n        /* \"#utility.yul\":2642:2674   */\n      slt\n        /* \"#utility.yul\":2639:2758   */\n      iszero\n      tag_100\n      jumpi\n        /* \"#utility.yul\":2677:2756   */\n      tag_101\n      tag_45\n      jump\t// in\n    tag_101:\n        /* \"#utility.yul\":2639:2758   */\n    tag_100:\n        /* \"#utility.yul\":2825:2826   */\n      0x00\n        /* \"#utility.yul\":2814:2823   */\n      dup3\n        /* \"#utility.yul\":2810:2827   */\n      add\n        /* \"#utility.yul\":2797:2828   */\n      calldataload\n        /* \"#utility.yul\":2855:2873   */\n      0xffffffffffffffff\n        /* \"#utility.yul\":2847:2853   */\n      dup2\n        /* \"#utility.yul\":2844:2874   */\n      gt\n        /* \"#utility.yul\":2841:2958   */\n      iszero\n      tag_102\n      jumpi\n        /* \"#utility.yul\":2877:2956   */\n      tag_103\n      tag_46\n      jump\t// in\n    tag_103:\n        /* \"#utility.yul\":2841:2958   */\n    tag_102:\n        /* \"#utility.yul\":2982:3045   */\n      tag_104\n        /* \"#utility.yul\":3037:3044   */\n      dup5\n        /* \"#utility.yul\":3028:3034   */\n      dup3\n        /* \"#utility.yul\":3017:3026   */\n      dup6\n        /* \"#utility.yul\":3013:3035   */\n      add\n        /* \"#utility.yul\":2982:3045   */\n      tag_56\n      jump\t// in\n    tag_104:\n        /* \"#utility.yul\":2972:3045   */\n      swap2\n      pop\n        /* \"#utility.yul\":2768:3055   */\n      pop\n        /* \"#utility.yul\":2553:3062   */\n      swap3\n      swap2\n      pop\n      pop\n      jump\t// out\n        /* \"#utility.yul\":3068:3145   */\n    tag_57:\n        /* \"#utility.yul\":3105:3112   */\n      0x00\n        /* \"#utility.yul\":3134:3139   */\n      dup2\n        /* \"#utility.yul\":3123:3139   */\n      swap1\n      pop\n        /* \"#utility.yul\":3068:3145   */\n      swap2\n      swap1\n      pop\n      jump\t// out\n        /* \"#utility.yul\":3151:3269   */\n    tag_58:\n        /* \"#utility.yul\":3238:3262   */\n      tag_107\n        /* \"#utility.yul\":3256:3261   */\n      dup2\n        /* \"#utility.yul\":3238:3262   */\n      tag_57\n      jump\t// in\n    tag_107:\n        /* \"#utility.yul\":3233:3236   */\n      dup3\n        /* \"#utility.yul\":3226:3263   */\n      mstore\n        /* \"#utility.yul\":3151:3269   */\n      pop\n      pop\n      jump\t// out\n        /* \"#utility.yul\":3275:3374   */\n    tag_59:\n        /* \"#utility.yul\":3327:3333   */\n      0x00\n        /* \"#utility.yul\":3361:3366   */\n      dup2\n        /* \"#utility.yul\":3355:3367   */\n      mload\n        /* \"#utility.yul\":3345:3367   */\n      swap1\n      pop\n        /* \"#utility.yul\":3275:3374   */\n      swap2\n      swap1\n      pop\n      jump\t// out\n        /* \"#utility.yul\":3380:3549   */\n    tag_60:\n        /* \"#utility.yul\":3464:3475   */\n      0x00\n        /* \"#utility.yul\":3498:3504   */\n      dup3\n        /* \"#utility.yul\":3493:3496   */\n      dup3\n        /* \"#utility.yul\":3486:3505   */\n      mstore\n        /* \"#utility.yul\":3538:3542   */\n      0x20\n        /* \"#utility.yul\":3533:3536   */\n      dup3\n        /* \"#utility.yul\":3529:3543   */\n      add\n        /* \"#utility.yul\":3514:3543   */\n      swap1\n      pop\n        /* \"#utility.yul\":3380:3549   */\n      swap3\n      swap2\n      pop\n      pop\n      jump\t// out\n        /* \"#utility.yul\":3555:3801   */\n    tag_61:\n        /* \"#utility.yul\":3636:3637   */\n      0x00\n        /* \"#utility.yul\":3646:3759   */\n    tag_111:\n        /* \"#utility.yul\":3660:3666   */\n      dup4\n        /* \"#utility.yul\":3657:3658   */\n      dup2\n        /* \"#utility.yul\":3654:3667   */\n      lt\n        /* \"#utility.yul\":3646:3759   */\n      iszero\n      tag_113\n      jumpi\n        /* \"#utility.yul\":3745:3746   */\n      dup1\n        /* \"#utility.yul\":3740:3743   */\n      dup3\n        /* \"#utility.yul\":3736:3747   */\n      add\n        /* \"#utility.yul\":3730:3748   */\n      mload\n        /* \"#utility.yul\":3726:3727   */\n      dup2\n        /* \"#utility.yul\":3721:3724   */\n      dup5\n        /* \"#utility.yul\":3717:3728   */\n      add\n        /* \"#utility.yul\":3710:3749   */\n      mstore\n        /* \"#utility.yul\":3682:3684   */\n      0x20\n        /* \"#utility.yul\":3679:3680   */\n      dup2\n        /* \"#utility.yul\":3675:3685   */\n      add\n        /* \"#utility.yul\":3670:3685   */\n      swap1\n      pop\n        /* \"#utility.yul\":3646:3759   */\n      jump(tag_111)\n    tag_113:\n        /* \"#utility.yul\":3793:3794   */\n      0x00\n        /* \"#utility.yul\":3784:3790   */\n      dup5\n        /* \"#utility.yul\":3779:3782   */\n      dup5\n        /* \"#utility.yul\":3775:3791   */\n      add\n        /* \"#utility.yul\":3768:3795   */\n      mstore\n        /* \"#utility.yul\":3617:3801   */\n      pop\n        /* \"#utility.yul\":3555:3801   */\n      pop\n      pop\n      pop\n      jump\t// out\n        /* \"#utility.yul\":3807:4184   */\n    tag_62:\n        /* \"#utility.yul\":3895:3898   */\n      0x00\n        /* \"#utility.yul\":3923:3962   */\n      tag_115\n        /* \"#utility.yul\":3956:3961   */\n      dup3\n        /* \"#utility.yul\":3923:3962   */\n      tag_59\n      jump\t// in\n    tag_115:\n        /* \"#utility.yul\":3978:4049   */\n      tag_116\n        /* \"#utility.yul\":4042:4048   */\n      dup2\n        /* \"#utility.yul\":4037:4040   */\n      dup6\n        /* \"#utility.yul\":3978:4049   */\n      tag_60\n      jump\t// in\n    tag_116:\n        /* \"#utility.yul\":3971:4049   */\n      swap4\n      pop\n        /* \"#utility.yul\":4058:4123   */\n      tag_117\n        /* \"#utility.yul\":4116:4122   */\n      dup2\n        /* \"#utility.yul\":4111:4114   */\n      dup6\n        /* \"#utility.yul\":4104:4108   */\n      0x20\n        /* \"#utility.yul\":4097:4102   */\n      dup7\n        /* \"#utility.yul\":4093:4109   */\n      add\n        /* \"#utility.yul\":4058:4123   */\n      tag_61\n      jump\t// in\n    tag_117:\n        /* \"#utility.yul\":4148:4177   */\n      tag_118\n        /* \"#utility.yul\":4170:4176   */\n      dup2\n        /* \"#utility.yul\":4148:4177   */\n      tag_49\n      jump\t// in\n    tag_118:\n        /* \"#utility.yul\":4143:4146   */\n      dup5\n        /* \"#utility.yul\":4139:4178   */\n      add\n        /* \"#utility.yul\":4132:4178   */\n      swap2\n      pop\n        /* \"#utility.yul\":3899:4184   */\n      pop\n        /* \"#utility.yul\":3807:4184   */\n      swap3\n      swap2\n      pop\n      pop\n      jump\t// out\n        /* \"#utility.yul\":4190:4613   */\n    tag_10:\n        /* \"#utility.yul\":4331:4335   */\n      0x00\n        /* \"#utility.yul\":4369:4371   */\n      0x40\n        /* \"#utility.yul\":4358:4367   */\n      dup3\n        /* \"#utility.yul\":4354:4372   */\n      add\n        /* \"#utility.yul\":4346:4372   */\n      swap1\n      pop\n        /* \"#utility.yul\":4382:4453   */\n      tag_120\n        /* \"#utility.yul\":4450:4451   */\n      0x00\n        /* \"#utility.yul\":4439:4448   */\n      dup4\n        /* \"#utility.yul\":4435:4452   */\n      add\n        /* \"#utility.yul\":4426:4432   */\n      dup6\n        /* \"#utility.yul\":4382:4453   */\n      tag_58\n      jump\t// in\n    tag_120:\n        /* \"#utility.yul\":4500:4509   */\n      dup2\n        /* \"#utility.yul\":4494:4498   */\n      dup2\n        /* \"#utility.yul\":4490:4510   */\n      sub\n        /* \"#utility.yul\":4485:4487   */\n      0x20\n        /* \"#utility.yul\":4474:4483   */\n      dup4\n        /* \"#utility.yul\":4470:4488   */\n      add\n        /* \"#utility.yul\":4463:4511   */\n      mstore\n        /* \"#utility.yul\":4528:4606   */\n      tag_121\n        /* \"#utility.yul\":4601:4605   */\n      dup2\n        /* \"#utility.yul\":4592:4598   */\n      dup5\n        /* \"#utility.yul\":4528:4606   */\n      tag_62\n      jump\t// in\n    tag_121:\n        /* \"#utility.yul\":4520:4606   */\n      swap1\n      pop\n        /* \"#utility.yul\":4190:4613   */\n      swap4\n      swap3\n      pop\n      pop\n      pop\n      jump\t// out\n        /* \"#utility.yul\":4619:4741   */\n    tag_63:\n        /* \"#utility.yul\":4692:4716   */\n      tag_123\n        /* \"#utility.yul\":4710:4715   */\n      dup2\n        /* \"#utility.yul\":4692:4716   */\n      tag_57\n      jump\t// in\n    tag_123:\n        /* \"#utility.yul\":4685:4690   */\n      dup2\n        /* \"#utility.yul\":4682:4717   */\n      eq\n        /* \"#utility.yul\":4672:4735   */\n      tag_124\n      jumpi\n        /* \"#utility.yul\":4731:4732   */\n      0x00\n        /* \"#utility.yul\":4728:4729   */\n      dup1\n        /* \"#utility.yul\":4721:4733   */\n      revert\n        /* \"#utility.yul\":4672:4735   */\n    tag_124:\n        /* \"#utility.yul\":4619:4741   */\n      pop\n      jump\t// out\n        /* \"#utility.yul\":4747:4886   */\n    tag_64:\n        /* \"#utility.yul\":4793:4798   */\n      0x00\n        /* \"#utility.yul\":4831:4837   */\n      dup2\n        /* \"#utility.yul\":4818:4838   */\n      calldataload\n        /* \"#utility.yul\":4809:4838   */\n      swap1\n      pop\n        /* \"#utility.yul\":4847:4880   */\n      tag_126\n        /* \"#utility.yul\":4874:4879   */\n      dup2\n        /* \"#utility.yul\":4847:4880   */\n      tag_63\n      jump\t// in\n    tag_126:\n        /* \"#utility.yul\":4747:4886   */\n      swap3\n      swap2\n      pop\n      pop\n      jump\t// out\n        /* \"#utility.yul\":4892:5221   */\n    tag_13:\n        /* \"#utility.yul\":4951:4957   */\n      0x00\n        /* \"#utility.yul\":5000:5002   */\n      0x20\n        /* \"#utility.yul\":4988:4997   */\n      dup3\n        /* \"#utility.yul\":4979:4986   */\n      dup5\n        /* \"#utility.yul\":4975:4998   */\n      sub\n        /* \"#utility.yul\":4971:5003   */\n      slt\n        /* \"#utility.yul\":4968:5087   */\n      iszero\n      tag_128\n      jumpi\n        /* \"#utility.yul\":5006:5085   */\n      tag_129\n      tag_45\n      jump\t// in\n    tag_129:\n        /* \"#utility.yul\":4968:5087   */\n    tag_128:\n        /* \"#utility.yul\":5126:5127   */\n      0x00\n        /* \"#utility.yul\":5151:5204   */\n      tag_130\n        /* \"#utility.yul\":5196:5203   */\n      dup5\n        /* \"#utility.yul\":5187:5193   */\n      dup3\n        /* \"#utility.yul\":5176:5185   */\n      dup6\n        /* \"#utility.yul\":5172:5194   */\n      add\n        /* \"#utility.yul\":5151:5204   */\n      tag_64\n      jump\t// in\n    tag_130:\n        /* \"#utility.yul\":5141:5204   */\n      swap2\n      pop\n        /* \"#utility.yul\":5097:5214   */\n      pop\n        /* \"#utility.yul\":4892:5221   */\n      swap3\n      swap2\n      pop\n      pop\n      jump\t// out\n        /* \"#utility.yul\":5227:5540   */\n    tag_16:\n        /* \"#utility.yul\":5340:5344   */\n      0x00\n        /* \"#utility.yul\":5378:5380   */\n      0x20\n        /* \"#utility.yul\":5367:5376   */\n      dup3\n        /* \"#utility.yul\":5363:5381   */\n      add\n        /* \"#utility.yul\":5355:5381   */\n      swap1\n      pop\n        /* \"#utility.yul\":5427:5436   */\n      dup2\n        /* \"#utility.yul\":5421:5425   */\n      dup2\n        /* \"#utility.yul\":5417:5437   */\n      sub\n        /* \"#utility.yul\":5413:5414   */\n      0x00\n        /* \"#utility.yul\":5402:5411   */\n      dup4\n        /* \"#utility.yul\":5398:5415   */\n      add\n        /* \"#utility.yul\":5391:5438   */\n      mstore\n        /* \"#utility.yul\":5455:5533   */\n      tag_132\n        /* \"#utility.yul\":5528:5532   */\n      dup2\n        /* \"#utility.yul\":5519:5525   */\n      dup5\n        /* \"#utility.yul\":5455:5533   */\n      tag_62\n      jump\t// in\n    tag_132:\n        /* \"#utility.yul\":5447:5533   */\n      swap1\n      pop\n        /* \"#utility.yul\":5227:5540   */\n      swap3\n      swap2\n      pop\n      pop\n      jump\t// out\n        /* \"#utility.yul\":5546:5726   */\n    tag_23:\n        /* \"#utility.yul\":5594:5671   */\n      0x4e487b7100000000000000000000000000000000000000000000000000000000\n        /* \"#utility.yul\":5591:5592   */\n      0x00\n        /* \"#utility.yul\":5584:5672   */\n      mstore\n        /* \"#utility.yul\":5691:5695   */\n      0x32\n        /* \"#utility.yul\":5688:5689   */\n      0x04\n        /* \"#utility.yul\":5681:5696   */\n      mstore\n        /* \"#utility.yul\":5715:5719   */\n      0x24\n        /* \"#utility.yul\":5712:5713   */\n      0x00\n        /* \"#utility.yul\":5705:5720   */\n      revert\n        /* \"#utility.yul\":5732:5912   */\n    tag_65:\n        /* \"#utility.yul\":5780:5857   */\n      0x4e487b7100000000000000000000000000000000000000000000000000000000\n        /* \"#utility.yul\":5777:5778   */\n      0x00\n        /* \"#utility.yul\":5770:5858   */\n      mstore\n        /* \"#utility.yul\":5877:5881   */\n      0x22\n        /* \"#utility.yul\":5874:5875   */\n      0x04\n        /* \"#utility.yul\":5867:5882   */\n      mstore\n        /* \"#utility.yul\":5901:5905   */\n      0x24\n        /* \"#utility.yul\":5898:5899   */\n      0x00\n        /* \"#utility.yul\":5891:5906   */\n      revert\n        /* \"#utility.yul\":5918:6238   */\n    tag_32:\n        /* \"#utility.yul\":5962:5968   */\n      0x00\n        /* \"#utility.yul\":5999:6000   */\n      0x02\n        /* \"#utility.yul\":5993:5997   */\n      dup3\n        /* \"#utility.yul\":5989:6001   */\n      div\n        /* \"#utility.yul\":5979:6001   */\n      swap1\n      pop\n        /* \"#utility.yul\":6046:6047   */\n      0x01\n        /* \"#utility.yul\":6040:6044   */\n      dup3\n        /* \"#utility.yul\":6036:6048   */\n      and\n        /* \"#utility.yul\":6067:6085   */\n      dup1\n        /* \"#utility.yul\":6057:6138   */\n      tag_136\n      jumpi\n        /* \"#utility.yul\":6123:6127   */\n      0x7f\n        /* \"#utility.yul\":6115:6121   */\n      dup3\n        /* \"#utility.yul\":6111:6128   */\n      and\n        /* \"#utility.yul\":6101:6128   */\n      swap2\n      pop\n        /* \"#utility.yul\":6057:6138   */\n    tag_136:\n        /* \"#utility.yul\":6185:6187   */\n      0x20\n        /* \"#utility.yul\":6177:6183   */\n      dup3\n        /* \"#utility.yul\":6174:6188   */\n      lt\n        /* \"#utility.yul\":6154:6172   */\n      dup2\n        /* \"#utility.yul\":6151:6189   */\n      sub\n        /* \"#utility.yul\":6148:6232   */\n      tag_137\n      jumpi\n        /* \"#utility.yul\":6204:6222   */\n      tag_138\n      tag_65\n      jump\t// in\n    tag_138:\n        /* \"#utility.yul\":6148:6232   */\n    tag_137:\n        /* \"#utility.yul\":5969:6238   */\n      pop\n        /* \"#utility.yul\":5918:6238   */\n      swap2\n      swap1\n      pop\n      jump\t// out\n        /* \"#utility.yul\":6244:6391   */\n    tag_66:\n        /* \"#utility.yul\":6345:6356   */\n      0x00\n        /* \"#utility.yul\":6382:6385   */\n      dup2\n        /* \"#utility.yul\":6367:6385   */\n      swap1\n      pop\n        /* \"#utility.yul\":6244:6391   */\n      swap3\n      swap2\n      pop\n      pop\n      jump\t// out\n        /* \"#utility.yul\":6397:6541   */\n    tag_67:\n        /* \"#utility.yul\":6449:6453   */\n      0x00\n        /* \"#utility.yul\":6472:6475   */\n      dup2\n        /* \"#utility.yul\":6464:6475   */\n      swap1\n      pop\n        /* \"#utility.yul\":6495:6498   */\n      dup2\n        /* \"#utility.yul\":6492:6493   */\n      0x00\n        /* \"#utility.yul\":6485:6499   */\n      mstore\n        /* \"#utility.yul\":6529:6533   */\n      0x20\n        /* \"#utility.yul\":6526:6527   */\n      0x00\n        /* \"#utility.yul\":6516:6534   */\n      keccak256\n        /* \"#utility.yul\":6508:6534   */\n      swap1\n      pop\n        /* \"#utility.yul\":6397:6541   */\n      swap2\n      swap1\n      pop\n      jump\t// out\n        /* \"#utility.yul\":6569:7447   */\n    tag_68:\n        /* \"#utility.yul\":6674:6677   */\n      0x00\n        /* \"#utility.yul\":6711:6716   */\n      dup2\n        /* \"#utility.yul\":6705:6717   */\n      sload\n        /* \"#utility.yul\":6740:6776   */\n      tag_142\n        /* \"#utility.yul\":6766:6775   */\n      dup2\n        /* \"#utility.yul\":6740:6776   */\n      tag_32\n      jump\t// in\n    tag_142:\n        /* \"#utility.yul\":6792:6880   */\n      tag_143\n        /* \"#utility.yul\":6873:6879   */\n      dup2\n        /* \"#utility.yul\":6868:6871   */\n      dup7\n        /* \"#utility.yul\":6792:6880   */\n      tag_66\n      jump\t// in\n    tag_143:\n        /* \"#utility.yul\":6785:6880   */\n      swap5\n      pop\n        /* \"#utility.yul\":6911:6912   */\n      0x01\n        /* \"#utility.yul\":6900:6909   */\n      dup3\n        /* \"#utility.yul\":6896:6913   */\n      and\n        /* \"#utility.yul\":6927:6928   */\n      0x00\n        /* \"#utility.yul\":6922:7088   */\n      dup2\n      eq\n      tag_145\n      jumpi\n        /* \"#utility.yul\":7102:7103   */\n      0x01\n        /* \"#utility.yul\":7097:7441   */\n      dup2\n      eq\n      tag_146\n      jumpi\n        /* \"#utility.yul\":6889:7441   */\n      jump(tag_144)\n        /* \"#utility.yul\":6922:7088   */\n    tag_145:\n        /* \"#utility.yul\":7006:7010   */\n      0xff\n        /* \"#utility.yul\":7002:7011   */\n      not\n        /* \"#utility.yul\":6991:7000   */\n      dup4\n        /* \"#utility.yul\":6987:7012   */\n      and\n        /* \"#utility.yul\":6982:6985   */\n      dup7\n        /* \"#utility.yul\":6975:7013   */\n      mstore\n        /* \"#utility.yul\":7068:7074   */\n      dup2\n        /* \"#utility.yul\":7061:7075   */\n      iszero\n        /* \"#utility.yul\":7054:7076   */\n      iszero\n        /* \"#utility.yul\":7046:7052   */\n      dup3\n        /* \"#utility.yul\":7042:7077   */\n      mul\n        /* \"#utility.yul\":7037:7040   */\n      dup7\n        /* \"#utility.yul\":7033:7078   */\n      add\n        /* \"#utility.yul\":7026:7078   */\n      swap4\n      pop\n        /* \"#utility.yul\":6922:7088   */\n      jump(tag_144)\n        /* \"#utility.yul\":7097:7441   */\n    tag_146:\n        /* \"#utility.yul\":7164:7205   */\n      tag_147\n        /* \"#utility.yul\":7199:7204   */\n      dup6\n        /* \"#utility.yul\":7164:7205   */\n      tag_67\n      jump\t// in\n    tag_147:\n        /* \"#utility.yul\":7227:7228   */\n      0x00\n        /* \"#utility.yul\":7241:7395   */\n    tag_148:\n        /* \"#utility.yul\":7255:7261   */\n      dup4\n        /* \"#utility.yul\":7252:7253   */\n      dup2\n        /* \"#utility.yul\":7249:7262   */\n      lt\n        /* \"#utility.yul\":7241:7395   */\n      iszero\n      tag_150\n      jumpi\n        /* \"#utility.yul\":7329:7336   */\n      dup2\n        /* \"#utility.yul\":7323:7337   */\n      sload\n        /* \"#utility.yul\":7319:7320   */\n      dup2\n        /* \"#utility.yul\":7314:7317   */\n      dup10\n        /* \"#utility.yul\":7310:7321   */\n      add\n        /* \"#utility.yul\":7303:7338   */\n      mstore\n        /* \"#utility.yul\":7379:7380   */\n      0x01\n        /* \"#utility.yul\":7370:7377   */\n      dup3\n        /* \"#utility.yul\":7366:7381   */\n      add\n        /* \"#utility.yul\":7355:7381   */\n      swap2\n      pop\n        /* \"#utility.yul\":7277:7281   */\n      0x20\n        /* \"#utility.yul\":7274:7275   */\n      dup2\n        /* \"#utility.yul\":7270:7282   */\n      add\n        /* \"#utility.yul\":7265:7282   */\n      swap1\n      pop\n        /* \"#utility.yul\":7241:7395   */\n      jump(tag_148)\n    tag_150:\n        /* \"#utility.yul\":7424:7430   */\n      dup4\n        /* \"#utility.yul\":7419:7422   */\n      dup9\n        /* \"#utility.yul\":7415:7431   */\n      add\n        /* \"#utility.yul\":7408:7431   */\n      swap6\n      pop\n        /* \"#utility.yul\":7104:7441   */\n      pop\n      pop\n        /* \"#utility.yul\":6889:7441   */\n    tag_144:\n      pop\n        /* \"#utility.yul\":6678:7447   */\n      pop\n      pop\n        /* \"#utility.yul\":6569:7447   */\n      swap3\n      swap2\n      pop\n      pop\n      jump\t// out\n        /* \"#utility.yul\":7453:7726   */\n    tag_26:\n        /* \"#utility.yul\":7584:7587   */\n      0x00\n        /* \"#utility.yul\":7606:7700   */\n      tag_152\n        /* \"#utility.yul\":7696:7699   */\n      dup3\n        /* \"#utility.yul\":7687:7693   */\n      dup5\n        /* \"#utility.yul\":7606:7700   */\n      tag_68\n      jump\t// in\n    tag_152:\n        /* \"#utility.yul\":7599:7700   */\n      swap2\n      pop\n        /* \"#utility.yul\":7717:7720   */\n      dup2\n        /* \"#utility.yul\":7710:7720   */\n      swap1\n      pop\n        /* \"#utility.yul\":7453:7726   */\n      swap3\n      swap2\n      pop\n      pop\n      jump\t// out\n\n    auxdata: 0xa26469706673582212205063d08d66aff5fd4771bbd4c68be1e01796e2b4aca1e28e2db14e6ece7bc67964736f6c63430008180033\n}\n",
				"bytecode": {
					"linkReferences": {},
					"object": "60806040526040518060a001604052806040518060400160405280600581526020017f6170706c6500000000000000000000000000000000000000000000000000000081525081526020016040518060400160405280600681526020017f62616e616e61000000000000000000000000000000000000000000000000000081525081526020016040518060400160405280600781526020017f636f636f6e75740000000000000000000000000000000000000000000000000081525081526020016040518060400160405280600681526020017f64757269616e000000000000000000000000000000000000000000000000000081525081526020016040518060400160405280600581526020017f6574726f670000000000000000000000000000000000000000000000000000008152508152505f9060056200014592919062000159565b5034801562000152575f80fd5b5062000586565b828054828255905f5260205f20908101928215620001a4579160200282015b82811115620001a3578251829081620001929190620004a2565b509160200191906001019062000178565b5b509050620001b39190620001b7565b5090565b5b80821115620001da575f8181620001d09190620001de565b50600101620001b8565b5090565b508054620001ec90620002a2565b5f825580601f10620001ff57506200021e565b601f0160209004905f5260205f20908101906200021d919062000221565b5b50565b5b808211156200023a575f815f90555060010162000222565b5090565b5f81519050919050565b7f4e487b71000000000000000000000000000000000000000000000000000000005f52604160045260245ffd5b7f4e487b71000000000000000000000000000000000000000000000000000000005f52602260045260245ffd5b5f6002820490506001821680620002ba57607f821691505b602082108103620002d057620002cf62000275565b5b50919050565b5f819050815f5260205f209050919050565b5f6020601f8301049050919050565b5f82821b905092915050565b5f60088302620003347fffffffffffffffffffffffffffffffffffffffffffffffffffffffffffffffff82620002f7565b620003408683620002f7565b95508019841693508086168417925050509392505050565b5f819050919050565b5f819050919050565b5f6200038a620003846200037e8462000358565b62000361565b62000358565b9050919050565b5f819050919050565b620003a5836200036a565b620003bd620003b48262000391565b84845462000303565b825550505050565b5f90565b620003d3620003c5565b620003e08184846200039a565b505050565b5b818110156200040757620003fb5f82620003c9565b600181019050620003e6565b5050565b601f82111562000456576200042081620002d6565b6200042b84620002e8565b810160208510156200043b578190505b620004536200044a85620002e8565b830182620003e5565b50505b505050565b5f82821c905092915050565b5f620004785f19846008026200045b565b1980831691505092915050565b5f62000492838362000467565b9150826002028217905092915050565b620004ad826200023e565b67ffffffffffffffff811115620004c957620004c862000248565b5b620004d58254620002a2565b620004e28282856200040b565b5f60209050601f83116001811462000518575f841562000503578287015190505b6200050f858262000485565b8655506200057e565b601f1984166200052886620002d6565b5f5b8281101562000551578489015182556001820191506020850194506020810190506200052a565b868310156200057157848901516200056d601f89168262000467565b8355505b6001600288020188555050505b505050505050565b6106c480620005945f395ff3fe608060405234801561000f575f80fd5b5060043610610034575f3560e01c8063655f478b14610038578063dfaadcbf14610069575b5f80fd5b610052600480360381019061004d91906103d6565b610099565b6040516100609291906104af565b60405180910390f35b610083600480360381019061007e9190610507565b6101e4565b6040516100909190610532565b60405180910390f35b5f60605f5b5f805490508110156101a25783805190602001205f82815481106100c5576100c4610552565b5b905f5260205f20016040516100da9190610678565b60405180910390200361019757805f82815481106100fb576100fa610552565b5b905f5260205f200180805461010f906105ac565b80601f016020809104026020016040519081016040528092919081815260200182805461013b906105ac565b80156101865780601f1061015d57610100808354040283529160200191610186565b820191905f5260205f20905b81548152906001019060200180831161016957829003601f168201915b5050505050905092509250506101df565b80600101905061009e565b505f6040518060400160405280600781526020017f4e6f7468696e6700000000000000000000000000000000000000000000000000815250915091505b915091565b5f81815481106101f2575f80fd5b905f5260205f20015f91509050805461020a906105ac565b80601f0160208091040260200160405190810160405280929190818152602001828054610236906105ac565b80156102815780601f1061025857610100808354040283529160200191610281565b820191905f5260205f20905b81548152906001019060200180831161026457829003601f168201915b505050505081565b5f604051905090565b5f80fd5b5f80fd5b5f80fd5b5f80fd5b5f601f19601f8301169050919050565b7f4e487b71000000000000000000000000000000000000000000000000000000005f52604160045260245ffd5b6102e8826102a2565b810181811067ffffffffffffffff82111715610307576103066102b2565b5b80604052505050565b5f610319610289565b905061032582826102df565b919050565b5f67ffffffffffffffff821115610344576103436102b2565b5b61034d826102a2565b9050602081019050919050565b828183375f83830152505050565b5f61037a6103758461032a565b610310565b9050828152602081018484840111156103965761039561029e565b5b6103a184828561035a565b509392505050565b5f82601f8301126103bd576103bc61029a565b5b81356103cd848260208601610368565b91505092915050565b5f602082840312156103eb576103ea610292565b5b5f82013567ffffffffffffffff81111561040857610407610296565b5b610414848285016103a9565b91505092915050565b5f819050919050565b61042f8161041d565b82525050565b5f81519050919050565b5f82825260208201905092915050565b5f5b8381101561046c578082015181840152602081019050610451565b5f8484015250505050565b5f61048182610435565b61048b818561043f565b935061049b81856020860161044f565b6104a4816102a2565b840191505092915050565b5f6040820190506104c25f830185610426565b81810360208301526104d48184610477565b90509392505050565b6104e68161041d565b81146104f0575f80fd5b50565b5f81359050610501816104dd565b92915050565b5f6020828403121561051c5761051b610292565b5b5f610529848285016104f3565b91505092915050565b5f6020820190508181035f83015261054a8184610477565b905092915050565b7f4e487b71000000000000000000000000000000000000000000000000000000005f52603260045260245ffd5b7f4e487b71000000000000000000000000000000000000000000000000000000005f52602260045260245ffd5b5f60028204905060018216806105c357607f821691505b6020821081036105d6576105d561057f565b5b50919050565b5f81905092915050565b5f819050815f5260205f209050919050565b5f8154610604816105ac565b61060e81866105dc565b9450600182165f8114610628576001811461063d5761066f565b60ff198316865281151582028601935061066f565b610646856105e6565b5f5b8381101561066757815481890152600182019150602081019050610648565b838801955050505b50505092915050565b5f61068382846105f8565b91508190509291505056fea26469706673582212205063d08d66aff5fd4771bbd4c68be1e01796e2b4aca1e28e2db14e6ece7bc67964736f6c63430008180033",
					"opcodes": "PUSH1 0x80 PUSH1 0x40 MSTORE PUSH1 0x40 MLOAD DUP1 PUSH1 0xA0 ADD PUSH1 0x40 MSTORE DUP1 PUSH1 0x40 MLOAD DUP1 PUSH1 0x40 ADD PUSH1 0x40 MSTORE DUP1 PUSH1 0x5 DUP2 MSTORE PUSH1 0x20 ADD PUSH32 0x6170706C65000000000000000000000000000000000000000000000000000000 DUP2 MSTORE POP DUP2 MSTORE PUSH1 0x20 ADD PUSH1 0x40 MLOAD DUP1 PUSH1 0x40 ADD PUSH1 0x40 MSTORE DUP1 PUSH1 0x6 DUP2 MSTORE PUSH1 0x20 ADD PUSH32 0x62616E616E610000000000000000000000000000000000000000000000000000 DUP2 MSTORE POP DUP2 MSTORE PUSH1 0x20 ADD PUSH1 0x40 MLOAD DUP1 PUSH1 0x40 ADD PUSH1 0x40 MSTORE DUP1 PUSH1 0x7 DUP2 MSTORE PUSH1 0x20 ADD PUSH32 0x636F636F6E757400000000000000000000000000000000000000000000000000 DUP2 MSTORE POP DUP2 MSTORE PUSH1 0x20 ADD PUSH1 0x40 MLOAD DUP1 PUSH1 0x40 ADD PUSH1 0x40 MSTORE DUP1 PUSH1 0x6 DUP2 MSTORE PUSH1 0x20 ADD PUSH32 0x64757269616E0000000000000000000000000000000000000000000000000000 DUP2 MSTORE POP DUP2 MSTORE PUSH1 0x20 ADD PUSH1 0x40 MLOAD DUP1 PUSH1 0x40 ADD PUSH1 0x40 MSTORE DUP1 PUSH1 0x5 DUP2 MSTORE PUSH1 0x20 ADD PUSH32 0x6574726F67000000000000000000000000000000000000000000000000000000 DUP2 MSTORE POP DUP2 MSTORE POP PUSH0 SWAP1 PUSH1 0x5 PUSH3 0x145 SWAP3 SWAP2 SWAP1 PUSH3 0x159 JUMP JUMPDEST POP CALLVALUE DUP1 ISZERO PUSH3 0x152 JUMPI PUSH0 DUP1 REVERT JUMPDEST POP PUSH3 0x586 JUMP JUMPDEST DUP3 DUP1 SLOAD DUP3 DUP3 SSTORE SWAP1 PUSH0 MSTORE PUSH1 0x20 PUSH0 KECCAK256 SWAP1 DUP2 ADD SWAP3 DUP3 ISZERO PUSH3 0x1A4 JUMPI SWAP2 PUSH1 0x20 MUL DUP3 ADD JUMPDEST DUP3 DUP2 GT ISZERO PUSH3 0x1A3 JUMPI DUP3 MLOAD DUP3 SWAP1 DUP2 PUSH3 0x192 SWAP2 SWAP1 PUSH3 0x4A2 JUMP JUMPDEST POP SWAP2 PUSH1 0x20 ADD SWAP2 SWAP1 PUSH1 0x1 ADD SWAP1 PUSH3 0x178 JUMP JUMPDEST JUMPDEST POP SWAP1 POP PUSH3 0x1B3 SWAP2 SWAP1 PUSH3 0x1B7 JUMP JUMPDEST POP SWAP1 JUMP JUMPDEST JUMPDEST DUP1 DUP3 GT ISZERO PUSH3 0x1DA JUMPI PUSH0 DUP2 DUP2 PUSH3 0x1D0 SWAP2 SWAP1 PUSH3 0x1DE JUMP JUMPDEST POP PUSH1 0x1 ADD PUSH3 0x1B8 JUMP JUMPDEST POP SWAP1 JUMP JUMPDEST POP DUP1 SLOAD PUSH3 0x1EC SWAP1 PUSH3 0x2A2 JUMP JUMPDEST PUSH0 DUP3 SSTORE DUP1 PUSH1 0x1F LT PUSH3 0x1FF JUMPI POP PUSH3 0x21E JUMP JUMPDEST PUSH1 0x1F ADD PUSH1 0x20 SWAP1 DIV SWAP1 PUSH0 MSTORE PUSH1 0x20 PUSH0 KECCAK256 SWAP1 DUP2 ADD SWAP1 PUSH3 0x21D SWAP2 SWAP1 PUSH3 0x221 JUMP JUMPDEST JUMPDEST POP JUMP JUMPDEST JUMPDEST DUP1 DUP3 GT ISZERO PUSH3 0x23A JUMPI PUSH0 DUP2 PUSH0 SWAP1 SSTORE POP PUSH1 0x1 ADD PUSH3 0x222 JUMP JUMPDEST POP SWAP1 JUMP JUMPDEST PUSH0 DUP2 MLOAD SWAP1 POP SWAP2 SWAP1 POP JUMP JUMPDEST PUSH32 0x4E487B7100000000000000000000000000000000000000000000000000000000 PUSH0 MSTORE PUSH1 0x41 PUSH1 0x4 MSTORE PUSH1 0x24 PUSH0 REVERT JUMPDEST PUSH32 0x4E487B7100000000000000000000000000000000000000000000000000000000 PUSH0 MSTORE PUSH1 0x22 PUSH1 0x4 MSTORE PUSH1 0x24 PUSH0 REVERT JUMPDEST PUSH0 PUSH1 0x2 DUP3 DIV SWAP1 POP PUSH1 0x1 DUP3 AND DUP1 PUSH3 0x2BA JUMPI PUSH1 0x7F DUP3 AND SWAP2 POP JUMPDEST PUSH1 0x20 DUP3 LT DUP2 SUB PUSH3 0x2D0 JUMPI PUSH3 0x2CF PUSH3 0x275 JUMP JUMPDEST JUMPDEST POP SWAP2 SWAP1 POP JUMP JUMPDEST PUSH0 DUP2 SWAP1 POP DUP2 PUSH0 MSTORE PUSH1 0x20 PUSH0 KECCAK256 SWAP1 POP SWAP2 SWAP1 POP JUMP JUMPDEST PUSH0 PUSH1 0x20 PUSH1 0x1F DUP4 ADD DIV SWAP1 POP SWAP2 SWAP1 POP JUMP JUMPDEST PUSH0 DUP3 DUP3 SHL SWAP1 POP SWAP3 SWAP2 POP POP JUMP JUMPDEST PUSH0 PUSH1 0x8 DUP4 MUL PUSH3 0x334 PUSH32 0xFFFFFFFFFFFFFFFFFFFFFFFFFFFFFFFFFFFFFFFFFFFFFFFFFFFFFFFFFFFFFFFF DUP3 PUSH3 0x2F7 JUMP JUMPDEST PUSH3 0x340 DUP7 DUP4 PUSH3 0x2F7 JUMP JUMPDEST SWAP6 POP DUP1 NOT DUP5 AND SWAP4 POP DUP1 DUP7 AND DUP5 OR SWAP3 POP POP POP SWAP4 SWAP3 POP POP POP JUMP JUMPDEST PUSH0 DUP2 SWAP1 POP SWAP2 SWAP1 POP JUMP JUMPDEST PUSH0 DUP2 SWAP1 POP SWAP2 SWAP1 POP JUMP JUMPDEST PUSH0 PUSH3 0x38A PUSH3 0x384 PUSH3 0x37E DUP5 PUSH3 0x358 JUMP JUMPDEST PUSH3 0x361 JUMP JUMPDEST PUSH3 0x358 JUMP JUMPDEST SWAP1 POP SWAP2 SWAP1 POP JUMP JUMPDEST PUSH0 DUP2 SWAP1 POP SWAP2 SWAP1 POP JUMP JUMPDEST PUSH3 0x3A5 DUP4 PUSH3 0x36A JUMP JUMPDEST PUSH3 0x3BD PUSH3 0x3B4 DUP3 PUSH3 0x391 JUMP JUMPDEST DUP5 DUP5 SLOAD PUSH3 0x303 JUMP JUMPDEST DUP3 SSTORE POP POP POP POP JUMP JUMPDEST PUSH0 SWAP1 JUMP JUMPDEST PUSH3 0x3D3 PUSH3 0x3C5 JUMP JUMPDEST PUSH3 0x3E0 DUP2 DUP5 DUP5 PUSH3 0x39A JUMP JUMPDEST POP POP POP JUMP JUMPDEST JUMPDEST DUP2 DUP2 LT ISZERO PUSH3 0x407 JUMPI PUSH3 0x3FB PUSH0 DUP3 PUSH3 0x3C9 JUMP JUMPDEST PUSH1 0x1 DUP2 ADD SWAP1 POP PUSH3 0x3E6 JUMP JUMPDEST POP POP JUMP JUMPDEST PUSH1 0x1F DUP3 GT ISZERO PUSH3 0x456 JUMPI PUSH3 0x420 DUP2 PUSH3 0x2D6 JUMP JUMPDEST PUSH3 0x42B DUP5 PUSH3 0x2E8 JUMP JUMPDEST DUP2 ADD PUSH1 0x20 DUP6 LT ISZERO PUSH3 0x43B JUMPI DUP2 SWAP1 POP JUMPDEST PUSH3 0x453 PUSH3 0x44A DUP6 PUSH3 0x2E8 JUMP JUMPDEST DUP4 ADD DUP3 PUSH3 0x3E5 JUMP JUMPDEST POP POP JUMPDEST POP POP POP JUMP JUMPDEST PUSH0 DUP3 DUP3 SHR SWAP1 POP SWAP3 SWAP2 POP POP JUMP JUMPDEST PUSH0 PUSH3 0x478 PUSH0 NOT DUP5 PUSH1 0x8 MUL PUSH3 0x45B JUMP JUMPDEST NOT DUP1 DUP4 AND SWAP2 POP POP SWAP3 SWAP2 POP POP JUMP JUMPDEST PUSH0 PUSH3 0x492 DUP4 DUP4 PUSH3 0x467 JUMP JUMPDEST SWAP2 POP DUP3 PUSH1 0x2 MUL DUP3 OR SWAP1 POP SWAP3 SWAP2 POP POP JUMP JUMPDEST PUSH3 0x4AD DUP3 PUSH3 0x23E JUMP JUMPDEST PUSH8 0xFFFFFFFFFFFFFFFF DUP2 GT ISZERO PUSH3 0x4C9 JUMPI PUSH3 0x4C8 PUSH3 0x248 JUMP JUMPDEST JUMPDEST PUSH3 0x4D5 DUP3 SLOAD PUSH3 0x2A2 JUMP JUMPDEST PUSH3 0x4E2 DUP3 DUP3 DUP6 PUSH3 0x40B JUMP JUMPDEST PUSH0 PUSH1 0x20 SWAP1 POP PUSH1 0x1F DUP4 GT PUSH1 0x1 DUP2 EQ PUSH3 0x518 JUMPI PUSH0 DUP5 ISZERO PUSH3 0x503 JUMPI DUP3 DUP8 ADD MLOAD SWAP1 POP JUMPDEST PUSH3 0x50F DUP6 DUP3 PUSH3 0x485 JUMP JUMPDEST DUP7 SSTORE POP PUSH3 0x57E JUMP JUMPDEST PUSH1 0x1F NOT DUP5 AND PUSH3 0x528 DUP7 PUSH3 0x2D6 JUMP JUMPDEST PUSH0 JUMPDEST DUP3 DUP2 LT ISZERO PUSH3 0x551 JUMPI DUP5 DUP10 ADD MLOAD DUP3 SSTORE PUSH1 0x1 DUP3 ADD SWAP2 POP PUSH1 0x20 DUP6 ADD SWAP5 POP PUSH1 0x20 DUP2 ADD SWAP1 POP PUSH3 0x52A JUMP JUMPDEST DUP7 DUP4 LT ISZERO PUSH3 0x571 JUMPI DUP5 DUP10 ADD MLOAD PUSH3 0x56D PUSH1 0x1F DUP10 AND DUP3 PUSH3 0x467 JUMP JUMPDEST DUP4 SSTORE POP JUMPDEST PUSH1 0x1 PUSH1 0x2 DUP9 MUL ADD DUP9 SSTORE POP POP POP JUMPDEST POP POP POP POP POP POP JUMP JUMPDEST PUSH2 0x6C4 DUP1 PUSH3 0x594 PUSH0 CODECOPY PUSH0 RETURN INVALID PUSH1 0x80 PUSH1 0x40 MSTORE CALLVALUE DUP1 ISZERO PUSH2 0xF JUMPI PUSH0 DUP1 REVERT JUMPDEST POP PUSH1 0x4 CALLDATASIZE LT PUSH2 0x34 JUMPI PUSH0 CALLDATALOAD PUSH1 0xE0 SHR DUP1 PUSH4 0x655F478B EQ PUSH2 0x38 JUMPI DUP1 PUSH4 0xDFAADCBF EQ PUSH2 0x69 JUMPI JUMPDEST PUSH0 DUP1 REVERT JUMPDEST PUSH2 0x52 PUSH1 0x4 DUP1 CALLDATASIZE SUB DUP2 ADD SWAP1 PUSH2 0x4D SWAP2 SWAP1 PUSH2 0x3D6 JUMP JUMPDEST PUSH2 0x99 JUMP JUMPDEST PUSH1 0x40 MLOAD PUSH2 0x60 SWAP3 SWAP2 SWAP1 PUSH2 0x4AF JUMP JUMPDEST PUSH1 0x40 MLOAD DUP1 SWAP2 SUB SWAP1 RETURN JUMPDEST PUSH2 0x83 PUSH1 0x4 DUP1 CALLDATASIZE SUB DUP2 ADD SWAP1 PUSH2 0x7E SWAP2 SWAP1 PUSH2 0x507 JUMP JUMPDEST PUSH2 0x1E4 JUMP JUMPDEST PUSH1 0x40 MLOAD PUSH2 0x90 SWAP2 SWAP1 PUSH2 0x532 JUMP JUMPDEST PUSH1 0x40 MLOAD DUP1 SWAP2 SUB SWAP1 RETURN JUMPDEST PUSH0 PUSH1 0x60 PUSH0 JUMPDEST PUSH0 DUP1 SLOAD SWAP1 POP DUP2 LT ISZERO PUSH2 0x1A2 JUMPI DUP4 DUP1 MLOAD SWAP1 PUSH1 0x20 ADD KECCAK256 PUSH0 DUP3 DUP2 SLOAD DUP2 LT PUSH2 0xC5 JUMPI PUSH2 0xC4 PUSH2 0x552 JUMP JUMPDEST JUMPDEST SWAP1 PUSH0 MSTORE PUSH1 0x20 PUSH0 KECCAK256 ADD PUSH1 0x40 MLOAD PUSH2 0xDA SWAP2 SWAP1 PUSH2 0x678 JUMP JUMPDEST PUSH1 0x40 MLOAD DUP1 SWAP2 SUB SWAP1 KECCAK256 SUB PUSH2 0x197 JUMPI DUP1 PUSH0 DUP3 DUP2 SLOAD DUP2 LT PUSH2 0xFB JUMPI PUSH2 0xFA PUSH2 0x552 JUMP JUMPDEST JUMPDEST SWAP1 PUSH0 MSTORE PUSH1 0x20 PUSH0 KECCAK256 ADD DUP1 DUP1 SLOAD PUSH2 0x10F SWAP1 PUSH2 0x5AC JUMP JUMPDEST DUP1 PUSH1 0x1F ADD PUSH1 0x20 DUP1 SWAP2 DIV MUL PUSH1 0x20 ADD PUSH1 0x40 MLOAD SWAP1 DUP2 ADD PUSH1 0x40 MSTORE DUP1 SWAP3 SWAP2 SWAP1 DUP2 DUP2 MSTORE PUSH1 0x20 ADD DUP3 DUP1 SLOAD PUSH2 0x13B SWAP1 PUSH2 0x5AC JUMP JUMPDEST DUP1 ISZERO PUSH2 0x186 JUMPI DUP1 PUSH1 0x1F LT PUSH2 0x15D JUMPI PUSH2 0x100 DUP1 DUP4 SLOAD DIV MUL DUP4 MSTORE SWAP2 PUSH1 0x20 ADD SWAP2 PUSH2 0x186 JUMP JUMPDEST DUP3 ADD SWAP2 SWAP1 PUSH0 MSTORE PUSH1 0x20 PUSH0 KECCAK256 SWAP1 JUMPDEST DUP2 SLOAD DUP2 MSTORE SWAP1 PUSH1 0x1 ADD SWAP1 PUSH1 0x20 ADD DUP1 DUP4 GT PUSH2 0x169 JUMPI DUP3 SWAP1 SUB PUSH1 0x1F AND DUP3 ADD SWAP2 JUMPDEST POP POP POP POP POP SWAP1 POP SWAP3 POP SWAP3 POP POP PUSH2 0x1DF JUMP JUMPDEST DUP1 PUSH1 0x1 ADD SWAP1 POP PUSH2 0x9E JUMP JUMPDEST POP PUSH0 PUSH1 0x40 MLOAD DUP1 PUSH1 0x40 ADD PUSH1 0x40 MSTORE DUP1 PUSH1 0x7 DUP2 MSTORE PUSH1 0x20 ADD PUSH32 0x4E6F7468696E6700000000000000000000000000000000000000000000000000 DUP2 MSTORE POP SWAP2 POP SWAP2 POP JUMPDEST SWAP2 POP SWAP2 JUMP JUMPDEST PUSH0 DUP2 DUP2 SLOAD DUP2 LT PUSH2 0x1F2 JUMPI PUSH0 DUP1 REVERT JUMPDEST SWAP1 PUSH0 MSTORE PUSH1 0x20 PUSH0 KECCAK256 ADD PUSH0 SWAP2 POP SWAP1 POP DUP1 SLOAD PUSH2 0x20A SWAP1 PUSH2 0x5AC JUMP JUMPDEST DUP1 PUSH1 0x1F ADD PUSH1 0x20 DUP1 SWAP2 DIV MUL PUSH1 0x20 ADD PUSH1 0x40 MLOAD SWAP1 DUP2 ADD PUSH1 0x40 MSTORE DUP1 SWAP3 SWAP2 SWAP1 DUP2 DUP2 MSTORE PUSH1 0x20 ADD DUP3 DUP1 SLOAD PUSH2 0x236 SWAP1 PUSH2 0x5AC JUMP JUMPDEST DUP1 ISZERO PUSH2 0x281 JUMPI DUP1 PUSH1 0x1F LT PUSH2 0x258 JUMPI PUSH2 0x100 DUP1 DUP4 SLOAD DIV MUL DUP4 MSTORE SWAP2 PUSH1 0x20 ADD SWAP2 PUSH2 0x281 JUMP JUMPDEST DUP3 ADD SWAP2 SWAP1 PUSH0 MSTORE PUSH1 0x20 PUSH0 KECCAK256 SWAP1 JUMPDEST DUP2 SLOAD DUP2 MSTORE SWAP1 PUSH1 0x1 ADD SWAP1 PUSH1 0x20 ADD DUP1 DUP4 GT PUSH2 0x264 JUMPI DUP3 SWAP1 SUB PUSH1 0x1F AND DUP3 ADD SWAP2 JUMPDEST POP POP POP POP POP DUP2 JUMP JUMPDEST PUSH0 PUSH1 0x40 MLOAD SWAP1 POP SWAP1 JUMP JUMPDEST PUSH0 DUP1 REVERT JUMPDEST PUSH0 DUP1 REVERT JUMPDEST PUSH0 DUP1 REVERT JUMPDEST PUSH0 DUP1 REVERT JUMPDEST PUSH0 PUSH1 0x1F NOT PUSH1 0x1F DUP4 ADD AND SWAP1 POP SWAP2 SWAP1 POP JUMP JUMPDEST PUSH32 0x4E487B7100000000000000000000000000000000000000000000000000000000 PUSH0 MSTORE PUSH1 0x41 PUSH1 0x4 MSTORE PUSH1 0x24 PUSH0 REVERT JUMPDEST PUSH2 0x2E8 DUP3 PUSH2 0x2A2 JUMP JUMPDEST DUP2 ADD DUP2 DUP2 LT PUSH8 0xFFFFFFFFFFFFFFFF DUP3 GT OR ISZERO PUSH2 0x307 JUMPI PUSH2 0x306 PUSH2 0x2B2 JUMP JUMPDEST JUMPDEST DUP1 PUSH1 0x40 MSTORE POP POP POP JUMP JUMPDEST PUSH0 PUSH2 0x319 PUSH2 0x289 JUMP JUMPDEST SWAP1 POP PUSH2 0x325 DUP3 DUP3 PUSH2 0x2DF JUMP JUMPDEST SWAP2 SWAP1 POP JUMP JUMPDEST PUSH0 PUSH8 0xFFFFFFFFFFFFFFFF DUP3 GT ISZERO PUSH2 0x344 JUMPI PUSH2 0x343 PUSH2 0x2B2 JUMP JUMPDEST JUMPDEST PUSH2 0x34D DUP3 PUSH2 0x2A2 JUMP JUMPDEST SWAP1 POP PUSH1 0x20 DUP2 ADD SWAP1 POP SWAP2 SWAP1 POP JUMP JUMPDEST DUP3 DUP2 DUP4 CALLDATACOPY PUSH0 DUP4 DUP4 ADD MSTORE POP POP POP JUMP JUMPDEST PUSH0 PUSH2 0x37A PUSH2 0x375 DUP5 PUSH2 0x32A JUMP JUMPDEST PUSH2 0x310 JUMP JUMPDEST SWAP1 POP DUP3 DUP2 MSTORE PUSH1 0x20 DUP2 ADD DUP5 DUP5 DUP5 ADD GT ISZERO PUSH2 0x396 JUMPI PUSH2 0x395 PUSH2 0x29E JUMP JUMPDEST JUMPDEST PUSH2 0x3A1 DUP5 DUP3 DUP6 PUSH2 0x35A JUMP JUMPDEST POP SWAP4 SWAP3 POP POP POP JUMP JUMPDEST PUSH0 DUP3 PUSH1 0x1F DUP4 ADD SLT PUSH2 0x3BD JUMPI PUSH2 0x3BC PUSH2 0x29A JUMP JUMPDEST JUMPDEST DUP2 CALLDATALOAD PUSH2 0x3CD DUP5 DUP3 PUSH1 0x20 DUP7 ADD PUSH2 0x368 JUMP JUMPDEST SWAP2 POP POP SWAP3 SWAP2 POP POP JUMP JUMPDEST PUSH0 PUSH1 0x20 DUP3 DUP5 SUB SLT ISZERO PUSH2 0x3EB JUMPI PUSH2 0x3EA PUSH2 0x292 JUMP JUMPDEST JUMPDEST PUSH0 DUP3 ADD CALLDATALOAD PUSH8 0xFFFFFFFFFFFFFFFF DUP2 GT ISZERO PUSH2 0x408 JUMPI PUSH2 0x407 PUSH2 0x296 JUMP JUMPDEST JUMPDEST PUSH2 0x414 DUP5 DUP3 DUP6 ADD PUSH2 0x3A9 JUMP JUMPDEST SWAP2 POP POP SWAP3 SWAP2 POP POP JUMP JUMPDEST PUSH0 DUP2 SWAP1 POP SWAP2 SWAP1 POP JUMP JUMPDEST PUSH2 0x42F DUP2 PUSH2 0x41D JUMP JUMPDEST DUP3 MSTORE POP POP JUMP JUMPDEST PUSH0 DUP2 MLOAD SWAP1 POP SWAP2 SWAP1 POP JUMP JUMPDEST PUSH0 DUP3 DUP3 MSTORE PUSH1 0x20 DUP3 ADD SWAP1 POP SWAP3 SWAP2 POP POP JUMP JUMPDEST PUSH0 JUMPDEST DUP4 DUP2 LT ISZERO PUSH2 0x46C JUMPI DUP1 DUP3 ADD MLOAD DUP2 DUP5 ADD MSTORE PUSH1 0x20 DUP2 ADD SWAP1 POP PUSH2 0x451 JUMP JUMPDEST PUSH0 DUP5 DUP5 ADD MSTORE POP POP POP POP JUMP JUMPDEST PUSH0 PUSH2 0x481 DUP3 PUSH2 0x435 JUMP JUMPDEST PUSH2 0x48B DUP2 DUP6 PUSH2 0x43F JUMP JUMPDEST SWAP4 POP PUSH2 0x49B DUP2 DUP6 PUSH1 0x20 DUP7 ADD PUSH2 0x44F JUMP JUMPDEST PUSH2 0x4A4 DUP2 PUSH2 0x2A2 JUMP JUMPDEST DUP5 ADD SWAP2 POP POP SWAP3 SWAP2 POP POP JUMP JUMPDEST PUSH0 PUSH1 0x40 DUP3 ADD SWAP1 POP PUSH2 0x4C2 PUSH0 DUP4 ADD DUP6 PUSH2 0x426 JUMP JUMPDEST DUP2 DUP2 SUB PUSH1 0x20 DUP4 ADD MSTORE PUSH2 0x4D4 DUP2 DUP5 PUSH2 0x477 JUMP JUMPDEST SWAP1 POP SWAP4 SWAP3 POP POP POP JUMP JUMPDEST PUSH2 0x4E6 DUP2 PUSH2 0x41D JUMP JUMPDEST DUP2 EQ PUSH2 0x4F0 JUMPI PUSH0 DUP1 REVERT JUMPDEST POP JUMP JUMPDEST PUSH0 DUP2 CALLDATALOAD SWAP1 POP PUSH2 0x501 DUP2 PUSH2 0x4DD JUMP JUMPDEST SWAP3 SWAP2 POP POP JUMP JUMPDEST PUSH0 PUSH1 0x20 DUP3 DUP5 SUB SLT ISZERO PUSH2 0x51C JUMPI PUSH2 0x51B PUSH2 0x292 JUMP JUMPDEST JUMPDEST PUSH0 PUSH2 0x529 DUP5 DUP3 DUP6 ADD PUSH2 0x4F3 JUMP JUMPDEST SWAP2 POP POP SWAP3 SWAP2 POP POP JUMP JUMPDEST PUSH0 PUSH1 0x20 DUP3 ADD SWAP1 POP DUP2 DUP2 SUB PUSH0 DUP4 ADD MSTORE PUSH2 0x54A DUP2 DUP5 PUSH2 0x477 JUMP JUMPDEST SWAP1 POP SWAP3 SWAP2 POP POP JUMP JUMPDEST PUSH32 0x4E487B7100000000000000000000000000000000000000000000000000000000 PUSH0 MSTORE PUSH1 0x32 PUSH1 0x4 MSTORE PUSH1 0x24 PUSH0 REVERT JUMPDEST PUSH32 0x4E487B7100000000000000000000000000000000000000000000000000000000 PUSH0 MSTORE PUSH1 0x22 PUSH1 0x4 MSTORE PUSH1 0x24 PUSH0 REVERT JUMPDEST PUSH0 PUSH1 0x2 DUP3 DIV SWAP1 POP PUSH1 0x1 DUP3 AND DUP1 PUSH2 0x5C3 JUMPI PUSH1 0x7F DUP3 AND SWAP2 POP JUMPDEST PUSH1 0x20 DUP3 LT DUP2 SUB PUSH2 0x5D6 JUMPI PUSH2 0x5D5 PUSH2 0x57F JUMP JUMPDEST JUMPDEST POP SWAP2 SWAP1 POP JUMP JUMPDEST PUSH0 DUP2 SWAP1 POP SWAP3 SWAP2 POP POP JUMP JUMPDEST PUSH0 DUP2 SWAP1 POP DUP2 PUSH0 MSTORE PUSH1 0x20 PUSH0 KECCAK256 SWAP1 POP SWAP2 SWAP1 POP JUMP JUMPDEST PUSH0 DUP2 SLOAD PUSH2 0x604 DUP2 PUSH2 0x5AC JUMP JUMPDEST PUSH2 0x60E DUP2 DUP7 PUSH2 0x5DC JUMP JUMPDEST SWAP5 POP PUSH1 0x1 DUP3 AND PUSH0 DUP2 EQ PUSH2 0x628 JUMPI PUSH1 0x1 DUP2 EQ PUSH2 0x63D JUMPI PUSH2 0x66F JUMP JUMPDEST PUSH1 0xFF NOT DUP4 AND DUP7 MSTORE DUP2 ISZERO ISZERO DUP3 MUL DUP7 ADD SWAP4 POP PUSH2 0x66F JUMP JUMPDEST PUSH2 0x646 DUP6 PUSH2 0x5E6 JUMP JUMPDEST PUSH0 JUMPDEST DUP4 DUP2 LT ISZERO PUSH2 0x667 JUMPI DUP2 SLOAD DUP2 DUP10 ADD MSTORE PUSH1 0x1 DUP3 ADD SWAP2 POP PUSH1 0x20 DUP2 ADD SWAP1 POP PUSH2 0x648 JUMP JUMPDEST DUP4 DUP9 ADD SWAP6 POP POP POP JUMPDEST POP POP POP SWAP3 SWAP2 POP POP JUMP JUMPDEST PUSH0 PUSH2 0x683 DUP3 DUP5 PUSH2 0x5F8 JUMP JUMPDEST SWAP2 POP DUP2 SWAP1 POP SWAP3 SWAP2 POP POP JUMP INVALID LOG2 PUSH5 0x6970667358 0x22 SLT KECCAK256 POP PUSH4 0xD08D66AF CREATE2 REVERT SELFBALANCE PUSH18 0xBBD4C68BE1E01796E2B4ACA1E28E2DB14E6E 0xCE PUSH28 0xC67964736F6C63430008180033000000000000000000000000000000 "
				},
				"gasEstimates": {
					"creation": {
						"codeDepositCost": "346400",
						"executionCost": "infinite",
						"totalCost": "infinite"
					},
					"external": {
						"fruitArray(uint256)": "infinite",
						"linearSearch(string)": "infinite"
					}
				},
				"methodIdentifiers": {
					"fruitArray(uint256)": "dfaadcbf",
					"linearSearch(string)": "655f478b"
				}
			},
			"storageLayout": {
				"storage": [
					{
						"astId": 10,
						"contract": "5장_매핑,배열,구조체/5_6.sol:Ex5_6",
						"label": "fruitArray",
						"offset": 0,
						"slot": "0",
						"type": "t_array(t_string_storage)dyn_storage"
					}
				],
				"types": {
					"t_array(t_string_storage)dyn_storage": {
						"base": "t_string_storage",
						"encoding": "dynamic_array",
						"label": "string[]",
						"numberOfBytes": "32"
					},
					"t_string_storage": {
						"encoding": "bytes",
						"label": "string",
						"numberOfBytes": "32"
					}
				}
			},
			"userdoc": {
				"kind": "user",
				"methods": {},
				"version": 1
			}
		}
	}
}