{
	"2장_리믹스로 솔리디티 시작하기/ex2_10.sol": {
		"Ex2_10": {
			"abi": [
				{
					"inputs": [],
					"name": "left",
					"outputs": [
						{
							"internalType": "bytes1",
							"name": "",
							"type": "bytes1"
						}
					],
					"stateMutability": "view",
					"type": "function"
				},
				{
					"inputs": [],
					"name": "right",
					"outputs": [
						{
							"internalType": "bytes1",
							"name": "",
							"type": "bytes1"
						}
					],
					"stateMutability": "view",
					"type": "function"
				}
			],
			"devdoc": {
				"kind": "dev",
				"methods": {},
				"version": 1
			},
			"evm": {
				"assembly": "    /* \"2\\xec\\x9e\\xa5_\\xeb\\xa6\\xac\\xeb\\xaf\\xb9\\xec\\x8a\\xa4\\xeb\\xa1\\x9c \\xec\\x86\\x94\\xeb\\xa6\\xac\\xeb\\x94\\x94\\xed\\x8b\\xb0 \\xec\\x8b\\x9c\\xec\\x9e\\x91\\xed\\x95\\x98\\xea\\xb8\\xb0/ex2_10.sol\":86:289  contract Ex2_10{... */\n  mstore(0x40, 0x80)\n    /* \"2\\xec\\x9e\\xa5_\\xeb\\xa6\\xac\\xeb\\xaf\\xb9\\xec\\x8a\\xa4\\xeb\\xa1\\x9c \\xec\\x86\\x94\\xeb\\xa6\\xac\\xeb\\x94\\x94\\xed\\x8b\\xb0 \\xec\\x8b\\x9c\\xec\\x9e\\x91\\xed\\x95\\x98\\xea\\xb8\\xb0/ex2_10.sol\":118:122  0x10 */\n  0x10\n    /* \"2\\xec\\x9e\\xa5_\\xeb\\xa6\\xac\\xeb\\xaf\\xb9\\xec\\x8a\\xa4\\xeb\\xa1\\x9c \\xec\\x86\\x94\\xeb\\xa6\\xac\\xeb\\x94\\x94\\xed\\x8b\\xb0 \\xec\\x8b\\x9c\\xec\\x9e\\x91\\xed\\x95\\x98\\xea\\xb8\\xb0/ex2_10.sol\":108:122  bytes1 a =0x10 */\n  0xf8\n  shl\n  0x00\n  dup1\n  0x0100\n  exp\n  dup2\n  sload\n  dup2\n  0xff\n  mul\n  not\n  and\n  swap1\n  dup4\n  0xf8\n  shr\n  mul\n  or\n  swap1\n  sstore\n  pop\n    /* \"2\\xec\\x9e\\xa5_\\xeb\\xa6\\xac\\xeb\\xaf\\xb9\\xec\\x8a\\xa4\\xeb\\xa1\\x9c \\xec\\x86\\x94\\xeb\\xa6\\xac\\xeb\\x94\\x94\\xed\\x8b\\xb0 \\xec\\x8b\\x9c\\xec\\x9e\\x91\\xed\\x95\\x98\\xea\\xb8\\xb0/ex2_10.sol\":86:289  contract Ex2_10{... */\n  callvalue\n  dup1\n  iszero\n  tag_1\n  jumpi\n  0x00\n  dup1\n  revert\ntag_1:\n  pop\n  dataSize(sub_0)\n  dup1\n  dataOffset(sub_0)\n  0x00\n  codecopy\n  0x00\n  return\nstop\n\nsub_0: assembly {\n        /* \"2\\xec\\x9e\\xa5_\\xeb\\xa6\\xac\\xeb\\xaf\\xb9\\xec\\x8a\\xa4\\xeb\\xa1\\x9c \\xec\\x86\\x94\\xeb\\xa6\\xac\\xeb\\x94\\x94\\xed\\x8b\\xb0 \\xec\\x8b\\x9c\\xec\\x9e\\x91\\xed\\x95\\x98\\xea\\xb8\\xb0/ex2_10.sol\":86:289  contract Ex2_10{... */\n      mstore(0x40, 0x80)\n      callvalue\n      dup1\n      iszero\n      tag_1\n      jumpi\n      0x00\n      dup1\n      revert\n    tag_1:\n      pop\n      jumpi(tag_2, lt(calldatasize, 0x04))\n      shr(0xe0, calldataload(0x00))\n      dup1\n      0x16e64048\n      eq\n      tag_3\n      jumpi\n      dup1\n      0x1f2a63c0\n      eq\n      tag_4\n      jumpi\n    tag_2:\n      0x00\n      dup1\n      revert\n        /* \"2\\xec\\x9e\\xa5_\\xeb\\xa6\\xac\\xeb\\xaf\\xb9\\xec\\x8a\\xa4\\xeb\\xa1\\x9c \\xec\\x86\\x94\\xeb\\xa6\\xac\\xeb\\x94\\x94\\xed\\x8b\\xb0 \\xec\\x8b\\x9c\\xec\\x9e\\x91\\xed\\x95\\x98\\xea\\xb8\\xb0/ex2_10.sol\":131:205  function left() public view returns (bytes1){... */\n    tag_3:\n      tag_5\n      tag_6\n      jump\t// in\n    tag_5:\n      mload(0x40)\n      tag_7\n      swap2\n      swap1\n      tag_8\n      jump\t// in\n    tag_7:\n      mload(0x40)\n      dup1\n      swap2\n      sub\n      swap1\n      return\n        /* \"2\\xec\\x9e\\xa5_\\xeb\\xa6\\xac\\xeb\\xaf\\xb9\\xec\\x8a\\xa4\\xeb\\xa1\\x9c \\xec\\x86\\x94\\xeb\\xa6\\xac\\xeb\\x94\\x94\\xed\\x8b\\xb0 \\xec\\x8b\\x9c\\xec\\x9e\\x91\\xed\\x95\\x98\\xea\\xb8\\xb0/ex2_10.sol\":211:286  function right() public view returns (bytes1){... */\n    tag_4:\n      tag_9\n      tag_10\n      jump\t// in\n    tag_9:\n      mload(0x40)\n      tag_11\n      swap2\n      swap1\n      tag_8\n      jump\t// in\n    tag_11:\n      mload(0x40)\n      dup1\n      swap2\n      sub\n      swap1\n      return\n        /* \"2\\xec\\x9e\\xa5_\\xeb\\xa6\\xac\\xeb\\xaf\\xb9\\xec\\x8a\\xa4\\xeb\\xa1\\x9c \\xec\\x86\\x94\\xeb\\xa6\\xac\\xeb\\x94\\x94\\xed\\x8b\\xb0 \\xec\\x8b\\x9c\\xec\\x9e\\x91\\xed\\x95\\x98\\xea\\xb8\\xb0/ex2_10.sol\":131:205  function left() public view returns (bytes1){... */\n    tag_6:\n        /* \"2\\xec\\x9e\\xa5_\\xeb\\xa6\\xac\\xeb\\xaf\\xb9\\xec\\x8a\\xa4\\xeb\\xa1\\x9c \\xec\\x86\\x94\\xeb\\xa6\\xac\\xeb\\x94\\x94\\xed\\x8b\\xb0 \\xec\\x8b\\x9c\\xec\\x9e\\x91\\xed\\x95\\x98\\xea\\xb8\\xb0/ex2_10.sol\":168:174  bytes1 */\n      0x00\n        /* \"2\\xec\\x9e\\xa5_\\xeb\\xa6\\xac\\xeb\\xaf\\xb9\\xec\\x8a\\xa4\\xeb\\xa1\\x9c \\xec\\x86\\x94\\xeb\\xa6\\xac\\xeb\\x94\\x94\\xed\\x8b\\xb0 \\xec\\x8b\\x9c\\xec\\x9e\\x91\\xed\\x95\\x98\\xea\\xb8\\xb0/ex2_10.sol\":196:197  1 */\n      0x01\n        /* \"2\\xec\\x9e\\xa5_\\xeb\\xa6\\xac\\xeb\\xaf\\xb9\\xec\\x8a\\xa4\\xeb\\xa1\\x9c \\xec\\x86\\x94\\xeb\\xa6\\xac\\xeb\\x94\\x94\\xed\\x8b\\xb0 \\xec\\x8b\\x9c\\xec\\x9e\\x91\\xed\\x95\\x98\\xea\\xb8\\xb0/ex2_10.sol\":193:194  a */\n      0x00\n      dup1\n      sload\n      swap1\n      0x0100\n      exp\n      swap1\n      div\n      0xf8\n      shl\n        /* \"2\\xec\\x9e\\xa5_\\xeb\\xa6\\xac\\xeb\\xaf\\xb9\\xec\\x8a\\xa4\\xeb\\xa1\\x9c \\xec\\x86\\x94\\xeb\\xa6\\xac\\xeb\\x94\\x94\\xed\\x8b\\xb0 \\xec\\x8b\\x9c\\xec\\x9e\\x91\\xed\\x95\\x98\\xea\\xb8\\xb0/ex2_10.sol\":193:197  a<<1 */\n      not(0xffffffffffffffffffffffffffffffffffffffffffffffffffffffffffffff)\n      and\n      swap1\n      shl\n        /* \"2\\xec\\x9e\\xa5_\\xeb\\xa6\\xac\\xeb\\xaf\\xb9\\xec\\x8a\\xa4\\xeb\\xa1\\x9c \\xec\\x86\\x94\\xeb\\xa6\\xac\\xeb\\x94\\x94\\xed\\x8b\\xb0 \\xec\\x8b\\x9c\\xec\\x9e\\x91\\xed\\x95\\x98\\xea\\xb8\\xb0/ex2_10.sol\":186:197  return a<<1 */\n      swap1\n      pop\n        /* \"2\\xec\\x9e\\xa5_\\xeb\\xa6\\xac\\xeb\\xaf\\xb9\\xec\\x8a\\xa4\\xeb\\xa1\\x9c \\xec\\x86\\x94\\xeb\\xa6\\xac\\xeb\\x94\\x94\\xed\\x8b\\xb0 \\xec\\x8b\\x9c\\xec\\x9e\\x91\\xed\\x95\\x98\\xea\\xb8\\xb0/ex2_10.sol\":131:205  function left() public view returns (bytes1){... */\n      swap1\n      jump\t// out\n        /* \"2\\xec\\x9e\\xa5_\\xeb\\xa6\\xac\\xeb\\xaf\\xb9\\xec\\x8a\\xa4\\xeb\\xa1\\x9c \\xec\\x86\\x94\\xeb\\xa6\\xac\\xeb\\x94\\x94\\xed\\x8b\\xb0 \\xec\\x8b\\x9c\\xec\\x9e\\x91\\xed\\x95\\x98\\xea\\xb8\\xb0/ex2_10.sol\":211:286  function right() public view returns (bytes1){... */\n    tag_10:\n        /* \"2\\xec\\x9e\\xa5_\\xeb\\xa6\\xac\\xeb\\xaf\\xb9\\xec\\x8a\\xa4\\xeb\\xa1\\x9c \\xec\\x86\\x94\\xeb\\xa6\\xac\\xeb\\x94\\x94\\xed\\x8b\\xb0 \\xec\\x8b\\x9c\\xec\\x9e\\x91\\xed\\x95\\x98\\xea\\xb8\\xb0/ex2_10.sol\":249:255  bytes1 */\n      0x00\n        /* \"2\\xec\\x9e\\xa5_\\xeb\\xa6\\xac\\xeb\\xaf\\xb9\\xec\\x8a\\xa4\\xeb\\xa1\\x9c \\xec\\x86\\x94\\xeb\\xa6\\xac\\xeb\\x94\\x94\\xed\\x8b\\xb0 \\xec\\x8b\\x9c\\xec\\x9e\\x91\\xed\\x95\\x98\\xea\\xb8\\xb0/ex2_10.sol\":277:278  1 */\n      0x01\n        /* \"2\\xec\\x9e\\xa5_\\xeb\\xa6\\xac\\xeb\\xaf\\xb9\\xec\\x8a\\xa4\\xeb\\xa1\\x9c \\xec\\x86\\x94\\xeb\\xa6\\xac\\xeb\\x94\\x94\\xed\\x8b\\xb0 \\xec\\x8b\\x9c\\xec\\x9e\\x91\\xed\\x95\\x98\\xea\\xb8\\xb0/ex2_10.sol\":274:275  a */\n      0x00\n      dup1\n      sload\n      swap1\n      0x0100\n      exp\n      swap1\n      div\n      0xf8\n      shl\n        /* \"2\\xec\\x9e\\xa5_\\xeb\\xa6\\xac\\xeb\\xaf\\xb9\\xec\\x8a\\xa4\\xeb\\xa1\\x9c \\xec\\x86\\x94\\xeb\\xa6\\xac\\xeb\\x94\\x94\\xed\\x8b\\xb0 \\xec\\x8b\\x9c\\xec\\x9e\\x91\\xed\\x95\\x98\\xea\\xb8\\xb0/ex2_10.sol\":274:278  a>>1 */\n      not(0xffffffffffffffffffffffffffffffffffffffffffffffffffffffffffffff)\n      and\n      swap1\n      shr\n        /* \"2\\xec\\x9e\\xa5_\\xeb\\xa6\\xac\\xeb\\xaf\\xb9\\xec\\x8a\\xa4\\xeb\\xa1\\x9c \\xec\\x86\\x94\\xeb\\xa6\\xac\\xeb\\x94\\x94\\xed\\x8b\\xb0 \\xec\\x8b\\x9c\\xec\\x9e\\x91\\xed\\x95\\x98\\xea\\xb8\\xb0/ex2_10.sol\":267:278  return a>>1 */\n      swap1\n      pop\n        /* \"2\\xec\\x9e\\xa5_\\xeb\\xa6\\xac\\xeb\\xaf\\xb9\\xec\\x8a\\xa4\\xeb\\xa1\\x9c \\xec\\x86\\x94\\xeb\\xa6\\xac\\xeb\\x94\\x94\\xed\\x8b\\xb0 \\xec\\x8b\\x9c\\xec\\x9e\\x91\\xed\\x95\\x98\\xea\\xb8\\xb0/ex2_10.sol\":211:286  function right() public view returns (bytes1){... */\n      swap1\n      jump\t// out\n        /* \"#utility.yul\":7:156   */\n    tag_14:\n        /* \"#utility.yul\":43:50   */\n      0x00\n        /* \"#utility.yul\":83:149   */\n      0xff00000000000000000000000000000000000000000000000000000000000000\n        /* \"#utility.yul\":76:81   */\n      dup3\n        /* \"#utility.yul\":72:150   */\n      and\n        /* \"#utility.yul\":61:150   */\n      swap1\n      pop\n        /* \"#utility.yul\":7:156   */\n      swap2\n      swap1\n      pop\n      jump\t// out\n        /* \"#utility.yul\":162:277   */\n    tag_15:\n        /* \"#utility.yul\":247:270   */\n      tag_19\n        /* \"#utility.yul\":264:269   */\n      dup2\n        /* \"#utility.yul\":247:270   */\n      tag_14\n      jump\t// in\n    tag_19:\n        /* \"#utility.yul\":242:245   */\n      dup3\n        /* \"#utility.yul\":235:271   */\n      mstore\n        /* \"#utility.yul\":162:277   */\n      pop\n      pop\n      jump\t// out\n        /* \"#utility.yul\":283:501   */\n    tag_8:\n        /* \"#utility.yul\":374:378   */\n      0x00\n        /* \"#utility.yul\":412:414   */\n      0x20\n        /* \"#utility.yul\":401:410   */\n      dup3\n        /* \"#utility.yul\":397:415   */\n      add\n        /* \"#utility.yul\":389:415   */\n      swap1\n      pop\n        /* \"#utility.yul\":425:494   */\n      tag_21\n        /* \"#utility.yul\":491:492   */\n      0x00\n        /* \"#utility.yul\":480:489   */\n      dup4\n        /* \"#utility.yul\":476:493   */\n      add\n        /* \"#utility.yul\":467:473   */\n      dup5\n        /* \"#utility.yul\":425:494   */\n      tag_15\n      jump\t// in\n    tag_21:\n        /* \"#utility.yul\":283:501   */\n      swap3\n      swap2\n      pop\n      pop\n      jump\t// out\n\n    auxdata: 0xa26469706673582212202f93ce3de5b1d1fef9a405d91cdf92f8222baebd5602cd17797800874387da6864736f6c63430008180033\n}\n",
				"bytecode": {
					"linkReferences": {},
					"object": "6080604052601060f81b5f806101000a81548160ff021916908360f81c021790555034801561002c575f80fd5b5061016f8061003a5f395ff3fe608060405234801561000f575f80fd5b5060043610610034575f3560e01c806316e64048146100385780631f2a63c014610056575b5f80fd5b610040610074565b60405161004d9190610120565b60405180910390f35b61005e6100ad565b60405161006b9190610120565b60405180910390f35b5f60015f8054906101000a900460f81b7effffffffffffffffffffffffffffffffffffffffffffffffffffffffffffff1916901b905090565b5f60015f8054906101000a900460f81b7effffffffffffffffffffffffffffffffffffffffffffffffffffffffffffff1916901c905090565b5f7fff0000000000000000000000000000000000000000000000000000000000000082169050919050565b61011a816100e6565b82525050565b5f6020820190506101335f830184610111565b9291505056fea26469706673582212202f93ce3de5b1d1fef9a405d91cdf92f8222baebd5602cd17797800874387da6864736f6c63430008180033",
					"opcodes": "PUSH1 0x80 PUSH1 0x40 MSTORE PUSH1 0x10 PUSH1 0xF8 SHL PUSH0 DUP1 PUSH2 0x100 EXP DUP2 SLOAD DUP2 PUSH1 0xFF MUL NOT AND SWAP1 DUP4 PUSH1 0xF8 SHR MUL OR SWAP1 SSTORE POP CALLVALUE DUP1 ISZERO PUSH2 0x2C JUMPI PUSH0 DUP1 REVERT JUMPDEST POP PUSH2 0x16F DUP1 PUSH2 0x3A PUSH0 CODECOPY PUSH0 RETURN INVALID PUSH1 0x80 PUSH1 0x40 MSTORE CALLVALUE DUP1 ISZERO PUSH2 0xF JUMPI PUSH0 DUP1 REVERT JUMPDEST POP PUSH1 0x4 CALLDATASIZE LT PUSH2 0x34 JUMPI PUSH0 CALLDATALOAD PUSH1 0xE0 SHR DUP1 PUSH4 0x16E64048 EQ PUSH2 0x38 JUMPI DUP1 PUSH4 0x1F2A63C0 EQ PUSH2 0x56 JUMPI JUMPDEST PUSH0 DUP1 REVERT JUMPDEST PUSH2 0x40 PUSH2 0x74 JUMP JUMPDEST PUSH1 0x40 MLOAD PUSH2 0x4D SWAP2 SWAP1 PUSH2 0x120 JUMP JUMPDEST PUSH1 0x40 MLOAD DUP1 SWAP2 SUB SWAP1 RETURN JUMPDEST PUSH2 0x5E PUSH2 0xAD JUMP JUMPDEST PUSH1 0x40 MLOAD PUSH2 0x6B SWAP2 SWAP1 PUSH2 0x120 JUMP JUMPDEST PUSH1 0x40 MLOAD DUP1 SWAP2 SUB SWAP1 RETURN JUMPDEST PUSH0 PUSH1 0x1 PUSH0 DUP1 SLOAD SWAP1 PUSH2 0x100 EXP SWAP1 DIV PUSH1 0xF8 SHL PUSH31 0xFFFFFFFFFFFFFFFFFFFFFFFFFFFFFFFFFFFFFFFFFFFFFFFFFFFFFFFFFFFFFF NOT AND SWAP1 SHL SWAP1 POP SWAP1 JUMP JUMPDEST PUSH0 PUSH1 0x1 PUSH0 DUP1 SLOAD SWAP1 PUSH2 0x100 EXP SWAP1 DIV PUSH1 0xF8 SHL PUSH31 0xFFFFFFFFFFFFFFFFFFFFFFFFFFFFFFFFFFFFFFFFFFFFFFFFFFFFFFFFFFFFFF NOT AND SWAP1 SHR SWAP1 POP SWAP1 JUMP JUMPDEST PUSH0 PUSH32 0xFF00000000000000000000000000000000000000000000000000000000000000 DUP3 AND SWAP1 POP SWAP2 SWAP1 POP JUMP JUMPDEST PUSH2 0x11A DUP2 PUSH2 0xE6 JUMP JUMPDEST DUP3 MSTORE POP POP JUMP JUMPDEST PUSH0 PUSH1 0x20 DUP3 ADD SWAP1 POP PUSH2 0x133 PUSH0 DUP4 ADD DUP5 PUSH2 0x111 JUMP JUMPDEST SWAP3 SWAP2 POP POP JUMP INVALID LOG2 PUSH5 0x6970667358 0x22 SLT KECCAK256 0x2F SWAP4 0xCE RETURNDATASIZE 0xE5 0xB1 0xD1 INVALID 0xF9 LOG4 SDIV 0xD9 SHR 0xDF SWAP3 0xF8 0x22 0x2B 0xAE 0xBD JUMP MUL 0xCD OR PUSH26 0x7800874387DA6864736F6C634300081800330000000000000000 "
				},
				"gasEstimates": {
					"creation": {
						"codeDepositCost": "73400",
						"executionCost": "24393",
						"totalCost": "97793"
					},
					"external": {
						"left()": "2466",
						"right()": "2488"
					}
				},
				"methodIdentifiers": {
					"left()": "16e64048",
					"right()": "1f2a63c0"
				}
			},
			"storageLayout": {
				"storage": [
					{
						"astId": 4,
						"contract": "2장_리믹스로 솔리디티 시작하기/ex2_10.sol:Ex2_10",
						"label": "a",
						"offset": 0,
						"slot": "0",
						"type": "t_bytes1"
					}
				],
				"types": {
					"t_bytes1": {
						"encoding": "inplace",
						"label": "bytes1",
						"numberOfBytes": "1"
					}
				}
			},
			"userdoc": {
				"kind": "user",
				"methods": {},
				"version": 1
			}
		}
	}
}