{
	"2장_리믹스로 솔리디티 시작하기/ex2_8.sol": {
		"Ex2_8": {
			"abi": [
				{
					"inputs": [],
					"name": "comparison",
					"outputs": [
						{
							"internalType": "bool",
							"name": "",
							"type": "bool"
						},
						{
							"internalType": "bool",
							"name": "",
							"type": "bool"
						},
						{
							"internalType": "bool",
							"name": "",
							"type": "bool"
						},
						{
							"internalType": "bool",
							"name": "",
							"type": "bool"
						},
						{
							"internalType": "bool",
							"name": "",
							"type": "bool"
						},
						{
							"internalType": "bool",
							"name": "",
							"type": "bool"
						}
					],
					"stateMutability": "view",
					"type": "function"
				}
			],
			"devdoc": {
				"kind": "dev",
				"methods": {},
				"version": 1
			},
			"evm": {
				"assembly": "    /* \"2\\xec\\x9e\\xa5_\\xeb\\xa6\\xac\\xeb\\xaf\\xb9\\xec\\x8a\\xa4\\xeb\\xa1\\x9c \\xec\\x86\\x94\\xeb\\xa6\\xac\\xeb\\x94\\x94\\xed\\x8b\\xb0 \\xec\\x8b\\x9c\\xec\\x9e\\x91\\xed\\x95\\x98\\xea\\xb8\\xb0/ex2_8.sol\":83:331  contract Ex2_8{... */\n  mstore(0x40, 0x80)\n    /* \"2\\xec\\x9e\\xa5_\\xeb\\xa6\\xac\\xeb\\xaf\\xb9\\xec\\x8a\\xa4\\xeb\\xa1\\x9c \\xec\\x86\\x94\\xeb\\xa6\\xac\\xeb\\x94\\x94\\xed\\x8b\\xb0 \\xec\\x8b\\x9c\\xec\\x9e\\x91\\xed\\x95\\x98\\xea\\xb8\\xb0/ex2_8.sol\":113:114  4 */\n  0x04\n    /* \"2\\xec\\x9e\\xa5_\\xeb\\xa6\\xac\\xeb\\xaf\\xb9\\xec\\x8a\\xa4\\xeb\\xa1\\x9c \\xec\\x86\\x94\\xeb\\xa6\\xac\\xeb\\x94\\x94\\xed\\x8b\\xb0 \\xec\\x8b\\x9c\\xec\\x9e\\x91\\xed\\x95\\x98\\xea\\xb8\\xb0/ex2_8.sol\":111:112  3 */\n  0x03\n    /* \"2\\xec\\x9e\\xa5_\\xeb\\xa6\\xac\\xeb\\xaf\\xb9\\xec\\x8a\\xa4\\xeb\\xa1\\x9c \\xec\\x86\\x94\\xeb\\xa6\\xac\\xeb\\x94\\x94\\xed\\x8b\\xb0 \\xec\\x8b\\x9c\\xec\\x9e\\x91\\xed\\x95\\x98\\xea\\xb8\\xb0/ex2_8.sol\":111:114  3>4 */\n  gt\n    /* \"2\\xec\\x9e\\xa5_\\xeb\\xa6\\xac\\xeb\\xaf\\xb9\\xec\\x8a\\xa4\\xeb\\xa1\\x9c \\xec\\x86\\x94\\xeb\\xa6\\xac\\xeb\\x94\\x94\\xed\\x8b\\xb0 \\xec\\x8b\\x9c\\xec\\x9e\\x91\\xed\\x95\\x98\\xea\\xb8\\xb0/ex2_8.sol\":104:114  bool a=3>4 */\n  0x00\n  dup1\n  0x0100\n  exp\n  dup2\n  sload\n  dup2\n  0xff\n  mul\n  not\n  and\n  swap1\n  dup4\n  iszero\n  iszero\n  mul\n  or\n  swap1\n  sstore\n  pop\n    /* \"2\\xec\\x9e\\xa5_\\xeb\\xa6\\xac\\xeb\\xaf\\xb9\\xec\\x8a\\xa4\\xeb\\xa1\\x9c \\xec\\x86\\x94\\xeb\\xa6\\xac\\xeb\\x94\\x94\\xed\\x8b\\xb0 \\xec\\x8b\\x9c\\xec\\x9e\\x91\\xed\\x95\\x98\\xea\\xb8\\xb0/ex2_8.sol\":130:131  4 */\n  0x04\n    /* \"2\\xec\\x9e\\xa5_\\xeb\\xa6\\xac\\xeb\\xaf\\xb9\\xec\\x8a\\xa4\\xeb\\xa1\\x9c \\xec\\x86\\x94\\xeb\\xa6\\xac\\xeb\\x94\\x94\\xed\\x8b\\xb0 \\xec\\x8b\\x9c\\xec\\x9e\\x91\\xed\\x95\\x98\\xea\\xb8\\xb0/ex2_8.sol\":128:129  3 */\n  0x03\n    /* \"2\\xec\\x9e\\xa5_\\xeb\\xa6\\xac\\xeb\\xaf\\xb9\\xec\\x8a\\xa4\\xeb\\xa1\\x9c \\xec\\x86\\x94\\xeb\\xa6\\xac\\xeb\\x94\\x94\\xed\\x8b\\xb0 \\xec\\x8b\\x9c\\xec\\x9e\\x91\\xed\\x95\\x98\\xea\\xb8\\xb0/ex2_8.sol\":128:131  3<4 */\n  lt\n    /* \"2\\xec\\x9e\\xa5_\\xeb\\xa6\\xac\\xeb\\xaf\\xb9\\xec\\x8a\\xa4\\xeb\\xa1\\x9c \\xec\\x86\\x94\\xeb\\xa6\\xac\\xeb\\x94\\x94\\xed\\x8b\\xb0 \\xec\\x8b\\x9c\\xec\\x9e\\x91\\xed\\x95\\x98\\xea\\xb8\\xb0/ex2_8.sol\":121:131  bool b=3<4 */\n  0x00\n  exp(0x0100, 0x01)\n  dup2\n  sload\n  dup2\n  0xff\n  mul\n  not\n  and\n  swap1\n  dup4\n  iszero\n  iszero\n  mul\n  or\n  swap1\n  sstore\n  pop\n    /* \"2\\xec\\x9e\\xa5_\\xeb\\xa6\\xac\\xeb\\xaf\\xb9\\xec\\x8a\\xa4\\xeb\\xa1\\x9c \\xec\\x86\\x94\\xeb\\xa6\\xac\\xeb\\x94\\x94\\xed\\x8b\\xb0 \\xec\\x8b\\x9c\\xec\\x9e\\x91\\xed\\x95\\x98\\xea\\xb8\\xb0/ex2_8.sol\":148:149  2 */\n  0x02\n    /* \"2\\xec\\x9e\\xa5_\\xeb\\xa6\\xac\\xeb\\xaf\\xb9\\xec\\x8a\\xa4\\xeb\\xa1\\x9c \\xec\\x86\\x94\\xeb\\xa6\\xac\\xeb\\x94\\x94\\xed\\x8b\\xb0 \\xec\\x8b\\x9c\\xec\\x9e\\x91\\xed\\x95\\x98\\xea\\xb8\\xb0/ex2_8.sol\":145:146  5 */\n  0x05\n    /* \"2\\xec\\x9e\\xa5_\\xeb\\xa6\\xac\\xeb\\xaf\\xb9\\xec\\x8a\\xa4\\xeb\\xa1\\x9c \\xec\\x86\\x94\\xeb\\xa6\\xac\\xeb\\x94\\x94\\xed\\x8b\\xb0 \\xec\\x8b\\x9c\\xec\\x9e\\x91\\xed\\x95\\x98\\xea\\xb8\\xb0/ex2_8.sol\":145:149  5>=2 */\n  lt\n  iszero\n    /* \"2\\xec\\x9e\\xa5_\\xeb\\xa6\\xac\\xeb\\xaf\\xb9\\xec\\x8a\\xa4\\xeb\\xa1\\x9c \\xec\\x86\\x94\\xeb\\xa6\\xac\\xeb\\x94\\x94\\xed\\x8b\\xb0 \\xec\\x8b\\x9c\\xec\\x9e\\x91\\xed\\x95\\x98\\xea\\xb8\\xb0/ex2_8.sol\":138:149  bool c=5>=2 */\n  0x00\n  exp(0x0100, 0x02)\n  dup2\n  sload\n  dup2\n  0xff\n  mul\n  not\n  and\n  swap1\n  dup4\n  iszero\n  iszero\n  mul\n  or\n  swap1\n  sstore\n  pop\n    /* \"2\\xec\\x9e\\xa5_\\xeb\\xa6\\xac\\xeb\\xaf\\xb9\\xec\\x8a\\xa4\\xeb\\xa1\\x9c \\xec\\x86\\x94\\xeb\\xa6\\xac\\xeb\\x94\\x94\\xed\\x8b\\xb0 \\xec\\x8b\\x9c\\xec\\x9e\\x91\\xed\\x95\\x98\\xea\\xb8\\xb0/ex2_8.sol\":166:167  5 */\n  0x05\n    /* \"2\\xec\\x9e\\xa5_\\xeb\\xa6\\xac\\xeb\\xaf\\xb9\\xec\\x8a\\xa4\\xeb\\xa1\\x9c \\xec\\x86\\x94\\xeb\\xa6\\xac\\xeb\\x94\\x94\\xed\\x8b\\xb0 \\xec\\x8b\\x9c\\xec\\x9e\\x91\\xed\\x95\\x98\\xea\\xb8\\xb0/ex2_8.sol\":163:164  5 */\n  dup1\n    /* \"2\\xec\\x9e\\xa5_\\xeb\\xa6\\xac\\xeb\\xaf\\xb9\\xec\\x8a\\xa4\\xeb\\xa1\\x9c \\xec\\x86\\x94\\xeb\\xa6\\xac\\xeb\\x94\\x94\\xed\\x8b\\xb0 \\xec\\x8b\\x9c\\xec\\x9e\\x91\\xed\\x95\\x98\\xea\\xb8\\xb0/ex2_8.sol\":163:167  5<=5 */\n  gt\n  iszero\n    /* \"2\\xec\\x9e\\xa5_\\xeb\\xa6\\xac\\xeb\\xaf\\xb9\\xec\\x8a\\xa4\\xeb\\xa1\\x9c \\xec\\x86\\x94\\xeb\\xa6\\xac\\xeb\\x94\\x94\\xed\\x8b\\xb0 \\xec\\x8b\\x9c\\xec\\x9e\\x91\\xed\\x95\\x98\\xea\\xb8\\xb0/ex2_8.sol\":156:167  bool d=5<=5 */\n  0x00\n  exp(0x0100, 0x03)\n  dup2\n  sload\n  dup2\n  0xff\n  mul\n  not\n  and\n  swap1\n  dup4\n  iszero\n  iszero\n  mul\n  or\n  swap1\n  sstore\n  pop\n    /* \"2\\xec\\x9e\\xa5_\\xeb\\xa6\\xac\\xeb\\xaf\\xb9\\xec\\x8a\\xa4\\xeb\\xa1\\x9c \\xec\\x86\\x94\\xeb\\xa6\\xac\\xeb\\x94\\x94\\xed\\x8b\\xb0 \\xec\\x8b\\x9c\\xec\\x9e\\x91\\xed\\x95\\x98\\xea\\xb8\\xb0/ex2_8.sol\":184:185  2 */\n  0x02\n    /* \"2\\xec\\x9e\\xa5_\\xeb\\xa6\\xac\\xeb\\xaf\\xb9\\xec\\x8a\\xa4\\xeb\\xa1\\x9c \\xec\\x86\\x94\\xeb\\xa6\\xac\\xeb\\x94\\x94\\xed\\x8b\\xb0 \\xec\\x8b\\x9c\\xec\\x9e\\x91\\xed\\x95\\x98\\xea\\xb8\\xb0/ex2_8.sol\":181:182  3 */\n  0x03\n    /* \"2\\xec\\x9e\\xa5_\\xeb\\xa6\\xac\\xeb\\xaf\\xb9\\xec\\x8a\\xa4\\xeb\\xa1\\x9c \\xec\\x86\\x94\\xeb\\xa6\\xac\\xeb\\x94\\x94\\xed\\x8b\\xb0 \\xec\\x8b\\x9c\\xec\\x9e\\x91\\xed\\x95\\x98\\xea\\xb8\\xb0/ex2_8.sol\":181:185  3==2 */\n  eq\n    /* \"2\\xec\\x9e\\xa5_\\xeb\\xa6\\xac\\xeb\\xaf\\xb9\\xec\\x8a\\xa4\\xeb\\xa1\\x9c \\xec\\x86\\x94\\xeb\\xa6\\xac\\xeb\\x94\\x94\\xed\\x8b\\xb0 \\xec\\x8b\\x9c\\xec\\x9e\\x91\\xed\\x95\\x98\\xea\\xb8\\xb0/ex2_8.sol\":174:185  bool e=3==2 */\n  0x00\n  exp(0x0100, 0x04)\n  dup2\n  sload\n  dup2\n  0xff\n  mul\n  not\n  and\n  swap1\n  dup4\n  iszero\n  iszero\n  mul\n  or\n  swap1\n  sstore\n  pop\n    /* \"2\\xec\\x9e\\xa5_\\xeb\\xa6\\xac\\xeb\\xaf\\xb9\\xec\\x8a\\xa4\\xeb\\xa1\\x9c \\xec\\x86\\x94\\xeb\\xa6\\xac\\xeb\\x94\\x94\\xed\\x8b\\xb0 \\xec\\x8b\\x9c\\xec\\x9e\\x91\\xed\\x95\\x98\\xea\\xb8\\xb0/ex2_8.sol\":203:204  2 */\n  0x02\n    /* \"2\\xec\\x9e\\xa5_\\xeb\\xa6\\xac\\xeb\\xaf\\xb9\\xec\\x8a\\xa4\\xeb\\xa1\\x9c \\xec\\x86\\x94\\xeb\\xa6\\xac\\xeb\\x94\\x94\\xed\\x8b\\xb0 \\xec\\x8b\\x9c\\xec\\x9e\\x91\\xed\\x95\\x98\\xea\\xb8\\xb0/ex2_8.sol\":200:201  3 */\n  0x03\n    /* \"2\\xec\\x9e\\xa5_\\xeb\\xa6\\xac\\xeb\\xaf\\xb9\\xec\\x8a\\xa4\\xeb\\xa1\\x9c \\xec\\x86\\x94\\xeb\\xa6\\xac\\xeb\\x94\\x94\\xed\\x8b\\xb0 \\xec\\x8b\\x9c\\xec\\x9e\\x91\\xed\\x95\\x98\\xea\\xb8\\xb0/ex2_8.sol\":200:204  3!=2 */\n  eq\n  iszero\n    /* \"2\\xec\\x9e\\xa5_\\xeb\\xa6\\xac\\xeb\\xaf\\xb9\\xec\\x8a\\xa4\\xeb\\xa1\\x9c \\xec\\x86\\x94\\xeb\\xa6\\xac\\xeb\\x94\\x94\\xed\\x8b\\xb0 \\xec\\x8b\\x9c\\xec\\x9e\\x91\\xed\\x95\\x98\\xea\\xb8\\xb0/ex2_8.sol\":192:204  bool f =3!=2 */\n  0x00\n  exp(0x0100, 0x05)\n  dup2\n  sload\n  dup2\n  0xff\n  mul\n  not\n  and\n  swap1\n  dup4\n  iszero\n  iszero\n  mul\n  or\n  swap1\n  sstore\n  pop\n    /* \"2\\xec\\x9e\\xa5_\\xeb\\xa6\\xac\\xeb\\xaf\\xb9\\xec\\x8a\\xa4\\xeb\\xa1\\x9c \\xec\\x86\\x94\\xeb\\xa6\\xac\\xeb\\x94\\x94\\xed\\x8b\\xb0 \\xec\\x8b\\x9c\\xec\\x9e\\x91\\xed\\x95\\x98\\xea\\xb8\\xb0/ex2_8.sol\":83:331  contract Ex2_8{... */\n  callvalue\n  dup1\n  iszero\n  tag_1\n  jumpi\n  0x00\n  dup1\n  revert\ntag_1:\n  pop\n  dataSize(sub_0)\n  dup1\n  dataOffset(sub_0)\n  0x00\n  codecopy\n  0x00\n  return\nstop\n\nsub_0: assembly {\n        /* \"2\\xec\\x9e\\xa5_\\xeb\\xa6\\xac\\xeb\\xaf\\xb9\\xec\\x8a\\xa4\\xeb\\xa1\\x9c \\xec\\x86\\x94\\xeb\\xa6\\xac\\xeb\\x94\\x94\\xed\\x8b\\xb0 \\xec\\x8b\\x9c\\xec\\x9e\\x91\\xed\\x95\\x98\\xea\\xb8\\xb0/ex2_8.sol\":83:331  contract Ex2_8{... */\n      mstore(0x40, 0x80)\n      callvalue\n      dup1\n      iszero\n      tag_1\n      jumpi\n      0x00\n      dup1\n      revert\n    tag_1:\n      pop\n      jumpi(tag_2, lt(calldatasize, 0x04))\n      shr(0xe0, calldataload(0x00))\n      dup1\n      0xaae103ad\n      eq\n      tag_3\n      jumpi\n    tag_2:\n      0x00\n      dup1\n      revert\n        /* \"2\\xec\\x9e\\xa5_\\xeb\\xa6\\xac\\xeb\\xaf\\xb9\\xec\\x8a\\xa4\\xeb\\xa1\\x9c \\xec\\x86\\x94\\xeb\\xa6\\xac\\xeb\\x94\\x94\\xed\\x8b\\xb0 \\xec\\x8b\\x9c\\xec\\x9e\\x91\\xed\\x95\\x98\\xea\\xb8\\xb0/ex2_8.sol\":213:328  function comparison() public view returns(bool, bool, bool, bool, bool, bool){... */\n    tag_3:\n      tag_4\n      tag_5\n      jump\t// in\n    tag_4:\n      mload(0x40)\n      tag_6\n      swap7\n      swap6\n      swap5\n      swap4\n      swap3\n      swap2\n      swap1\n      tag_7\n      jump\t// in\n    tag_6:\n      mload(0x40)\n      dup1\n      swap2\n      sub\n      swap1\n      return\n    tag_5:\n        /* \"2\\xec\\x9e\\xa5_\\xeb\\xa6\\xac\\xeb\\xaf\\xb9\\xec\\x8a\\xa4\\xeb\\xa1\\x9c \\xec\\x86\\x94\\xeb\\xa6\\xac\\xeb\\x94\\x94\\xed\\x8b\\xb0 \\xec\\x8b\\x9c\\xec\\x9e\\x91\\xed\\x95\\x98\\xea\\xb8\\xb0/ex2_8.sol\":255:259  bool */\n      0x00\n        /* \"2\\xec\\x9e\\xa5_\\xeb\\xa6\\xac\\xeb\\xaf\\xb9\\xec\\x8a\\xa4\\xeb\\xa1\\x9c \\xec\\x86\\x94\\xeb\\xa6\\xac\\xeb\\x94\\x94\\xed\\x8b\\xb0 \\xec\\x8b\\x9c\\xec\\x9e\\x91\\xed\\x95\\x98\\xea\\xb8\\xb0/ex2_8.sol\":261:265  bool */\n      dup1\n        /* \"2\\xec\\x9e\\xa5_\\xeb\\xa6\\xac\\xeb\\xaf\\xb9\\xec\\x8a\\xa4\\xeb\\xa1\\x9c \\xec\\x86\\x94\\xeb\\xa6\\xac\\xeb\\x94\\x94\\xed\\x8b\\xb0 \\xec\\x8b\\x9c\\xec\\x9e\\x91\\xed\\x95\\x98\\xea\\xb8\\xb0/ex2_8.sol\":267:271  bool */\n      0x00\n        /* \"2\\xec\\x9e\\xa5_\\xeb\\xa6\\xac\\xeb\\xaf\\xb9\\xec\\x8a\\xa4\\xeb\\xa1\\x9c \\xec\\x86\\x94\\xeb\\xa6\\xac\\xeb\\x94\\x94\\xed\\x8b\\xb0 \\xec\\x8b\\x9c\\xec\\x9e\\x91\\xed\\x95\\x98\\xea\\xb8\\xb0/ex2_8.sol\":273:277  bool */\n      dup1\n        /* \"2\\xec\\x9e\\xa5_\\xeb\\xa6\\xac\\xeb\\xaf\\xb9\\xec\\x8a\\xa4\\xeb\\xa1\\x9c \\xec\\x86\\x94\\xeb\\xa6\\xac\\xeb\\x94\\x94\\xed\\x8b\\xb0 \\xec\\x8b\\x9c\\xec\\x9e\\x91\\xed\\x95\\x98\\xea\\xb8\\xb0/ex2_8.sol\":279:283  bool */\n      0x00\n        /* \"2\\xec\\x9e\\xa5_\\xeb\\xa6\\xac\\xeb\\xaf\\xb9\\xec\\x8a\\xa4\\xeb\\xa1\\x9c \\xec\\x86\\x94\\xeb\\xa6\\xac\\xeb\\x94\\x94\\xed\\x8b\\xb0 \\xec\\x8b\\x9c\\xec\\x9e\\x91\\xed\\x95\\x98\\xea\\xb8\\xb0/ex2_8.sol\":285:289  bool */\n      dup1\n        /* \"2\\xec\\x9e\\xa5_\\xeb\\xa6\\xac\\xeb\\xaf\\xb9\\xec\\x8a\\xa4\\xeb\\xa1\\x9c \\xec\\x86\\x94\\xeb\\xa6\\xac\\xeb\\x94\\x94\\xed\\x8b\\xb0 \\xec\\x8b\\x9c\\xec\\x9e\\x91\\xed\\x95\\x98\\xea\\xb8\\xb0/ex2_8.sol\":308:309  a */\n      0x00\n      dup1\n      sload\n      swap1\n      0x0100\n      exp\n      swap1\n      div\n      0xff\n      and\n        /* \"2\\xec\\x9e\\xa5_\\xeb\\xa6\\xac\\xeb\\xaf\\xb9\\xec\\x8a\\xa4\\xeb\\xa1\\x9c \\xec\\x86\\x94\\xeb\\xa6\\xac\\xeb\\x94\\x94\\xed\\x8b\\xb0 \\xec\\x8b\\x9c\\xec\\x9e\\x91\\xed\\x95\\x98\\xea\\xb8\\xb0/ex2_8.sol\":310:311  b */\n      0x00\n      0x01\n      swap1\n      sload\n      swap1\n      0x0100\n      exp\n      swap1\n      div\n      0xff\n      and\n        /* \"2\\xec\\x9e\\xa5_\\xeb\\xa6\\xac\\xeb\\xaf\\xb9\\xec\\x8a\\xa4\\xeb\\xa1\\x9c \\xec\\x86\\x94\\xeb\\xa6\\xac\\xeb\\x94\\x94\\xed\\x8b\\xb0 \\xec\\x8b\\x9c\\xec\\x9e\\x91\\xed\\x95\\x98\\xea\\xb8\\xb0/ex2_8.sol\":312:313  c */\n      0x00\n      0x02\n      swap1\n      sload\n      swap1\n      0x0100\n      exp\n      swap1\n      div\n      0xff\n      and\n        /* \"2\\xec\\x9e\\xa5_\\xeb\\xa6\\xac\\xeb\\xaf\\xb9\\xec\\x8a\\xa4\\xeb\\xa1\\x9c \\xec\\x86\\x94\\xeb\\xa6\\xac\\xeb\\x94\\x94\\xed\\x8b\\xb0 \\xec\\x8b\\x9c\\xec\\x9e\\x91\\xed\\x95\\x98\\xea\\xb8\\xb0/ex2_8.sol\":314:315  d */\n      0x00\n      0x03\n      swap1\n      sload\n      swap1\n      0x0100\n      exp\n      swap1\n      div\n      0xff\n      and\n        /* \"2\\xec\\x9e\\xa5_\\xeb\\xa6\\xac\\xeb\\xaf\\xb9\\xec\\x8a\\xa4\\xeb\\xa1\\x9c \\xec\\x86\\x94\\xeb\\xa6\\xac\\xeb\\x94\\x94\\xed\\x8b\\xb0 \\xec\\x8b\\x9c\\xec\\x9e\\x91\\xed\\x95\\x98\\xea\\xb8\\xb0/ex2_8.sol\":316:317  e */\n      0x00\n      0x04\n      swap1\n      sload\n      swap1\n      0x0100\n      exp\n      swap1\n      div\n      0xff\n      and\n        /* \"2\\xec\\x9e\\xa5_\\xeb\\xa6\\xac\\xeb\\xaf\\xb9\\xec\\x8a\\xa4\\xeb\\xa1\\x9c \\xec\\x86\\x94\\xeb\\xa6\\xac\\xeb\\x94\\x94\\xed\\x8b\\xb0 \\xec\\x8b\\x9c\\xec\\x9e\\x91\\xed\\x95\\x98\\xea\\xb8\\xb0/ex2_8.sol\":318:319  f */\n      0x00\n      0x05\n      swap1\n      sload\n      swap1\n      0x0100\n      exp\n      swap1\n      div\n      0xff\n      and\n        /* \"2\\xec\\x9e\\xa5_\\xeb\\xa6\\xac\\xeb\\xaf\\xb9\\xec\\x8a\\xa4\\xeb\\xa1\\x9c \\xec\\x86\\x94\\xeb\\xa6\\xac\\xeb\\x94\\x94\\xed\\x8b\\xb0 \\xec\\x8b\\x9c\\xec\\x9e\\x91\\xed\\x95\\x98\\xea\\xb8\\xb0/ex2_8.sol\":301:320  return(a,b,c,d,e,f) */\n      swap6\n      pop\n      swap6\n      pop\n      swap6\n      pop\n      swap6\n      pop\n      swap6\n      pop\n      swap6\n      pop\n        /* \"2\\xec\\x9e\\xa5_\\xeb\\xa6\\xac\\xeb\\xaf\\xb9\\xec\\x8a\\xa4\\xeb\\xa1\\x9c \\xec\\x86\\x94\\xeb\\xa6\\xac\\xeb\\x94\\x94\\xed\\x8b\\xb0 \\xec\\x8b\\x9c\\xec\\x9e\\x91\\xed\\x95\\x98\\xea\\xb8\\xb0/ex2_8.sol\":213:328  function comparison() public view returns(bool, bool, bool, bool, bool, bool){... */\n      swap1\n      swap2\n      swap3\n      swap4\n      swap5\n      swap6\n      jump\t// out\n        /* \"#utility.yul\":7:97   */\n    tag_9:\n        /* \"#utility.yul\":41:48   */\n      0x00\n        /* \"#utility.yul\":84:89   */\n      dup2\n        /* \"#utility.yul\":77:90   */\n      iszero\n        /* \"#utility.yul\":70:91   */\n      iszero\n        /* \"#utility.yul\":59:91   */\n      swap1\n      pop\n        /* \"#utility.yul\":7:97   */\n      swap2\n      swap1\n      pop\n      jump\t// out\n        /* \"#utility.yul\":103:212   */\n    tag_10:\n        /* \"#utility.yul\":184:205   */\n      tag_14\n        /* \"#utility.yul\":199:204   */\n      dup2\n        /* \"#utility.yul\":184:205   */\n      tag_9\n      jump\t// in\n    tag_14:\n        /* \"#utility.yul\":179:182   */\n      dup3\n        /* \"#utility.yul\":172:206   */\n      mstore\n        /* \"#utility.yul\":103:212   */\n      pop\n      pop\n      jump\t// out\n        /* \"#utility.yul\":218:921   */\n    tag_7:\n        /* \"#utility.yul\":415:419   */\n      0x00\n        /* \"#utility.yul\":453:456   */\n      0xc0\n        /* \"#utility.yul\":442:451   */\n      dup3\n        /* \"#utility.yul\":438:457   */\n      add\n        /* \"#utility.yul\":430:457   */\n      swap1\n      pop\n        /* \"#utility.yul\":467:532   */\n      tag_16\n        /* \"#utility.yul\":529:530   */\n      0x00\n        /* \"#utility.yul\":518:527   */\n      dup4\n        /* \"#utility.yul\":514:531   */\n      add\n        /* \"#utility.yul\":505:511   */\n      dup10\n        /* \"#utility.yul\":467:532   */\n      tag_10\n      jump\t// in\n    tag_16:\n        /* \"#utility.yul\":542:608   */\n      tag_17\n        /* \"#utility.yul\":604:606   */\n      0x20\n        /* \"#utility.yul\":593:602   */\n      dup4\n        /* \"#utility.yul\":589:607   */\n      add\n        /* \"#utility.yul\":580:586   */\n      dup9\n        /* \"#utility.yul\":542:608   */\n      tag_10\n      jump\t// in\n    tag_17:\n        /* \"#utility.yul\":618:684   */\n      tag_18\n        /* \"#utility.yul\":680:682   */\n      0x40\n        /* \"#utility.yul\":669:678   */\n      dup4\n        /* \"#utility.yul\":665:683   */\n      add\n        /* \"#utility.yul\":656:662   */\n      dup8\n        /* \"#utility.yul\":618:684   */\n      tag_10\n      jump\t// in\n    tag_18:\n        /* \"#utility.yul\":694:760   */\n      tag_19\n        /* \"#utility.yul\":756:758   */\n      0x60\n        /* \"#utility.yul\":745:754   */\n      dup4\n        /* \"#utility.yul\":741:759   */\n      add\n        /* \"#utility.yul\":732:738   */\n      dup7\n        /* \"#utility.yul\":694:760   */\n      tag_10\n      jump\t// in\n    tag_19:\n        /* \"#utility.yul\":770:837   */\n      tag_20\n        /* \"#utility.yul\":832:835   */\n      0x80\n        /* \"#utility.yul\":821:830   */\n      dup4\n        /* \"#utility.yul\":817:836   */\n      add\n        /* \"#utility.yul\":808:814   */\n      dup6\n        /* \"#utility.yul\":770:837   */\n      tag_10\n      jump\t// in\n    tag_20:\n        /* \"#utility.yul\":847:914   */\n      tag_21\n        /* \"#utility.yul\":909:912   */\n      0xa0\n        /* \"#utility.yul\":898:907   */\n      dup4\n        /* \"#utility.yul\":894:913   */\n      add\n        /* \"#utility.yul\":885:891   */\n      dup5\n        /* \"#utility.yul\":847:914   */\n      tag_10\n      jump\t// in\n    tag_21:\n        /* \"#utility.yul\":218:921   */\n      swap8\n      swap7\n      pop\n      pop\n      pop\n      pop\n      pop\n      pop\n      pop\n      jump\t// out\n\n    auxdata: 0xa26469706673582212201e57a8e485fd4a35827931c0624bff19c6d8200d4cba1d3c556f4611e6641af764736f6c63430008180033\n}\n",
				"bytecode": {
					"linkReferences": {},
					"object": "608060405260046003115f806101000a81548160ff02191690831515021790555060046003105f60016101000a81548160ff0219169083151502179055506002600510155f60026101000a81548160ff02191690831515021790555060058011155f60036101000a81548160ff02191690831515021790555060026003145f60046101000a81548160ff0219169083151502179055506002600314155f60056101000a81548160ff0219169083151502179055503480156100be575f80fd5b50610171806100cc5f395ff3fe608060405234801561000f575f80fd5b5060043610610029575f3560e01c8063aae103ad1461002d575b5f80fd5b610035610050565b604051610047969594939291906100dc565b60405180910390f35b5f805f805f805f8054906101000a900460ff165f60019054906101000a900460ff165f60029054906101000a900460ff165f60039054906101000a900460ff165f60049054906101000a900460ff165f60059054906101000a900460ff16955095509550955095509550909192939495565b5f8115159050919050565b6100d6816100c2565b82525050565b5f60c0820190506100ef5f8301896100cd565b6100fc60208301886100cd565b61010960408301876100cd565b61011660608301866100cd565b61012360808301856100cd565b61013060a08301846100cd565b97965050505050505056fea26469706673582212201e57a8e485fd4a35827931c0624bff19c6d8200d4cba1d3c556f4611e6641af764736f6c63430008180033",
					"opcodes": "PUSH1 0x80 PUSH1 0x40 MSTORE PUSH1 0x4 PUSH1 0x3 GT PUSH0 DUP1 PUSH2 0x100 EXP DUP2 SLOAD DUP2 PUSH1 0xFF MUL NOT AND SWAP1 DUP4 ISZERO ISZERO MUL OR SWAP1 SSTORE POP PUSH1 0x4 PUSH1 0x3 LT PUSH0 PUSH1 0x1 PUSH2 0x100 EXP DUP2 SLOAD DUP2 PUSH1 0xFF MUL NOT AND SWAP1 DUP4 ISZERO ISZERO MUL OR SWAP1 SSTORE POP PUSH1 0x2 PUSH1 0x5 LT ISZERO PUSH0 PUSH1 0x2 PUSH2 0x100 EXP DUP2 SLOAD DUP2 PUSH1 0xFF MUL NOT AND SWAP1 DUP4 ISZERO ISZERO MUL OR SWAP1 SSTORE POP PUSH1 0x5 DUP1 GT ISZERO PUSH0 PUSH1 0x3 PUSH2 0x100 EXP DUP2 SLOAD DUP2 PUSH1 0xFF MUL NOT AND SWAP1 DUP4 ISZERO ISZERO MUL OR SWAP1 SSTORE POP PUSH1 0x2 PUSH1 0x3 EQ PUSH0 PUSH1 0x4 PUSH2 0x100 EXP DUP2 SLOAD DUP2 PUSH1 0xFF MUL NOT AND SWAP1 DUP4 ISZERO ISZERO MUL OR SWAP1 SSTORE POP PUSH1 0x2 PUSH1 0x3 EQ ISZERO PUSH0 PUSH1 0x5 PUSH2 0x100 EXP DUP2 SLOAD DUP2 PUSH1 0xFF MUL NOT AND SWAP1 DUP4 ISZERO ISZERO MUL OR SWAP1 SSTORE POP CALLVALUE DUP1 ISZERO PUSH2 0xBE JUMPI PUSH0 DUP1 REVERT JUMPDEST POP PUSH2 0x171 DUP1 PUSH2 0xCC PUSH0 CODECOPY PUSH0 RETURN INVALID PUSH1 0x80 PUSH1 0x40 MSTORE CALLVALUE DUP1 ISZERO PUSH2 0xF JUMPI PUSH0 DUP1 REVERT JUMPDEST POP PUSH1 0x4 CALLDATASIZE LT PUSH2 0x29 JUMPI PUSH0 CALLDATALOAD PUSH1 0xE0 SHR DUP1 PUSH4 0xAAE103AD EQ PUSH2 0x2D JUMPI JUMPDEST PUSH0 DUP1 REVERT JUMPDEST PUSH2 0x35 PUSH2 0x50 JUMP JUMPDEST PUSH1 0x40 MLOAD PUSH2 0x47 SWAP7 SWAP6 SWAP5 SWAP4 SWAP3 SWAP2 SWAP1 PUSH2 0xDC JUMP JUMPDEST PUSH1 0x40 MLOAD DUP1 SWAP2 SUB SWAP1 RETURN JUMPDEST PUSH0 DUP1 PUSH0 DUP1 PUSH0 DUP1 PUSH0 DUP1 SLOAD SWAP1 PUSH2 0x100 EXP SWAP1 DIV PUSH1 0xFF AND PUSH0 PUSH1 0x1 SWAP1 SLOAD SWAP1 PUSH2 0x100 EXP SWAP1 DIV PUSH1 0xFF AND PUSH0 PUSH1 0x2 SWAP1 SLOAD SWAP1 PUSH2 0x100 EXP SWAP1 DIV PUSH1 0xFF AND PUSH0 PUSH1 0x3 SWAP1 SLOAD SWAP1 PUSH2 0x100 EXP SWAP1 DIV PUSH1 0xFF AND PUSH0 PUSH1 0x4 SWAP1 SLOAD SWAP1 PUSH2 0x100 EXP SWAP1 DIV PUSH1 0xFF AND PUSH0 PUSH1 0x5 SWAP1 SLOAD SWAP1 PUSH2 0x100 EXP SWAP1 DIV PUSH1 0xFF AND SWAP6 POP SWAP6 POP SWAP6 POP SWAP6 POP SWAP6 POP SWAP6 POP SWAP1 SWAP2 SWAP3 SWAP4 SWAP5 SWAP6 JUMP JUMPDEST PUSH0 DUP2 ISZERO ISZERO SWAP1 POP SWAP2 SWAP1 POP JUMP JUMPDEST PUSH2 0xD6 DUP2 PUSH2 0xC2 JUMP JUMPDEST DUP3 MSTORE POP POP JUMP JUMPDEST PUSH0 PUSH1 0xC0 DUP3 ADD SWAP1 POP PUSH2 0xEF PUSH0 DUP4 ADD DUP10 PUSH2 0xCD JUMP JUMPDEST PUSH2 0xFC PUSH1 0x20 DUP4 ADD DUP9 PUSH2 0xCD JUMP JUMPDEST PUSH2 0x109 PUSH1 0x40 DUP4 ADD DUP8 PUSH2 0xCD JUMP JUMPDEST PUSH2 0x116 PUSH1 0x60 DUP4 ADD DUP7 PUSH2 0xCD JUMP JUMPDEST PUSH2 0x123 PUSH1 0x80 DUP4 ADD DUP6 PUSH2 0xCD JUMP JUMPDEST PUSH2 0x130 PUSH1 0xA0 DUP4 ADD DUP5 PUSH2 0xCD JUMP JUMPDEST SWAP8 SWAP7 POP POP POP POP POP POP POP JUMP INVALID LOG2 PUSH5 0x6970667358 0x22 SLT KECCAK256 0x1E JUMPI 0xA8 0xE4 DUP6 REVERT BLOBBASEFEE CALLDATALOAD DUP3 PUSH26 0x31C0624BFF19C6D8200D4CBA1D3C556F4611E6641AF764736F6C PUSH4 0x43000818 STOP CALLER "
				},
				"gasEstimates": {
					"creation": {
						"codeDepositCost": "73800",
						"executionCost": "146012",
						"totalCost": "219812"
					},
					"external": {
						"comparison()": "infinite"
					}
				},
				"methodIdentifiers": {
					"comparison()": "aae103ad"
				}
			},
			"storageLayout": {
				"storage": [
					{
						"astId": 6,
						"contract": "2장_리믹스로 솔리디티 시작하기/ex2_8.sol:Ex2_8",
						"label": "a",
						"offset": 0,
						"slot": "0",
						"type": "t_bool"
					},
					{
						"astId": 11,
						"contract": "2장_리믹스로 솔리디티 시작하기/ex2_8.sol:Ex2_8",
						"label": "b",
						"offset": 1,
						"slot": "0",
						"type": "t_bool"
					},
					{
						"astId": 16,
						"contract": "2장_리믹스로 솔리디티 시작하기/ex2_8.sol:Ex2_8",
						"label": "c",
						"offset": 2,
						"slot": "0",
						"type": "t_bool"
					},
					{
						"astId": 21,
						"contract": "2장_리믹스로 솔리디티 시작하기/ex2_8.sol:Ex2_8",
						"label": "d",
						"offset": 3,
						"slot": "0",
						"type": "t_bool"
					},
					{
						"astId": 26,
						"contract": "2장_리믹스로 솔리디티 시작하기/ex2_8.sol:Ex2_8",
						"label": "e",
						"offset": 4,
						"slot": "0",
						"type": "t_bool"
					},
					{
						"astId": 31,
						"contract": "2장_리믹스로 솔리디티 시작하기/ex2_8.sol:Ex2_8",
						"label": "f",
						"offset": 5,
						"slot": "0",
						"type": "t_bool"
					}
				],
				"types": {
					"t_bool": {
						"encoding": "inplace",
						"label": "bool",
						"numberOfBytes": "1"
					}
				}
			},
			"userdoc": {
				"kind": "user",
				"methods": {},
				"version": 1
			}
		}
	}
}