{
	"2장_리믹스로 솔리디티 시작하기/ex2_12.sol": {
		"Ex2_12": {
			"abi": [
				{
					"inputs": [],
					"name": "results",
					"outputs": [
						{
							"internalType": "uint256",
							"name": "",
							"type": "uint256"
						},
						{
							"internalType": "uint256",
							"name": "",
							"type": "uint256"
						},
						{
							"internalType": "bool",
							"name": "",
							"type": "bool"
						}
					],
					"stateMutability": "view",
					"type": "function"
				}
			],
			"devdoc": {
				"kind": "dev",
				"methods": {},
				"version": 1
			},
			"evm": {
				"assembly": "    /* \"2\\xec\\x9e\\xa5_\\xeb\\xa6\\xac\\xeb\\xaf\\xb9\\xec\\x8a\\xa4\\xeb\\xa1\\x9c \\xec\\x86\\x94\\xeb\\xa6\\xac\\xeb\\x94\\x94\\xed\\x8b\\xb0 \\xec\\x8b\\x9c\\xec\\x9e\\x91\\xed\\x95\\x98\\xea\\xb8\\xb0/ex2_12.sol\":89:271  contract Ex2_12{... */\n  mstore(0x40, 0x80)\n    /* \"2\\xec\\x9e\\xa5_\\xeb\\xa6\\xac\\xeb\\xaf\\xb9\\xec\\x8a\\xa4\\xeb\\xa1\\x9c \\xec\\x86\\x94\\xeb\\xa6\\xac\\xeb\\x94\\x94\\xed\\x8b\\xb0 \\xec\\x8b\\x9c\\xec\\x9e\\x91\\xed\\x95\\x98\\xea\\xb8\\xb0/ex2_12.sol\":118:123  2+3*2 */\n  0x08\n    /* \"2\\xec\\x9e\\xa5_\\xeb\\xa6\\xac\\xeb\\xaf\\xb9\\xec\\x8a\\xa4\\xeb\\xa1\\x9c \\xec\\x86\\x94\\xeb\\xa6\\xac\\xeb\\x94\\x94\\xed\\x8b\\xb0 \\xec\\x8b\\x9c\\xec\\x9e\\x91\\xed\\x95\\x98\\xea\\xb8\\xb0/ex2_12.sol\":111:123  uint a=2+3*2 */\n  0x00\n  sstore\n    /* \"2\\xec\\x9e\\xa5_\\xeb\\xa6\\xac\\xeb\\xaf\\xb9\\xec\\x8a\\xa4\\xeb\\xa1\\x9c \\xec\\x86\\x94\\xeb\\xa6\\xac\\xeb\\x94\\x94\\xed\\x8b\\xb0 \\xec\\x8b\\x9c\\xec\\x9e\\x91\\xed\\x95\\x98\\xea\\xb8\\xb0/ex2_12.sol\":137:144  (2+3)*2 */\n  0x0a\n    /* \"2\\xec\\x9e\\xa5_\\xeb\\xa6\\xac\\xeb\\xaf\\xb9\\xec\\x8a\\xa4\\xeb\\xa1\\x9c \\xec\\x86\\x94\\xeb\\xa6\\xac\\xeb\\x94\\x94\\xed\\x8b\\xb0 \\xec\\x8b\\x9c\\xec\\x9e\\x91\\xed\\x95\\x98\\xea\\xb8\\xb0/ex2_12.sol\":130:144  uint b=(2+3)*2 */\n  0x01\n  sstore\n    /* \"2\\xec\\x9e\\xa5_\\xeb\\xa6\\xac\\xeb\\xaf\\xb9\\xec\\x8a\\xa4\\xeb\\xa1\\x9c \\xec\\x86\\x94\\xeb\\xa6\\xac\\xeb\\x94\\x94\\xed\\x8b\\xb0 \\xec\\x8b\\x9c\\xec\\x9e\\x91\\xed\\x95\\x98\\xea\\xb8\\xb0/ex2_12.sol\":165:170  false */\n  0x00\n    /* \"2\\xec\\x9e\\xa5_\\xeb\\xa6\\xac\\xeb\\xaf\\xb9\\xec\\x8a\\xa4\\xeb\\xa1\\x9c \\xec\\x86\\x94\\xeb\\xa6\\xac\\xeb\\x94\\x94\\xed\\x8b\\xb0 \\xec\\x8b\\x9c\\xec\\x9e\\x91\\xed\\x95\\x98\\xea\\xb8\\xb0/ex2_12.sol\":158:170  !true==false */\n  iszero\n  iszero\n    /* \"2\\xec\\x9e\\xa5_\\xeb\\xa6\\xac\\xeb\\xaf\\xb9\\xec\\x8a\\xa4\\xeb\\xa1\\x9c \\xec\\x86\\x94\\xeb\\xa6\\xac\\xeb\\x94\\x94\\xed\\x8b\\xb0 \\xec\\x8b\\x9c\\xec\\x9e\\x91\\xed\\x95\\x98\\xea\\xb8\\xb0/ex2_12.sol\":159:163  true */\n  0x01\n    /* \"2\\xec\\x9e\\xa5_\\xeb\\xa6\\xac\\xeb\\xaf\\xb9\\xec\\x8a\\xa4\\xeb\\xa1\\x9c \\xec\\x86\\x94\\xeb\\xa6\\xac\\xeb\\x94\\x94\\xed\\x8b\\xb0 \\xec\\x8b\\x9c\\xec\\x9e\\x91\\xed\\x95\\x98\\xea\\xb8\\xb0/ex2_12.sol\":158:163  !true */\n  iszero\n    /* \"2\\xec\\x9e\\xa5_\\xeb\\xa6\\xac\\xeb\\xaf\\xb9\\xec\\x8a\\xa4\\xeb\\xa1\\x9c \\xec\\x86\\x94\\xeb\\xa6\\xac\\xeb\\x94\\x94\\xed\\x8b\\xb0 \\xec\\x8b\\x9c\\xec\\x9e\\x91\\xed\\x95\\x98\\xea\\xb8\\xb0/ex2_12.sol\":158:170  !true==false */\n  iszero\n  iszero\n  eq\n    /* \"2\\xec\\x9e\\xa5_\\xeb\\xa6\\xac\\xeb\\xaf\\xb9\\xec\\x8a\\xa4\\xeb\\xa1\\x9c \\xec\\x86\\x94\\xeb\\xa6\\xac\\xeb\\x94\\x94\\xed\\x8b\\xb0 \\xec\\x8b\\x9c\\xec\\x9e\\x91\\xed\\x95\\x98\\xea\\xb8\\xb0/ex2_12.sol\":151:170  bool c=!true==false */\n  0x02\n  exp(0x0100, 0x00)\n  dup2\n  sload\n  dup2\n  0xff\n  mul\n  not\n  and\n  swap1\n  dup4\n  iszero\n  iszero\n  mul\n  or\n  swap1\n  sstore\n  pop\n    /* \"2\\xec\\x9e\\xa5_\\xeb\\xa6\\xac\\xeb\\xaf\\xb9\\xec\\x8a\\xa4\\xeb\\xa1\\x9c \\xec\\x86\\x94\\xeb\\xa6\\xac\\xeb\\x94\\x94\\xed\\x8b\\xb0 \\xec\\x8b\\x9c\\xec\\x9e\\x91\\xed\\x95\\x98\\xea\\xb8\\xb0/ex2_12.sol\":89:271  contract Ex2_12{... */\n  callvalue\n  dup1\n  iszero\n  tag_1\n  jumpi\n  0x00\n  dup1\n  revert\ntag_1:\n  pop\n  dataSize(sub_0)\n  dup1\n  dataOffset(sub_0)\n  0x00\n  codecopy\n  0x00\n  return\nstop\n\nsub_0: assembly {\n        /* \"2\\xec\\x9e\\xa5_\\xeb\\xa6\\xac\\xeb\\xaf\\xb9\\xec\\x8a\\xa4\\xeb\\xa1\\x9c \\xec\\x86\\x94\\xeb\\xa6\\xac\\xeb\\x94\\x94\\xed\\x8b\\xb0 \\xec\\x8b\\x9c\\xec\\x9e\\x91\\xed\\x95\\x98\\xea\\xb8\\xb0/ex2_12.sol\":89:271  contract Ex2_12{... */\n      mstore(0x40, 0x80)\n      callvalue\n      dup1\n      iszero\n      tag_1\n      jumpi\n      0x00\n      dup1\n      revert\n    tag_1:\n      pop\n      jumpi(tag_2, lt(calldatasize, 0x04))\n      shr(0xe0, calldataload(0x00))\n      dup1\n      0xa48bdb7c\n      eq\n      tag_3\n      jumpi\n    tag_2:\n      0x00\n      dup1\n      revert\n        /* \"2\\xec\\x9e\\xa5_\\xeb\\xa6\\xac\\xeb\\xaf\\xb9\\xec\\x8a\\xa4\\xeb\\xa1\\x9c \\xec\\x86\\x94\\xeb\\xa6\\xac\\xeb\\x94\\x94\\xed\\x8b\\xb0 \\xec\\x8b\\x9c\\xec\\x9e\\x91\\xed\\x95\\x98\\xea\\xb8\\xb0/ex2_12.sol\":179:268  function results() public view returns(uint, uint, bool){... */\n    tag_3:\n      tag_4\n      tag_5\n      jump\t// in\n    tag_4:\n      mload(0x40)\n      tag_6\n      swap4\n      swap3\n      swap2\n      swap1\n      tag_7\n      jump\t// in\n    tag_6:\n      mload(0x40)\n      dup1\n      swap2\n      sub\n      swap1\n      return\n    tag_5:\n        /* \"2\\xec\\x9e\\xa5_\\xeb\\xa6\\xac\\xeb\\xaf\\xb9\\xec\\x8a\\xa4\\xeb\\xa1\\x9c \\xec\\x86\\x94\\xeb\\xa6\\xac\\xeb\\x94\\x94\\xed\\x8b\\xb0 \\xec\\x8b\\x9c\\xec\\x9e\\x91\\xed\\x95\\x98\\xea\\xb8\\xb0/ex2_12.sol\":218:222  uint */\n      0x00\n        /* \"2\\xec\\x9e\\xa5_\\xeb\\xa6\\xac\\xeb\\xaf\\xb9\\xec\\x8a\\xa4\\xeb\\xa1\\x9c \\xec\\x86\\x94\\xeb\\xa6\\xac\\xeb\\x94\\x94\\xed\\x8b\\xb0 \\xec\\x8b\\x9c\\xec\\x9e\\x91\\xed\\x95\\x98\\xea\\xb8\\xb0/ex2_12.sol\":224:228  uint */\n      dup1\n        /* \"2\\xec\\x9e\\xa5_\\xeb\\xa6\\xac\\xeb\\xaf\\xb9\\xec\\x8a\\xa4\\xeb\\xa1\\x9c \\xec\\x86\\x94\\xeb\\xa6\\xac\\xeb\\x94\\x94\\xed\\x8b\\xb0 \\xec\\x8b\\x9c\\xec\\x9e\\x91\\xed\\x95\\x98\\xea\\xb8\\xb0/ex2_12.sol\":230:234  bool */\n      0x00\n        /* \"2\\xec\\x9e\\xa5_\\xeb\\xa6\\xac\\xeb\\xaf\\xb9\\xec\\x8a\\xa4\\xeb\\xa1\\x9c \\xec\\x86\\x94\\xeb\\xa6\\xac\\xeb\\x94\\x94\\xed\\x8b\\xb0 \\xec\\x8b\\x9c\\xec\\x9e\\x91\\xed\\x95\\x98\\xea\\xb8\\xb0/ex2_12.sol\":254:255  a */\n      dup1\n      sload\n        /* \"2\\xec\\x9e\\xa5_\\xeb\\xa6\\xac\\xeb\\xaf\\xb9\\xec\\x8a\\xa4\\xeb\\xa1\\x9c \\xec\\x86\\x94\\xeb\\xa6\\xac\\xeb\\x94\\x94\\xed\\x8b\\xb0 \\xec\\x8b\\x9c\\xec\\x9e\\x91\\xed\\x95\\x98\\xea\\xb8\\xb0/ex2_12.sol\":256:257  b */\n      sload(0x01)\n        /* \"2\\xec\\x9e\\xa5_\\xeb\\xa6\\xac\\xeb\\xaf\\xb9\\xec\\x8a\\xa4\\xeb\\xa1\\x9c \\xec\\x86\\x94\\xeb\\xa6\\xac\\xeb\\x94\\x94\\xed\\x8b\\xb0 \\xec\\x8b\\x9c\\xec\\x9e\\x91\\xed\\x95\\x98\\xea\\xb8\\xb0/ex2_12.sol\":258:259  c */\n      0x02\n      0x00\n      swap1\n      sload\n      swap1\n      0x0100\n      exp\n      swap1\n      div\n      0xff\n      and\n        /* \"2\\xec\\x9e\\xa5_\\xeb\\xa6\\xac\\xeb\\xaf\\xb9\\xec\\x8a\\xa4\\xeb\\xa1\\x9c \\xec\\x86\\x94\\xeb\\xa6\\xac\\xeb\\x94\\x94\\xed\\x8b\\xb0 \\xec\\x8b\\x9c\\xec\\x9e\\x91\\xed\\x95\\x98\\xea\\xb8\\xb0/ex2_12.sol\":246:260  return (a,b,c) */\n      swap3\n      pop\n      swap3\n      pop\n      swap3\n      pop\n        /* \"2\\xec\\x9e\\xa5_\\xeb\\xa6\\xac\\xeb\\xaf\\xb9\\xec\\x8a\\xa4\\xeb\\xa1\\x9c \\xec\\x86\\x94\\xeb\\xa6\\xac\\xeb\\x94\\x94\\xed\\x8b\\xb0 \\xec\\x8b\\x9c\\xec\\x9e\\x91\\xed\\x95\\x98\\xea\\xb8\\xb0/ex2_12.sol\":179:268  function results() public view returns(uint, uint, bool){... */\n      swap1\n      swap2\n      swap3\n      jump\t// out\n        /* \"#utility.yul\":7:84   */\n    tag_9:\n        /* \"#utility.yul\":44:51   */\n      0x00\n        /* \"#utility.yul\":73:78   */\n      dup2\n        /* \"#utility.yul\":62:78   */\n      swap1\n      pop\n        /* \"#utility.yul\":7:84   */\n      swap2\n      swap1\n      pop\n      jump\t// out\n        /* \"#utility.yul\":90:208   */\n    tag_10:\n        /* \"#utility.yul\":177:201   */\n      tag_16\n        /* \"#utility.yul\":195:200   */\n      dup2\n        /* \"#utility.yul\":177:201   */\n      tag_9\n      jump\t// in\n    tag_16:\n        /* \"#utility.yul\":172:175   */\n      dup3\n        /* \"#utility.yul\":165:202   */\n      mstore\n        /* \"#utility.yul\":90:208   */\n      pop\n      pop\n      jump\t// out\n        /* \"#utility.yul\":214:304   */\n    tag_11:\n        /* \"#utility.yul\":248:255   */\n      0x00\n        /* \"#utility.yul\":291:296   */\n      dup2\n        /* \"#utility.yul\":284:297   */\n      iszero\n        /* \"#utility.yul\":277:298   */\n      iszero\n        /* \"#utility.yul\":266:298   */\n      swap1\n      pop\n        /* \"#utility.yul\":214:304   */\n      swap2\n      swap1\n      pop\n      jump\t// out\n        /* \"#utility.yul\":310:419   */\n    tag_12:\n        /* \"#utility.yul\":391:412   */\n      tag_19\n        /* \"#utility.yul\":406:411   */\n      dup2\n        /* \"#utility.yul\":391:412   */\n      tag_11\n      jump\t// in\n    tag_19:\n        /* \"#utility.yul\":386:389   */\n      dup3\n        /* \"#utility.yul\":379:413   */\n      mstore\n        /* \"#utility.yul\":310:419   */\n      pop\n      pop\n      jump\t// out\n        /* \"#utility.yul\":425:855   */\n    tag_7:\n        /* \"#utility.yul\":568:572   */\n      0x00\n        /* \"#utility.yul\":606:608   */\n      0x60\n        /* \"#utility.yul\":595:604   */\n      dup3\n        /* \"#utility.yul\":591:609   */\n      add\n        /* \"#utility.yul\":583:609   */\n      swap1\n      pop\n        /* \"#utility.yul\":619:690   */\n      tag_21\n        /* \"#utility.yul\":687:688   */\n      0x00\n        /* \"#utility.yul\":676:685   */\n      dup4\n        /* \"#utility.yul\":672:689   */\n      add\n        /* \"#utility.yul\":663:669   */\n      dup7\n        /* \"#utility.yul\":619:690   */\n      tag_10\n      jump\t// in\n    tag_21:\n        /* \"#utility.yul\":700:772   */\n      tag_22\n        /* \"#utility.yul\":768:770   */\n      0x20\n        /* \"#utility.yul\":757:766   */\n      dup4\n        /* \"#utility.yul\":753:771   */\n      add\n        /* \"#utility.yul\":744:750   */\n      dup6\n        /* \"#utility.yul\":700:772   */\n      tag_10\n      jump\t// in\n    tag_22:\n        /* \"#utility.yul\":782:848   */\n      tag_23\n        /* \"#utility.yul\":844:846   */\n      0x40\n        /* \"#utility.yul\":833:842   */\n      dup4\n        /* \"#utility.yul\":829:847   */\n      add\n        /* \"#utility.yul\":820:826   */\n      dup5\n        /* \"#utility.yul\":782:848   */\n      tag_12\n      jump\t// in\n    tag_23:\n        /* \"#utility.yul\":425:855   */\n      swap5\n      swap4\n      pop\n      pop\n      pop\n      pop\n      jump\t// out\n\n    auxdata: 0xa264697066735822122099bba10808ed2e6f11f6a6fc2218a2e87c12800abffcfffc9fb858d50d690feb64736f6c63430008180033\n}\n",
				"bytecode": {
					"linkReferences": {},
					"object": "608060405260085f55600a6001555f151560011515151460025f6101000a81548160ff021916908315150217905550348015610039575f80fd5b5060fb806100465f395ff3fe6080604052348015600e575f80fd5b50600436106026575f3560e01c8063a48bdb7c14602a575b5f80fd5b60306046565b604051603d939291906096565b60405180910390f35b5f805f805460015460025f9054906101000a900460ff16925092509250909192565b5f819050919050565b6078816068565b82525050565b5f8115159050919050565b609081607e565b82525050565b5f60608201905060a75f8301866071565b60b260208301856071565b60bd60408301846089565b94935050505056fea264697066735822122099bba10808ed2e6f11f6a6fc2218a2e87c12800abffcfffc9fb858d50d690feb64736f6c63430008180033",
					"opcodes": "PUSH1 0x80 PUSH1 0x40 MSTORE PUSH1 0x8 PUSH0 SSTORE PUSH1 0xA PUSH1 0x1 SSTORE PUSH0 ISZERO ISZERO PUSH1 0x1 ISZERO ISZERO ISZERO EQ PUSH1 0x2 PUSH0 PUSH2 0x100 EXP DUP2 SLOAD DUP2 PUSH1 0xFF MUL NOT AND SWAP1 DUP4 ISZERO ISZERO MUL OR SWAP1 SSTORE POP CALLVALUE DUP1 ISZERO PUSH2 0x39 JUMPI PUSH0 DUP1 REVERT JUMPDEST POP PUSH1 0xFB DUP1 PUSH2 0x46 PUSH0 CODECOPY PUSH0 RETURN INVALID PUSH1 0x80 PUSH1 0x40 MSTORE CALLVALUE DUP1 ISZERO PUSH1 0xE JUMPI PUSH0 DUP1 REVERT JUMPDEST POP PUSH1 0x4 CALLDATASIZE LT PUSH1 0x26 JUMPI PUSH0 CALLDATALOAD PUSH1 0xE0 SHR DUP1 PUSH4 0xA48BDB7C EQ PUSH1 0x2A JUMPI JUMPDEST PUSH0 DUP1 REVERT JUMPDEST PUSH1 0x30 PUSH1 0x46 JUMP JUMPDEST PUSH1 0x40 MLOAD PUSH1 0x3D SWAP4 SWAP3 SWAP2 SWAP1 PUSH1 0x96 JUMP JUMPDEST PUSH1 0x40 MLOAD DUP1 SWAP2 SUB SWAP1 RETURN JUMPDEST PUSH0 DUP1 PUSH0 DUP1 SLOAD PUSH1 0x1 SLOAD PUSH1 0x2 PUSH0 SWAP1 SLOAD SWAP1 PUSH2 0x100 EXP SWAP1 DIV PUSH1 0xFF AND SWAP3 POP SWAP3 POP SWAP3 POP SWAP1 SWAP2 SWAP3 JUMP JUMPDEST PUSH0 DUP2 SWAP1 POP SWAP2 SWAP1 POP JUMP JUMPDEST PUSH1 0x78 DUP2 PUSH1 0x68 JUMP JUMPDEST DUP3 MSTORE POP POP JUMP JUMPDEST PUSH0 DUP2 ISZERO ISZERO SWAP1 POP SWAP2 SWAP1 POP JUMP JUMPDEST PUSH1 0x90 DUP2 PUSH1 0x7E JUMP JUMPDEST DUP3 MSTORE POP POP JUMP JUMPDEST PUSH0 PUSH1 0x60 DUP3 ADD SWAP1 POP PUSH1 0xA7 PUSH0 DUP4 ADD DUP7 PUSH1 0x71 JUMP JUMPDEST PUSH1 0xB2 PUSH1 0x20 DUP4 ADD DUP6 PUSH1 0x71 JUMP JUMPDEST PUSH1 0xBD PUSH1 0x40 DUP4 ADD DUP5 PUSH1 0x89 JUMP JUMPDEST SWAP5 SWAP4 POP POP POP POP JUMP INVALID LOG2 PUSH5 0x6970667358 0x22 SLT KECCAK256 SWAP10 0xBB LOG1 ADDMOD ADDMOD 0xED 0x2E PUSH16 0x11F6A6FC2218A2E87C12800ABFFCFFFC SWAP16 0xB8 PC 0xD5 0xD PUSH10 0xFEB64736F6C63430008 XOR STOP CALLER "
				},
				"gasEstimates": {
					"creation": {
						"codeDepositCost": "50200",
						"executionCost": "68594",
						"totalCost": "118794"
					},
					"external": {
						"results()": "infinite"
					}
				},
				"methodIdentifiers": {
					"results()": "a48bdb7c"
				}
			},
			"storageLayout": {
				"storage": [
					{
						"astId": 8,
						"contract": "2장_리믹스로 솔리디티 시작하기/ex2_12.sol:Ex2_12",
						"label": "a",
						"offset": 0,
						"slot": "0",
						"type": "t_uint256"
					},
					{
						"astId": 16,
						"contract": "2장_리믹스로 솔리디티 시작하기/ex2_12.sol:Ex2_12",
						"label": "b",
						"offset": 0,
						"slot": "1",
						"type": "t_uint256"
					},
					{
						"astId": 22,
						"contract": "2장_리믹스로 솔리디티 시작하기/ex2_12.sol:Ex2_12",
						"label": "c",
						"offset": 0,
						"slot": "2",
						"type": "t_bool"
					}
				],
				"types": {
					"t_bool": {
						"encoding": "inplace",
						"label": "bool",
						"numberOfBytes": "1"
					},
					"t_uint256": {
						"encoding": "inplace",
						"label": "uint256",
						"numberOfBytes": "32"
					}
				}
			},
			"userdoc": {
				"kind": "user",
				"methods": {},
				"version": 1
			}
		}
	}
}